S02000004652444D5F4B4530325F556172745F64656D6F5F6672646D2E7372656383
S1131000F80B0020C1100000F71D0000F71D0000C0
S1131010F71D0000F71D0000F71D0000F71D00007C
S1131020F71D0000F71D0000F71D0000F71D00006C
S1131030F71D0000F71D0000F71D0000F71D00005C
S1131040F71D0000F71D0000F71D0000F71D00004C
S1131050F71D0000F71D0000F71D0000F71D00003C
S1131060F71D0000F71D0000F71D0000F71D00002C
S1131070A7170000B5170000F71D0000F71D0000BA
S1131080F71D0000F71D0000F71D0000F71D00000C
S1131090F71D0000F71D0000F71D0000F71D0000FC
S11310A0F71D0000F71D0000F71D0000F71D0000EC
S11310B0F71D0000F71D0000F71D0000F71D0000DC
S11310C00020002100220023002400250026002700
S11310D062B600F0BFFEFEE710B50C0011680129EE
S11310E002D0022904D009E0C0B25168884705E063
S11310F0916808709068401C9060FFE72068401C6D
S1131100206010BDF0B51C000026050000202870EA
S11311106D1C002A1CD00F68002F09D130202870C4
S1131120761C3000F0BD30320F002A706D1C761C26
S1131130002FF6D03800210000F02CFA010008003E
S113114060433A1A002AEED5D04302003132EBE76D
S11311500F68002F08D130202870761CE1E7373162
S1131160070029706D1C761C002FDAD0380021008E
S113117000F024FA01006143791A0A29EFD23031D0
S1131180EEE7F8B50F0015001E00040005E032007C
S113119029003020FFF7A0FF641CBC42F7DBF1BD3F
S11311A0F8B50F0015001E00040005E03200290008
S11311B02020FFF791FF641CBC42F7DBF1BDF1B5C1
S11311C090B01700002000900E0005E0109A6946C8
S11311D01800FFF781FF761C3378002B00D1C4E19F
S11311E0252B12D00A2B05D0109A69461800FFF758
S11311F073FF09E0109A69460D20FFF76DFF109AFE
S113120069460A20FFF768FFE5E70025002102E0B0
S113121028000125054300291FD1761C3078202899
S11312200CD0232812D02B2804D02D28F0D030281D
S113123008D00FE0280002250543ECE72800042528
S11312400543E8E7280008250543E4E728001025BE
S11312500543E0E7761E0121DDE70020029000212E
S113126005E002980A225043C01830380290002941
S113127008D1761C3378180030380928F1D9761E45
S11312800121F4E7761C30782E280BD10021FFE7EA
S1131290002908D1761C307830380928F8D9761E10
S11312A00121F5E7761E761C30784C2806D0682894
S11312B002D06C2801D002E002E001E000E0761EDA
S11312C0761C33781800582871D0622800D1CAE0FF
S11312D0632800D113E1642813D0692811D06E2843
S11312E000D13DE16F2800D1B2E0702800D1C5E003
S11312F0732800D10BE1752800D1CAE0782856D0B4
S113130064E7386806903F1D0A23012206A907A84E
S1131310FFF7F8FE040007A80019059006980028B6
S113132003D52D200190641C0DE0A80703D52B20C4
S11313300190641C07E0680703D520200190641C19
S113134001E00020019000200490280711D50198A5
S1131350002804D0109A69460198FFF7BDFE0120C9
S11313600490109B6A4602992000FFF70AFF029C32
S113137011E0E8070FD4109B6A4602992000FFF79A
S11313800FFF0198002804D0109A69460198FFF7CE
S1131390A3FE012004900498002807D10198002896
S11313A004D0109A69460198FFF796FE9AE03868CF
S11313B003903F1D1023002203A907A8FFF7A2FEF4
S11313C0040007A80019059000200490280715D5EB
S11313D0E8060BD5109A69463020FFF77DFE109A77
S11313E069467820FFF778FE01200490109B6A4636
S11313F002992000FFF7C5FE029C18E0E80716D406
S1131400E80600D5A41C109B6A4602992000FFF749
S1131410C7FEE8060BD5109A69463020FFF75CFE3C
S1131420109A69467820FFF757FE01200490E806D9
S11314300DD5049800280AD1109A69463020FFF788
S11314404BFE109A69467820FFF746FEA41C49E03B
S1131450386803903F1D0823002203A907A8FFF75B
S113146051FE04001FE0386803903F1D0223002250
S113147003A907A8FFF746FE040014E038680390A8
S11314803F1D1023002203A907A8FFF73BFE040019
S113149009E0386803903F1D0A23002203A907A826
S11314A0FFF730FE040007A800190590280707D5A8
S11314B0109B6A4602992000FFF763FE029C11E02C
S11314C0E8070FD4109B6A4602992000FFF768FED4
S11314D008E0109A694605980078FFF7FDFD059825
S11314E0401E0590059800780028F2D1E80705D53C
S11314F0109B6A4602992000FFF752FE6BE638689B
S1131500C0B23F1D109A6946FFF7E6FD63E63868EE
S113151001903F1D0198002821D0019800F065F842
S11315200400E8070FD4109B6A4602992000FFF7D5
S113153037FE08E0109A694601980078FFF7CCFD61
S11315400198401C0190019800780028F2D1E80726
S113155005D5109B6A4602992000FFF721FE3AE662
S113156038683F1D0099016035E6009811B0F0BD60
S11315700EB400B584B0012100910549019105AA7A
S113158001006846FFF71BFE049908B008470000F5
S1131590411E0000CA0F00D0494203105A400DD02A
S11315A004B500D3404200F009F8009AD20701D3F1
S11315B04942124200D5404204BD0000094210D005
S11315C088420BD30122002300185B418B4200D3D5
S11315D05B1A5241F8D31900100070470100002033
S11315E0704708B500F010F808BD00B501000020F0
S11315F0002902D1002006E0401C0A001100491C09
S11316001278002AF8D100BD704738B401210022B5
S11316100368001D002B0BD00468001D0C4202D08F
S11316204D466D1E64192260241D1B1FF0D0FAE77D
S113163032BC704780B5E12252026E49604800F026
S113164001F801BD10B504003848844207D16A4846
S1131650006880235B030343674803601CE0584829
S1131660844207D16448006880239B030343624893
S1131670036011E05E48844207D15F48006880231C
S1131680DB0303435C48036006E05B480068802397
S11316905B03034358480360E078F3230340E3709B
S11316A00020A070FA2080004143080000111100BE
S11316B0491040181100FFF76DFF2278E021114016
S11316C0020092B2120AD206D20E0A43227060704D
S11316D0E0780C210143E17010BD00B502791206D7
S11316E0FCD5C17100BD10B50400E078F3210140C0
S11316F0E1700E4884420DD10C2000F08CF80F20CC
S1131700A071E078A0210143E170E0780C2101434D
S1131710E17010BD2A48844203D10D2000F07BF80B
S1131720EDE7F6E7364908607047000000A0064080
S1131730F8B504000F002579E679280732D1FFB205
S1131740380000F087F828061DD52E4800782E4969
S1131750085C00280AD02B4800782B49085CE0710B
S113176028480078401C2749087005E026480021D5
S1131770017024480021017020480068002802D02C
S11317801E4800688047A80608D51D480068002840
S113179004D03000C0B21A4909688847FFB2380043
S11317A000F039F8F1BD80B50C211848FFF7C0FFEF
S11317B001BD000080B50D210148FFF7B9FF01BD4F
S11317C000B0064000B500210278002A0BD0C9B24F
S11317D00D4A03785354491C401CC9B21329F3DB46
S11317E009480021C17407480021017000BD0000B0
S11317F000C00640204E00000C8004401000002071
S113180014000020300000201800002000A0064032
S113181018490860704770B50400212C03DB164892
S1131820FFF7A6FE15E015480568012620002021D3
S1131830FFF7B0FE8E402E4310480660104805683E
S1131840012620002021FFF7A5FE8E402E430C48E0
S1131850066070BD10B5212803DB0A48FFF788FE37
S113186006E001242021FFF795FE8C400648046021
S113187010BD000008ED00E0901C000080E200E0D4
S113188000E100E0541C000080E100E080B5554810
S113189054210170544801210170544800784006D5
S11318A0FBD5534800210180524800210180524851
S11318B00C21016051480068402101434F480160F8
S11318C04D4800688021090301434B48016000F042
S11318D0F7F84B480068E021C90301434848016018
S11318E0FFF7A8FE00F001F801BD10B582B0002496
S11318F04448FFF73DFE444801684448FFF738FE7A
S113190041480068000C0007000F00903E48006842
S1131910000D03071B0F3C480068000E0207120F5E
S1131920394800680100090F3948FFF721FE36489D
S11319300068000607D534480068800703D50124F1
S11319403448FFF715FE30480068000607D42E48D7
S11319500068800703D501242F48FFF709FE2A48B1
S11319600068800603D501242C48FFF701FE2648B1
S11319700068400603D501242948FFF7F9FD2248F1
S11319800068400703D501242648FFF7F1FD1E48EF
S11319900068800403D501242348FFF7E9FD1A48B1
S11319A00068000503D501242048FFF7E1FD16482F
S11319B00068400503D501241D48FFF7D9FD1248EE
S11319C00068800503D501241A48FFF7D1FDE4B26D
S11319D0012C02D01848FFF7CBFD1848FFF7C8FDCB
S11319E013BD000002400640034006400440064088
S11319F02C0000202E0000200480044008800440B5
S1131A000C800440881D000000800440681E000013
S1131A10BC1B0000181E0000981E0000781E000069
S1131A20A41E0000A41D0000F01C0000481D0000BE
S1131A30681D00002C1E0000B01E0000BC1D00002C
S1131A4000B51B48B421017000BF00BF18480078DE
S1131A50C007FBD517480078C72101401820084368
S1131A601449087013480078FB21014011480170A3
S1131A7000BF00BF11480078C006FBD40F480078AF
S1131A804006FBD50C480078C0B24009012807D0B5
S1131A9009480078C006C00E2021014306480170A1
S1131AA006480078802101430448017000BD00000D
S1131AB000500640004006400140064004400640F5
S1131AC080B5FFF7BDFF01BD10B51D481D49884213
S1131AD00CD0002008E004214143194A0423434365
S1131AE0184CE3585350401C3028F4D31448FFF7E3
S1131AF08FFE1549154A1648801A03E013780B70B7
S1131B00521C491C0300581E002BF7D111491248DE
S1131B10401A02E000220A70491C0200501E002AEA
S1131B20F8D10E490E4A0F48801A03E013780B705F
S1131B30521C491C0300581E002BF7D110BD00BFD6
S1131B4000FCFF1F00100000000000000000000067
S1131B5000000000100000203400002034000020A9
S1131B60C0100000C01000000D4908700D4880210D
S1131B7089040160704780B50B480068802189049E
S1131B800143094801600948FFF7F2FC0848FFF7E0
S1131B90C9FD0848FFF7A7FD0748FFF713FEFEE756
S1131BA007B006404CF00F4054F00F40141D0000E5
S1131BB0691B000000B00640881E00000A20466130
S1131BC06D696C6C79204944203D20307825782C4F
S1131BD0205375622D66616D696C79204944203DFE
S1131BE020307825782C205265766973696F6E20D1
S1131BF04944203D20307825782C2050696E2049B6
S1131C0044203D2030782578200A000009480A49FC
S1131C1001800848094901800948002101700948E8
S1131C2009490180094800210180094820210170E7
S1131C307047000002200540C5200000D92800009C
S1131C400120054004200540FFFF00000620054058
S1131C50002005400A4552522120496E76616C6984
S1131C6064204952512076616C75652070617373EC
S1131C70656420746F2064697361626C65206972A5
S1131C80712066756E6374696F6E210A000000002E
S1131C900A4552522120496E76616C69642049528A
S1131CA0512076616C75652070617373656420746E
S1131CB06F20656E61626C65206972712066756E55
S1131CC06374696F6E210A0010B5074979441831AD
S1131CD0064C7C44163404E0081D0A6889188847B9
S1131CE00100A142F8D110BD500000005C000000CA
S1131CF02053746F70204D6F64652041636B6E6F69
S1131D00776C65646765204572726F7220526573E3
S1131D1065740A000A52756E6E696E672074686590
S1131D2020556172745F64656D6F2070726F6A65AF
S1131D3063742E0A00000000D3F8FFFF24000000A3
S1131D401000002000000000204D444D2D41502083
S1131D5053797374656D205265736574205265718F
S1131D60756573740A00000020536F66747761729E
S1131D70652F53595352455345545245512052658A
S1131D807365740A000000000A0A2D2D53797374D8
S1131D90656D204C6F6720424547494E532D2D0AEF
S1131DA00A000000204C6F7373206F6620436C6F31
S1131DB0636B2052657365740A0000000A2D2D536D
S1131DC0797374656D204C6F6720454E44532D2DF7
S1131DD00A0A000000F009F8002801D0FFF774FF98
S1131DE00020FFF7C8FE00F002F80120704780B51C
S1131DF000F002F801BD70470746384600F002F8CB
S1131E00FBE7000080B5C046C046024A1100182016
S1131E10ABBEFBE72600020020506F776572204FAF
S1131E206E2052657365740A0000000020436F72CF
S1131E3065206C6F636B75702052657365740A005E
S1131E4080B50100C9B20248FFF747FC01BD00009C
S1131E5000B0064080B5FFF7D9FEFFF735FEFFF767
S1131E6015FDFFF788FEFEE70A205352533D3078F4
S1131E70253032780A0000002057444F472052652D
S1131E807365740A000000000A68656C6C6F207743
S1131E906F726C640A000000204C56442052657333
S1131EA065740A002050696E2052657365740A00D7
S1131EB05357442052657365740A0000C046C046F7
S10B1EC0C046C046FFF786FF8F
S9031EBD21
