S01E00004652444D5F4B4C32355A44656D6F5F66726565646F6D2E7372656360
S1131000F82F0020C1100000D5400000D54000009A
S1131010D5400000D5400000D5400000D540000078
S1131020D5400000D5400000D5400000D540000068
S1131030D5400000D5400000D5400000D540000058
S1131040D5400000D5400000D5400000D540000048
S1131050D5400000D5400000D5400000D540000038
S1131060D5400000D5400000D5400000D540000028
S1131070D5400000D5400000D5400000D540000018
S1131080D5400000D5400000D5400000D540000008
S1131090D5400000D540000047290000D54000009D
S11310A075170000D5400000CD2C0000D54000008D
S11310B0D5400000D5400000D5400000D5400000D8
S11310C00020002100220023002400250026002700
S11310D062B602F04FF8FEE780B57A487A490968AB
S11310E001607A4800210170002000F0B1FB8F48B4
S11310F08F490160182000F00AFC8E480078802196
S113110001438C4801708B4800780006FBD48A4860
S1131110000A8A4908708848000C89490870864882
S1131120000E88490870664800780221014364482B
S11311300170854800780121014383480170834888
S113114000788006800E814908707A480078402132
S1131150014378480170BC48007801210143BA4832
S1131160017001BD30B500250300C0B2002800D0D5
S11311708000801CC0B204244443534D2C59744D48
S11311802D78ED0718D5734D296073490A704D49C0
S11311900968C97909024B4D2D68AD794D19D2B250
S11311A0ADB292B2954207D2C0B2022804D14549E9
S11311B009688979684A1170C0B26849095C664A4D
S11311C01278914211D2C0B26449095C624A127821
S11311D0C0B2624D2D5C521B5F4D2A705C4A12787E
S11311E0FE2515405A4A15700AE05B4909785A4AA7
S11311F000251570564A127801251543544A157076
S1131200C0B2082242434C4DAA18C9B2518009E029
S1131210504A1268127822704E4A1268521C4D4D80
S11312202A60641C0A00511ED2B2002AF0D1A449DB
S1131230097801229A4011420DD0C0B208214843D6
S11312403D4988220A549E480078012199408843E8
S11312509B4908700CE0C0B2082148433649C822B3
S11312600A54974800780121994001439448017039
S113127030BD10B5401CC0B204224243124B9A58F0
S1131280C0B2082358432C4B18184388180003E0B5
S113129014780C70521C491C1C00631EE4B2002C10
S11312A0F6D1C0B210BDC0B2800008214843224923
S11312B00818408880B2000AC0B280B270470000AB
S11312C080200740E4F9FF1F1CF5FF1F9FFAFF1F52
S11312D09E48052101709E48052101709D48092101
S11312E001709D48012101709C48012101709C48B6
S11312F0012101709B48002101700F4800214186A3
S11313000D4899494163994800210170984800218A
S11313100180094897494165B04880210170B0486F
S1131320FF2101800448C44941667047CCF0FF1F87
S1131330751700000C21074000F6FF1F9C20074092
S1131340B0200740B4200740842007400021074014
S113135098FAFF1FE0F9FF1F99FAFF1FC04200002F
S113136080B5AD4800684078002860D0052806D0D4
S113137006280DD0082854D0092835D060E0002272
S113138000210020FFF7EEFEB1480321017059E06F
S1131390A1480068C078012804D022D303280DD0C6
S11313A006D31EE01222AB490020FFF7DBFE1AE051
S11313B04322B2490020FFF7D5FE14E096480068A6
S11313C0807804214843AE4908580278924800685E
S11313D0807804214843AA4909580020FFF7C2FE37
S11313E001E000F01BF92DE08B480068C0788A49C1
S11313F0096889784018A349087087480068C0784C
S11314008549096889784018002809D0FFF760FFEA
S1131410002200210020FFF7A5FE8D480121017064
S113142010E0012297490020FFF79CFE0AE0CD4816
S1131430002101800222CB490020FFF793FE01E046
S113144000F0ECF801BD00009420074080B51C4872
S11314500078FE2101401A4801706F480068007846
S1131460C006C00EC0B2002803D0022819D00BD386
S11314701DE0694800680078C00601D1FFF770FFDD
S1131480B9488821017014E000F0B6FAC0B200280F
S113149003D1B5488821017002E0B348C821017026
S11314A007E000F00FF8B0488821017001E000F077
S11314B0B5F8AE480078DF210140AC48017001BDA9
S11314C09AFAFF1F80B5544800684078002804D079
S11314D0012819D0032827D036E0C6480078012116
S11314E04D4A126852799140084204D068468021DE
S11314F04900018002E06846002101800222694619
S11315000020FFF72FFE1FE0BA4800780121424A6D
S11315101268527991408843B6490870002200212C
S11315200020FFF71FFE0FE0B248007801213A4A7D
S11315301268527991400143AE48017000220021A3
S11315400020FFF70FFEFFE701BD0000C4200740A5
S1131550C8200740CC200740D0200740D4200740B3
S1131560D820074030F6FF1FA0F8FF1F50F6FF1FDA
S113157052F6FF1F20F9FF1F80B57D48017808202F
S113158001407B480078C0B20009C0B2002811D0E5
S1131590C9B2002921D1C0B2810008225143724A44
S11315A00023535494490978012282400A43924803
S11315B0027012E0C9B2002902D000F013F80CE066
S11315C069480078C0B280080007000F0D2802D1D6
S11315D0FFF73CFF01E000F031F801BD60F6FF1FAA
S11315E062F6FF1F80B51A48007803280DD10A4817
S11315F0006880788149087015480421017080488A
S11316000078012101437E4801700022002100205E
S1131610FFF7A8FD01BD0000E4F9FF1F7948007839
S113162002210143774801704F48882101704E48D8
S1131630202141807047000060F9FF1F6E48007848
S1131640012101436C4801706F4888210170704783
S11316509FFAFF1F0C42000000B56A48007880071B
S113166005D568480078FD21014066480170674847
S11316700078802101436548017000BD303C0000C2
S11316805CF5FF1F9CFAFF1F5D48FF210170604855
S1131690002101705F48002101705F480021017042
S11316A05E48002101705E48002101705D48002100
S11316B001705D48002101705C48002101702A48D6
S11316C02021418028485A4941602748C821017097
S11316D025482021418124485649C1602248C82117
S11316E001722148202141821F48534941611E480B
S11316F0882101741C48202141831B484F49C16142
S11317001948882101763F480D2101704C48FF217A
S113171001703E48FF21017038480021017049489A
S11317207E21017048480078082101434648017031
S11317304548007804210143434801704248007839
S113174002210143404801703F48007801210143D0
S11317503D4801703C480078802101433A480170BB
S1131760704700008EFAFF1F00F6FF1F9420074009
S11317709020074080B525480078C00702D5FFF7C0
S113178083FF35E021480078400702D51F48042133
S113179001701E480078000601D5FFF75DFF1B4865
S11317A0007800070DD52948007802210143274815
S11317B00170FFF7E1FE1548007808210143134842
S11317C0017012480078C00605D510480078102131
S11317D001430E4801700D480078800708D50B4876
S11317E0007802210143094801701548FF21017066
S11317F001BD00009EFAFF1F97FAFF1F98200740C3
S113180098FAFF1FC020074000F6FF1F8020074002
S11318109AFAFF1F9BFAFF1FC4200740C820074005
S1131820CC200740D0200740D4200740D8200740D0
S1131830E0F7FF1F00F8FF1F20F8FF1F40F8FF1F0D
S1131840882007408C2007408420074094200740CC
S113185080B5C0B2002803D0022819D008D328E0EC
S113186018480068A021C90201431648016020E01D
S113187000F034F81348006813490140114801602E
S1131880104800688021C90201430E48016010E03D
S11318900C4800680D4901400A4801600C48006882
S11318A08021890001430A4801600A488021890097
S11318B00160094800688021C902014306480160AB
S11318C001BD000004800440FFFFFEFFFFFFFBFF9B
S11318D0388004401490044034800440704738B485
S11318E0012100220368001D002B0BD00468001D99
S11318F00C4202D04D466D1E64192260241D1B1F2C
S1131900F0D0FAE732BC704710490860704770B5F0
S11319100400212C03DB0E4800F012FB15E00D48F7
S1131920056801262000202100F030FB8E402E4364
S1131930084806600848056801262000202100F0B8
S113194025FB8E402E430448066070BD08ED00E080
S1131950DC3D000080E200E000E100E080B54148A9
S113196000210170FFF7B8FB3F480068C0218900DF
S113197001433D4801609620800100F083F83B4913
S113198008603A4800210171384800214171374804
S1131990082181718021364800F024FB01BD10B577
S11319A030480078002804D020280AD022281DD0EE
S11319B021E030480078012802D12A480021017032
S11319C019E02D480078C0070FD52B480078FE2178
S11319D001402948017025490020FFF74AFC040012
S11319E0002200210020FFF7BDFB04E000220021BB
S11319F00020FFF7B7FB10BD10B500241F48006896
S1131A0040780A2808D0202812D021280AD0222879
S1131A1013D0AA2816D022E0012219490020FFF78A
S1131A20A1FB1CE0072211490020FFF79BFB16E0F5
S1131A300C4820210170012411E00A482221017080
S1131A4000240CE080210A4800F0CCFA0A4800780F
S1131A5080210143084801700548FF2101702000DE
S1131A60C0B210BDA0FAFF1F1CB00440E8F9FF1F6C
S1131A70F0F9FF1F9FFAFF1F97FAFF1FE4F9FF1FFA
S1131A809DFAFF1F0100090E0200120AFF231B0228
S1131A901340C918FF2212020240120289180006DC
S1131AA0091808007047000010B50C0011680129DE
S1131AB002D0022904D009E0C0B25168884705E089
S1131AC0916808709068401C9060FFE72068401C93
S1131AD0206010BDF0B51C00002605000020287011
S1131AE06D1C002A1CD00F68002F09D130202870EB
S1131AF0761C3000F0BD30320F002A706D1C761C4D
S1131B00002FF6D03800210000F040FA0100080050
S1131B1060433A1A002AEED5D04302003132EBE793
S1131B200F68002F08D130202870761CE1E7373188
S1131B30070029706D1C761C002FDAD038002100B4
S1131B4000F038FA01006143791A0A29EFD23031E2
S1131B50EEE7F8B50F0015001E00040005E03200A2
S1131B6029003020FFF7A0FF641CBC42F7DBF1BD65
S1131B70F8B50F0015001E00040005E0320029002E
S1131B802020FFF791FF641CBC42F7DBF1BDF1B5E7
S1131B9090B01700002000900E0005E0109A6946EE
S1131BA01800FFF781FF761C3378002B00D1C4E1C5
S1131BB0252B12D00A2B05D0109A69461800FFF77E
S1131BC073FF09E0109A69460D20FFF76DFF109A24
S1131BD069460A20FFF768FFE5E70025002102E0D7
S1131BE028000125054300291FD1761C30782028C0
S1131BF00CD0232812D02B2804D02D28F0D0302844
S1131C0008D00FE0280002250543ECE7280004254E
S1131C100543E8E7280008250543E4E728001025E4
S1131C200543E0E7761E0121DDE700200290002154
S1131C3005E002980A225043C01830380290002967
S1131C4008D1761C3378180030380928F1D9761E6B
S1131C500121F4E7761C30782E280BD10021FFE710
S1131C60002908D1761C307830380928F8D9761E36
S1131C700121F5E7761E761C30784C2806D06828BA
S1131C8002D06C2801D002E002E001E000E0761E00
S1131C90761C33781800582871D0622800D1CAE025
S1131CA0632800D113E1642813D0692811D06E2869
S1131CB000D13DE16F2800D1B2E0702800D1C5E029
S1131CC0732800D10BE1752800D1CAE0782856D0DA
S1131CD064E7386806903F1D0A23012206A907A875
S1131CE0FFF7F8FE040007A80019059006980028DD
S1131CF003D52D200190641C0DE0A80703D52B20EB
S1131D000190641C07E0680703D520200190641C3F
S1131D1001E00020019000200490280711D50198CB
S1131D20002804D0109A69460198FFF7BDFE0120EF
S1131D300490109B6A4602992000FFF70AFF029C58
S1131D4011E0E8070FD4109B6A4602992000FFF7C0
S1131D500FFF0198002804D0109A69460198FFF7F4
S1131D60A3FE012004900498002807D101980028BC
S1131D7004D0109A69460198FFF796FE9AE03868F5
S1131D8003903F1D1023002203A907A8FFF7A2FE1A
S1131D90040007A80019059000200490280715D511
S1131DA0E8060BD5109A69463020FFF77DFE109A9D
S1131DB069467820FFF778FE01200490109B6A465C
S1131DC002992000FFF7C5FE029C18E0E80716D42C
S1131DD0E80600D5A41C109B6A4602992000FFF770
S1131DE0C7FEE8060BD5109A69463020FFF75CFE63
S1131DF0109A69467820FFF757FE01200490E80600
S1131E000DD5049800280AD1109A69463020FFF7AE
S1131E104BFE109A69467820FFF746FEA41C49E061
S1131E20386803903F1D0823002203A907A8FFF781
S1131E3051FE04001FE0386803903F1D0223002276
S1131E4003A907A8FFF746FE040014E038680390CE
S1131E503F1D1023002203A907A8FFF73BFE04003F
S1131E6009E0386803903F1D0A23002203A907A84C
S1131E70FFF730FE040007A800190590280707D5CE
S1131E80109B6A4602992000FFF763FE029C11E052
S1131E90E8070FD4109B6A4602992000FFF768FEFA
S1131EA008E0109A694605980078FFF7FDFD05984B
S1131EB0401E0590059800780028F2D1E80705D562
S1131EC0109B6A4602992000FFF752FE6BE63868C1
S1131ED0C0B23F1D109A6946FFF7E6FD63E6386815
S1131EE001903F1D0198002821D0019800F098F836
S1131EF00400E8070FD4109B6A4602992000FFF7FC
S1131F0037FE08E0109A694601980078FFF7CCFD87
S1131F100198401C0190019800780028F2D1E8074C
S1131F2005D5109B6A4602992000FFF721FE3AE688
S1131F3038683F1D0099016035E6009811B0F0BD86
S1131F400EB400B584B0012100910549019105AAA0
S1131F5001006846FFF71BFE049908B0084700001B
S1131F605D4200000CB4E0B502000020002A09D054
S1131F7002200090029204AA6846FFF708FE029924
S1131F8000220A70039906B008470000CA0F00D067
S1131F90494203105A400DD004B500D3404200F02A
S1131FA009F8009AD20701D34942124200D54042AF
S1131FB004BD0000094210D088420BD30122002343
S1131FC000185B418B4200D35B1A5241F8D31900CD
S1131FD01000704701000020704708B500F030F889
S1131FE008BD0000C9B24218521E074B1A60074AC6
S1131FF01060074A117007490860074908600748DC
S113200000210170704700005CF7FF1F58F7FF1FA5
S113201092FAFF1F60F7FF1F64F7FF1F93FAFF1F79
S113202000B501000020002902D1002006E0401C78
S11320300A001100491C1278002AF8D100BD0000E2
S11320407047000080B5A14800688021490401431D
S11320509E4801609E4800688021090601439C480F
S11320600160FFF77BFCC348007810210143C1489D
S1132070017001BD10B597480078000714D50320FE
S1132080FFF711F90400944820210180934880212E
S1132090017090480078F72101408E4801700122B8
S11320A08F490220FFF75EF88E48008800280ED181
S11320B08C489621490001808B4802788B49AE48B0
S11320C0FFF750FF0F22AC490220FFF74BF810BD79
S11320D080B500F049FA2A2000F054FA01210143A6
S11320E0C9B22A2000F08EFA01BD80B5002000F0AC
S11320F049FA000700D187E0012000F043FA00020A
S11321009E490880022000F03DFA9C490988C0B22B
S113211001439A48018099480021405E00B2801032
S113212096490880032000F02DFA000294490880A3
S1132130042000F027FA92490988C0B2014390486C
S113214001808F480021405E00B280108C490880D5
S1132150052000F017FA00028A490880062000F0E2
S113216011FA88490988C0B201438648018085482C
S11321700021405E00B2801082490880012000F0F6
S113218001FA000280490880022000F0FBF97E4930
S11321900988C0B201437C4801807B480021405E2D
S11321A000B2001278490880032000F0EBF9000225
S11321B076490880042000F0E5F974490988C0B222
S11321C001437248018071480021405E00B2001250
S11321D06E490880052000F0D5F90002A74908805F
S11321E0062000F0CFF9A5490988C0B20143A348ED
S11321F00180A2480021405E00B200129F4908807D
S113220000F02EFA00F0F1FA01BD10B56048008824
S1132210002804D1FFF769FF5D480A21018098482E
S11322200068152838D39748006800F023FBFF2185
S1132230C431884201DB002006E0E12464009148B7
S1132240006800F017FB201A8F4908608F48006867
S113225000F010FBFF21C431884201DB002006E0BE
S1132260E12464008948006800F004FB201AA749AF
S113227008608748006800F0FDFAFF21C4318842F5
S113228001DB002006E0E12464008148006800F0DE
S1132290F1FA201A7F49086079480068142813D29B
S11322A01148007800280FD00F4800780A214843CD
S11322B07849086074480C49097801600A48007834
S11322C00A2148439149086010BD0000047004408D
S11322D00070044097FAFF1F62F6FF1F60F6FF1FAD
S11322E060F9FF1F86FAFF1F95FAFF1F7042000076
S11322F087480068A0214901014385480160854859
S11323000068A021C9040143824801608248006832
S1132310802149040143804801608048C02189002C
S113232001607F48C021890001607E488021C90086
S113233001607D48FA21890001607C482421016004
S11323405448192101607A48FA21890001607948CA
S1132350242101604C48192101607748242101603F
S11323606A481921016075480821016074480821F0
S1132370016070470821074018F7FF1F70FAFF1F1C
S113238072FAFF1F74FAFF1F76FAFF1F78FAFF1F15
S113239082FAFF1F00B56B48008800286CD16A4898
S11323A00078401C684908706648FA214900018099
S11323B06548007801280AD058D303281DD011D3CA
S11323C0052831D024D3072846D039D34EE02E48EF
S11323D09621490001604D48002101602D480021EB
S11323E0016049E0284800210160484896214900DD
S11323F001602848002101603EE02348002101607B
S1132400424800210160234896214900016033E0DD
S11324101D489621490001603C489621490001600D
S11324201C480021016027E017480021016037485B
S113243096214900016017489621490001601BE07C
S1132440114896214900016030480021016011487B
S11324509621490001600FE00B48C82101602B4818
S1132460FA2101600B48FA21016005E03648002199
S1132470017036483649016000BD00007AFAFF1F3A
S11324808CF6FF1F9CF6FF1F10A00340A0F6FF1F51
S113249098F6FF1F1880034038B50024002500F08B
S11324A0EDF900F02FFA00F028FBFFF721FFFFF70A
S11324B0C9FD264827490160FFF70AFEFFF76FFAB6
S11324C022480068804700F093FBFFF7D3FD2248C1
S11324D00078012805D1002D03D11C481D49016055
S11324E001251E4800880028E8D11C48FA218900EB
S11324F00180042060431A490858FFF721FD641C39
S1132500184800688442D9D10024D7E718A00340B2
S1132510388004403C8004400480044048A00440C7
S11325204CA0044004C004400880034014800340CD
S113253008A003400CA0034014A0034000A00340E3
S1132540008003407EFAFF1F91FAFF1F7CF7FF1FF4
S11325500B220000952300009FFAFF1F88FAFF1F3B
S1132560D0F4FF1F7843000080B53C4800F013FC12
S113257001BD000000B5002001E000BF401C282878
S1132580FBDB00BD10B50400344800F0E1FB3A2148
S1132590324800F0D9FB314800F0ECFB2F4800F042
S11325A0F2FB2100C9B22D4800F0CEFB2B4800F00D
S11325B0E1FB2A4800F0E7FB284800F0C0FB3B2180
S11325C0264800F0C1FB254800F0D4FB234800F066
S11325D0DAFB224800F09FFB204800F0ABFB1F48C9
S11325E000F0B4FB04001D4800F0C4FB1B4800F0DD
S11325F0B8FB1A4800F0AAFB0400FFF7BBFF200059
S1132600C0B210BD38B504000D00144800F0A0FBA2
S11326103A21124800F098FB104800F0ABFB0F4839
S113262000F0B1FB2100C9B20C4800F08DFB0B484F
S113263000F0A0FB094800F0A6FB2900C9B2074836
S113264000F082FB054800F095FB044800F09BFB7A
S1132650024800F086FBFFF78DFF31BD00600640A5
S113266070B57048008840B26F4900F0ADFB6F4907
S113267008606F48008840B26E4900F0A5FB6E49BF
S113268008606E48008840B26D4900F09DFB6D49BA
S113269008606648056865480068454366480468FC
S11326A0654800684443281900F0D2FB6649086075
S11326B061480068002805D564485F4909684A42B2
S11326C0026003E061485C49096801605F48006892
S11326D0C0015D490968FFF76DFC5D4908605C480D
S11326E00068802802D35A487F2101605848006856
S11326F00421484357490858574908604E48006820
S1132700012804DB5448544909684A4202604D4890
S113271006684C4800684643A81900F099FB4F49E5
S1132720086042480068002805D548483F490968C0
S11327304A42026003E045483C4909680160434855
S11327400068C00145490968FFF734FC4049086046
S11327503F480068802802D33D487F2101603C48FF
S11327600068042148433B4908583D4908602F4804
S11327700068012804DB3A48394909684A42026082
S1132780A01900F065FB374908602B480068002851
S113279005D52E48284909684A42026003E02B48BF
S11327A025490968016029480068C0012D49096864
S11327B0FFF700FC2649086025480068802802D3FA
S11327C023487F21016022480068042148432149AD
S11327D008582549086018480068012804DB224885
S11327E0214909684A42026070BD00B51648006874
S11327F02D280FD2194800682D280BD219480068DB
S11328002D2807D219480088002803D1184801212F
S1132810017005E016480021017014480A21018066
S113282000BD000076FAFF1FA4F6FF1F80F6FF1F0D
S113283078FAFF1FC8F6FF1F84F6FF1F7AFAFF1FFE
S1132840ECF6FF1F88F6FF1F8CF6FF1F10F7FF1F23
S113285014F7FF1FD438000098F6FF1F90F6FF1FEF
S11328609CF6FF1F94F6FF1FA0F6FF1F80FAFF1FC0
S113287090FAFF1F002800D5404270471A48A02153
S113288049000160194800688021C90201431748C2
S11328900160174800688021C9020143144801609F
S11328A01448A021490001601048006880210903F0
S11328B001430E4801600E4800688021090301436A
S11328C00B4801600C48A021490001600B480068D6
S11328D002210143094801600948006802210143BB
S11328E0074801607047000048A0044044F00F40CE
S11328F054F00F404CA0044004C00440C4F00F4006
S1132900D4F00F4080B532480068802109040143A7
S11329102F4801601620FEF7FAFF2E4800210160BF
S11329202D48002101602D482D4901602A480221CB
S113293001602C48012101602748006801210143FE
S11329402548016001BD00B52648012101602648E3
S11329500078002804D024480078401E22490870DA
S113296022480088002805D020480088401E1F49BE
S1132970088007E01C487D2101701D480088401C28
S11329801B4908801B480088002804D01948008887
S1132990401E1849088018480088002804D01648AA
S11329A00088401E1449088014480088002804D078
S11329B012480088401E11490880114800880028E8
S11329C004D00F480088401E0D49088000BD000057
S11329D03C800440007003401871034010710340B0
S11329E080BB00001C710340E4F4FF1F82FAFF1F48
S11329F07CFAFF1F7EFAFF1F84FAFF1F86FAFF1F6F
S1132A0088FAFF1F10B571480068042101436F481C
S1132A1001606E480068802188436C4908606B48F7
S1132A200068C00601D5012000E00020674909685C
S1132A3010229143654A1160644909684022914318
S1132A40624A11606149096880220A435F490A6049
S1132A5000211EE0C9B25E4A525C12075D4B1A6047
S1132A605C4A12688023DB0313435A4A1360574AB3
S1132A7012685207FBD5554A126804231343534A7C
S1132A801360C9B202224A43534B524C24689C52ED
S1132A90491C524A1278C9B29142DBD34B490968A6
S1132AA080229143494A11604849096840220A43F7
S1132AB046490A60C0B2002806D044480068102184
S1132AC001434248016005E0404800681021884302
S1132AD03E4908603D480068802101433B4801604D
S1132AE03B48007800073B4908603A480068802169
S1132AF0C90301433748016010BD80B538480068F8
S1132B0020210143364801603648002101603648DF
S1132B10002101601A20FEF7FAFE2C4800683349B0
S1132B2001432A480160294800688021014327485D
S1132B300160FFF767FF01BD00B56B480078022113
S1132B4048436149234A12680A52674800780221BF
S1132B5048435D49085A64490978022251431E4A90
S1132B60515A401A00B2002807D55F480078022164
S1132B7048435E4900220A5205E05B490978022273
S1132B8051435A4A50521548007802281DDB5648D2
S1132B90007812490978491E884205DA52480078BB
S1132BA0401C5149087002E04F48002101704E4812
S1132BB000780749085C0007064908600548006872
S1132BC08021C90301430348016000BD0050044053
S1132BD0E8F4FF1F04500440A0F7FF1FE5F4FF1FB3
S1132BE03880044040A0044044A00440608B871017
S1132BF000B53F480078002865D03D4800210170A9
S1132C003C48008839490988884205D339484088B6
S1132C1036494988884244D234480188642048436C
S1132C2032490988314A52888918FFF7AFF9324985
S1132C3008702E484188642048432C4909882B4A4F
S1132C4052888918FFF7A2F92B4948702A4800785E
S1132C50282148436421FFF799F928490870264838
S1132C604078282148436421FFF790F923494870AC
S1132C70642021490978401A1F49497840180221E3
S1132C80FFF784F91E49087028201C490978401A66
S1132C901A49497840180221FFF778F91949087050
S1132CA011E01548002101701348002141701348B8
S1132CB00021017011480021417011480021017068
S1132CC010480021017000BD80F7FF1F80B508483F
S1132CD0012101700C480068042101430A48016085
S1132CE0FFF72AFF01BD000094FAFF1FC0F7FF1F82
S1132CF018F5FF1FF8F4FF1F8AFAFF1F8CFAFF1F55
S1132D0095FAFF1F96FAFF1F0050044081781022A5
S1132D100A43827070478178EF220A4082707047BC
S1132D208178DF220A4082707047817820220A432A
S1132D3082707047817808220A43827070478178D4
S1132D4004220A438270704701717047007970470A
S1132D5010B504002000FFF7E8FF2000FFF7D6FFBE
S1132D6010BD10B504002000FFF7DAFF2000FFF7C4
S1132D70D2FF10BD00B5C1788907FCD5C178022205
S1132D800A43C27000BD00B5C078C00701D4012059
S1132D9000E0002000BD0949096840220A430749B0
S1132DA00A600749A022D2000A600649A022D20084
S1132DB00A6014214170802181707047348004407E
S1132DC060D0044064D0044010B588B00A78521C26
S1132DD00A700A785207520F0A700A7804235A4379
S1132DE08A185060002208E0042050430818406804
S1132DF0042353436C46E050521C082AF4DB0020A1
S1132E0000221EE0042151436B46591849680423EB
S1132E1053436C46E358994212DA042050436946FE
S1132E200858042151436B465918496804235343F5
S1132E306C46E150042151436B4659184860012007
S1132E40521C072ADEDB0028D9D1039808B010BD34
S1132E50F0B504000027FA26B600FA25AD003500C7
S1132E6020003100FFF7A6F8301806007608380075
S1132E7007007F1CC0B2072801DAB542EFD1300049
S1132E80F0BD0000F4B504000D001E00A648007853
S1132E90C0B280088007800F002807D1A2480078BC
S1132EA0C00603D5A0480078800601D5012039E189
S1132EB09E48844201DB212034E1684600780028E2
S1132EC006D09B48201A9B49884201D3222029E13D
S1132ED0EDB2002D00D0012576B23000401E192835
S1132EE001D341201EE1694618200F567FB23800F5
S1132EF018381B2801D3422014E1200076B2310097
S1132F00FFF744F88C49401A8C49884201D3432086
S1132F1008E1200076B23100FFF738F87FB2784339
S1132F208749401A8749884201D34520FAE08648F8
S1132F3000780100C320084084498C420ADA010069
S1132F40EDB2E8006A461278920002431020104362
S1132F50084309E00100EDB2E8006A4612789200E5
S1132F60024320201043084377490870784884427C
S1132F7001DA002114E07748844201DA01210FE0EC
S1132F807548844201DA02210AE07448844201DA75
S1132F90032105E07248844201DA042100E005219E
S1132FA0704800788007800F0200C8003821014073
S1132FB08020084310436B49087068460078002855
S1132FC010D0002000E0401C00B26749884203DAB8
S1132FD0554909788907F6D553480078800701D404
S1132FE023209FE0002000E0401C00B2FA21C90029
S1132FF0884203DA4C490978C906F5D44A4800786E
S1133000C00601D511208DE0002000E0401C00B274
S1133010FA21C900884207DA43490978C9B2890804
S11330208907890F0229F1D13F480078C0B280088E
S11330308007800F022801D01A2073E04B480078E3
S11330402021014349480170494800780100E020EB
S113305008400100701EC006C00E084344490870B1
S1133060424800780100E02008400200183FF906B9
S1133070C90E4020084310433C490870002000E07A
S1133080401C00B2FA21C900884203DA26490978B3
S11330908906F5D524480078800601D4162041E03D
S11330A0002000E0401C00B2FA210901884203DA42
S11330B01D4909784906F5D51B480078400601D416
S11330C044202FE02A480078C106C90E491C27482D
S11330D00078C506ED0E1835224800788006800E6B
S11330E0204A1070002000E0401C00B2FA22D200F6
S11330F0904207DA0C4A1278D2B292089207920FE1
S1133100032AF1D108480078C0B280088007800FF4
S1133110032801D01B2005E02000C9B2FEF736FFCA
S1133120EDB26843F2BD00000640064081F0FA02A9
S1133130C0C62D004181BA0180841E0081841E0016
S1133140006CDC02017519030140064001127A008B
S1133150D1121300A1252600414B4C008196980002
S1133160012D310100400640204E0000054006407C
S11331700440064080B57C480021016000F044F919
S113318000F094F97948FEF7DBFE00F019FA00F03C
S113319003F8FFF781F9FEE780B575480068000F72
S11331A04007400F002806D002280CD007D304287B
S11331B011D00CD313E06F48FEF7C2FE12E06E4844
S11331C0FEF7BEFE0EE06D48FEF7BAFE0AE06C485C
S11331D0FEF7B6FE06E06B48FEF7B2FE02E06A4870
S11331E0FEF7AEFE62480068000E4007400F042858
S11331F002D0052804D007E064A0FEF7A1FE06E093
S113320063A0FEF79DFE02E06248FEF799FE58486F
S113321000680007000F00280CD001280ED00228F7
S113322010D0042812D0052814D0062815D0082858
S113323016D019E05848FEF783FE18E05748FEF709
S11332407FFE14E05648FEF77BFE10E05548FEF77B
S113325077FE0CE05448FEF773FE5448FEF770FE08
S11332605348FEF76DFE02E05248FEF769FE4048FF
S11332700068000D4007400F012803D14E48FEF7B7
S11332805FFE02E04D48FEF75BFE39480068000C23
S11332904007400F00280BD0022811D00CD304287B
S11332A016D011D306281BD016D307281CD01FE034
S11332B04348FEF745FE1EE04248FEF741FE1AE091
S11332C04148FEF73DFE16E04048FEF739FE12E0A5
S11332D03F48FEF735FE0EE03E48FEF731FE0AE0B9
S11332E03D48FEF72DFE06E03C48FEF729FE02E0CD
S11332F03B48FEF725FE0F2189B23A48FEF720FE2F
S113330039480068000E0007000F00280CD001287F
S11333100ED0032810D0052812D0072814D009286D
S113332016D00F2818D01BE03048FEF709FE1AE02B
S11333302F48FEF705FE16E02E48FEF701FE12E0C8
S11333402D48FEF7FDFD0EE02C48FEF7F9FD0AE0DE
S11333502B48FEF7F5FD06E02848FEF7F1FD02E0F4
S11333602848FEF7EDFD01BD0081044048430000FC
S11333702480044050430000584300006043000090
S11333806843000070430000483F00003400000020
S113339035000000743E000090420000A04200008E
S11333A00C43000018430000244300003043000095
S11333B0B0420000A03E0000703F0000CC3E000080
S11333C0584100006C41000080410000944100001D
S11333D0A8410000BC410000D0410000E4410000CD
S11333E088400000F84100004C800440743C000018
S11333F0B03C0000EC3C0000283D0000643D0000AF
S1133400A03D00001440000010B51E481E4988422B
S11334100ED0002008E0042141431A4A0423434308
S1133420194CE3585350401C822149008842F2D37E
S11334301448FEF769FA1549154A1648801A03E03C
S113344013780B70521C491C0300581E002BF7D133
S113345011491248401A02E000220A70491C020075
S1133460501E002AF8D10E490E4A0F48801A03E074
S113347013780B70521C491C0300581E002BF7D103
S113348010BD00BF00F0FF1F0010000010F4FF1F6C
S1133490D43A0000303C000000F6FF1FA1FAFF1FE1
S11334A0A1FAFF1FC0100000C010000000B583B0D7
S11334B035480068F82189010143334801603348E5
S11334C00078000705D531480078082101432F48CA
S11334D001702F482F490160012001903020009095
S11334E00423012200212C48FFF7CCFC2B4908605F
S11334F02A480068FF2800DCFEE72948006880218C
S11335004902014326480160244800680221FEF76D
S11335103DFDFA218900FEF739FD224908601F4864
S11335200068FA218900FEF731FD1F4908601E4832
S1133530006817490968090F491CFEF73BFD1B4940
S113354008601A48006812490968090C4907490FBC
S1133550491CFEF72FFD1649086016488021890092
S1133560016015488021890001600D4800688021B0
S1133570C90401430A4801609622D201094801683E
S11335800E4800F0F9F807BD3880044002D0074027
S1133590448004400000011000127A0068F7FF1F05
S11335A00480044078F7FF1F6CF7FF1F70F7FF1FBC
S11335B074F7FF1F049004400890044000A00640E4
S11335C080B557480078800602D55648FEF7B8FC07
S11335D053480078000702D55348FEF7B1FC504821
S11335E00078400702D55148FEF7AAFC4C48007801
S11335F0800702D54E48FEF7A3FC4E48007800062B
S113360002D54D48FEF79CFC4A480078400602D596
S11336104A48FEF795FC47480078800602D548489A
S1133620FEF78EFC43480078400702D54548FEF774
S113363087FC40480078000702D54348FEF780FC29
S11336403C480078800702D54048FEF779FC3948A9
S11336500078C0074DD53E48FEF772FC3D4800781F
S1133660C0B24007400F032802D13B48FEF768FC74
S113367038480078C0B24007400F042806D13748C4
S11336800078400702D13648FEF75AFC31480078EA
S1133690C0B24007400F042809D130480078C0B2B6
S11336A04007400F012802D12E48FEF749FC294863
S11336B00078C0B24007400F042809D12748007899
S11336C0C0B24007400F022802D12748FEF738FC59
S11336D020480078C0B24007400F042809D11F4891
S11336E00078C0B24007400F032802D11F48FEF7FC
S11336F027FC10480078C0B2002810D10848007890
S1133700C0B200280BD10B480178C9B21848FEF7A3
S113371017FC03480178C9B21648FEF711FC01BD35
S113372001F00740C03F000080420000304100002B
S11337303440000000F0074044410000A440000071
S1133740BC400000F43F0000504000006C4000000A
S1133750143E000001E00740D042000002E00740B0
S1133760DC420000E8420000F44200000043000094
S1133770F83E0000203F0000F6B500200026002798
S113378000220023474C25688024E4002C43454D47
S11337902C60454C2578F3242C40434D2C700C00B0
S11337A0203C424DAC4208D300214148026810003D
S11337B0404A02403E480260FEE7019CFA20800035
S11337C041430091042500982100EDB26943FEF7BE
S11337D0F1FB01000098EDB26943FEF7EBFB844274
S11337E001D2061B00E0261AEDB22F00052506E0E3
S11337F0231A9E4202D31E00EDB22F006D1CEDB2BF
S1133800212D0FDA00982100EDB26943FEF7D2FBB7
S113381001000098EDB26943FEF7CCFB8442E7D285
S1133820031BE6E720006421FEF7C4FB03214843A1
S1133830864235D23800001F052805D21E4800787C
S1133840022101431C4801701C480278D2B21F2097
S113385082431100781EC0B2C206D20E0A43174832
S113386011000170D206D20E521C0098544321005C
S1133870FEF7A0FB010012480278D2B21F20824357
S11338800800000AC006C00E10430D4A10700D480F
S11338900170054800780C21014303480170F3BD11
S11338A0FEE700003480044003A0064031C300005A
S11338B004800440FFFFFFF30BA006400AA006406B
S11338C000A0064001A0064000B502791206FCD50E
S11338D0C17100BD00000000070000000E000000E0
S11338E0150000001C000000230000002B00000055
S11338F032000000390000004000000047000000D2
S11339004E000000550000005C0000006300000051
S11339106A000000710000007800000080000000D0
S1133920870000008E000000950000009C0000004D
S1133930A3000000AA000000B1000000B8000000CD
S1133940BF000000C6000000CE000000D50000004B
S1133950DC000000E3000000EA000000F1000000C9
S1133960F8000000FF000000060100000D01000047
S1133970140100001B010000230100002A010000C3
S113398031010000380100003F0100004601000041
S11339904D010000540100005B01000062010000C1
S11339A06901000071010000780100007F0100003E
S11339B0860100008D010000940100009B010000BD
S11339C0A2010000A9010000B0010000B70100003D
S11339D0BE010000C6010000CD010000D4010000BA
S11339E0DB010000E2010000E9010000F001000039
S11339F0F7010000FE010000050200000C020000B7
S1133A00130200001B020000220200002902000031
S1133A1030020000370200003E02000045020000B0
S1133A204C020000530200005A0200006102000030
S1133A306902000070020000770200007E020000AC
S1133A40850200008C020000930200009A0200002C
S1133A50A1020000A8020000AF020000B6020000AC
S1133A60BE020000C5020000CC020000D302000028
S1133A70DA020000E1020000E8020000EF020000A8
S1133A80F6020000FD020000040300000C03000025
S1133A90130300001A0300002103000028030000A0
S1133AA02F030000360300003D0300004403000020
S1133AB04B0300005203000059030000610300009F
S1133AC0680300006F030000760300007D0300001C
S1133AD0840300004652444D2D4B4C32355A204449
S1133AE0656D6F204170706C69636174696F6E0AF3
S1133AF00000000054696C742074686520626F6172
S1133B00726420746F206368616E676520746865F1
S1133B1020636F6C6F72206D69780A00546F75634F
S1133B20682074686520736C6964657220746F2002
S1133B306368616E6765207768697465204C4544E5
S1133B40206272696768746E6573730A000000000E
S1133B505669736974207777772E66726565736327
S1133B60616C652E636F6D2F6672646D2D6B6C32A4
S1133B70357A20666F72206D6F726520736F66747C
S1133B80776172652073616D706C65730A00000063
S1133B900A00000010F4FF1F30F4FF1F58F4FF1F49
S1133BA08CF4FF1FCCF4FF1F7D020000090A000102
S1133BB0020304050607080B0C0D0E0F64006400D5
S1133BC064006400640064006400640064006400D1
S1133BD06400640064006400640064000100000088
S1133BE0E0F7FF1F00F8FF1F20F8FF1F40F8FF1F3A
S1133BF060F8FF1F80F8FF1FA0F8FF1FC0F8FF1F29
S1133C00E0F8FF1F00F9FF1F20F9FF1F40F9FF1F15
S1133C1060F9FF1F80F9FF1FA0F9FF1FC0F9FF1F04
S1133C207C4300002042000034420000484200006F
S1133C3009024300020100C032090400000102022B
S1133C4001010524001001052401000104240200DF
S1133C500524060001070581032000020904010070
S1133C60020A000001070582022000000705030282
S1133C7020000000466C6173682073697A653A20FD
S1133C802038204B422070726F6772616D20666C21
S1133C906173682C20302E3235204B422070726FB5
S1133CA074656374696F6E20726567696F6E000076
S1133CB0466C6173682073697A653A202031362036
S1133CC04B422070726F6772616D20666C6173681D
S1133CD02C20302E35204B422070726F7465637433
S1133CE0696F6E20726567696F6E0900466C617357
S1133CF0682073697A653A20203332204B42207061
S1133D00726F6772616D20666C6173682C2031205C
S1133D104B422070726F74656374696F6E207265B4
S1133D2067696F6E09000000466C617368207369EF
S1133D307A653A20203634204B422070726F6772C5
S1133D40616D20666C6173682C2032204B422070B8
S1133D50726F74656374696F6E20726567696F6EE4
S1133D6009000000466C6173682073697A653A2023
S1133D7020313238204B422070726F6772616D209F
S1133D80666C6173682C2034204B422070726F740F
S1133D90656374696F6E20726567696F6E090000F0
S1133DA0466C6173682073697A653A20203235362F
S1133DB0204B422070726F6772616D20666C617374
S1133DC0682C2034204B422070726F7465637469D0
S1133DD06F6E20726567696F6E0900000A45525262
S1133DE02120496E76616C696420495251207661C4
S1133DF06C75652070617373656420746F20656EE3
S1133E0061626C65206972712066756E6374696F96
S1133E106E210A000A0D5B6F75745352535D57612E
S1133E206B65757020626974207365742066726FA7
S1133E306D206C6F7720706F776572206D6F64658D
S1133E40200000000A2A2A2A2A64656661756C74B7
S1133E505F69737220656E7465726564206F6E208D
S1133E60766563746F722025642A2A2A2A2A0D0A29
S1133E700A0000000A0D556E7265636F676E697AF9
S1133E806564204B696E65746973207375622D6671
S1133E90616D696C79206465766963652E0A0D002D
S1133EA00A0D556E7265636F676E697A6564204B9F
S1133EB0696E65746973207061636B616765206303
S1133EC06F64652E20202020202000000A0D556EEE
S1133ED07265636F676E697A6564204B696E657499
S1133EE069732066616D696C7920617474726962AA
S1133EF07574652E0A0D00005B6F75745352535D23
S1133F0052434D5F53525330206973205A45524FE8
S1133F102020203D202523303258200D0A0D00009A
S1133F205B6F75745352535D52434D5F535253311B
S1133F30206973205A45524F2020203D20252330EC
S1133F403258200D0A0D00000A0D556E7265636F1C
S1133F50676E697A6564204B696E6574697320665F
S1133F60616D696C79206465766963652E0A0D005C
S1133F700A0D4C6F7720506F776572204C696E651F
S1133F80207769746820436F72746578204D302BF4
S1133F900A0D0A0D0000000010B5074979441831D4
S1133FA0064C7C44163404E0081D0A6889188847C6
S1133FB00100A142F8D110BD2C000000380000001F
S1133FC00A0D53746F70204D6F64652041636B6EEE
S1133FD06F776C65646765204572726F72205265F5
S1133FE073657400FBD8FFFFA404000000F6FF1FF4
S1133FF0000000000A0D4C6F7373206F6620457833
S11340007465726E616C20436C6F636B20526573D0
S113401065740000455252212120556E646566691D
S11340206E656420666C6173682073697A650A0D35
S1134030000000000A0D436F7265204C6F636B75BE
S113404070204576656E74205265736574000000B7
S11340500A0D4C6F7373206F66204C6F636B20697D
S11340606E20504C4C205265736574000A0D4C6FE1
S1134070772D766F6C74616765204465746563742D
S113408020526573657400000A0D556E7265636F86
S1134090676E697A6564205352414D2053697A658D
S11340A02E0A0D000A0D45787465726E616C2050FD
S11340B0696E205265736574000000000A0D576133
S11340C0746368646F6728434F5029205265736591
S11340D07400000080B5034801680348FDF730FF11
S11340E001BD000004ED00E0443E000000F009F8CA
S11340F0002801D0FFF750FF0020FEF7CDF900F0B3
S113410002F80120704780B500F002F801BD0000FC
S11341100746384600F002F8FBE7000080B5C046C9
S1134120C046024A11001820ABBEFBE7260002007D
S11341300A0D536F667477617265205265736574F6
S1134140000000000A0D506F7765722D6F6E2052CB
S113415065736574000000005352414D2053697A21
S1134160653A20302E35204B420A0D005352414D02
S11341702053697A653A202031204B420A0D000011
S11341805352414D2053697A653A202032204B42E4
S11341900A0D00005352414D2053697A653A20209C
S11341A034204B420A0D00005352414D2053697A8A
S11341B0653A202038204B420A0D00005352414DED
S11341C02053697A653A20203136204B420A0D008B
S11341D05352414D2053697A653A20203332204BA3
S11341E0420A0D005352414D2053697A653A20200A
S11341F03634204B420A0D0053696C69636F6E209C
S11342007265762025640A0D200000001201100159
S113421002000020A2150FA5000001020301000006
S113422014034600720065006500730063006100BA
S11342306C00650012035500530042002D00550028
S11342404100520054000000120354004500530082
S113425054005F0031002E003000000080B50100E2
S1134260C9B20248FFF730FB01BD000000A00640C0
S11342700D7473692025253D202530336920000005
S11342800A0D4D444D2D4150205265736574000054
S1134290313670696E20202020202020000000008C
S11342A0323470696E20202020202020000000007D
S11342B031303070696E2020202020200000000062
S11342C020202020202020202020202020202020EA
S11342D04C4C53206578697420000000564C4C53B4
S11342E03020657869742000564C4C533120657831
S11342F069742000564C4C53322065786974000070
S1134300564C4C53332065786974200033327069FD
S11343106E20202020202000343870696E20202058
S113432020202000363470696E20202020202000B8
S1134330383070696E20202020202000C046C046FE
S1134340C046C046FFF7D2FE0A0D0A0D0000000069
S11343500A0D4B4C300000000A0D4B4C310000009C
S11343600A0D4B4C320000000A0D4B4C3300000088
S11343700A0D4B4C3400000005000000040309043E
S903433D7C
