S01000004B5633315F6170702E737265636F
S1131000000001208124000093220000ED24000050
S1131010132500001F2500008526000000000000A5
S1131020000000000000000000000000872600000F
S113103089260000000000008B2600008D26000099
S1131040952500009D250000A5250000AD25000084
S1131050B5250000BD250000C5250000CD250000F4
S1131060D5250000DD250000E5250000ED25000064
S1131070F5250000FD250000052600000D260000D2
S1131080152600008126000081260000812600002C
S113109081260000812600008126000081260000B0
S11310A01D260000252600002D2600003526000000
S11310B081260000812600003D2600004526000010
S11310C04D260000552600005D2600006526000020
S11310D06D26000081260000812600008126000084
S11310E08126000081260000812600008126000060
S11310F08126000081260000812600008126000050
S1131100812600008126000081260000812600003F
S1131110812600008126000081260000812600002F
S11313F0812600008126000081260000FFFFFFFFF8
S1131400FFFFFFFFFFFFFFFFFFFFFFFFFEFFFFFFE9
S1131410DFF87814096831F44021800410F4402086
S11314200843DFF8681408607047DFF8641409683B
S113143031F44031000410F440300843DFF8501414
S113144008607047027812F05F020B781A4302704A
S11314504978890181707047027812F0F0020A43DA
S113146002707047DFF8A0030078C0B210F00300E8
S1131470002803D0022809D004D30AE0DFF88C0343
S1131480006807E0DFF88803006803E0DFF8080479
S113149000E00020704780B5FFF7E4FF00282CD05F
S11314A0DFF870130978C1F3C201C840DFF868237C
S11314B01278C2F30112DFF850331B7813F00303E0
S11314C0D2B2002A02D0DBB2002B02D0DBB2022B54
S11314D013D1C9B20029052904D9891F04D0491E92
S11314E006D009E0400908E01421B0FBF1F004E063
S11314F00C21B0FBF1F000E0002002BDDFF81C037A
S11315000078C00703D4DFF81803006808E0DFF8A8
S113151014030068DFF884130978C1F34201C8405A
S1131520704780B5DFF8F4020078C0F30010C0B251
S1131530002802D1FFF7AFFF02E0DFF8E402006801
S113154002BD80B5FFF78EFF02BD49F698018842BF
S113155001D2002006E0DFF84813884201D20120BE
S113156000E00220C0B2704780B500F015F8DFF843
S113157034130968090F491CB0FBF1F002BD10B522
S113158004006068DFF81C1308602078FFF74DFF43
S11315906078FFF73DFF10BD80B5DFF848030078A1
S11315A0C0F38100C0B2002807D002280BD007D3B3
S11315B003280BD100F031F809E000F009F806E047
S11315C0FFF79CFF03E0FFF74DFF00E0002002BDA2
S11315D080B5DFF844020078800704D4DFF83C02C9
S11315E00078800601D5002016E0FFF79AFF002856
S11315F012D0DFF8E8120978C1F34111DFF8DC22D8
S11316001278D2B2D209DFF8E032C9B213EB810109
S1131610D2B231F81210484302BD80B5DFF8FC01A4
S11316200078400601D4002012E0FFF78AFFDFF8BB
S1131630B0120978C9B211F01F01491CB0FBF1F0D6
S1131640DFF8AC120978C9B211F01F011831484310
S113165002BDDFF8B4110978C9B211F00301C0B2B8
S1131660814201D0012100E00021DFF89C211278A1
S113167012F0FC0210F003031A43DFF88C311A70E5
S1131680C0B2002809D1DFF890010078400704D5E2
S1131690DFF8500200788007FAD5C9B2002907D0D4
S11316A040F2DC5000E000BF0100481E0029FAD1DE
S11316B00020704730B4DFF82C321B78C3F3810369
S11316C0DBB2DFF82042247814F00104DFF8CC51B7
S11316D02D78C5F34205D2B2EDB2AA4222D0E4B2CB
S11316E0012C13D1012B04D0DFF828412478A4075E
S11316F00CD5DFF82441247814F0FE04DFF81851E7
S11317002C70DFF8E0412478E407FAD4DFF88C4148
S1131710247814F0D004520012F00E022243DFF8B1
S11317207C412270DFF8F020127812F0FE0211F0F2
S113173001042243DFF8E0402270DFF8D820127859
S113174012F0FC020243DFF8CC402270012B01D0DE
S1131750800708D5DFF88C010078C0B210F00100D2
S1131760C9B28842F6D1002030BC704700214278CB
S113177012F01F021143DFF868211170DFF87011B5
S1131780097811F0E001827812F01F021143DFF8AA
S113179060211170DFF848110978007850F040009A
S11317A00843DFF83C110870DFF838010078400680
S11317B0FAD5704738B504002068FFF7C6FE050067
S11317C02179DFF8D000FFF747FEA11DDFF8C40040
S11317D0FFF738FE1048007810F0C300290111F01B
S11317E030010843617908430B4908706079002887
S11317F009D0DFF8A0000078000604D5DFF8E40083
S113180000788007FAD531BD0C4006400C80FF1FDC
S11318101080FF1F0040064001400640064006407D
S11318200080FF1F0480FF1F80B5DFF8C800007828
S113183010F0FD00DFF8BC201070DFF8B000007875
S113184010F03B0050F08000284A107025480078C2
S1131850C0B210F01C000828F8D12548007810F018
S1131860BF00234A10701F4800788006FBD408008C
S1131870FFF77CFF1E48007850F040001C490870B8
S1131880184800788006FBD5002002BD0070044093
S11318900480044000500640006CDC02084006400E
S11318A001127A004480044038B50C001500C0B21F
S11318B0FFF7CFFE29002000C0B2FFF7B5FF0B48A9
S11318C0007810F03F000949087006480078C0F31A
S11318D08100C0B20328F8D1002032BD0340064085
S11318E004400640064006403425000000400640FF
S11318F00540064001400640C9B2002904D0C17821
S113190051F00801C17003E0C17811F0F701C17012
S11319107047C9B2002904D0C17851F00401C170E4
S113192003E0C17811F0FB01C1707047C9B200290E
S113193004D0816851F40021816003E0816831F4AE
S1131940002181607047C9B2002904D0816851F434
S11319508021816003E0816831F4802181607047D7
S113196030B587B00C001D00DFF83C14097800295D
S113197001D001202DE0DFF830140A70D2B2012A20
S113198002D0022A27D04BE0DFF81C14486003A8D9
S113199000F09AFA03942A0003A9DFF80C044068C3
S11319A000F026FA0121DFF800044068FFF7A4FFE5
S11319B00121DFF8F4034068FFF7ABFFDFF8EC0325
S11319C0DFF8E4138860DFF8E803DFF8DC13C860AD
S11319D0002007B030BDDFF8D0134860684600F03F
S11319E0ADFB00942A006946DFF8BC03406800F0B0
S11319F006FB0121DFF8B0034068FFF797FF0121E0
S1131A00DFF8A4034068FFF79EFFDFF8A803DFF8C0
S1131A1098138860DFF8A003DFF88C13C860D7E759
S1131A200420D6E70EB400B5DFF87C13097800294A
S1131A3002D15FF0FF3005E001AA01000FF20D00B2
S1131A4000F082F85DF810FB0000000001B5DFF83B
S1131A5058030078002802D15FF0FF3009E001222A
S1131A606946DFF844034068DFF83C339B689847D5
S1131A70012002BD80B5DFF830030078002802D1D0
S1131A805FF0FF300AE001226946DFF81C0340687A
S1131A90DFF81433DB6898479DF8000002BD2DE998
S1131AA0F04104000D0016001F00DDF8188006E068
S1131AB0E4B22000C0473868401C38606D1CB54251
S1131AC0F6DBBDE8F08170B4040000200025257029
S1131AD0641C002A17D00968002908D1302121701C
S1131AE0401C2DE0303511002570641C401C002979
S1131AF026D091FBF3F203FB1215002DF2D5E94336
S1131B0011F13105EFE70A68002A1BD13021217059
S1131B10401C15E061220A3A551932002570641CF4
S1131B20401C002A0CD0B2FBF3F603FB16250A2D49
S1131B3001D23035F1E7C9B20029EBD04122EAE7FE
S1131B4070BC70470399ECE72DE9F04F8FB00500A6
S1131B5091465FF000080027002002900026002034
S1131B6003900C0005E05046A8470298401C0290E0
S1131B70641C94F800A0BAF1000F00F01181BAF1CE
S1131B80250F05D05046A8470298401C0290EFE765
S1131B9001208DF804005FF0000B002004E00A210E
S1131BA0BAF1300201FB0B2B002809D1641C94F814
S1131BB000A0BAF130010A29F1D3641E0120F3E731
S1131BC00621641C20782E2813D10021002004E073
S1131BD00A22BAF1300302FB013100280AD1641C45
S1131BE094F800A0BAF130020A2AF1D3641E01204D
S1131BF0F3E7641E641C94F800A0BAF1640F1BD0D0
S1131C00BAF1690F18D0BAF1660F15D0BAF1460FC0
S1131C1012D0BAF1780F0FD0BAF1580F0CD0BAF134
S1131C206F0F09D0BAF1620F06D0BAF1700F03D06A
S1131C30BAF1750F40F08280BAF1640F02D0BAF1A4
S1131C40690F11D1D9F8000019F1040904909DF825
S1131C50040000900A23012204A905A8FFF733FF1A
S1131C60070005A817EB0008BAF1580F02D0BAF123
S1131C70780F17D1BAF1780F02D100208DF8040043
S1131C80D9F8000019F1040903909DF804000090AC
S1131C901023002203A905A8FFF715FF070005A8D4
S1131CA017EB0008BAF16F0F08D0BAF1620F05D034
S1131CB0BAF1700F02D0BAF1750F26D1D9F800002D
S1131CC019F104090390BAF1620F0BD0BAF16F0F46
S1131CD006D0BAF1700F07D0BAF1750F06D006E03E
S1131CE0082604E0022602E0102600E00A269DF8F9
S1131CF004000090F6B23300002203A905A8FFF700
S1131D00E2FE070005A817EB0008009502AB5A464F
S1131D1039002020FFF7C3FEB8F1000F3FF428AFCD
S1131D2098F8000000283FF423AF98F80000A84773
S1131D30B8F101080298401C0290F1E7BAF1630F70
S1131D4009D1D9F8000019F10409C0B2A8470298D2
S1131D50401C02900CE7BAF1730F7FF404AFD9F87A
S1131D6000A019F10409BAF1000F3FF401AF504685
S1131D7000F074FA0700009502AB5A46390020209F
S1131D80FFF78DFE9AF8000000283FF4F1AE9AF8B0
S1131D900000A8471AF1010A0298401C0290F1E7DA
S1131DA002980FB0BDE8F08F1480FF1FFF1E0000E3
S1131DB0171F00009D210000B5210000010C01F156
S1131DC0804111F58E210A68012313FA00F01043B3
S1131DD0086070470322002100E0491C914205D2AB
S1131DE0DFF8C43153F821308342F6D1080070473C
S1131DF0F8B504000D00002600200020286800012A
S1131E00B2FBF0F6B6B2002E00D1012650012968CB
S1131E100901B0FBF1F0B6B2B0EB46175000B6B210
S1131E20710111FA87F1B0FBF1F02968401A2968B1
S1131E306422B1FBF2F103225143814202D240F207
S1131E40F53040E02000FFF7C5FFDFF8601151F8DE
S1131E502000FFF7B3FFE07810F0F300E070207883
S1131E6010F0E001300080B2000A08432070667070
S1131E70A07A10F0E00017F01F010843A072A078C8
S1131E8010F0EC002979002903D0297951F01001D0
S1131E900843A0706879E074A8796075207C50F0DC
S1131EA088002074607C50F0C0006074E078E979A8
S1131EB0002901D050F00800297A002901D050F0FF
S1131EC00400E0700020F2BD5FF4E1310160002104
S1131ED0017100214171012181710021C171002131
S1131EE0017270470179C9B2427951EA0221027B39
S1131EF051EA0241807C51EA00610800704705E024
S1131F0003791B06FCD50B78C371491C13005A1EB8
S1131F10002BF5D1704770B504000D00160002E0E7
S1131F20E07928706D1C3000461E002819D0A07D71
S1131F300028F5D12000FFF7D5FF010702D540F2B4
S1131F40F1300FE0410702D540F2F2300AE0810798
S1131F5002D540F2F33005E0C007E8D54FF47D70B8
S1131F6000E0002070BD80B5114801681248114A94
S1131F701268904701BD80B5FFF7F5FF01BD80B53C
S1131F800B4841680D480B4A1268904701BD80B563
S1131F90FFF7F5FF01BD80B5054881680848054A8B
S1131FA01268904701BD0000542500006025000020
S1131FB02C80FF1F3880FF1F00A0064000B00640A1
S1131FC000C0064080B5FFF7E6FF01BD010C01F13A
S1131FD0804111F58E210A68012313FA00F01043A1
S1131FE008607047002100E0491C002905D1DFF892
S1131FF0502252F821208242F6D1080070472DE980
S1132000F04104000D0028680027002604212FE079
S11320102B684B43B2FBF3F39BB2002B00D101239B
S11320209BB203FB01FCB2FBFCFCD5F800E0BCEB6B
S11320300E0CD5F800E09BB213F1010808FB01F87F
S1132040B2FBF8F8BEEB080EE6450BD2D5F800C09B
S11320509BB213F1010E0EFB01FEB2FBFEFEBCEBC4
S11320600E0C5B1C604502D360460F001E00491C29
S11320702129CDD329686422B1FBF2F10322514313
S1132080814202D240F2215056E02000FFF7AAFF1D
S1132090DFF8B01151F82000FFF798FFA06830F482
S11320A04020A0602068391F042901D250F4003078
S11320B030F0F850791E090611F0F8510843400B2E
S11320C04003B6B2F104C90C08432060206830F024
S11320D000502060A06830F0130029790843297962
S11320E0002901D050F01000A060206830F40050A6
S11320F0E979490311F4005108432060DFF84801ED
S113210050F0004050F44040A979002902D050F02A
S1132110005001E030F00050616808436060A0683E
S1132120297A002901D050F40020697A002901D0CD
S113213050F48020A0600020BDE8F0815FF4E1311C
S11321400160002101710021417100218171002190
S1132150C1710021017200214172704740687047CB
S113216010B50C0041684900490814F000421143BD
S1132170DFF8D8201140DFF8D0202240114331F499
S1132180404114F4404211434160FFF7E7FF044229
S113219002D040F21A5000E0002010BD05E0436870
S11321A01B02FCD50B78C360491C13005A1E002B7C
S11321B0F5D1704770B504000D00160002E0E06828
S11321C028706D1C3000461E00282DD060688002E7
S11321D0F5D42000FFF7C2FF010307D55FF4002107
S11321E02000FFF7BDFF40F21D501EE0410307D55C
S11321F05FF480212000FFF7B3FF40F21E5014E08B
S1132200810307D55FF400312000FFF7A9FF40F2F6
S11322101F500AE0C003D9D55FF480312000FFF7D6
S11322209FFF4FF4A46000E0002070BD80B5084813
S113223001680948074A1268904701BD0000000080
S1132240782600007C26000000001F40FFFFE0BF4E
S11322502480FF1F2880FF1F00A0024000F101031B
S1132260810704D010F8011B89B18107FAD10268F3
S1132270B2F10131914311F0803F04BF50F8042FB3
S1132280F6E710F8011B11B110F8011BFBE7C01AA7
S11322907047FEE719481A490860704719490860F1
S11322A07047E0B51948006800901948D0E9002348
S11322B0CDE90123FFF7EEFF00F011F86A46002193
S11322C00020FFF7F1FA002200210220FFF7F2F9C3
S11322D001A8FFF754F90F480B49086007BD00B582
S11322E083B00D48D0E90023CDE900236846FFF709
S11322F061FA0A48FFF7D2FF07BD0000000023017E
S1132300448004400C80FF1F0880FF1F74260000D7
S11323108425000000B4C4048C25000000127A0057
S1132320010C01F1804111F58E210A68012313FA91
S113233000F010430860704750F8213033F4E06334
S1132340D2B2120212F4E0621A4340F8212070471C
S113235080B50748FFF7E4FF032210210548FFF783
S1132360EBFF032211210348FFF7E6FF01BD000044
S11323700A00381000A0044019E050F8041BCB07F1
S113238044BFA9F101035918121F0023042A41F87C
S1132390043BF9D25FEA827C0B4604D54FF0000C73
S11323A0A1F800C09B1CD10744BF0021197050F84C
S11323B0042B002AE1D170470948006850F47000EA
S11323C0074908604CF22050064908804DF6281051
S11323D0044908804FF4E9700349088070470000FD
S11323E088ED00E00E2005400020054010B450F8B0
S11323F0041B79B10268436812180830DC0744BF33
S1132400A9F10104E31852F8044B43F8044B091FE3
S1132410F9D1ECE710BC704710B50749794418317D
S1132420064C7C44163404E00A68081D5118884799
S11324300146A142F8D110BD90000000B000000098
S113244080B5FFF785FFFFF72CFF00F00BF8044879
S1132450FFF7E8FAFFF70EFBC0B2FFF7F7FAF9E768
S11324604425000080B5FFF77FF8030001224FF4F4
S113247016510248FFF774FA01BD00BF00A00640E0
S113248072B60448044901600448804762B60448AF
S11324900047000008ED00E000100000B923000030
S11324A06D2500004EF68851CEF20001086840F414
S11324B070000860BFF34F8FBFF36F8F4FF0007051
S11324C0E1EE100A70470000B1FEFFFF300000008B
S11324D00C80FF1F0000000015FFFFFF0C00000030
S11324E0980000000080FF1F00000000FEE70000CD
S11324F000F00BF8002801D0FFF78EFF0020C04643
S1132500C046FFF79DFF00F002F80120704700F07D
S113251001B8FEE70746384600F002F8FBE7FEE79D
S113252080B5C046C046024A11001820ABBEFBE786
S1132530260002008002DC020005B8058007950829
S1132540000A710B68656C6C6F20776F726C642E77
S11325500D0A000000A0064000B0064000C006407E
S11325600A0034100B0034100C003410C046C0466E
S1132570FFF798FFFFF7BCFF0080000000093D0053
S113258000004001010300000000230100127A0052
S113259000048000004800478126000000480047EE
S11325A081260000004800478126000000480047BB
S11325B081260000004800478126000000480047AB
S11325C0812600000048004781260000004800479B
S11325D0812600000048004781260000004800478B
S11325E0812600000048004781260000004800477B
S11325F0812600000048004781260000004800476B
S1132600812600000048004781260000004800475A
S1132610812600000048004781260000004800474A
S1132620812600000048004781260000004800473A
S1132630812600000048004781260000004800472A
S11326402D22000000480047771F00000048004783
S113265081260000004800478F1F00000048004703
S11326608126000000480047C51F000000480047BD
S1132670812600000003100000A002400A003C1064
S1112680FFF7FEBFFEE7FEE7FEE7FEE7FEE71C
S903256D6A
