S01400006770696F5F6578616D706C652E7372656316
S11340000000032015670000EF5E0000D36000008D
S1134010B5660000536700005F6700000000000001
S1134020000000000000000000000000C168000063
S1134030C368000000000000C5680000C7680000F5
S1134040BD680000BD680000BD680000BD680000D8
S1134050BD680000BD680000BD680000BD680000C8
S1134060BD680000BD680000BD680000BD680000B8
S1134070BD680000BD680000BD680000BD680000A8
S1134080BD680000BD680000BD680000BD68000098
S1134090BD680000BD680000BD680000BD68000088
S11340A0BD680000BD680000BD680000BD68000078
S11340B0BD680000BD680000BD680000BD68000068
S11340C0BD680000BD680000BD680000BD68000058
S11340D0BD680000BD680000BD680000BD68000048
S11340E0BD680000BD680000BD680000BD68000038
S11340F0BD680000BD680000BD680000BD68000028
S1134100BD680000BD680000BD680000BD68000017
S1134110BD680000BD680000BD680000BD68000007
S1134120BD680000BD680000BD680000BD680000F7
S1134130BD680000AB610000BD680000BD68000000
S1134140BD680000BD680000BD680000BD680000D7
S1134150BD680000BD680000BD680000BD680000C7
S1134160BD680000BD680000BD680000BD680000B7
S1134170BD680000BD680000BD680000BD680000A7
S11343F0BD680000BD680000BD680000FFFFFFFF4E
S1134400FFFFFFFFFFFFFFFFFFFFFFFFFEFFFFFFB9
S11344102DE9F54F91B00D000020039012980790FC
S1134420129810F1010F02D1DFF8B00412901C00B1
S1134430DDF8708005E01199A8470398401C0390AB
S1134440641C2078002800F04082252805D01199AA
S1134450A8470398401C0390F2E75FF0010A002686
S1134460002101E056F0010600291BD1641C2078CC
S113447020280BD023280FD02B2804D02D28F1D0AE
S1134480302806D00BE056F00206EDE756F004069D
S1134490EAE756F00806E7E756F01006E4E7641E7C
S11344A00121E1E70027002103E00A22303802FB62
S11344B00707002908D1641C20780200303A092A31
S11344C0F3D9641E0121F4E70622641C20782E2807
S11344D011D10022002103E00A23303803FB020239
S11344E0002909D1641C20780300303B092BF3D93F
S11344F0641E0121F4E7641E641C20784C2810D04B
S1134500682802D06C2806D00CE0641C2078682847
S113451000D0641E07E0641C20786C2800D0641E60
S113452001E000E0641E641C20780100582900F0BA
S11345308B80622900F00F81632900F08081642957
S113454013D0692911D06E2900F0B8816F2900F0C9
S1134550F180702900F01081732900F07B817529A6
S113456000F0208178296DD065E7D8F8000018F1B3
S1134570040806905FFA8AFACDF800A00A23012203
S113458006A908A800F0ACF9814608A819EB0000B8
S113459005900698002804D55FF02D0A19F1010949
S11345A00FE0B00704D55FF02B0A19F1010908E008
S11345B0700704D55FF0200A19F1010901E05FF0EA
S11345C0000A5FF0000B300717D5BAF1000F05D0D1
S11345D011995046A8470398401C03905FF0010BC3
S11345E012A8029011980190009503AB3A00494635
S11345F0302000F0B6F9B94617E0F00715D412A838
S1134600029011980190009503AB3A00494620208E
S113461000F0A7F9BAF1000F05D011995046A84748
S11346200398401C03905FF0010BBBF1000F08D10D
S1134630BAF1000F05D011995046A8470398401CC1
S11346400390EAE05FF0000AD8F8000018F10408CB
S113465004905FFA8AFACDF800A01023002204A97E
S113466008A800F03DF9814608A819EB0000059060
S11346705FF0000B300720D5F00611D511993020DA
S1134680A8475FFA8AFABAF1000F01D0582000E077
S113469078201199A8470398801C03905FF0010BC0
S11346A012A8029011980190009503AB3A00494674
S11346B0302000F056F9B94624E0F00722D4F00681
S11346C001D519F1020912A80290119801900095E0
S11346D003AB3A004946202000F043F9F00611D517
S11346E011993020A8475FFA8AFABAF1000F01D075
S11346F0582000E078201199A8470398801C039063
S11347005FF0010BF00614D5BBF1000F11D1119924
S11347103020A8475FFA8AFABAF1000F01D0582076
S113472000E078201199A8470398801C039019F1A0
S1134730020972E0D8F8000018F1040804905FFA46
S11347408AFACDF800A00823002204A908A800F0E2
S1134750C7F8814636E0D8F8000018F10408049040
S11347605FFA8AFACDF800A00223002204A908A85F
S113477000F0B6F8814625E0D8F8000018F10408E6
S11347800490D8F8000018F1040804905FFA8AFA3B
S1134790CDF800A01023002204A908A800F0A0F876
S11347A081460FE0D8F8000018F1040804905FFA7D
S11347B08AFACDF800A00A23002204A908A800F070
S11347C08FF8814608A819EB0000059030070CD536
S11347D012A8029011980190009503AB3A00494643
S11347E0302000F0BEF8B94617E0F00715D412A83F
S11347F0029011980190009503AB3A00494620209D
S113480000F0AFF809E0119905980078A8470598D9
S1134810401E05900398401C0390059800780028DA
S1134820F1D1F0070AD512A80290119801900095D1
S113483003AB3A004946202000F093F800E6D8F88C
S1134840000018F10408C0B21199A8470398401C4D
S11348500390F5E5D8F800A018F10408BAF1000FA8
S11348602BD0504600F094F88146F00714D412A8D7
S1134870029011980190009503AB3A00494620201C
S113488000F06FF808E011999AF80000A8471AF1AF
S1134890010A0398401C03909AF800000028F2D102
S11348A0F0070AD512A8029011980190009503AB65
S11348B03A004946202000F054F8C1E5D8F8000039
S11348C018F1040803990160BAE51298002801D090
S11348D0039800E0079813B0BDE8F08FFEFFFF7F58
S11348E070B41C00002300250570401C002A19D058
S11348F0096800290AD1302101705B1C180070BCC2
S11349007047303511000570401C5B1C0029F5D040
S113491091FBF4F204FB1215002DF2D5E94311F1D9
S11349203105EFE70A68002A19D1302101705B1CB8
S1134930E4E761220A3A96192A000670401C5B1CBF
S1134940002ADBD0B2FBF4F504FB15260A2E01D2B3
S11349503036F1E7C9B20029EBD04122EAE70399E6
S1134960EEE72DE9F84304000D0016001F00DDF802
S11349702080DDF8249007E049462000C0B2C047FB
S11349803868401C38606D1CB542F5DBBDE8F18326
S113499000F10103810704D010F8011B89B18107DC
S11349A0FAD10268B2F10131914311F0803F04BFA2
S11349B050F8042FF6E710F8011B11B110F8011B91
S11349C0FBE7C01A704710B450F8041B81B10268A9
S11349D01218001D50F8043BDC0744BFA9F1010480
S11349E0E31852F8044B43F8044B091FF9D1EBE7E1
S11349F010BC70478079C0F38100C0B27047801D3D
S1134A004001DFF81014085CC0B27047801D4001FB
S1134A1010F184400078C0B27047021D5201DFF8E3
S1134A20F83399547047801D4001DFF8EC13085C9B
S1134A30C0B2002801D0012000E00020C0B27047BD
S1134A40801D4001DFF8D413085CC0B2002801D0F7
S1134A50012000E00020C0B27047801D4001DFF853
S1134A60C013085CC0B2002801D0012000E000207F
S1134A70C0B270472DE9F04104004FF400752000E6
S1134A80FFF7B8FF06002000FFF7B9FF0700601C1E
S1134A904001DFF88C1311F800802000FFF7D0FFED
S1134AA00100F6B2002E05D0022E20D00ED3032E24
S1134AB031D039E0C9B2002907D1FFB2002F02D1A9
S1134AC00820050001E0012005002DE0FFB2012FC0
S1134AD00CD1C9B2002909D15FFA88F8B8F1000FE6
S1134AE002D10220050001E0042005001CE0FFB211
S1134AF0002F0FD15FFA88F8B8F1000F08D1C9B2BE
S1134B00002902D04020050004E01020050001E047
S1134B102020050008E0FFB2002F04D1C9B200290B
S1134B2001D080200500FFE7280000B2BDE8F08135
S1134B3038B504000D00207B10F0FC0015F00301D3
S1134B4008432073EDB2002D0CD1601C4001DFF846
S1134B50D412085CC0B2002804D02000FFF77DFF07
S1134B600028FAD031BD2DE9F04704000D001600ED
S1134B701F00DDF82080DDF824902000FFF77AFF85
S1134B8082461D211AEA010F01D1012048E00020CC
S1134B90E11C4901A54A5054207810F03B0050F024
S1134BA0440020702000FFF72AFF0128FAD1F6B252
S1134BB0012E04D13900C9B2200000F028FA60782F
S1134BC010F0FC0016F00101084360702000FFF7AC
S1134BD01DFFF6B2B042F9D1E07810F09F006901F0
S1134BE011F060010843E070E078C0F34110C0B2F6
S1134BF0EDB2A842F8D12000FFF7FCFE0128FAD15B
S1134C00C047F6B2002E04D187480068C9F80000F6
S1134C1005E0874800680100F940C9F80010002049
S1134C20BDE8F0872DE9F84F05000E0093461F00FC
S1134C300A9CDDF82C80DDF830902800FFF71AFF7D
S1134C4082467B211AEA010F01D101206BE0310079
S1134C50C9B2280000F01EF900900098002801D184
S1134C60212060E00020691D49016B4A505428004E
S1134C70FFF7E6FE0028FAD10020691C4901684AC2
S1134C8050540FFA8AFABAF1080F06D0287B10F0B4
S1134C90FC0016F0030108432873287810F0030081
S1134CA05FEACB0111F03801084350F0800028700E
S1134CB02800FFF7A4FE0028FAD10FFA8AFABAF105
S1134CC0080F06D1287B10F0FC0016F003010843FE
S1134CD02873F6B2002E0BD1681C40015149085CC0
S1134CE0C0B2002804D02800FFF7B7FE0028FAD08D
S1134CF0E87810F01F0050EAC710610111F060015C
S1134D000843E870E878C0F34110C0B2E4B2A042AE
S1134D10F8D12800FFF76EFE0228FAD1C0470098A8
S1134D20C9F800000020BDE8F28F2DE9F84F050016
S1134D300E00170098460A9CDDF82C902800FFF717
S1134D4099FE8246B0211AEA010F01D101205EE0EA
S1134D503100C9B2280000F09DF88346BBF1000F72
S1134D6001D1212053E05FFA88F818F10100BBFB60
S1134D70F0F0009000982F49884203D300982E4900
S1134D80884201D3412042E00020691C4901244AA1
S1134D905054287810F03F0050F08000287028000C
S1134DA0FFF728FE0228FAD13100C9B22800FFF724
S1134DB0BFFE00212800FFF730FE0020691D4901D5
S1134DC0154A50542800FFF73BFE0028FAD12879F1
S1134DD010F0E00018F01F0108432871687910F002
S1134DE0E00014F01F01084368710120691D4901A6
S1134DF0094A50542800FFF723FE0028FAD028005F
S1134E00FFF711FE0028FAD0C9F800B00020BDE871
S1134E10F28F00001000004218000042140000420B
S1134E2004000042080000420800FF1F1C0000426A
S1134E300400FF1F80841E0001093D008079C0F337
S1134E408100C0B27047421C520112F184421170B9
S1134E507047801D400110F184400078C0B2704753
S1134E60801D4001DFF85C13085CC0B2002801D04B
S1134E70012000E00020C0B27047801D4001DFF82F
S1134E804813085CC0B2002801D0012000E00020D3
S1134E90C0B270470200C9B2002903D002290BD066
S1134EA005D30DE0DFF824331B6818000AE0DFF8AF
S1134EB020331B68180005E0DFF81833180001E000
S1134EC000231800704710B50400207B10F0030184
S1134ED02000FFF7DFFF10BD70B405000800039C3D
S1134EE001000800D040DBB2002B18D0E4B2012C42
S1134EF015D0D2B211000029052904D9891F04D084
S1134F00491E06D009E0400909E01421B0FBF1F084
S1134F1005E00C21B0FBF1F001E00021080070BCB9
S1134F2070472DE9F04182B004006001DFF8A81257
S1134F30085CC0B200281DD12000FFF7C4FF0500A3
S1134F402078C0F3C20006006078C0F301100700A7
S1134F50207B10F0030080465FFA88F8CDF80080CB
S1134F603B00DBB23200D2B229002000FFF7B4FFCD
S1134F70050003E0DFF86402006805002800BDE8CE
S1134F80F68110B40400D2B2002A04D0B1F5004F67
S1134F900BD9002013E047F61220814203D349F6CF
S1134FA09800814201D3002009E0DFF83402DBB22B
S1134FB010EB8300D2B230F8120000FB01F010BCF9
S1134FC07047F8B504002000FFF757FF002801D010
S1134FD000201BE02000FFF7A4FF0500002D01D1F5
S1134FE0002013E0E01C4001DFF8F811085C060023
S1134FF0E078C0F3411007003B00DBB23200D2B2CC
S113500029002000FFF7BDFF05002800F2BD38B5D8
S113501004000D00207AC0F34200C0B2EDB2A842F1
S11350202AD0601C400110F184400078C0B20028EE
S113503008D1207A10F0F000690011F00E01084345
S1135040207219E000212000FFF7FDFE2000FFF789
S113505000FF0028FAD1207A10F0F000690011F066
S11350600E010843207201212000FFF7ECFE20000E
S1135070FFF7EFFE0128FAD131BD10B5040020007E
S1135080FFF721FF10BD70B50400A01D40014E497B
S1135090085CC0B2002808D1201D40014949085CC1
S11350A0C0B2002801D1002013E02000FFF7E5FF83
S11350B00500207910F01F00401C0600F6B2B5FB75
S11350C0F6F5607910F01F0018300600F6B275434B
S11350D0280070BDF8B504000D0016001F006079AB
S11350E010F0E00016F01F0108436071207910F001
S11350F0C00050EA471015F01F01084350F040006B
S113510020712000FFF7ACFE0028FAD0F1BD10B4E6
S113511001004801344B185CC0B2002801D10020C2
S113512014E0481C400110F184400078C0B200280B
S113513003D12A480068020007E02C4800680B7A73
S1135140C3F342030400DC402200100010BC70478B
S113515070B504002000FFF771FE0600F6B2002EC1
S113516009D0022E11D00BD3032E13D12000FFF748
S11351708AFF050010E02000FFF723FF05000BE085
S11351802000FFF7C4FF050006E02000FFF79BFEA8
S1135190050001E000200500280070BD30B444780B
S11351A014F0C3040D0115F030052C43D50015F09F
S11351B008052C439D0015F004052C43447030BCB5
S11351C07047000018000042140000421C00FF1F3A
S11351D02000FF1F006CDC02080000420800FF1FD3
S11351E02C6800001C000042040000420400FF1F61
S11351F0C9B24A0910EB820202F580522832C9B2C0
S113520011F01F039B0013EB421212F1844201239D
S113521013607047027812F03F0252EA8112027062
S113522070478079C0F38100C0B27047421C5201BC
S1135230DFF8B433995470474201DFF8AC33995422
S11352407047420112F1844211707047421C5201AE
S113525012F1844211707047801D400110F18440A6
S11352600078C0B27047021D5201DFF880339954B0
S11352707047421D5201DFF8743399547047801D02
S11352804001DFF86C13085CC0B2002801D0012093
S113529000E00020C0B27047801D4001DFF84813D1
S11352A0085CC0B2002801D0012000E00020C0B298
S11352B070474201DFF83C33995470474201DFF8EC
S11352C030339954704710B50400BD21DFF828032A
S11352D0FFF78EFF10BDC9B210F110025201DFF8C2
S11352E01C3399507047C9B210F110025201DFF813
S11352F0103399507047C9B210F110025201DFF80F
S1135300043399507047C9B210F110025201DFF80A
S1135310F8329950704710B491F00102D2B210F1F2
S113532010035B01DFF8E442E25010BC7047C9B2DD
S113533010F110025201DFF8D83299507047103042
S11353404001DFF8CC120858002801D0012000E009
S11353500020C0B2704780B50221AF48FFF75AFF62
S1135360AD48FFF75EFF0228FAD10021AA48FFF7F3
S113537080FFA948FFF783FF0028FAD101BD2DE97A
S1135380FF4104000D00677A5FF00008A248FFF7B0
S113539071FB0600B4F90000042812D136B2802E45
S11353A001D1FFF7D8FF03A8019000956379227912
S11353B0E1799948FFF7D7FB01219748FFF736FFBA
S11353C051E0B4F9000008281ED136B2802E01D174
S11353D0FFF7C1FF00219048FFF728FF03A80290C0
S11353E00195E0790090237AA2793900C9B28A48FC
S11353F0FFF718FC00218848FFF70CFF8648FFF7E9
S113540010FF0028FAD12EE0B4F90000802828D13A
S113541036B2802E0FD000217F48FFF707FF03A884
S113542002900195E0790090237AA2793900C9B2FB
S11354307948FFF7F7FB03A80190607B0090237B7A
S11354404246D2B23900C9B27348FFF76EFC00215C
S11354507148FFF7DFFE7048FFF7E3FE0328FAD137
S113546001E001202BE0A1786B48FFF7E5FEE1782D
S11354706948FFF7E6FEA078002811D020790128BA
S113548003D161796448FFF7C2FD21796248FFF7CF
S1135490DDFE6148FFF7E0FE2179C0B28142F8D118
S11354A0A07A002806D0E37A627B217B5A48FFF772
S11354B011FE03E000215848FFF7D5FE002004B098
S11354C0BDE8F08170B504000D00002C07D040F257
S11354D04F225049514800F0ADF8C046C04600265E
S11354E0A87A01281CD12879002801D0082000E0DE
S11354F000206979002901D0042100E00021AA7963
S1135500002A01D0022200E0002208431043E97976
S113551051EA00063100424850F8240000F09CF89B
S113552015F10B01200000F016F8AB7A2A7A697A9B
S11355303948FFF733FEA87A012807D1E87A002812
S113554004D03548FFF7A8FE0028FAD0286835496A
S11355500860002070BD38B504000D00297830487B
S113556050F82400FFF7A5FE69782D4850F8240070
S1135570FFF7A4FE31BD70B504000D00002C07D068
S11355804FF430722349284800F054F8C046C0460E
S1135590264850F824602000FFF795FE2868244927
S11355A008603000FFF7CBFE002812D1287A0028CB
S11355B00FD029793000FFF78EFE69793000FFF7AC
S11355C092FEA9793000FFF796FEE9793000FFF7E3
S11355D09AFE297A3000FFF7AAFE697A3000FFF7B5
S11355E09AFE002070BD0000040000421800004232
S11355F0140000421C0000420070044034000042C9
S1135600300000422C0000422800004224000042E6
S1135610200000427C64000000400640B8660000A0
S1135620B46800001C00FF1FD8660000B8680000C2
S11356302000FF1F00B583B00091019202906A46DA
S113564004491820ABBE002801D100F00BF803B0C8
S113565000BD00BF10100200027812F0F0020A43ED
S113566002707047012000F011B850F8041B61B1BA
S113567050F8042BD30744BFA9F101039A1800235F
S1135680091F42F8043BFAD1EFE7704780B5C046E2
S1135690C046024A11001820ABBEFBE726000200F8
S11356A0012110F01F029140DFF8C82340B24309E2
S11356B042F82310704770B504000D001600202D29
S11356C008D38922DFF8B013DFF8B003FFF7B2FF85
S11356D0C046C04614EB8500400110F18440F6B288
S11356E0066070BD70B504000D001600202D08D3AF
S11356F09C22DFF88413DFF88403FFF79BFFC04686
S1135700C04614EB85004001DFF87413F6B20E5066
S113571070BD70B504000D001600202D08D3AF2213
S1135720DFF85413DFF85403FFF784FFC046C04684
S113573014EB85004001DFF84C13F6B20E5070BD37
S113574070B504000D001600202D08D3C622DFF822
S11357502813DFF82803FFF76DFFC046C04614EB9B
S113576085004001DFF82013F6B20E5070BD70B50D
S113577004000D001600202D08D3D922DFF8F812FA
S1135780DFF8F802FFF756FFC046C04614EB850069
S11357904001DFF8F812F6B20E5070BD70B5040087
S11357A00D001600202D08D3EC22DFF8CC12DFF810
S11357B0CC02FFF73FFFC046C04614EB8500400112
S11357C0DFF8CC12F6B20E5070BD70B504000D00B7
S11357D01600202D08D3FF22DFF89C12DFF89C026C
S11357E0FFF728FFC046C04654F82500DFF8A4128E
S11357F00840F6B2310211F4E061084344F8250090
S113580070BD70B504000D001600202D09D340F2C0
S11358102512DFF86412DFF86402FFF70BFFC046BD
S1135820C046D4F8C000F6B216FA05F10843C4F82D
S1135830C00070BD70B504000D001600202D09D302
S11358404FF4BE72DFF83012DFF83002FFF7F2FED9
S1135850C046C04654F82500DFF83C120840F6B2B2
S1135860310411F47021084344F8250070BD38B5A3
S113587004000D00202D07D340F2B3127E497F4867
S1135880FFF7D8FEC046C04614EB850040018349AB
S113589001220A5031BD38B504000D00202D06D375
S11358A0BF227F497F48FFF7C5FEC046C04601209E
S11358B0A840A06031BD38B504000D00202D06D3EA
S11358C0CB2277497748FFF7B5FEC046C046012092
S11358D0A840E06031BD10B5040064B2002C06D5C8
S11358E05D2271497148FFF7A5FEC046C04664B207
S11358F0562C06DB5E226C496D48FFF79BFEC046C2
S1135900C046200040B2FFF7CBFE10BD38B50400FE
S11359100D00002C08D0206810F1010F04D02000E5
S113592000F00EF80C34F6E7002D08D0286810F1CA
S1135930010F04D0280000F044F80C35F6E731BD1F
S11359402DE9F04104002068C0F307252078C6B291
S1135950584850F82570584850F82580280000F021
S113596078F9012231004046FFF72FFF0022310071
S1135970380000F0A9F9227931004046FFF7B2FE61
S1135980627931004046FFF796FEA2793100404625
S1135990FFF7D6FEE27931004046FFF732FF227A64
S11359A031004046FFF746FF207A002807D04348DD
S11359B02856002803D041482856FFF78CFFBDE83D
S11359C0F0812DE9F04104002068C0F30725207818
S11359D0C6B2384850F82570374850F8258028005A
S11359E000F037F9012231004046FFF7EEFE0122B4
S11359F03100380000F068F962683100380000F0C6
S1135A007FF9227A31004046FFF783FE627A310043
S1135A104046FFF7C3FEA27A31004046FFF7A7FED7
S1135A20BDE8F08170B504002248C4F3072150F8A2
S1135A302150E6B231002800FFF72DFF70BD70B58C
S1135A4004001C48C4F3072150F82150E6B2310089
S1135A502800FFF730FF70BD70B504001648C4F38A
S1135A60072150F82150E6B231002800FFF7FFFE6D
S1135A7070BD000000E100E05C63000060680000AD
S1135A8004000042080000421000004214000042DA
S1135A9018000042FFF8FFFEFFFFF0FE6000004226
S1135AA0C46300006C680000E86200001C68000029
S1135AB0F4650000D4670000E8670000AC680000EB
S1135AC0C9B24A0910EB820202F580522832C9B2E7
S1135AD011F01F039B0013EB421212F184420123C5
S1135AE013607047026832F44022C9B28B0413F485
S1135AF040231A430260704741F20402125832F400
S1135B004032C9B20B0413F440331A4341F2040384
S1135B101A50704741F244010858000FC0B2704750
S1135B2041F244010858000E10F00F0070470000C5
S1135B3080B500F04EF840F6B831B0FBF1F001004A
S1135B40481E002901D000BFF9E701BD10B582B09D
S1135B500400607900902379E278A178DFF84401A9
S1135B6000F0EAF82178DFF83C01FFF7C5FF61781F
S1135B70DFF83001FFF7B6FF13BD10B582B00400A3
S1135B80002C08D17222DFF82011DFF82001FFF782
S1135B9051FDC046C046042000900223012200218A
S1135BA0DFF8000100F0C8F8DFF804112000FFF767
S1135BB0E6FB14F11000FFF7C9FF14F10E010020F9
S1135BC0FFF7C9FC00F005F8DFF8E81008600020D2
S1135BD016BD10B5DFF8C800FFF7BAFA0400DFF805
S1135BE0C400FFF797FF401CB4FBF0F010BD10B5E4
S1135BF0DFF8AC00FFF7ACFA0400DFF8A800FFF709
S1135C0089FF401CB4FBF0F010BD10B5DFF8900024
S1135C10FFF79EFA0400DFF88C00FFF781FF401CB9
S1135C20B4FBF0F010BD38B50400200000280128B2
S1135C3003D9801E032804D907E0FFF7D8FF050025
S1135C4005E0FFF7E2FF050001E000200500280061
S1135C5032BD10B50400052C09D340F2B122DFF89F
S1135C604810DFF85400FFF7E5FCC046C046DFF8F3
S1135C704C00215C0B48FFF723FF10BD10B5040056
S1135C80062C07D340F2DF3207490D48FFF7D2FC58
S1135C90C046C0460B48215C0248FFF711FF10BD07
S1135CA000400640007004402C6400000C680000B2
S1135CB0315B00000000FF1F486500009C68000085
S1135CC084650000A468000070B504000D0016008F
S1135CD0202D06D32E2216491648FFF7ABFCC046EA
S1135CE0C046F6B2012E05D160690121A9400843DE
S1135CF0606104E060690121A9408843606170BD6E
S1135D0070B504000D001600202D06D34222084968
S1135D100848FFF78FFCC046C046002E03D0012080
S1135D20A840606002E00120A840A06070BD0000AF
S1135D30086500007868000070B4039C0025C9B2AF
S1135D4055EA0175D2B2160616F070663543DBB219
S1135D501E0516F470063543E4B2260416F47026C4
S1135D60354341F24406355070BC70470121C01CD4
S1135D704001414A115470470121C01C40013F4A6F
S1135D8011547047801C40013D4A11547047400132
S1135D903C4A1154704770B586B004000D003A486F
S1135DA00078002801D0032038E0374802703648D4
S1135DB04470D2B2102A30D100A83449182200F01D
S1135DC06BF800A850F824602F4846602000FFF7C5
S1135DD055FF2000FFF727FF2A000100300000F0E4
S1135DE087F800213000FFF7CDFF0021300000F0DC
S1135DF0A7F800213000FFF7CAFF3000FFF7B6FF15
S1135E003000FFF7B9FF22481F49886021481E4926
S1135E10C8601D484470002000E0012006B070BD39
S1135E200EB400B582B018490978002902D15FF098
S1135E30FF3009E003A9009103005FF0FF320FF285
S1135E4011010020FEF7E4FA06BC5DF810FB000027
S1135E5080B58DF800000C480078002802D15FF06E
S1135E60FF3007E0012200A907484068064B9B6801
S1135E709847002002BD00000C00004208000042C8
S1135E8010000042140000420C00FF1F786700005D
S1135E90755F0000A35F0000103A07D330B4B1E887
S1135EA03810103AA0E83810F9D230BC530724BF98
S1135EB0B1E80810A0E8081044BF51F8043B40F8CA
S1135EC0043BD20724BF31F8022B20F8022B44BF35
S1135ED00B7803707047083A07D3B1E80810083A02
S1135EE040F8043B40F804CBF7D25307E4E7FEE75D
S1135EF070B403001001B1FBF0F00400A4B2B4F5D7
S1135F00005F02DAA4B2002C01D1022016E0187856
S1135F1010F0E000C4F30425284318705C704801B5
S1135F201501B0FBF5F0A4B2B0EB4415987A10F06B
S1135F30E00015F01F0630439872002070BC7047D3
S1135F4010B4C9B24A08831C5B01DFF8B440E254C0
S1135F5011F00102831C5B0113F184431A7010BC1D
S1135F6070470279521CC17170470279521CC3797F
S1135F700B70704770B504000D0016003000461E0B
S1135F8000280DD0201D4001DFF87810085CC0B255
S1135F900028F7D029782000FFF7E3FF6D1CEDE718
S1135FA070BD2DE9F04104000D0090460026002745
S1135FB04046B0F1010800281CD0201D4001DFF844
S1135FC04810085CC0B20028F7D029002000FFF771
S1135FD0CCFF6D1C201D4001DFF82010085CC0B20E
S1135FE00028E5D020790700E07907007F1C0F2006
S1135FF00600DDE73000C0B2BDE8F0810C000042CD
S1136000040000421C0000421400004270B5040069
S11360100D001600202D06D3FF2220492048FFF74B
S113602009FBC046C04654F825001E490840F6B294
S1136030310211F4E061084344F8250070BD017099
S1136040704700B585B000A817491022FFF724FF58
S113605000A90020FFF736FA05B000BD10B584B0E2
S113606000A812491CC91CC00C390C3800A9002016
S1136070FFF781FA1FBD80B52A210D48FFF7DFFF26
S1136080002212210B48FFF7C1FFFFF7DAFFFFF7E9
S1136090E5FF0948FFF771FD01BD00000062000043
S11360A03C680000FFF8FFFEFC6700004868000041
S11360B000E00740009004406067000080B50020C5
S11360C000F024F810225FF4E1310020FFF763FEB2
S11360D001BDFEE770B504000D001600202D08D3A5
S11360E0FF22DFF86410DFF86400FFF7A3FAC0466C
S11360F0C04654F82500DFF858100840F6B23102C3
S113610011F4E061084344F8250070BD80B500280F
S113611002D004280BD015E0032210210D48FFF70C
S1136120D9FF032211210B48FFF7D4FF0AE0032211
S11361300E210948FFF7CEFF03220F210648FFF77F
S1136140C9FFFFE701BD000074620000546800004D
S1136150FFF8FFFE00A0044000B0044000B58DB07D
S113616006A818491822FFF797FE00A81649182216
S1136170FFF792FE00F032F81448FFF751FE14487E
S1136180FFF74EFE00A906A8FFF7C0FB40F21A4035
S1136190FFF748FC0F4800780028FBD00E48FFF7B3
S11361A03FFE00200B490870F4E780B540F206205A
S11361B0FFF752FC01200749087040F21A40FFF72C
S11361C03EFC01BD90670000A8670000F86600006F
S11361D0486600002400FF1FC067000080B500204F
S11361E0FFF737FD0120FFF734FD0220FFF731FDF3
S11361F00420FFF72EFDFFF73EFFFFF75FFF01BD11
S1136200443A5C467265657363616C655C4B5344E8
S11362104B5F312E322E305C6578616D706C657326
S11362205C6672646D6B3634665C64726976657242
S11362305F6578616D706C65735C6770696F5C69CC
S113624061722F2E2E2F2E2E2F2E2E2F2E2E2F2EEE
S11362502E2F706C6174666F726D2F68616C2F697C
S11362606E635C66736C5F706F72745F68616C2ED2
S113627068000000443A5C467265657363616C654E
S11362805C4B53444B5F312E322E305C6578616D2C
S1136290706C65735C6672646D6B3634665C6472D4
S11362A0697665725F6578616D706C65735C677043
S11362B0696F5C6961722F2E2E2F2E2E2F2E2E2F9A
S11362C02E2E2F2E2E2F706C6174666F726D2F68B8
S11362D0616C2F696E635C66736C5F706F72745F60
S11362E068616C2E68000000443A5C467265657310
S11362F063616C655C4B53444B5F312E322E305CD2
S11363006C69625C6B73646B5F706C6174666F72F2
S11363106D5F6C69625C6961725C4B363446313224
S11363202F2E2E2F2E2E2F2E2E2F2E2E2F706C61D1
S113633074666F726D2F73797374656D2F696E63F4
S11363405C66736C5F696E746572727570745F6D90
S1136350616E616765722E6800000000443A5C4615
S11363607265657363616C655C4B53444B5F312E9E
S1136370322E305C6C69625C6B73646B5F706C6151
S113638074666F726D5F6C69625C6961725C4B36D6
S1136390344631322F2E2E2F2E2E2F2E2E2F2E2EF0
S11363A02F706C6174666F726D2F68616C2F696EEB
S11363B0635C66736C5F706F72745F68616C2E6887
S11363C000000000443A5C467265657363616C6565
S11363D05C4B53444B5F312E322E305C6C69625CF3
S11363E06B73646B5F706C6174666F726D5F6C6904
S11363F0625C6961725C4B36344631322F2E2E2F2B
S11364002E2E2F2E2E2F2E2E2F706C6174666F72EF
S11364106D2F68616C2F696E635C66736C5F677067
S1136420696F5F68616C2E6800000000443A5C4646
S11364307265657363616C655C4B53444B5F312ECD
S1136440322E305C706C6174666F726D5C7379733C
S113645074656D5C7372635C636C6F636B5C4D4BF2
S113646036344631325C66736C5F636C6F636B5FAA
S11364704D4B36344631322E63000000443A5C46BC
S11364807265657363616C655C4B53444B5F312E7D
S1136490322E305C706C6174666F726D5C737973EC
S11364A074656D5C7372635C636C6F636B5C667361
S11364B06C5F636C6F636B5F6D616E616765722E99
S11364C0630000000C480D49884210D0002006E00B
S11364D00A4951F82010084A42F82010401C084983
S11364E0B0EB910FF4D304480649086002E0034876
S11364F004490860704700BF0040000000400000ED
S11365000000000008ED00E0443A5C4672656573E3
S113651063616C655C4B53444B5F312E322E305CAF
S1136520706C6174666F726D5C68616C5C737263CD
S11365305C6770696F5C66736C5F6770696F5F68D6
S1136540616C2E6300000000696E7374616E636594
S1136550203C2073697A656F6628706F7274476196
S113656074655461626C65292F73697A656F662856
S1136570706F7274476174655461626C655B305D01
S113658029000000696E7374616E6365203C20739A
S1136590697A656F662875617274476174655461C0
S11365A0626C65292F73697A656F662875617274E8
S11365B0476174655461626C655B305D290000005D
S11365C00948006850F47000074908604CF22050F4
S11365D0064908804DF62810044908804FF4E970F4
S11365E0034908807047000088ED00E00E20054054
S11365F0002005406972714E756D626572203C3DE4
S11366002046534C5F464541545552455F494E54CC
S11366104552525550545F4952515F4D4158000004
S113662010B5074979441831064C7C44163404E00B
S11366300A68081D511888470146A142F8D110BDC7
S113664050000000700000000D0A20507265737342
S113665020535720746F207475726E206F6E2F6FE5
S113666066662061204C4544310D0A004EF688517F
S1136670CEF20001086840F470000860BFF34F8F49
S1136680BFF36F8F4FF00070E1EE100A7047000007
S1136690DBEFFFFF1C0000000C00FF1F00000000E8
S11366A027E3FFFF0C000000E80100000000FF1FCB
S11366B000000000FEE70000696E7374616E63659C
S11366C0203C204F53435F494E5354414E43455F52
S11366D0434F554E54000000696E7374616E6365D8
S11366E0203C205254435F494E5354414E43455F2E
S11366F0434F554E540000000D0A204750494F2087
S1136700504420447269766572206578616D706CBE
S1136710650D0A0072B6034880470348804762B695
S113672002480047C1650000C56400008568000098
S113673000F00BF8002801D0FFF772FF0020C046DC
S1136740C046FFF70BFD00F002F80120704700F08F
S113675001B8FEE707463846FEF798FFFBE7FEE779
S11367608000010000000700000000001318010071
S1136770010200010104000000A0064000B0064030
S113678000C0064000D0064000A00E4000B00E40FD
S113679006020000010100000A000000FFFFFFFFE5
S11367A000000000000000001A04000000000000C7
S11367B000010000FFFFFFFF0000000000000000D8
S11367C02053572069732070726573736564200DBC
S11367D00A00000000F00F4040F00F4080F00F402E
S11367E0C0F00F4000F10F400090044000A00440AE
S11367F000B0044000C0044000D0044080F0FA021D
S11368000000000000020000000000004E554C4C47
S113681020213D20636F6E666967000030203C3D97
S1136820206972714E756D62657200008002DC022F
S11368300005B80580079508000A710B70696E2081
S11368403C203332550000000080000000000000AE
S11368500101000070696E203C20333255000000B5
S113686070696E203C2033325500000070696E2040
S11368703C2033320000000070696E203C2033322B
S113688000000000C046C046FFF7F0FEFFF750FFCF
S11368900000400100093D0000800000898A8B8CC3
S11368A08D0000006A6B6C6D0A0B00003B3C3D3EA2
S11368B03F0000000050064000D00340FFF7FEBF39
S10B68C0FEE7FEE7FEE7FEE738
S90368850F
