S01D00004652444D4B4C34365F44656D6F5F66726565646F6D2E73726563B8
S1131000F82F0020C1100000038C0000F58B0000B5
S1131010F58B0000F58B0000F58B0000F58B0000CC
S1131020F58B0000F58B0000F58B0000F58B0000BC
S1131030F58B0000F58B0000F58B0000F58B0000AC
S1131040F58B0000F58B0000F58B0000F58B00009C
S1131050F58B0000F58B0000F58B0000F58B00008C
S1131060F58B0000F58B0000F58B0000F58B00007C
S1131070F58B0000F58B0000F58B0000F58B00006C
S1131080F58B0000F58B0000F58B0000F58B00005C
S1131090F58B0000F58B0000DF790000F58B000074
S11310A00D780000F58B0000557D0000F58B0000E5
S11310B0F58B0000F58B00001F8C0000F58B000001
S11310C00020002100220023002400250026002700
S11310D062B606F0EFFFFEE780B502F0D3FA2B49C3
S11310E0088002F0F7FA2A49088002F01BFB29491C
S11310F0088002F0D4FB2849088002F006FC274946
S1131100088002F03BFCBB49088000F001F801BDF7
S113111000B521480021405E02F072FCB64902F09D
S113112088FC1F4908601D480021405E02F068FCED
S1131130B14902F07EFCAE490860AE480021405E31
S113114002F05EFCAC4902F074FCAC4908600F4844
S11311500021405E02F054FCAB4902F06AFCA8494D
S113116008600B480021405E02F04AFCA64902F0E8
S113117060FCA449086007480021405E02F040FC7E
S1131180A14902F056FCA849086000BDAA1C002031
S1131190AC1C0020AE1C0020A41C0020A61C0020B7
S11311A0D0F7FF1FF0B583B09148006802F0B0FC9F
S11311B04900490802000B0014001D009348006810
S11311C002F0A6FC22002B0002F0BCFC90A20CCA88
S11311D002F026FD0022904B02F0E4FD00228F4B2A
S11311E002F01EFD8EA20CCA02F01AFD02F0B4FE3B
S11311F005008248006802F08BFC02000B005B00D3
S11312005B0816001F007A48006802F081FC320077
S11312103B0002F097FC7EA20CCA02F001FD002202
S11312207D4B02F0BFFD00227C4B02F0F9FC7CA256
S11312300CCA02F0F5FC02F08FFE0400734800684B
S113124002F066FC4900490802000B0016001F006A
S11312506A48006802F05CFC32003B0002F072FC59
S11312606BA20CCA02F0DCFC00226B4B02F09AFD6C
S113127000226A4B02F0D4FC69A20CCA02F0D0FC32
S113128002F06AFE052D00DB0425052C00DB042496
S1131290052800DB04200C2141433C2262439623B1
S11312A05B006B43AB4EF3189A1851188A680C21F3
S11312B041433C236343962676006E43A54FBE19F3
S11312C0F318A54E36885E520C2343433C216143F8
S11312D0962676006E439F4FBE197118C9189F4B0E
S11312E01B884B800C2343433C21614396267600A4
S11312F06E43984FBE197118C918994B1B888B807F
S11313000C2148433C214C43962149004D439149CB
S11313104919091908189349096881600020C043D4
S1131320824264D190480068602805DA8E480068DB
S1131330401C8D4908605AE08A48016800220192E5
S11313401300002500E06D1C052D41DA00243BE06C
S11313500C27474300973C276743BC4696277F00EA
S11313606F437C4EF6196746F619009FF619B66866
S11313700027FF43BE4223D00C27474300973C2756
S11313806743BC4696277F006F43724EF619674643
S1131390F619009FF619B6688E4211DA2B000194F3
S11313A002000C275743019E3C214E43B446962627
S11313B076005E436749891966468919C91989689F
S11313C0401C0528C4DB641C052CBCDA0020F8E7AB
S11313D00C20424301983C214843962149004B4349
S11313E05C49C918081880180021C9438160F7BDF9
S11313F0D4F7FF1FA81C0020FEFF7F39D8F7FF1F7A
S1131400ACF7FF1FB0F7FF1FCDCCCC3DD0F7FF1FCB
S113141000000020DCA54C40008056400000144031
S1131420000000206CC1763FB4F7FF1F70B54F4831
S11314300068002818D04E4800684E49096802F038
S1131440EAFD4D4908604D4800684D49096802F0BD
S1131450E2FD4C4908604C4800684C49096802F0B8
S1131460DAFD4B4908600BE04348414909680160D3
S11314704448424909680160454843490968016094
S113148044480068002864D04348006801683A482A
S1131490006802F0CEFA01000C003F480068416881
S11314A03848006802F0C5FA210002F07CFD010012
S11314B00C003948006881683548006802F0B9FAC0
S11314C0210002F070FD05003348406801682A4895
S11314D0006802F0AEFA01000C002F484068416831
S11314E02848006802F0A5FA210002F05CFD010022
S11314F00C002948406881682548006802F099FA80
S1131500210002F050FD06002348806801681A4853
S1131510006802F08EFA01000C001F4880684168E0
S11315201848006802F085FA210002F03CFD010031
S11315300C001948806881681548006802F079FA3F
S1131540210002F030FD0C490D600E490E60104977
S1131550086070BD14F8FF1FAA1C0020AC1C0020FA
S1131560AE1C00200CF8FF1F10F8FF1F20F4FF1F13
S1131570ACF7FF1FF0FDFF1FB8F7FF1FB0F7FF1F09
S1131580F4FDFF1FBCF7FF1FB4F7FF1FF8FDFF1F9B
S1131590C0F7FF1F24F4FF1F20FEFF1FFBB584B01C
S11315A014000C9E0D9D0699069802F042FA010063
S11315B00F003000310002F03CFA390002F0F3FC75
S11315C001000F002800290002F033FA390002F06C
S11315D0EAFC02F09DFA02F076FD02F0D3FD010070
S11315E0FE20800502F0FFFD01900499049802F0AA
S11315F020FA01000F000599059802F01AFA390043
S113160002F0D1FC01000F002000210002F011FAC9
S1131610390002F0C8FC02F07BFA02F054FD02F03B
S1131620B1FD0100FE20800502F0DDFD07000699F2
S1131630049802F0FEF9010000910598310002F0CF
S1131640F8F9009902F0AFFC010000912800210094
S113165002F0EFF9009902F0A6FC0100019802F0F3
S1131660E8F9390002F0E5F902F052FA02F010FE4E
S113167002F088FDC84902F0DCF9C8490860280076
S113168002F046FA02000B0000920193300002F0CF
S11316903FFA009A019B02F055FA02F073FDBE492D
S11316A002F0C7F9BE490860BD480168BD4802F0B0
S11316B0C0F902F02DFA02F06FFE02F063FD039010
S11316C0B7480168B74802F0B4F902F021FA02F011
S11316D068FE02F057FD02900599029802F0A9F9FC
S11316E007000398210002F0A4F90100380002F079
S11316F092FCAD4908600599039802F09AF901003B
S11317000F000298210002F094F9390002F04BFC1A
S113171004000398310002F08CF901000E000298D5
S1131720290002F086F9310002F03DFC0500280092
S1131730002102F03BFE0CD10698002102F046FE87
S113174003D89A489A49016015E09848994901607C
S113175011E00698802109064840290002F043FD63
S113176002F0D6F902F046FE02F00CFD8A4902F0BE
S113177060F98E4908608D4801688A4802F059F979
S113178002F0C6F902F008FE02F0FCFC06008748ED
S11317900168844802F04DF902F0BAF902F001FE42
S11317A002F0F0FC05000498290002F042F901005F
S11317B00F002000310002F03CF9390002F0F3FB85
S11317C07D4908600498802109064840310002F0F0
S11317D030F901000F002000290002F02AF9390035
S11317E002F0E1FB754908607548006800281AD0CA
S11317F07148006802F08CF902000B00009201931A
S11318006948006880210906484002F081F9009A7D
S1131810019B02F097F902F0B5FC5F4902F009F967
S11318209D49086017E0049802F072F902000B0069
S113183000920193059880210906484002F068F956
S1131840009A019B02F07EF902F09CFC524902F0DE
S1131850F0F89149086090480168524802F0E9F8AC
S113186002F056F902F098FD02F08CFC04008A485C
S113187001684C4802F0DDF802F04AF902F091FDEB
S113188002F080FC070084480068002102F006FE94
S113189006D281480168814802F085FB7E490860D0
S11318A07F487D49096801602800390002F0C1F8C9
S11318B07C49096808602800210002F0BAF87949D7
S11318C00968486077480068310080221206514058
S11318D081603800310002F0ACF80100039802F096
S11318E0A8F800900298210002F0A3F801000098E3
S11318F002F091FB6B49496808600298390002F0D4
S113190098F8010000910398310002F092F8210048
S113191002F08FF8009902F046FB6249496848607A
S11319200398290002F085F85E49496888600298A6
S1131930390002F07EF8310002F07BF801000091DA
S11319400398210002F075F8009902F02CFB554928
S1131950896808600298310002F06BF8210002F0F7
S113196068F804000398390002F063F801002000CD
S113197002F051FB4B49896848600298290002F043
S113198058F84849896888604749464801F040FB4F
S113199000F0DEFE07B0F0BDE12E6542FCF7FF1F4C
S11319A0DCF7FF1F35FA8E3CC8F7FF1FE4F7FF1F73
S11319B00000B4C20000B442C4F7FF1FCCF7FF1FFD
S11319C028F4FF1F80B539480068002862D0C14858
S11319D00068182857DB3648006800280BD03448C4
S11319E00068002854D0BC480068FA21490002F07D
S11319F069FD00294CD100F083F82E4800682E4977
S1131A00096802F0E3FC29D82C4800682C4902F04C
S1131A10DDFC23D8294800682A4902F03FFD1DD285
S1131A20294802F0C7FF2348234909680160274871
S1131A302249096801602648264909680160264848
S1131A40264909680160264826490968016003237C
S1131A5003222549254800F017FB02E0244802F040
S1131A60A9FF14480168234801F0E3FF224901F06B
S1131A70E0FF9A4901F0DDFF0E49096802F093FA8C
S1131A800C49086004E0934801681C4802F092FF86
S1131A9001F0FEFC01BD0000ECF7FF1F0000B443A1
S1131AA0F4F7FF1F00FFFF1F401900201CF4FF1F65
S1131AB008F8FF1F30FEFF1FD4FEFF1FD0FEFF1FDC
S1131AC00000A0400100C842C08F00002CFEFF1F90
S1131AD0F0FDFF1F94FEFF1FF4FDFF1F98FEFF1F84
S1131AE0F8FDFF1F9CFEFF1FC4FEFF1F20FEFF1F0B
S1131AF0E88F00007E735A3B0000FA4344910000D3
S1131B00F0B587B0764802F055FF72480268724813
S1131B100168744802F04EFF002003900490059081
S1131B2000240020009002E00098401C00900098DF
S1131B30052800DBB6E000200290ACE001980C21FF
S1131B40484302993C225143009A96235B005A432E
S1131B50654B9A185118081880680021C9438842B7
S1131B6000D18EE001980C21484302993C22514354
S1131B70009A96235B005A435B4B9A185118085EEF
S1131B8001F03EFF594901F054FF0500022001997C
S1131B900C225143029A3C235A43009B962676001A
S1131BA07343514EF3189A185118085E01F028FF38
S1131BB04E4901F03EFF0600042001990C225143D6
S1131BC0029A3C235A43009B96277F007B43464F4F
S1131BD0FB189A185118085E01F012FF434901F0EE
S1131BE028FF0700002C02D10595049603972800CE
S1131BF0059902F010FA394901F01BFF0500300085
S1131C00049902F008FA354901F013FF0600380080
S1131C10039902F000FA314901F00BFF0700280094
S1131C20290001F006FF04216143314A515808603C
S1131C303000310001F0FDFE042161432C4A51586B
S1131C4048603800390001F0F4FE04216143284A59
S1131C50515888600420604325490858C560042011
S1131C60604323490858066104206043204908580A
S1131C704761042060431E490858FE21890581619B
S1131C80641C0198401C01900198052800DA55E76E
S1131C900298401C02900298052800DB44E70020CB
S1131CA00190F1E70720019007200090094803689C
S1131CB00F4A0F49E04800F001FAF14BEF4A0721BF
S1131CC0DD4800F040FA00200090EC48006801680C
S1131CD001241FE010F8FF1F0CF8FF1F0AD7A33CD4
S1131CE0109200004C8C000014F8FF1FCDCCCC3DAA
S1131CF0EC09002004206043E04A1058006802F018
S1131D00CDFB06D20094009804214843DB490858CF
S1131D100168641C072CEDDB009804214843D84972
S1131D2009680858D34909680860009804214843A1
S1131D30D34949680858CF49496848600098042144
S1131D404843CF4989680858CA498968886000208F
S1131D50C84989684860C74989680860C5494968AD
S1131D608860C44949680860C24909688860C149F3
S1131D7009684860009804214843C149C968095862
S1131D80BF20000601F055FEBA490968096802F04F
S1131D902AFAAE490860009804214843B849096901
S1131DA00958BF20000601F044FEB2494968496859
S1131DB002F019FAA6490860009804214843B04982
S1131DC049690958BF20000601F033FEA949896812
S1131DD0896802F008FA9F490860A648006801680B
S1131DE0A4484068406801F024FEA24989688968D3
S1131DF001F01FFE9D4908609C480068002102F024
S1131E004DFB1BD2032303228C499A4800F020FC8B
S1131E100098042148439A498969009A04235A4343
S1131E20974B9B699A5880231B065A400A508F4847
S1131E308E49096880221206514001608D4800686D
S1131E4001688248006801F0F4FD8049096801F0E6
S1131E50F0FD01000C008748406841687C48006838
S1131E6001F0E7FD7A49096801F0E3FD210002F081
S1131E709AF801000C007F48806881687548006802
S1131E8001F0D7FD7349096801F0D3FD210002F088
S1131E908AF8009904225143794A9269515802F010
S1131EA0BAF801F035FE4900490802F00CF902F0D5
S1131EB069F96F4908600098042148436F4908583C
S1131EC0006801F025FE04000D006D006D085C48FB
S1131ED0006802F095FD02000B002000290002F0CA
S1131EE0A7FD02F0F0F802F04DF9564901F0A1FD0A
S1131EF004005F4801688020C00501F09AFD5C4938
S1131F00096801F096FD0100200002F06CF94E49C9
S1131F1008604E480168504801F08BFD059902F0B5
S1131F2042F84A4908604A4801684B4801F081FD7B
S1131F30049902F038F84649086046480168464862
S1131F4001F077FD039902F02EF8424908604848F1
S1131F500168414801F06DFD454908603FA20CCA83
S1131F6014001D004148006801F0D2FD22002B003E
S1131F7003F028F80323032215001C0002F002F9E1
S1131F80010023002A003B4800F062FB35A20CCA82
S1131F9014001D003548006801F0BAFD22002B0032
S1131FA003F010F802F0EEF83149096801F041FD40
S1131FB02F4908602F480068006801F0A9FD490016
S1131FC0490802F080F802F0DDF82B49096808603E
S1131FD028484068406801F09BFD4900490802F028
S1131FE072F802F0CFF824494968486021488068B3
S1131FF0806801F08DFD4900490802F064F802F0A0
S1132000C1F81D498968886000201B4989684860B7
S113201019498968086018494968886016494968F7
S113202008601549096888601349096848601548BB
S11320300121016007B0F0BD100D0020000080BF39
S113204010F8FF1F0000C842D4FEFF1F94FEFF1FBC
S113205098FEFF1F9CFEFF1F000048420000006026
S11320605555D5BF000000605555C5BFD8FEFF1FAC
S1132070D0FEFF1F58FEFF1FC4FEFF1F480D0020A7
S1132080300C002008F8FF1FF5B5002210E00420F2
S1132090604304255543009E76590425654304276F
S11320A05743CF597D593550641C9C42EFDB521C79
S11320B00198824201DA0024F7E7F3BDFEB582B04D
S11320C0040000250A980A900B980B9000E06D1C00
S11320D00A98854235DA002627E004227243042058
S11320E0684320580092019004226A4304217943F2
S11320F00298405881580423734304227A43039876
S11321008058C05801F095FC0422724304216943AD
S11321106158895801F047FF01000198009A8150E5
S11321207F1C04988742D8DB761C0B988642CEDA53
S11321300420704304216943615800220A50002797
S1132140EFE705B0F0BDFFB587B0002521E004201E
S11321506043042169430A9A515800220A50641CBE
S113216008988442F3DB04206843042169430A9AF3
S11321705158FE2292050A50042068430421694301
S1132180079A5158085804216943099A515808601C
S11321906D1C0898854201DA0024E1E700200590CF
S11321A00020049000251BE0049801F0B1FC060017
S11321B00F000420604304216943079A51580858CA
S11321C001F0A6FC4900490832003B0001F0EAFD99
S11321D001F0D8FF0490641C08988442E4DB6D1C71
S11321E00898401E854202DA2C00641CF4E7049827
S11321F0002102F0EBF800D300E2002500E06D1CA2
S11322000898401E854200DBF8E12C00641C51E074
S11322100420704304216943079A51580F5804223B
S11322207243042068430799085800920190039868
S1132230390001F0FEFB042373430422624307992F
S11322408958C95801F0AFFE029901F0F2FB010070
S1132250380001F0E0FE01000198009A8150042149
S1132260714304206043079A105800910190039928
S1132270042373430422624307988058C05801F032
S1132280D8FB0100380001F0C6FE029901F0D1FB31
S1132290042373430422624307998958C95801F0FF
S11322A082FE0200019800994250761C08988642EA
S11322B0AEDB641C08988442A1DA04206043042144
S11322C06943079A5158085801F022FC490049080B
S11322D00022002303F090F8EBD204206043099914
S11322E00858006804216943099A5158096801F0A3
S11322F092FEFC21890501F09CFB04216143042228
S11323006A43079B9A58515801F06DFF0700380043
S113231001F0FEFB490049086A4603C2083A380046
S1132320390001F086FBFE21890501F03CFE01F035
S1132330EFFB01F0C8FE02000B00684603C801F081
S113234031FD01F01FFF0100FE20800501F04BFF6D
S113235006003800002102F0A1F802D28020000615
S113236046403000310001F064FBFE21890501F094
S11323701AFE01F0CDFB01F0A6FE01F003FF0100FF
S1132380FE20800501F02FFF07003000390001F026
S113239050FB0290FE208005390001F004FE01008C
S11323A0029801F020FF0390042060430421694354
S11323B0079A51580858310001F03BFB07000420EC
S11323C06843099908580068390001F024FE042183
S11323D06943099A515808600420604309990858D0
S11323E00068390001F0DFFD04216143099A515866
S11323F008600420604304216943079A515800226D
S11324000A5000264DE004206843042171430A9ACF
S113241051580F5804226A43042070430A990858FB
S1132420009201900398390001F003FB04236343F5
S1132430042272430A998958C95801F0B4FD0299DB
S113244001F0F7FA0100380001F0E5FD0100019800
S1132450009A815004216143042070430A9A105861
S113246000910190039904236343042272430A9860
S11324708058C05801F0DDFA0100380001F0CBFDAE
S1132480029901F0D6FA04236343042272430A99A1
S11324908958C95801F087FD0200019800994250FB
S11324A0761C08988642AEDB00264DE00420684383
S11324B004217143079A51580F5804226A43042097
S11324C0704307990858009201900398390001F06D
S11324D0B0FA042363430422724307998958C95804
S11324E001F061FD029901F0A4FA0100380001F045
S11324F092FD01000198009A815004216143042057
S11325007043079A10580091019003990423634380
S11325100422724307988058C05801F08AFA0100D7
S1132520380001F078FD029901F083FA0423634333
S11325300422724307998958C95801F034FD0200F6
S1132540019800994250761C681EB042AEDA2E0003
S1132550761C4DE00420704304216943079A5158C6
S11325600F580422724304206843079908580092C4
S113257001900398390001F05CFA042363430422B8
S1132580724307998958C95801F00DFD029901F069
S113259050FA0100380001F03EFD01000198009A54
S11325A081500421614304207043079A105800911C
S11325B001900399042363430422724307988058CB
S11325C0C05801F036FA0100380001F024FD0299E8
S11325D001F02FFA042363430422724307998958B4
S11325E0C95801F0E0FC0200019800994250761CA1
S11325F0601EB042AEDA2600761C57E6049800212D
S113260001F0E4FE06D205990800401C05900F294C
S113261000DAC5E5002512E0042060430421694383
S1132620079A515804226A4304236343079EF358CC
S11326309A580A50641C08988442EDDB6D1C089873
S1132640401E854202DA2C00641CF4E70BB0F0BD96
S1132650FFB50400002515E00421714304206843FC
S11326602758009104207043042169436158095894
S1132670019801F0DEF900997850761C039886429F
S1132680EADB6D1C0298854201DA0026F6E7FFBDFD
S1132690FEB582B0040000250A980A900B980B90AE
S11326A000E06D1C0498854235DA002627E00422F8
S11326B072430420684320580092019004227A4314
S11326C00421694302984058815804237343042227
S11326D07A4303988058C05801F0ABF9042272433E
S11326E0042169436158895801F05DFC0100019897
S11326F0009A81507F1C0A988742D8DB761C0B987D
S11327008642CEDA042070430421694361580022D2
S11327100A500027EFE705B0F0BD70B5002212E0C3
S113272004245C4304255543455900262E515B1C63
S11327308B42F5DB04235343042454430459FE25FC
S1132740AD05E550521C8A4201DA0023F0E770BD62
S1132750E0B53D480068002809D1032303223B4922
S11327603B48FFF791FC3B483B4909680160032360
S1132770032237493948FFF787FC032001900320DF
S113278000900323324A3149354800F079F800209B
S1132790029002AA3349324800F0B7F80298F621B1
S11327A0890501F046F902002E492D4800F0D6F9BA
S11327B003200190032000900323254A28492A4836
S11327C0FFF766FF0323032227492148FFF75CFC38
S11327D026480068002810D125480090254B264A39
S11327E026491B4800F0EEFA224803682248026892
S11327F022480168164800F04BFB17480068154949
S1132800096801F008FC02900298CC4901F0DEFD51
S113281004D80298CA4901F0C6FB02900298C9493B
S113282001F03CFE04D20298C74901F0BCFB0290BF
S11328300298F621890501F0FCF80649096801F0BF
S1132840B2FB0449086007BD0CF8FF1F00FFFF1F1F
S113285030FFFF1F00F8FF1FFCF7FF1F60FFFF1F83
S1132860E818002030190020181900203C19002015
S1132870F8F7FF1FF0F7FF1FE8F7FF1FE0F7FF1F50
S1132880FEB582B0040000250A980A900B980B90BC
S113289000E06D1C0498854235DA002627E0042206
S11328A072430420684320580092019004227A4322
S11328B00421694302984058815804237B4304222D
S11328C0724303988058C05801F0B3F8042272434D
S11328D0042169436158895801F065FB010001989E
S11328E0009A81507F1C0A988742D8DB761C0B988B
S11328F08642CEDA042070430421694361580022E1
S11329000A500027EFE705B0F0BDF8B506000D004A
S11329101400306801687068406801F044FBB168D5
S1132920896801F040FB009070688068B16849686C
S113293001F071FB29680860B06800683168896833
S113294001F069FB6968086030684068716809686B
S113295001F061FBA96808602868016828680068BC
S113296001F067F801000F00686801686868006892
S113297001F05FF8390001F016FB01000F00A868B0
S11329800168A868006801F054F8390001F00BFBF5
S113299001F0BEF801F097FB01F0F4FB07003800EA
S11329A0002101F003FD3DD0FE208005390001F037
S11329B01AFC070028680068390001F03AF8296811
S11329C0086068680068390001F033F869680860D5
S11329D0A8680068390001F02CF8A968086000981C
S11329E05A4901F0F3FC02D80020206019E0009855
S11329F0574901F053FD02D25648206011E0009976
S1132A00554801F0D0FAFC21890501F012F801F0D3
S1132A107FF802F00BFD01F0B5FBE94901F009F87C
S1132A2020608AE00098002101F0D0FC0BD22868D5
S1132A30FE21890501600020A968086069680860B2
S1132A400020206079E030680168FE20800501F0F4
S1132A50AAFAFC21890500F0ECFF01F059F84900BD
S1132A60490801F030FB01F08DFB296808603068EB
S1132A704068002101F0AAFC14D870684168FE2067
S1132A80800501F090FAFC21890500F0D2FF01F0E5
S1132A903FF84900490801F016FB01F073FB69682F
S1132AA0086016E070684168FE20800501F07BFA3A
S1132AB0FC21890500F0BDFF01F02AF8490049080E
S1132AC001F001FB80221206514001F05BFB6968B2
S1132AD0086030688068002101F078FC14D8B06880
S1132AE08168FE20800501F05EFAFC21890500F072
S1132AF0A0FF01F00DF84900490801F0E4FA01F0E3
S1132B0041FBA968086016E0B0688168FE20800572
S1132B1001F049FAFC21890500F08BFF00F0F8FF71
S1132B204900490801F0CFFA80221206514001F011
S1132B3029FBA968086007482060F1BD01003443FF
S1132B400000B4C3000034C30000B443000040409C
S1132B50FEFF7FBF00003443000080BFF0B583B0A8
S1132B6005000C00160020680068002101F01EFC1E
S1132B7021D160680068002101F018FC1BD1A06815
S1132B800068002101F012FC15D1FE208005A9681F
S1132B90886069684860296808600020A9684860FE
S1132BA0A96808606968886069680860296888603D
S1132BB02968486003E1B548310000F03AFF00F0AD
S1132BC0A7FF01F0E9FB01F0DDFA0700AF4831008F
S1132BD000F02FFF00F09CFF01F0E3FB01F0D2FABC
S1132BE00190FE208005019901F015FA0600206885
S1132BF001682068006800F01CFF01000091606813
S1132C0001686068006800F014FF009901F0CBF9D6
S1132C1001000091A0680168A068006800F009FF45
S1132C20009901F0C0F900F073FF01F04CFA01F0D3
S1132C30A9FA0100FE20800501F0D5FA0090206871
S1132C400168009800F0F5FE21680860606801687A
S1132C50009800F0EEFE61680860A06801680098C2
S1132C6000F0E7FEA1680860206801682068006839
S1132C7000F0DFFE310000F0DCFE0100019801F0FD
S1132C8092F929680860606801686068006800F06B
S1132C90D0FE310000F0CDFE0100019801F083F96F
S1132CA069684860A0680168A068006800F0C1FE17
S1132CB0310000F0BEFE0100019801F074F9A9682A
S1132CC08860206801686068006800F0B2FE310026
S1132CD000F0AFFE01000091A0680068390000F028
S1132CE0A8FE009901F05FF929684860206801682E
S1132CF06068006800F09DFE310000F09AFE0090CC
S1132D00A0680068390000F094FE0100009801F00A
S1132D1082F96968086020680168A068006800F0AA
S1132D2088FE310000F085FE00906068006839007C
S1132D3000F07FFE0100009801F06DF929688860B9
S1132D4020680168A068006800F073FE310000F09C
S1132D5070FE0100009160680068390000F069FEAF
S1132D60009901F020F9A968086060680168A0680A
S1132D70006800F05EFE310000F05BFE010000918F
S1132D8020680068390000F054FE009901F00BF946
S1132D906968886060680168A068006800F049FE9E
S1132DA0310000F046FE060020680068390000F09B
S1132DB040FE0100300001F02EF9A9684860F7BD1B
S1132DC0E12E6542F2B582B0050014001F00089E92
S1132DD028688068FE21890501F0F8FA02D888483D
S1132DE0206018E028688068864901F057FB02D209
S1132DF0854820600FE028688068802109064840E3
S1132E0000F086FE01F044FA01F0BCF901007F48AD
S1132E1000F00FFE2060A868806800F079FE0200D0
S1132E200B00009201936868806800F071FE009ABC
S1132E30019B00F087FE01F0A5F9744900F0F9FD4B
S1132E40029908602868006800F062FE02000B0026
S1132E50009201932868406800F05AFE009A019B92
S1132E6000F070FE01F08EF9684900F0E2FD386070
S1132E703868002101F012FB04D23968D74801F008
S1132E8092F8386038683060F7BD000035FA8E3C3F
S1132E90F9B583B00C001700D148210000F0C9FD3A
S1132EA000F036FE01F078FA01F06CF90290CC489B
S1132EB0390000F0BEFD00F02BFE01F06DFA01F0C8
S1132EC061F905000499C64800F0B3FD00F020FE46
S1132ED001F062FA01F056F90190C148210000F0B6
S1132EE0A8FD00F015FE01F05CFA01F04BF90600B4
S1132EF0BB48390000F09DFD00F00AFE01F051FAD4
S1132F0001F040F904000499B54800F092FD00F086
S1132F10FFFD01F046FA01F035F907002000390001
S1132F2000F087FD0399096808600198210000F00A
S1132F3080FD03990968486003980068290080228D
S1132F401206514081603800290000F072FD010032
S1132F50029800F06EFD00900198310000F069FDC8
S1132F600100009801F057F803994968086030009F
S1132F70390000F05EFD010000910298290000F084
S1132F8058FD019900F055FD009901F00CF80399E2
S1132F90496848600298210000F04BFD0399496894
S1132FA088603000390000F044FD290000F041FD44
S1132FB0010000910299019800F03BFD009900F096
S1132FC0F2FF0399896808603000290000F031FDA0
S1132FD0019900F02EFD05000298390000F029FD4A
S1132FE00100280001F017F803998968486020005F
S1132FF0310000F01EFD03998968886005B0F0BDBA
S11330000000B4C2FEFF7FBF0000B442E12E65425F
S1133010F8B504000D0020680168FE20800500F06A
S1133020C2FF6168496800F0BEFFA168896800F0CA
S1133030BAFF002101F0CAF944D200F069FD01F0A1
S113304042F801F09FF8FC21890500F0F2FC2860A9
S1133050FE208005296801F0C6F80700FA208005E3
S1133060390000F0E6FC01000E0060688068A16889
S1133070496800F0D0FF310000F0DBFC6860FA2002
S11330808005390000F0D5FC01000E00A06800683E
S11330902168896800F0BFFF310000F0CAFCA86015
S11330A0FA208005390000F0C4FC01000E002068FD
S11330B040686168096800F0AEFF310000F0B9FCB7
S11330C0E86050E00020286020680168FC2080054A
S11330D000F0AFFCFC21890500F065FF00F018FD4D
S11330E04900490800F0EFFF01F04CF8686060689F
S11330F04168FC20800500F09CFCFC21890500F05F
S113310052FF00F005FD4900490800F0DCFF01F022
S113311039F8A860A0688168FC20800500F089FC6B
S1133120FC21890500F03FFF00F0F2FC490049084A
S113313000F0C9FF01F026F8E8602068406800212B
S113314001F0ACF904D2A868802109064840A860BF
S113315020688068002101F0A1F904D2E868802188
S113316009064840E860F1BD70B503214548FFF702
S1133170D4FA00204449086044490860444908607E
S11331804448002101604448444901604448002106
S1133190016044480021016043480021016000208F
S11331A000E0401C052817DA002111E00C235343EA
S11331B03C244C4396256D004543B44E75192C1997
S11331C0E3180024E4439C60521C052AEEDB491CEE
S11331D00529E6DA0022F8E770BD00000000B443D8
S11331E035FA8E3C00B583B0FDF776FFFDF7DAFFC4
S11331F0FEF71CF92D48006801902D4800680090E6
S11332002C4803682C4802682C4801682C48006844
S1133210FEF7C4F900F026F921480068002829D0F7
S113322028492948006802F07FF92849086028499C
S11332302848006802F078F927490860274984483B
S1133240006802F071F983490860FF206830814901
S11332500968401A7F4908607E4802687E497F48B1
S113326001F0BAFB7D4802F028FA7D4879490968E3
S1133270016001E0FEF7A6FB0A480068401C09490A
S1133280086007BD20FEFF1FF8FDFF1FF4FDFF1FB0
S1133290F0FDFF1F2CFEFF1F30FEFF1F00007A44CD
S11332A008F8FF1F0CF8FF1F10F8FF1FD8F7FF1FC7
S11332B0D4F7FF1FD0F7FF1FC0F7FF1FBCF7FF1F96
S11332C0B8F7FF1FC4F6FF1F501900205C19002037
S11332D0E8F6FF1F54190020601900200CF7FF1FA7
S11332E010B5002050E004214143734A0C234343AA
S11332F0724CE318535004214143714A0C23434355
S1133300704CE3185350042141436F4A0C23434348
S11333106E4CE3185350042141436D4A0C2343433C
S11333206C4CE3185350042141436B4A0C23434330
S11333306A4CE318535004214143694A0C23434324
S1133340684CE318535004214143674A0423434320
S1133350664CE318535004214143654A0C2343430C
S1133360644CE318535004214143634A0C23434300
S1133370624CE318535004214143614A0C234343F4
S1133380604CE3185350401C0328ACDB002020E0C1
S1133390042141435C4A042343435C4CE3185350E7
S11333A0042141435A4A042343435A4CE3185350DB
S11333B004214143584A10234343584CE3185350C3
S11333C004214143564A10234343564CE3185350B7
S11333D0401C0428DCDB002018E004214143524A4D
S11333E01C234343514CE318535004214143504A96
S11333F01C2343434F4CE3185350042141434E4A8A
S1133400042343434D4CE3185350401C0728E4DB8A
S1133410002018E004214143494A1C234343494CFA
S1133420E318535004214143474A10234343474C74
S1133430E318535004214143454A04234343454C74
S1133440E3185350401C6028E4DBFFF78DFE10BDE9
S11334505819002064190020009600006819002003
S113346004F8FF1F00B53C48006802F0A5F93B4989
S113347008603B48006802F09FF93A4908603A48FE
S1133480006802F099F93949086000BD14F8FF1F7B
S113349010B584B0002436480068642148431821DC
S11334A001F010F8040022003249684601F094FA51
S11334B0684602F002F91FBD20FEFF1FFCFDFF1F3E
S11334C0C4FEFF1FA0FEFF1F58FEFF1F34FEFF1F98
S11334D088FEFF1F64FEFF1FE8180020C4180020A8
S11334E018190020F4180020301900202419002095
S11334F000FFFF1FDCFEFF1F30FFFF1F0CFFFF1F3D
S113350060FFFF1F3CFFFF1F6418002054180020B9
S1133510F4170020E41700204418002004180020A9
S1133520B418002074180020300C00206C0B00200C
S1133530100D00204C0C0020480D00202C0D002004
S1133540EC0900206CFFFF1F64130020640D0020B1
S113355064160020E4140020DCF7FF1F501900203B
S1133560E4F7FF1F54190020ECF7FF1F581900203F
S113357010F8FF1F089600007047000000B50020F7
S113358001E000BF401C2828FBDB00BD10B504008F
S1133590784802F051F91C21764802F049F975483F
S11335A002F05CF9734802F062F92100C9B2714873
S11335B002F03EF96F4802F051F96E4802F057F9F3
S11335C06C4802F030F91D216A4802F031F969486B
S11335D002F044F9674802F04AF9664802F00FF92C
S11335E0644802F01BF9634802F024F904006148BE
S11335F002F034F95F4802F028F95E4802F01AF943
S11336000400FFF7BBFF2000C0B210BD38B50400B2
S11336100D00584802F010F91C21564802F008F930
S1133620544802F01BF9534802F021F92100C9B2B1
S1133630504802F0FDF84F4802F010F94D4802F0EE
S113364016F92900C9B24B4802F0F2F8494802F0D1
S113365005F9484802F00BF9464802F0F6F8FFF77E
S11336608DFF31BD80B5FFF787FF00211020FFF7E4
S1133670CDFF80211120FFF7C9FF01211020FFF7A2
S1133680C5FF01BD80B50020FFF780FF00071DD0F6
S11336900120FFF77BFF0002374908800220FFF773
S11336A075FF35490988C0B20143334801800120C0
S11336B0FFF76CFF0002334908800220FFF766FF22
S11336C030490988C0B201432E4801802D480021A9
S11336D0405E02BD80B50020FFF758FF00071DD0F3
S11336E00320FFF753FF0002244908800420FFF75A
S11336F04DFF22490988C0B20143204801800320BC
S1133700FFF744FF0002204908800420FFF73EFF32
S11337101D490988C0B201431B4801801A48002191
S1133720405E02BD80B50020FFF730FF00071DD0CA
S11337300520FFF72BFF0002114908800620FFF740
S113374025FF0F490988C0B201430D4801800520B7
S1133750FFF71CFF00020D4908800620FFF716FF43
S11337600A490988C0B2014308480180074800217A
S1133770405E02BD006006408C1C00208E1C0020B0
S1133780901C0020921C0020941C0020961C0020F9
S113379080B5794802F073F801BD000000B500203F
S11337A001E000BF401C2828FBDB00BD10B504006D
S11337B0714802F041F83A216F4802F039F86E4836
S11337C002F04CF86C4802F052F82100C9B26A4881
S11337D002F02EF8684802F041F8674802F047F812
S11337E0654802F020F83B21634802F021F8624862
S11337F002F034F8604802F03AF85F4801F0FFFF45
S11338005D4802F00BF85C4802F014F804005A48D2
S113381002F024F8584802F018F8574802F00AF861
S11338200400FFF7BBFF2000C0B210BD38B5040090
S11338300D00514802F000F83A214F4801F0F8FF1A
S11338404D4802F00BF84C4802F011F82100C9B2BF
S1133850494801F0EDFF484802F000F8464802F0FC
S113386006F82900C9B2444801F0E2FF424801F0D9
S1133870F5FF414801F0FBFF3F4801F0E6FFFFF789
S11338808DFF31BD80B5FFF783FF2A20FFF78EFF40
S113389001210143C9B22A20FFF7C8FF01BD80B549
S11338A00020FFF783FF00072BD00120FFF77EFFE6
S11338B000024D4908800220FFF778FF4A49098831
S11338C0C0B201434848018047480021405E00B22D
S11338D08010454908800120FFF768FF0002454930
S11338E008800220FFF762FF42490988C0B2014301
S11338F0404801803F480021405E00B200123D492B
S113390008803C480021405E02BD80B50020FFF7DE
S11339104DFF00072BD00320FFF748FF0002334977
S113392008800420FFF742FF30490988C0B20143F0
S11339302E4801802D480021405E00B280102B49A2
S113394008800320FFF732FF00022B49088004207F
S1133950FFF72CFF28490988C0B20143264801809B
S113396025480021405E00B2001223490880224805
S11339700021405E02BD00000060064080B50020CA
S1133980FFF714FF00072BD00520FFF70FFF0002FD
S1133990174908800620FFF709FF15490988C0B2B6
S11339A001431348018012480021405E00B2801098
S11339B00F4908800520FFF7F9FE00020F4908802F
S11339C00620FFF7F3FE0D490988C0B201430B48F6
S11339D001800A480021405E00B2001207490880B5
S11339E006480021405E02BD981C00209A1C00205D
S11339F09C1C00209E1C0020A01C0020A21C002057
S1133A009D21020008D5F446524200F005F8012237
S1133A10D2071043604700000AD002D4491E92180E
S1133A20FCD5C905100A1206524100D3012A4841A7
S1133A30704730B405004D400122D20715404B18A1
S1133A400418240E30D01B0E34D0FF2C36D0FF2B9C
S1133A503CD0E4180002090210431143000A090A89
S1133A609446C2B24A43000AC3B24B43000A4843D5
S1133A70110A5B18190A12061B0C1A43120A0918B8
S1133A8001D44918641E080A7F3C23DBFE2C08DAA3
S1133A90E40509061143634699416041284330BC5B
S1133AA07047FF20C005F9E728001B0EFF2BF6D155
S1133AB0D043F4E72800FF2CF1D1F9E74002F7D115
S1133AC0FF2B01D14902F3D1E005E7E7D80549020C
S1133AD0E4D0EDE743020020641CDFD15B129B1CA1
S1133AE0DCD9D805DAE738B4012100220368001DC7
S1133AF0002B0BD00468001D0C4202D04D466D1EF5
S1133B0064192260241D1B1FF0D0FAE732BC7047F1
S1133B10012212060118CA420AD28A420DD838225A
S1133B20120609098918C20FD207114340077047CA
S1133B3000D049080909014301E0C10FC907002069
S1133B407047000038B50FB402A803C801F0BAFEEC
S1133B500400684603C801F0B5FE0200012C35DA02
S1133B60012A33DA80231B060198184006D06A46DE
S1133B70684603C8594003C2082500E0002503989D
S1133B80034009D002AA02A803C880231B06594097
S1133B9003C228000625454002A803C86A460CCA89
S1133BA001F0AAFE06D202A803C86A460CCA00F0B5
S1133BB03FFF2BE0002C06D5684603C802AA0CCAB6
S1133BC000F036FF25E00020002122E0022A01D186
S1133BD0684602E0022C02D102A803C81CE0944209
S1133BE002D100200D4901E00020002180231B06A2
S1133BF0019C1C4001D0082500E00025039C2340C3
S1133C0002D02B0006255D40012A02D12A0002259C
S1133C1055402A0001F0ACFE05B030BD0000F03F75
S1133C20F0B50E005E400125ED072E40B446AE0A05
S1133C30DF184C18F44208D2F7420ED2640D01D0BA
S1133C407F0D12D100206146F0BD05D1F74201D8A5
S1133C507F0D05D10020C143F0BDFBD1640DF9D027
S1133C600020C143490549088FE0E419C902DB0279
S1133C7029432B43DB0A460DC00231438E4630B440
S1133C8087B295B27D432E0CADB2140C7C43A419BB
S1133C90260C240425439CB27C43A419190C7943B3
S1133CA0270CC919A4B20F043C43090C000C97B2A9
S1133CB047432E0CBE193543ADB2170C4743360C9F
S1133CC0BF19A6B2BF193E043543240C3E0C361965
S1133CD09FB24743BF19BCB23E0C89191F0C47431E
S1133CE07F183E043443390C704680B297B2474380
S1133CF02E0CBE193543ADB2170C4743360CBF1911
S1133D00A6B2BF193E043543240C3E0C36199FB2AB
S1133D104743BF19BCB23E0C89191F0C47437F1897
S1133D203E043443390C77463F0C90B278432E0C52
S1133D3080190604ADB22E43050CA0B22D18120C46
S1133D407A435019020C80B2240CA4189AB27A4314
S1133D50121914042043120C89181B0C7B43C91834
S1133D6030BCEF0A394203D1B61940414941641EBF
S1133D706F12BF0DE41B0BDBFF19BC4211DA2405E3
S1133D8000274208AE417841614166463143F0BDA7
S1133D90641C05D1401C6141CF0201D34908F4E7FA
S1133DA050E75DE7F0B40125ED070F005F404FD405
S1133DB08B4200D1824205D98446100062468C466B
S1133DC019006346DF184C18640D7F0D3AD0661C49
S1133DD0760537D0E61B352E34DCDB022B43DB0AB9
S1133DE00C0DC9022943C912202E0DDB1700203EF9
S1133DF006D01F00F741F3405F400026012A7741B7
S1133E00C01871410DD217E01700F741F240574036
S1133E10F3415A40B340F3405A40002680185941B8
S1133E200AD3A21C52050FD0C207012F72411700FA
S1133E304008CB0718434908641C24054208AF41D5
S1133E4070416141F0BC7047641C21050020F9E712
S1133E506B4010E06B40ABE7F742F3D1E943F1E785
S1133E602442EFD100200021ECE7F0B40125ED0756
S1133E700F005F40EED40C00871A9C4105D2C01B92
S1133E80A141D219634169406B40AE0ADF184C1856
S1133E90F442E1D2640D7F0DE2D0E61B362ED1DC74
S1133EA0DB022B43DB0AA4460C0DC9022943C90AD1
S1133EB0012E28DC04D1D6075208DF073A435B08F9
S1133EC0EF0A76429041994114D039423BD1B61958
S1133ED040414941761C394204D1761C00184941BD
S1133EE03942FAD0B9436746B74208D9A41B24051E
S1133EF02143A7E70042EAD13642E8D1A2E7E40A27
S1133F00E10700209EE7202E0BDD203E1F00F3403A
S1133F10F7415F40012A002257417E429841914176
S1133F200BE01700F741F2405740F3415A40B340C9
S1133F30F3405A407E42904199410A0303D2641EE1
S1133F40B619404149410027641E24054208AE4188
S1133F5078416141F0BC7047F4464A1805D200F03C
S1133F600DF801D580174008604700F007F80121DB
S1133F70C907884200D9080040426047400DC90281
S1133F8008430121C9070843520D40210901521A6F
S1133F90521C06D452421F3201D4D0407047C0177D
S1133FA07047002070470122D20703004B402ED4F3
S1133FB0431A01D2C01AC91830B44B180418240E7D
S1133FC01B0E22D0FF2C20D0E31A182B1DDC090273
S1133FD01143C40D641E0002104394461925ED1AC2
S1133FE00A00AA40D940451801D36D08A41CE40571
S1133FF0D209280A2D062A436546AA4160410318BE
S11340001B0EFF2B01D3C00DC00530BC70475140BF
S113401006E05140CCE70122D20703004B40F8D41C
S1134020431A03D2C01AC9185040514030B44B1837
S1134030090211430418240E1B0E40D0FF2C3AD061
S113404025009D410BD31ED8C50D4002401A0BD349
S1134050ED050100400AC90591416841D5E7C50D48
S113406040024918401AD0D001214008491C0018C8
S1134070FCD58C4204D36D1A000AED054019C4E73F
S1134080E8051040C1E7182DBFDCAC1C0D00E14071
S1134090E5414D40012D4941C40D00021043451A2C
S11340A001D46D199543641EE405280A2D06954133
S11340B0604130BC7047FF2BA7D1D843A5E7244209
S11340C0A3D10020A1E7012252054B1850D2D342BC
S11340D04DD25B0D4BD030B41C05A1435508294388
S11340E0D40AE41E1B195B0801D3001849411B05BF
S11340F09C466C19091B0018494100184941641970
S113410000239202491B07D46D081DD2091B6419B0
S113411000184941491BF7D56D080AD20919641BD7
S113412000184941491BEFD56D08F7D301E0520847
S113413017D0C01861419B1AAC4100184941801A3C
S1134140A941F4D452080AD0C01AA1419B186C4169
S113415000184941801AA941E9D45208F4D15B1CE2
S11341606C415808E20710436108614430BC704751
S11341700020590DFBD0C943D342F8D802B501F051
S1134180E7FC02BD012252054B18DA4201D9581549
S113419070475B0D0722D2019B1A10D9FF2B1DD249
S11341A0DB050122D2070A4013430903020D114320
S11341B0490AC200524100D9491CC81870470AD1A3
S11341C0800A0A0302435212921C04D9D3070B40FB
S11341D0D00518437047C80FC0077047C80F0002C6
S11341E0FF30C005704730B405004D400122D207AE
S11341F015404B180418240E28D01B0E2FD0FF2C6A
S113420034D0FF2B37D0E41A0002090210431143C3
S113421043084808D10D1B1A02D2641EDB181B1870
S1134220DB18834200D31B1A4941F9D37F3426DDBE
S1134230FE2C08DAE4054808C90719439141604196
S1134240284330BC7047FF20C005F9E728001B0E47
S113425003D0FF2BF5D14902F3D0D043F1E7FF2C73
S113426001D14002F9D1FF20C005E9E74002F4D1B1
S1134270FF2BF8D1F1E728004902E2D0EDE70B0269
S113428000202442DCD15B129B1CD9D9D805D7E786
S1134290F0B583B004000D003C4A0B0D134093426B
S11342A013D0002B03D10903090B084311D02000BC
S11342B029000022002301F01FFB0DD280200006FC
S11342C0454068460821818008E00903090B08433A
S11342D0EDD02000290055E06846828020002900A6
S11342E02BA20CCA01F008FB1FD200202649220091
S11342F02B00FFF7BAFD06000F0000202249220020
S11343002B00FFF74FFD32003B00FFF789FCFFF75E
S1134310DAFE06000B00684682880092200029001D
S1134320320000F085FB009A22E00122164B01F0D6
S1134330E3FA20D20020194622002B00FFF795FD56
S113434006000F000020104922002B00FFF72AFD71
S113435032003B00FFF764FCFFF7B5FE6A46938822
S113436002225A40160022002B0000F061FB3200AA
S113437001F0FEFA06E001F0F1FB212101600020CA
S1134380C043410803B0F0BD0000F03FFF07000048
S1134390CE3B7F669EA0E63F80B5002201F0E6FB9F
S11343A004BD80B5012201F0E1FB04BD9446020086
S11343B00A43921808D0884206D101221206001836
S11343C0D042084600D88042624670470CB40122AD
S11343D012060318DA4207D84B18DA4204D802004E
S11343E00A43921802D281420CBC7047FCD0884226
S11343F00CBC704713B5684603C8234A0B0D134021
S1134400934208D0002B13D10903090B08430FD1A1
S1134410684603C81CBD0903090B0843F8D1019879
S1134420002802D519A003C81CBD1AA003C81CBDCE
S1134430684603C80022002301F05EFA08D26A46E7
S1134440684603C880231B06594003C2082400E0C1
S11344500024684603C801220A4B00F0CDFF0AD8A5
S1134460002019466A460CCA00F0E2FA6A4603C202
S11344702000022444402200684603C801F078FA70
S11344801CBD00BF0000F03FFF070000182D44547E
S1134490FB21F9BF182D4454FB21F93F0CB4012230
S11344A012060318DA4207D84B18DA4204D802007D
S11344B00A43921802D288420CBC7047FCD0814255
S11344C0FAE70000CA0F00D0494203105A400DD049
S11344D004B500D3404200F009F8009AD20701D392
S11344E04942124200D5404204BD0000094210D0A6
S11344F088420BD30122002300185B418B4200D376
S11345005B1A5241F8D319001000704701000020D3
S1134510704708B501F050FD08BD000010B50C004F
S11345201168012902D0022904D009E0C0B25168FF
S1134530884705E0916808709068401C9060FFE728
S11345402068401C206010BDF0B51C00002605004A
S1134550002028706D1C002A1CD00F68002F09D180
S113456030202870761C3000F0BD30320F002A70E5
S11345706D1C761C002FF6D038002100FFF7A2FF37
S11345800100080060433A1A002AEED5D043020025
S11345903132EBE70F68002F08D130202870761CE9
S11345A0E1E73731070029706D1C761C002FDAD043
S11345B038002100FFF79AFF01006143791A0A29A4
S11345C0EFD23031EEE7F8B50F0015001E000400FD
S11345D005E0320029003020FFF7A0FF641CBC4234
S11345E0F7DBF1BDF8B50F0015001E00040005E06F
S11345F0320029002020FFF791FF641CBC42F7DB46
S1134600F1BDF1B590B01700002000900E0005E058
S1134610109A69461800FFF781FF761C3378002B47
S113462000D1C4E1252B12D00A2B05D0109A69467B
S11346301800FFF773FF09E0109A69460D20FFF791
S11346406DFF109A69460A20FFF768FFE5E7002529
S1134650002102E028000125054300291FD1761C12
S1134660307820280CD0232812D02B2804D02D28D1
S1134670F0D0302808D00FE0280002250543ECE7ED
S1134680280004250543E8E7280008250543E4E756
S1134690280010250543E0E7761E0121DDE7002010
S11346A00290002105E002980A225043C0183038D5
S11346B00290002908D1761C337818003038092874
S11346C0F1D9761E0121F4E7761C30782E280BD11F
S11346D00021FFE7002908D1761C307830380928FA
S11346E0F8D9761E0121F5E7761E761C30784C2821
S11346F006D0682802D06C2801D002E002E001E074
S113470000E0761E761C33781800582871D0622891
S113471000D1CAE0632800D113E1642813D06928CA
S113472011D06E2800D13DE16F2800D1B2E070288D
S113473000D1C5E0732800D10BE1752800D1CAE08F
S1134740782856D064E7386806903F1D0A23012272
S113475006A907A8FFF7F8FE040007A800190590AA
S11347600698002803D52D200190641C0DE0A807AD
S113477003D52B200190641C07E0680703D5202093
S11347800190641C01E0002001900020049028079F
S113479011D50198002804D0109A69460198FFF7B2
S11347A0BDFE01200490109B6A4602992000FFF789
S11347B00AFF029C11E0E8070FD4109B6A46029995
S11347C02000FFF70FFF0198002804D0109A6946D3
S11347D00198FFF7A3FE012004900498002807D154
S11347E00198002804D0109A69460198FFF796FEB4
S11347F09AE0386803903F1D1023002203A907A8FC
S1134800FFF7A2FE040007A80019059000200490F9
S1134810280715D5E8060BD5109A69463020FFF70E
S11348207DFE109A69467820FFF778FE01200490F7
S1134830109B6A4602992000FFF7C5FE029C18E00F
S1134840E80716D4E80600D5A41C109B6A46029912
S11348502000FFF7C7FEE8060BD5109A6946302002
S1134860FFF75CFE109A69467820FFF757FE012097
S11348700490E8060DD5049800280AD1109A6946D8
S11348803020FFF74BFE109A69467820FFF746FE6A
S1134890A41C49E0386803903F1D0823002203A9A3
S11348A007A8FFF751FE04001FE0386803903F1D7E
S11348B00223002203A907A8FFF746FE040014E020
S11348C0386803903F1D1023002203A907A8FFF7AF
S11348D03BFE040009E0386803903F1D0A230022D0
S11348E003A907A8FFF730FE040007A800190590E4
S11348F0280707D5109B6A4602992000FFF763FE3C
S1134900029C11E0E8070FD4109B6A46029920002C
S1134910FFF768FE08E0109A694605980078FFF7EB
S1134920FDFD0598401E0590059800780028F2D1F9
S1134930E80705D5109B6A4602992000FFF752FE4E
S11349406BE63868C0B23F1D109A6946FFF7E6FD72
S113495063E6386801903F1D0198002821D0019832
S113496001F02BFB0400E8070FD4109B6A46029960
S11349702000FFF737FE08E0109A69460198007896
S1134980FFF7CCFD0198401C0190019800780028A5
S1134990F2D1E80705D5109B6A4602992000FFF77B
S11349A021FE3AE638683F1D0099016035E600981B
S11349B011B0F0BD0EB400B584B0012100910549D9
S11349C0019105AA01006846FFF71BFE049908B08F
S11349D0084700007F7E00000CB4E0B50200002010
S11349E0002A09D002200090029204AA6846FFF728
S11349F008FE029900220A70039906B008470000D5
S1134A00010007D5F446404200F004F80122D20721
S1134A101143604742221201D21E004207D002D441
S1134A20521E0018FCD5C10A4005120589187047AA
S1134A30F0B40E005E400125ED072E40B446AE0AE8
S1134A40DF184C18F4423BD2F74241D2640D43D0F4
S1134A507F0D38D0E41BC902DB0229432B43CF0A64
S1134A60DB0A0600B61A9F4104D2641EB6197F41C0
S1134A70B6185F416812800D24180018844222DAA7
S1134A80E80C0021B6197F41B61A9F4102D2B6182C
S1134A905F413F1C40414941F4D3241C21DD2405DE
S1134AA0B6197F41B61A9F4105D33743C60737432A
S1134AB00026012F7041614166463143F0BC7047C6
S1134AC0FCD1F74205D20020C14349054908F3E768
S1134AD004D00020C143F1E77F0DFAD000206146E5
S1134AE0ECE72442FAD1401C61410F03F6D30020C5
S1134AF0E2E700000B0E0006070C050E0C060D0A7B
S1134B000F0A000E0F0E0D0E00000000000005003D
S1134B10000000080F0E0E0E0F020B08070E0F0800
S1134B200E080F0A0E060002030600000B000A0618
S1134B30060207020E0E0D0E0E0C0D0A0F000B06D8
S1134B4000000A060000000001080108010801082D
S1134B500108010801080000F8B50FB48CB004AADC
S1134B600EA803C803C27D490D98000D0840884271
S1134B700CD16846002101800D98000304D10C98E3
S1134B80002801D1012618E0022616E0012808DADF
S1134B900CA801F021FA012803DB002668460680F0
S1134BA00BE00D99C04A0A40C54911430D9169466D
S1134BB0BE4A801A08800026F643002104A801F0AA
S1134BC02FFA040016981690002801D000210180C5
S1134BD0002C06D10EA80CC80020002101F066FAB2
S1134BE015D0002E16D5009D2DB2012D16D10CA87E
S1134BF003C80022B24B01F059FA08D0012C0DD1A0
S1134C000CA80CC80020AA4901F050FA30D10020A9
S1134C10A849BEE1022E03D10CA804E0012C60DBFC
S1134C20022C02D10EA803C8B3E1012E1ED18025A7
S1134C302D060D9828400F9802D105404ED037E03C
S1134C40054009D1002C49D10021C94304A801F031
S1134C50E7F9002842D53EE0002C29D10021C943C0
S1134C6004A801F0DDF9002822D51DE0012C0AD1A9
S1134C70009D2DB20F98002802D4012D2EDA17E0E2
S1134C80012D15DA2AE080252D060F98284012D12F
S1134C90002C0DD10021C94304A801F0C1F900285A
S1134CA006D50D98054003D000208021090670E147
S1134CB0002000216DE100F051FF22210160002C51
S1134CC00CD10021C94304A801F0AAF9002805D594
S1134CD00D98054002D00020AF495AE10020B849A0
S1134CE057E10D98002809D5002C07D500F036FFB0
S1134CF0212101600020C04341084AE10CA803C8F7
S1134D000022002300F078FB02D2684682800DE086
S1134D100CAA0CA803C880231B06594003C2002117
S1134D20C94304A801F07CF969468880012D17D194
S1134D300CA803C899A20CCA00F0DEFD10D200240E
S1134D4008AA00205B4903C20CA80CC800208021DB
S1134D50C905FEF765FF0CAA1CE000BFFF070000B1
S1134D600CA80CC800208F49FEF75AFF0022544BB0
S1134D70FFF718F8FFF7F0F80400203C2000FFF7D5
S1134D803FFE0022884BFEF74BFF00224C4BFFF7FF
S1134D9009F808AA03C260018FA1081806900CA89C
S1134DA003C808AA0CCAFFF760F806000F000CA895
S1134DB00CC808A803C8FEF7F5FF02000B0030007A
S1134DC03900FFF735FE0AAA03C20AA80CC80AA8CC
S1134DD003C8FEF725FF04000D000CA8C0C0200086
S1134DE001F076F922002B00FEF71AFF0CAA0CCA78
S1134DF0FFF73BF804000D0000202E4908AA0CCA56
S1134E00FFF733F800228023DB05FEF709FF2200B9
S1134E102B00FEF7C7FF0AAA0CCAFEF701FF020027
S1134E200B000CA803C8FEF7BDFF08AA03C208A81C
S1134E3003C860A20CCAFFF7FBFD04AA03C20098D2
S1134E4000B2FFF7DDFD06000F00069803C832002C
S1134E503B00FEF7A7FF04AA0CCAFEF7A3FF04AAAF
S1134E6003C20EA80CC804A803C8FEF7D9FE02AA00
S1134E7003C202A803C800224C4B00F03DFD73D3CB
S1134E8002A803C801224A4B00F0B6FA70D902A85E
S1134E9003C80022002300F02FFD02A80CC80BD287
S1134EA0002003490EE000BFFFFF0F80FE03000057
S1134EB00000E0BF0000F03F0020014902E000BF15
S1134EC00000E03FFEF76EFFFFF746F8040008A875
S1134ED003C80EAA0CCAFEF7A3FE02AA03C20698D0
S1134EE0083003C8069A10320CCAFEF75BFF0EAAFC
S1134EF00CCAFEF795FE2FA20CCAFEF791FE02AA79
S1134F000CCAFEF74FFF02AA03C2069803C8320078
S1134F103B00FEF747FF0EAA0CCAFEF781FE06000F
S1134F200F002000FFF76CFD02000B003000390079
S1134F30FEF79BFF1FA20CCAFEF772FE02AA0CCA60
S1134F40FEF730FF02AA03C21698002801D004809D
S1134F50002400940022194B02A801F00BF9002848
S1134F6002D0012804D00BE002AA0020002102E0B4
S1134F7002AA0020124903C200F0F0FD22210160C0
S1134F80019800B2002802A803C802D080221206A9
S1134F90514011B0F0BD00000000F0FFCD3B7F6632
S1134FA09EA0E63F000050400000903F0000E0C09B
S1134FB00000E040EF39FAFE422EE63F0000F03FE9
S1134FC00000F07F10B582B000240094FFF7C4FD08
S1134FD01CBD000000000000000000000000F0BF45
S1134FE000000000000000800000000000000080BD
S1134FF00000000000000000000000C05294EEBF5A
S113500000000048204E51BE000000F86467BCBC9C
S11350100000000000000000000000208133EDBF0C
S113502000000080B3DB14BE000000506706A3BC80
S11350300000000000000000000000D0E9DCEBBF2D
S113504000000008C39259BE00000080B0D3B8BC71
S1135050000000000000000000000070F98FEABFAB
S1135060000000C0A51028BE000000E8BFC0B0BC0E
S1135070000000000000000000000070284CE9BFA0
S113508000000060134B42BE000000C03D20B8BCCD
S1135090000000000000000000000050FA10E8BF0B
S11350A0000000C05FF62BBE000000905C71A7BC3E
S11350B0000000000000000000000020FCDDE6BF4E
S11350C0000000C0F8F154BE00000018E9F6B9BCB5
S11350D00000000000000000000000D0C3B2E5BFE3
S11350E000000070E43254BE00000050DB06B4BC83
S11350F0000000000000000000000010EF8EE4BF7C
S113510000000020F36252BE000000C02A879ABC4F
S11351100000000000000000000000B02272E3BFA5
S1135120000000F0E8E056BE00000028352DBDBCAC
S11351300000000000000000000000000A5CE2BF64
S1135140000000B0FA8E41BE00000040AE6FBDBC4E
S1135150000000000000000000000000564CE1BF09
S1135160000000F015CD5FBE00000000141C90BCD0
S1135170000000000000000000000040BD42E0BF4D
S113518000000030F93457BE000000E06C1E93BCF0
S11351900000000000000000000000E0F57DDEBF1C
S11351A0000000B08A535EBE00000080DA77AABC1B
S11351B00000000000000000000000C09D81DCBF72
S11351C000000000FFA226BE0000006057E2B0BC51
S11351D0000000000000000000000060F98FDABF4A
S11351E0000000580A8151BE000000F05F60B8BCA6
S11351F000000000000000000000000098A8D8BFD4
S1135200000000607A7F45BE000000D05433A3BC88
S11352100000000000000000000000600FCBD6BFBB
S1135220000000D091CB40BE000000406D1BA0BC2C
S11352300000000000000000000000A0FBF6D4BF46
S113524000000098C5CE52BE000000003A397EBC72
S11352500000000000000000000000E0FE2BD3BFAF
S11352600000004073872BBE00000000926879BCE8
S1135270000000000000000000000040C069D1BF31
S113528000000058F16353BE00000080438D7CBCD5
S1135290000000000000000000000080D85FCFBFC5
S11352A0000000181F8354BE000000B03F42A2BC9F
S11352B000000000000000000000008067FCCBBF7D
S11352C000000060FAFF53BE00000050E00DB8BCBF
S11352D000000000000000000000000098A8C8BF03
S11352E0000000607A7F35BE000000C0543393BCD8
S11352F0000000000000000000000000DC63C5BFE7
S113530000000058D6FF54BE00000000396490BC71
S11353100000000000000000000000C0AD2DC2BF6E
S113532000000080A45915BE000000E0484BABBC4F
S11353300000000000000000000000801A0BBEBF47
S113534000000050BF3C5ABE000000A0B364B6BCCD
S113535000000000000000000000008004D6B7BF79
S113536000000040BBCF36BE0000008076CEA8BC53
S113537000000000000000000000008032BBB1BF4C
S1135380000000402A0043BE00000028C60CBDBC3B
S11353900000000000000000000000009473A7BF9C
S11353A0000000182B3B59BE000000C0E55DA5BC01
S11353B0000000000000000000000000EE4397BF62
S11353C0000000A0E6C340BE00000020958DB5BCDF
S11353D00000000000000000000000000000008049
S11353E000000000000000800000000000000080B9
S11353F0000000000000000030B4012464054D00EA
S1135400EC420BD85D00EC4208D80C001C4364004D
S11354100443144304D28B4200D1824230BC70470F
S1135420FCD09942FAD19042F8E70000F0B583B07D
S113543004000D00394A0B0D1340934206D10903B1
S1135440090B084302D02000290063E02000290052
S11354500022002300F050FA05D2802000064540C7
S11354606846042101E06846022181802000290069
S11354702BA20CCA00F040FA1FD2002026492200B9
S11354802B00FEF7F2FC06000F0000202249220048
S11354902B00FEF787FC32003B00FEF7C1FBFEF752
S11354A012FE06000B006846828800922000290044
S11354B03200FFF7BDFA009A22E00122164B00F0F9
S11354C01BFA20D20020194622002B00FEF7CDFC47
S11354D006000F000020104922002B00FEF762FC9A
S11354E032003B00FEF79CFBFEF7EDFD6A46938815
S11354F002225A40160022002B00FFF799FA3200CC
S113550000F036FA06E000F029FB212101600020BA
S1135510C043410803B0F0BD0000F03FFF070000A6
S1135520CE3B7F669EA0E63F10B588B00A78521C39
S11355300A700A785207520F0A700A7804235A43F1
S11355408A185060002208E004205043081840687C
S1135550042353436C46E050521C082AF4DB002019
S113556000221EE0042151436B4659184968042364
S113557053436C46E358994212DA04205043694677
S11355800858042151436B4659184968042353436E
S11355906C46E150042151436B4659184860012080
S11355A0521C072ADEDB0028D9D1039808B010BDAD
S11355B080B552480068524901435048016051483F
S11355C00021016050480021016050480021016021
S11355D04F48002101604F48032101704E48007874
S11355E0FE2101404C48017000F0E4F864480021B9
S11355F001606648002101606148624901606248B7
S11356000021017000F00AF85D4800688021014320
S11356105B4801605D480321016001BD70B55C48D1
S1135620002101605B48002101605B4800210160AA
S11356305A4800210160564C00253AE0EDB2584822
S1135640405D2021FEF73EFF0600EDB25448405D68
S11356502021FEF737FFF6B2042070432058C9B268
S113566004224A434F4B9A580243F6B20420704333
S11356702250EDB2082D1BDBF6B204207043201833
S11356808068C9B204225143464A51580143F6B2D4
S113569004204643A0198160EDB2042068434149C7
S11356A0081820380068EDB23D49495D3E4A50541F
S11356B06D1CEDB20C2DC1DB70BD38B505000024A6
S11356C03A480021017004E0287800F027F86D1CA6
S11356D0641CE4B2042C02DA28780028F4D1E4B281
S11356E0042C09DA02E03E2000F018F8200004003F
S11356F0641CC0B20428F6DB31BD000038800440CD
S1135700003C080050B0044054B0044058B0044079
S11357105CB00440004006400140064030B52249D8
S1135720C0B20200613A1A2A00D22038C0B2020084
S1135730303A2B2A00D33E203038C0B202224243F2
S113574000200FE0194B1B7802246343C0B21C18DD
S113575092B2C0B21318164DEB5CE4B2104D2C5D3E
S11357600B55401CC0B2022803DA104B1B78042BE3
S1135770E8DB0E480078401C0C49087030BD00007E
S1135780003005404B00B288BA1C002004300540AC
S11357901030054014300540183005401C300540D9
S11357A068950000748B000020300540B91C00206F
S11357B0F44A0000704700000122D2070118090EC4
S11357C07F3910D449421F310FD4001805D2C001CB
S11357D01043C84000D5D0437047C0011043C840AF
S11357E005D440427047002070470042F3D51000B2
S11357F070470000817810220A43827070478178D4
S1135800EF220A40827070478178DF220A4082705A
S11358107047817820220A43827070478178082279
S11358200A4382707047817804220A438270704769
S1135830017170470079704710B504002000FFF72C
S1135840E8FF2000FFF7D6FF10BD10B504002000CC
S1135850FFF7DAFF2000FFF7D2FF10BD00B5C178D3
S11358608907FCD5C17802220A43C27000BD00B585
S1135870C078C00701D4012000E0002000BD0D491C
S1135880096840220A430B490A600B490968A022AF
S113589092010A4308490A600849A022D2000A601A
S11358A00749A022D2000A6014214170802181702E
S11358B070470000348004403880044060D00440C5
S11358C064D004400B4A0B0D134093420AD0002BC2
S11358D001D0002004E00903090B084309D001208A
S11358E0C04370470903090B084301D002207047E5
S11358F001207047FF07000030B4012464054D0007
S1135900EC420BD85D00EC4208D80C001C43640048
S11359100443144304D2994200D1904230BC7047EE
S1135920FCD08B42FAD18242F8E70000090243001E
S1135930020100C032090400000102020101052431
S113594000100105240100010424020005240600BE
S1135950010705810320000209040100020A000076
S11359600107058202200000070503022000000051
S1135970F7B504000D0051A20CCAFFF73DFD1DD878
S113598051A003C822002B00FEF74AF900224D4B18
S1135990FEF708FA06000F004BA003C822002B00F4
S11359A0FEF700FA02000B0030003900FFF740F860
S11359B004000D00029801210143029120002900F6
S11359C00022434BFFF798FF05D30122F9239B05DF
S11359D0FFF712FD53D822002B00FEF721F9060031
S11359E00F0032003B0020002900FEF719F9009057
S11359F0019138A003C832003B00FEF711F937A229
S1135A000CCAFEF7CFF932003B00FEF709F935A2C4
S1135A100CCAFEF7C7F9009A019BFEF701F92200B0
S1135A202B00FEF7BFF904000D0030A003C83200BC
S1135A303B00FEF7F5F82FA20CCAFEF7B3F93200CB
S1135A403B00FEF7EDF82DA20CCAFEF7ABF93200CD
S1135A503B00FEF7E5F82BA20CCAFEF7A3F93200CF
S1135A603B00FEF7DDF80022284BFEF79BF902000D
S1135A700B0020002900FEF7DBFF04000D00029854
S1135A80800702D5802000064540029840070AD0CE
S1135A90800E00BF1EA1081803C822002B00FEF7C9
S1135AA081F904000D000298000702D58020000649
S1135AB045402000290003B0F0BD000057CD9E5E94
S1135AC01426D13F0000F0BFAA4C58E87AB6FB3F39
S1135AD0000040BE845D57134B57B03FB2934C193E
S1135AE0ED5EE43FBEDE02B90240F83FDE39028FCC
S1135AF0C7C0743F8AAB1283000CC83F24D7E508A3
S1135B00B6D8F03F0F34580E5895FD3F0000F03FD3
S1135B10000000000000000066732D3852C1E03F11
S1135B20182D4454FB21F93F66732D3852C1F03FC0
S1135B30182D4454FB21F93F66732D3852C100409F
S1135B40182D4454FB2109403FD038C6A6F1044027
S1135B501FB500F003F8212101601FBD80B5024884
S1135B6000F068FC02BD0000CC1C0020F7B5040066
S1135B700D00C9A003C822002B00FEF751F806004F
S1135B800F0049004908C6A20CCAFFF7B5FE00D3AE
S1135B90F2E0390000220023FFF72EFC104601D862
S1135BA0BC4900E0B34932003B00FEF7FBF8FEF7C6
S1135BB0D3F90090009800284DD0FEF721FF002271
S1135BC0AD4BFEF72DF806000F00ACA003C8320061
S1135BD03B00FEF725F802000B0020002900FEF729
S1135BE044F904000D00A7A003C832003B00FEF7EF
S1135BF017F802000B0020002900FEF736F9040014
S1135C000D00A2A003C832003B00FEF709F8020011
S1135C100B0020002900FEF728F904000D000020E5
S1135C20E44932003B00FDF7FBFF02000B002000BB
S1135C302900FEF71AF904000D00D2A003C83200AF
S1135C403B00FDF7EDFF02000B0020002900FEF7EA
S1135C500CF904000D00029800998907890F401877
S1135C60029020002900B8A20CCAFFF7C5FB0CD88B
S1135C700022F9239B05FFF73FFE06D20298C007D6
S1135C8000D44DE10024BE4D4AE122002B00FDF773
S1135C90C7FF06000F000298C00730D5ACA003C8A8
S1135CA032003B00FDF7BCFFABA20CCAFEF77AF84A
S1135CB032003B00FDF7B4FFA9A20CCAFEF772F84C
S1135CC032003B00FDF7ACFFA7A20CCAFEF76AF84E
S1135CD032003B00FDF7A4FFA5A20CCAFEF762F850
S1135CE032003B00FDF79CFFA3A20CCAFEF75AF852
S1135CF032003B00FDF794FF0022A14B37E0320055
S1135D003B0020002900FDF78BFF009001919FA02C
S1135D1003C832003B00FDF783FF9EA20CCAFEF7C6
S1135D2041F832003B00FDF77BFF9CA20CCAFEF752
S1135D3039F832003B00FDF773FF9AA20CCAFEF754
S1135D4031F832003B00FDF76BFF98A20CCAFEF756
S1135D5029F832003B00FDF763FF78A20CCAFEF776
S1135D6021F8009A019BFDF75BFF22002B00FEF750
S1135D7019F804000D00D3E02000724A2B0D1340E3
S1135D80934212D0002B1DD12903090B084319D1CA
S1135D900298C00701D50024794D0298800700D4E9
S1135DA0C7E0802000064540C3E02903090B0843EF
S1135DB000D0BEE0FFF7D2FE212101600020C043E5
S1135DC04108B8E0684630C0029C684600F034FBE5
S1135DD020180290684630C8200029005AA20CCA34
S1135DE0FFF70AFB0CD80022F9239B05FFF784FD7B
S1135DF006D20298C00700D492E00024604D8FE0E0
S1135E0022002B00FDF70CFF06000F000298C007CC
S1135E104AD54FA003C832003B00FDF701FF4EA254
S1135E200CCAFDF7BFFF32003B00FDF7F9FE4CA2A0
S1135E300CCAFDF7B7FF32003B00FDF7F1FE4AA2A2
S1135E400CCAFDF7AFFF32003B00FDF7E9FE48A2A4
S1135E500CCAFDF7A7FF32003B00FDF7E1FE46A2A6
S1135E600CCAFDF79FFF32003B00FDF7D9FE00226C
S1135E70434B51E00000E0BF0000303E0000005002
S1135E80FB21B94100000060B41011400000002063
S1135E9026A6513E0000E03F83C8C96D305FE43F51
S1135EA00000A0FFFFFFDF4132003B00200029007B
S1135EB0FDF7B6FE0090019134A003C832003B0008
S1135EC0FDF7AEFE33A20CCAFDF76CFF32003B00B7
S1135ED0FDF7A6FE31A20CCAFDF764FF32003B00B9
S1135EE0FDF79EFE2FA20CCAFDF75CFF32003B00BB
S1135EF0FDF796FE2DA20CCAFDF754FF32003B00BD
S1135F00FDF78EFE0DA20CCAFDF74CFF009A019B13
S1135F10FDF786FE22002B00FDF744FF04000D0070
S1135F200298800705D580200006454020002900FE
S1135F3001E02000290003B0F0BD00BF42555555D3
S1135F405555C5BFFF070000FEFFFFFFFFFF3FBE23
S1135F5009260A1039BA213E3BA861C6F97D92BED2
S1135F6063AC30909F01FA3EF6FB51166CC156BFEC
S1135F70B10255555555A53FAEFFFFFFFFFFDFBFEB
S1135F800000F03F000000209A833B3BB08F2FC3FA
S1135F9010D8E53D8F0C73A1E1E55ABE4DADE44F39
S1135FA0E31DC73E3EE3B519A0012ABFFAF0101164
S1135FB01111813F5C14D33C704700B501000020EF
S1135FC0002902D1002006E0401C0A001100491CEF
S1135FD01278002AF8D100BD78B401004C68802200
S1135FE01206224001200D4B1C404C600BD10C6862
S1135FF0002C08D10CE00C686D00E60F2E434E60B7
S113600064000C60401E4D68EC02F4D52B404B60DC
S11360104B681A434A6072BC704700BFFFFF0F0011
S1136020204B4268120D1A409A4209D14168090373
S113603004D10068002801D1012070470220704774
S113604043685B0002D10368002B28D0164B9A1AD0
S1136050521A012A23DB352A07DB41688022120603
S1136060114041600021016016E00121D306DB0EDE
S11360709940491E920608D542680A404168514039
S1136080416003681343002103E003680B40016887
S113609059400160002B02D00020C043704700200B
S11360A0704700BFFF0700003304000090420ED188
S11360B0A4460C001C430128644107D0994205D131
S11360C04C006415641C644000D30C0364467047A0
S11360D030B504000D0019A003C822002B00FDF701
S11360E09FFD18A20CCAFDF75DFE22002B00FDF7F0
S11360F097FD16A20CCAFDF755FE22002B00FDF7F2
S11361008FFD14A20CCAFDF74DFE22002B00FDF7F3
S113611087FD12A20CCAFDF745FE22002B00FDF7F5
S11361207FFD10A20CCAFDF73DFE22002B00FDF7F7
S113613077FD0EA20CCAFDF735FE30BDF7DE29BF90
S1136140D8F8C23FF4B3FECC1A99C33F62CB68D9E6
S11361506F46C73FC6C912DAC471CC3F4AE98A9474
S11361602449D23FF75F97999999D93FBC55555522
S11361705555E53FF0B589B0060014001D0003CE67
S1136180083EFFF79FFB070020002900FFF79AFB5A
S113619039000E9A0E9205D5002846D4022804D15F
S11361A030C615E1022FF9D11EE0002809D103CE33
S11361B0083E00228B4BFFF779FF0DD030C600203C
S11361C006E1012812D103CE083E0022824BFFF7DC
S11361D06DFF01D030C64DE0FFF7C0FC2121016006
S11361E00020C043410803C60220F1E0002F0FD174
S11361F030C6083E0E99300000F0D8F9040002D0F1
S1136200012C00D0E3E0FFF7A9FC22210160DEE0CD
S113621003CE083E0022734BFFF748FF10D1200045
S11362202900FDF7FDFC03C624E002AA03CE083EC4
S113623003C202A803C80022684BFFF75DFB07D224
S1136240002320002900FDF7EBFC03C60020BFE07B
S113625002A803C80122624BFFF7CEF80CD8002233
S1136260604B20002900FDF7DBFC03C6FFF776FC3A
S1136270222101600120ABE002A803C85AA20CCA83
S1136280FDF7CEFC00220023FFF736FB01D2584B6A
S113629000E0674BFDF786FDFDF75EFE0700FEF7A5
S11362A0AFFB04AA03C204A803C852A20CCAFDF798
S11362B0B7FC02000B0002A803C8FDF7D6FD00904E
S11362C0019104A803C84DA20CCAFDF7A9FC020061
S11362D00B0000980199FDF7C8FD6A4603C26846A1
S11362E003C848A20CCAFFF787F809D8684603C850
S11362F00022464BFFF700FB02D22000290057E0A2
S113630068460CC8684603C8FDF78AFC02AA03C2A3
S113631002A803C83EA20CCAFDF782FC3EA20CCA26
S1136320FDF740FD02000B0002A803C8FDF778FC4E
S113633006AA03C202A803C839A20CCAFDF770FC5E
S113634039A20CCAFDF72EFD02000B0002A803C8F7
S1136350FDF766FC0022364BFDF724FD02000B001E
S1136360684603C8FDF75CFC04AA03C206A80CC86F
S113637004A803C8FDF716FD0022164BFDF712FD15
S11363800090019106A803C804AA0CCAFDF76DFD8C
S11363900022104BFDF706FD02000B000098019946
S11363A0FEF746FB02000B0020002900FDF738FC35
S11363B003C6083E0E983918300000F0F7F80400C0
S11363C001D0012C03D1FFF7C9FB22210160200079
S11363D009B0F0BD0000F03F0000F0FF00C89CC011
S11363E000C89C400000F07FFE822B654715F73FF4
S11363F00000E0BF000000F8422EE63FF2E4D5BC06
S1136400E7E84B3EFEFFFFFFFFFF8FBC0000903C20
S1136410112E5781A03F503F5843128C8F71BC3FBF
S11364204BE8A541B752013F0BBDF3DAE8708C3F4E
S11364300000E03F70470000F1B582B030C849A0C9
S113644003C822002B00FDF7EBFB6A4603C2684633
S113645003C800220023FEF7CFFF68460CC802D809
S11364600020424901E000204149FDF79BFC6A46B7
S113647003C200216846FFF7D3FD68460CC800201C
S11364800021FFF713FE4AD03A49FDF7C9FB060085
S11364900F0039A003C832003B00FDF7C1FB020026
S11364A00B0020002900FDF7E0FC04000D0034A0DF
S11364B003C832003B00FDF7B3FB02000B002000D1
S11364C02900FDF7D2FC04000D002FA003C8320000
S11364D03B00FDF7A5FB02000B0020002900FDF79F
S11364E0C4FC04000D000020294932003B00FDF7E4
S11364F097FB02000B0020002900FDF7B6FC040006
S11365000D0024A003C832003B00FDF789FB020004
S11365100B0020002900FDF7A8FC04000D000298E0
S113652030C0684603C81DA20CCAFFF7E5F906D3BC
S1136530684603C81B4A1C4BFEF75EFF07D80022BF
S1136540074B684603C800F0BFF86A4603C26846B2
S113655003C8FDF701FD8007800F03B0F0BD00BF45
S11365600000E04183C8C96D305FE43F0000E03FB4
S11365700000E0BF0000303E00000050FB21B941A4
S113658000000060B41011400000002026A6513E17
S11365905C14D33C000000209A833B3B0000C0FF06
S11365A0FFFFDFC10100C0FFFFFFDF41F8B50400BA
S11365B00D00414E6068000D3040B04207D1606864
S11365C0000302D12068002816D00220F2BD002862
S11365D004D12000FFF700FD01286BDA012D0DDB4B
S11365E0311A8D420AD36068002802D5002033494D
S11365F001E00020310503C40120F2BD4142A9425B
S113660007DA61682E4A0A402818000510436060C2
S113661047E08021090662680A4063681B031B0B7C
S1136620CE0A1E436660401E2D1800232800353014
S1136630352803D3626023600020F2BD28000025C2
S11366401E26F643B04204DA2030256866682660C8
S11366506360434211D06D1EAD41ED43ED0F202028
S1136660C01A2668864035432668DE40676887403E
S1136670374327606068D84060606068104360609A
S11366801048854204D28D420ED12078C0070BD524
S11366902068401C20602068002805D16068401CE8
S11366A060600020C043F2BD60689042F9D1206868
S11366B00028F6D10020F2BDFF0700000000F0FF23
S11366C0FFFF0F8001000080F0B401277F05DB1875
S11366D04C18FB4259D85D0D50D0FC424DD2BF023C
S11366E0A34200D1824239D2640D0E003E409B0287
S11366F03B43DB0AC9023943C90A641B641C801A80
S1136700994104D2641E001849418018594101D1AD
S113671000420AD0641E08D000184941801A9941E9
S1136720F5D280185941641EF6D18902820D800287
S1136730114303D101001DD0203D002003D46D1E60
S113674000184941FBD5C00A4C05C90A204331430E
S11367502D4207D42D054919F0BC7047FCD13940AE
S11367600020F9E76D1C05D1FF0AB943401C6941BB
S11367700F03F1D231000020EEE7EDD10021C9432F
S11367807446FFF7E5F9A646E6E71900E4E70000DA
S113679080B58F4800688021090101438C4801605D
S11367A08C48A021C90001608B480068E02188431F
S11367B0894908608848006840210143864801608F
S11367C096489749016097480078402101439548CD
S11367D0017095480078FD21014093480170934869
S11367E00078FB2101409148017090480078802195
S11367F001438E4801708B480078BF2101408948CD
S113680001708B480078BF21014089480170854898
S11368100078E02101408348017085480078E02138
S11368200140834801707F480078182101437D4866
S113683001707F480078032101437D4801707C4842
S11368400078402101437A4801707A480078400674
S1136850FBD57448007840210143724801707348A5
S113686000788006800E71490870E1225202724954
S1136870AC4800F075FB01BD00B5704800880028E5
S11368805FD16E486E49096801806E480078401CEB
S11368906C490870C0B2012807D04CD3032820D01B
S11368A011D3052839D02AD345E067480068202150
S11368B001436548016065480068802189050143FA
S11368C0624801603DE0624800682021014360485D
S11368D001605E4800688021890501435B480160CE
S11368E02FE0594800682021014357480160594866
S11368F000688021890501435648016021E052481F
S113690000682021014350480160524800688021FA
S1136910890501434F48016013E04B48006820217A
S113692001434948016049480068802189050143C1
S11369304648016005E07C48012101607B48B34979
S1136940016000BD80B57A48006880214904014394
S1136950774801607748006880210906014375483B
S1136960016000F0B5FBAA48007810210143A84853
S1136970017001BD10B570480078000714D50320DC
S113698000F0E0FC04006D48202101806C48802167
S1136990017069480078F7210140674801700122BD
S11369A06849022000F047FC6748008800280ED19F
S11369B065489621490001806448027864499548F5
S11369C0FEF70AF80F229349022000F034FC10BDB0
S11369D0388004400CB00440048004405D480068E2
S11369E08021490401435B4801608B4800688B495E
S11369F00143894801608A48FA2189000160894875
S1136A00282101608848FA2149000160B5480068DE
S1136A1008210143B34801607047000044800440EA
S1136A2000000110054006400140064000400640B9
S1136A30044006400640064080BB0000821C002043
S1136A4010F4FF1FB71C0020C4F00F4004F10F40E6
S1136A50C8F00F4008F10F4080B574480088002842
S1136A6048D17248C8210180714800780100491C4E
S1136A706F4A1170C0B20A2802DB6D480021017010
S1136A806B48007800280ED0022814D00FD30428B5
S1136A9019D014D306281ED019D3082823D01ED306
S1136AA0092824D026E06348FEF707FE22E0624866
S1136AB0FEF703FE1EE06148FEF7FFFD1AE06048A2
S1136AC0FEF7FBFD16E08848FEF7F7FD12E0874865
S1136AD0FEF7F3FD0EE08648FEF7EFFD0AE0854879
S1136AE0FEF7EBFD06E08448FEF7E7FD02E083488D
S1136AF0FEF7E3FD82498348006808221040020043
S1136B00D20801205040C0B200F03AFF002808D05B
S1136B1005480121016005487B4901609248FDF761
S1136B2049FF01BD00A006408C19002088190020EF
S1136B300470044000700440C01C002062F6FF1F73
S1136B4060F6FF1F701B0020881C0020BE1C002064
S1136B50A49400003C80044080B584480078002858
S1136B6003D0834881490978016081480068022183
S1136B70484332307F4908607D4802687EA1254839
S1136B80FDF72AFF7D488021C9000160784800682C
S1136B900A214843244908601E48FEF78EFD7348C5
S1136BA001787748FDF706FF20480088002810D1B7
S1136BB01E48704909680180724800682021014319
S1136BC070480160704800688021890501436E485F
S1136BD001604B494B480068082210400200D2086B
S1136BE001205040C0B200F0CBFE00280CD0634816
S1136BF080214900016065480121016064486549BC
S1136C000160B848FDF7D6FE01BD0000596A0000D6
S1136C100821074058F7FF1F0480044000000101C9
S1136C20088003403480034038800340821C0020E5
S1136C30B81C0020B0950000B8950000C095000075
S1136C40C895000080B5FCF7CDFA53480068B42815
S1136C5004DA524850490968016006E0B420400053
S1136C604D490968401A4D4908604C4800680221A2
S1136C7048430A303F490860494803684948026864
S1136C80494801684948FDF795FE494800880028AD
S1136C9010D147483749096801803A4800682021E3
S1136CA00143384801603848006880218905014360
S1136CB03548016012491348006808221040020058
S1136CC0D20801205040C0B200F05AFE002808D07B
S1136CD02E48012101602E48834901608348FDF755
