S013000068656C6C6F5F776F726C642E7372656376
S113400000000320C56F0000DF5B00006360000058
S1134010F3620000AF680000676B0000000000005E
S1134020000000000000000000000000456F0000D8
S113403003700000000000000F7000000B7100000E
S11340403D7100003D7100003D7100003D710000B4
S11340503D7100003D7100003D7100003D710000A4
S11340603D7100003D7100003D7100003D71000094
S11340703D7100003D7100003D7100003D71000084
S11340803D7100003D7100003D7100003D71000074
S11340903D7100003D7100003D7100003D71000064
S11340A03D7100003D7100003D7100003D71000054
S11340B03D7100003D7100003D7100003D71000044
S11340C03D7100003D7100003D7100003D71000034
S11340D03D7100003D7100003D7100003D71000024
S11340E03D7100003D7100003D7100003D71000014
S11340F03D7100003D7100003D7100003D71000004
S11341003D7100003D7100003D7100003D710000F3
S11341103D7100003D7100003D7100003D710000E3
S11341203D7100003D710000017100003D7100000F
S11341303D7100003D7100003D7100003D710000C3
S11341403D7100003D7100003D7100003D710000B3
S11341503D7100003D7100003D7100003D710000A3
S11341603D7100003D7100003D7100003D71000093
S11343F03D7100003D7100003D710000FFFFFFFFB3
S1134400FFFFFFFFFFFFFFFFFFFFFFFFFEFFFFFFB9
S11344102DE9F54F91B00D000020039012980790FC
S1134420129810F1010F02D1DFF8B00412901C00B1
S1134430DDF8708005E01199A8470398401C0390AB
S1134440641C2078002800F04082252805D01199AA
S1134450A8470398401C0390F2E75FF0010A002686
S1134460002101E056F0010600291BD1641C2078CC
S113447020280BD023280FD02B2804D02D28F1D0AE
S1134480302806D00BE056F00206EDE756F004069D
S1134490EAE756F00806E7E756F01006E4E7641E7C
S11344A00121E1E70027002103E00A22303802FB62
S11344B00707002908D1641C20780200303A092A31
S11344C0F3D9641E0121F4E70622641C20782E2807
S11344D011D10022002103E00A23303803FB020239
S11344E0002909D1641C20780300303B092BF3D93F
S11344F0641E0121F4E7641E641C20784C2810D04B
S1134500682802D06C2806D00CE0641C2078682847
S113451000D0641E07E0641C20786C2800D0641E60
S113452001E000E0641E641C20780100582900F0BA
S11345308B80622900F00F81632900F08081642957
S113454013D0692911D06E2900F0B8816F2900F0C9
S1134550F180702900F01081732900F07B817529A6
S113456000F0208178296DD065E7D8F8000018F1B3
S1134570040806905FFA8AFACDF800A00A23012203
S113458006A908A800F0ACF9814608A819EB0000B8
S113459005900698002804D55FF02D0A19F1010949
S11345A00FE0B00704D55FF02B0A19F1010908E008
S11345B0700704D55FF0200A19F1010901E05FF0EA
S11345C0000A5FF0000B300717D5BAF1000F05D0D1
S11345D011995046A8470398401C03905FF0010BC3
S11345E012A8029011980190009503AB3A00494635
S11345F0302000F0B6F9B94617E0F00715D412A838
S1134600029011980190009503AB3A00494620208E
S113461000F0A7F9BAF1000F05D011995046A84748
S11346200398401C03905FF0010BBBF1000F08D10D
S1134630BAF1000F05D011995046A8470398401CC1
S11346400390EAE05FF0000AD8F8000018F10408CB
S113465004905FFA8AFACDF800A01023002204A97E
S113466008A800F03DF9814608A819EB0000059060
S11346705FF0000B300720D5F00611D511993020DA
S1134680A8475FFA8AFABAF1000F01D0582000E077
S113469078201199A8470398801C03905FF0010BC0
S11346A012A8029011980190009503AB3A00494674
S11346B0302000F056F9B94624E0F00722D4F00681
S11346C001D519F1020912A80290119801900095E0
S11346D003AB3A004946202000F043F9F00611D517
S11346E011993020A8475FFA8AFABAF1000F01D075
S11346F0582000E078201199A8470398801C039063
S11347005FF0010BF00614D5BBF1000F11D1119924
S11347103020A8475FFA8AFABAF1000F01D0582076
S113472000E078201199A8470398801C039019F1A0
S1134730020972E0D8F8000018F1040804905FFA46
S11347408AFACDF800A00823002204A908A800F0E2
S1134750C7F8814636E0D8F8000018F10408049040
S11347605FFA8AFACDF800A00223002204A908A85F
S113477000F0B6F8814625E0D8F8000018F10408E6
S11347800490D8F8000018F1040804905FFA8AFA3B
S1134790CDF800A01023002204A908A800F0A0F876
S11347A081460FE0D8F8000018F1040804905FFA7D
S11347B08AFACDF800A00A23002204A908A800F070
S11347C08FF8814608A819EB0000059030070CD536
S11347D012A8029011980190009503AB3A00494643
S11347E0302000F0BEF8B94617E0F00715D412A83F
S11347F0029011980190009503AB3A00494620209D
S113480000F0AFF809E0119905980078A8470598D9
S1134810401E05900398401C0390059800780028DA
S1134820F1D1F0070AD512A80290119801900095D1
S113483003AB3A004946202000F093F800E6D8F88C
S1134840000018F10408C0B21199A8470398401C4D
S11348500390F5E5D8F800A018F10408BAF1000FA8
S11348602BD0504600F094F88146F00714D412A8D7
S1134870029011980190009503AB3A00494620201C
S113488000F06FF808E011999AF80000A8471AF1AF
S1134890010A0398401C03909AF800000028F2D102
S11348A0F0070AD512A8029011980190009503AB65
S11348B03A004946202000F054F8C1E5D8F8000039
S11348C018F1040803990160BAE51298002801D090
S11348D0039800E0079813B0BDE8F08FFEFFFF7F58
S11348E070B41C00002300250570401C002A19D058
S11348F0096800290AD1302101705B1C180070BCC2
S11349007047303511000570401C5B1C0029F5D040
S113491091FBF4F204FB1215002DF2D5E94311F1D9
S11349203105EFE70A68002A19D1302101705B1CB8
S1134930E4E761220A3A96192A000670401C5B1CBF
S1134940002ADBD0B2FBF4F504FB15260A2E01D2B3
S11349503036F1E7C9B20029EBD04122EAE70399E6
S1134960EEE72DE9F84304000D0016001F00DDF802
S11349702080DDF8249007E049462000C0B2C047FB
S11349803868401C38606D1CB542F5DBBDE8F18326
S113499000F10103810704D010F8011B89B18107DC
S11349A0FAD10268B2F10131914311F0803F04BFA2
S11349B050F8042FF6E710F8011B11B110F8011B91
S11349C0FBE7C01A704710B450F8041B81B10268A9
S11349D01218001D50F8043BDC0744BFA9F1010480
S11349E0E31852F8044B43F8044B091FF9D1EBE7E1
S11349F010BC70478079C0F38100C0B27047801D3D
S1134A004001DFF86814085CC0B27047801D4001A3
S1134A1010F184400078C0B27047021D5201DFF8E3
S1134A20503499547047801D4001DFF84414085CE9
S1134A30C0B2002801D0012000E00020C0B27047BD
S1134A40801D4001DFF82C14085CC0B2002801D09E
S1134A50012000E00020C0B2704710F110025201A2
S1134A60DFF808349954704712304001DFF8FC1322
S1134A70085CC0B27047801D4001DFF8FC13085C7D
S1134A80C0B2002801D0012000E00020C0B270476D
S1134A902DE9F04104004FF400752000FFF7AAFF50
S1134AA006002000FFF7ABFF0700601C4001DFF8A1
S1134AB0C81311F800802000FFF7C2FF0100F6B20E
S1134AC0002E05D0022E20D00ED3032E31D039E093
S1134AD0C9B2002907D1FFB2002F02D10820050076
S1134AE001E0012005002DE0FFB2012F0CD1C9B275
S1134AF0002909D15FFA88F8B8F1000F02D1022029
S1134B00050001E0042005001CE0FFB2002F0FD1D6
S1134B105FFA88F8B8F1000F08D1C9B2002902D0B1
S1134B204020050004E01020050001E020200500DD
S1134B3008E0FFB2002F04D1C9B2002901D08020BF
S1134B400500FFE7280000B2BDE8F08138B5040095
S1134B500D00207B10F0FC0015F0030108432073C6
S1134B60EDB2002D0CD1601C4001DFF81013085C7D
S1134B70C0B2002804D02000FFF77DFF0028FAD03F
S1134B8031BD2DE9F04704000D0016001F00DDF8CB
S1134B902080DDF824902000FFF77AFF82461D2153
S1134BA01AEA010F01D1012049E00020E11C49016A
S1134BB0DFF8D0225054207810F03B0050F044002D
S1134BC020702000FFF71BFF0128FAD1F6B2012E56
S1134BD004D13900C9B2200000F04CFA607810F01A
S1134BE0FC0016F00101084360702000FFF70EFF7F
S1134BF0F6B2B042F9D1E07810F09F00690111F0EB
S1134C0060010843E070E078C0F34110C0B2EDB237
S1134C10A842F8D12000FFF7EDFE0128FAD1C047E1
S1134C20F6B2002E04D196480068C9F8000005E0E9
S1134C30954800680100F940C9F800100020BDE85B
S1134C40F0872DE9F84F05000E0093461F000A9CDB
S1134C50DDF82C80DDF830902800FFF719FF82463C
S1134C607B211AEA010F01D101206BE03100C9B2A6
S1134C70280000F042F900900098002801D121207A
S1134C8060E00020691D4901794A50542800FFF76B
S1134C90D7FE0028FAD10020691C4901764A5054F5
S1134CA00FFA8AFABAF1080F06D0287B10F0FC003C
S1134CB016F0030108432873287810F003005FEA14
S1134CC0CB0111F03801084350F08000287028000F
S1134CD0FFF795FE0028FAD10FFA8AFABAF1080F05
S1134CE006D1287B10F0FC0016F00301084328735A
S1134CF0F6B2002E0BD1681C40016049085CC0B2BA
S1134D00002804D02800FFF7B6FE0028FAD0E8787F
S1134D1010F01F0050EAC710610111F06001084350
S1134D20E870E878C0F34110C0B2E4B2A042F8D110
S1134D302800FFF75FFE0228FAD1C0470098C9F89F
S1134D4000000020BDE8F28F2DE9F84F05000E00A9
S1134D50170098460A9CDDF82C902800FFF798FE6F
S1134D608246B0211AEA010F01D101207AE0310014
S1134D70C9B2280000F0C1F88346BBF1000F01D18D
S1134D8021206FE03900C9B22800FFF766FE280031
S1134D90FFF76AFEFFB28742F9D1FFB2002F10D1AC
S1134DA05FFA88F818F10100BBFBF0F0009000985E
S1134DB03649884203D300983549884201D34120BB
S1134DC050E00020691C49012B4A5054287810F007
S1134DD03F0050F0800028702800FFF70BFE0228E7
S1134DE0FAD13100C9B22800FFF7B0FE0021280033
S1134DF0FFF713FE0020691D49011D4A5054280085
S1134E00FFF71EFE0028FAD1FFB2002F1DD128792A
S1134E1010F0F80018F0070108432871687910F0C1
S1134E20E00014F01F01084368710120691D490165
S1134E300F4A50542800FFF703FE0028FAD0280038
S1134E40FFF7F1FD00280AD1F9E70120691D4901A6
S1134E50074A50542800FFF7F3FD0028FAD0C9F898
S1134E6000B00020BDE8F28F0000000010000042F6
S1134E7018000042140000420400004208000042EE
S1134E800800FF1F1C0000420400FF1F00127A00EC
S1134E900124F4008079C0F38100C0B27047421C41
S1134EA0520112F1844211707047801D400110F1CB
S1134EB084400078C0B27047801D4001DFF8881339
S1134EC0085CC0B2002801D0012000E00020C0B27C
S1134ED07047801D4001DFF87413085CC0B20028DD
S1134EE001D0012000E00020C0B270471230400120
S1134EF0DFF85C13085CC0B270470200C9B2002935
S1134F0003D002290BD005D30DE0DFF848331B682A
S1134F1018000AE0DFF840331B68180005E0DFF8EA
S1134F203C33180001E000231800704710B504005A
S1134F30207B10F003012000FFF7DFFF10BD70B4E9
S1134F4005000800039C01000800D040DBB2002BE0
S1134F5018D0E4B2012C15D0D2B2110000290529D1
S1134F6004D9891F04D0491E06D009E0400909E08C
S1134F701421B0FBF1F005E00C21B0FBF1F001E0ED
S1134F800021080070BC70472DE9F04182B0040094
S1134F906001DFF8CC12085CC0B200281DD12000EB
S1134FA0FFF7C4FF05002078C0F3C2000600607854
S1134FB0C0F301100700207B10F0030080465FFA65
S1134FC088F8CDF800803B00DBB23200D2B2290071
S1134FD02000FFF7B4FF050003E0DFF88802006853
S1134FE005002800BDE8F68110B40400D2B2002AFE
S1134FF004D0B1F5004F0BD9002013E047F612207E
S1135000814203D349F69800814201D3002009E08C
S1135010DFF85402DBB210EB8300D2B230F8120096
S113502000FB01F010BC7047F8B504002000FFF746
S113503050FF002801D000201BE02000FFF7A4FF50
S11350400500002D01D1002013E0E01C4001DFF831
S11350501C12085C0600E078C0F3411007003B0016
S1135060DBB23200D2B229002000FFF7BDFF0500F9
S11350702800F2BD38B504000D00207AC0F34200C8
S1135080C0B2EDB2A8422AD0601C400110F18440A5
S11350900078C0B2002808D1207A10F0D00069004E
S11350A011F00E010843207219E000212000FFF7DF
S11350B0F6FE2000FFF7F9FE0028FAD1207A10F05E
S11350C0D000690011F00E01084320720121200074
S11350D0FFF7E5FE2000FFF7E8FE0128FAD131BD15
S11350E010B504002000FFF721FF10BD70B50400C7
S11350F0A01D40015549085CC0B2002808D1201DFC
S113510040015149085CC0B2002801D1002014E0DC
S11351102000FFF7E5FF0500207910F00700401C90
S11351200600F6B2B5FBF6F5607910F01F001030FA
S11351300600F6B275436D08280070BDF8B504008A
S11351400D0016001F00607910F0E00016F01F013A
S113515008436071207910F0D80050EA471015F028
S11351600701084350F0400020712000FFF7A4FE1F
S11351700028FAD0F1BD01003D480068704710B422
S1135180010048013B4B185CC0B2002801D100204B
S113519014E0481C400110F184400078C0B200289B
S11351A003D130480068020007E0334800680B7AF6
S11351B0C3F342030400DC402200100010BC70471B
S11351C070B504002000FFF765FE0600F6B2002E5D
S11351D013D0022E1BD015D3032E1DD12000FFF7B0
S11351E085FE012804D12000FFF7C5FF050003E078
S11351F02000FFF77BFF050010E02000FFF714FFFD
S113520005000BE02000FFF7BAFF050006E02000D0
S1135210FFF78CFE050001E000200500280070BDAA
S113522030B4447814F0C3040D0115F030052C4358
S1135230D50015F008052C439D0015F004052C43FA
S1135240447030BC70470000180000421400004253
S1135250100000422000FF1F2800FF1F006CDC022A
S1135260080000420800FF1F907000001C0000426C
S11352702400FF1F040000420400FF1FC9B24A09B2
S113528010EB820202F580522832C9B211F01F03DA
S11352909B0013EB421212F1844201231360704706
S11352A0027812F03F0252EA81120270704780794C
S11352B0C0F38100C0B27047421C5201DFF8CC3306
S11352C0995470474201DFF8C4339954704742013E
S11352D012F1844211707047421C520112F184424F
S11352E011707047801D400110F184400078C0B2F5
S11352F07047021D5201DFF8983399547047421DDC
S11353005201DFF88C3399547047801D4001DFF857
S11353108413085CC0B2002801D0012000E0002002
S1135320C0B27047801D4001DFF86013085CC0B252
S1135330002801D0012000E00020C0B270474201E3
S1135340DFF85433995470474201DFF848339954D5
S11353507047827812F03F0252EA811282707047DD
S113536010B50400BD21DFF83403FFF787FF10BD3B
S1135370C9B210F110025201DFF82433995070477A
S1135380C9B210F110025201DFF818339950704776
S1135390C9B210F110025201DFF80C339950704772
S11353A0C9B210F110025201DFF80033995070476E
S11353B010B491F00102D2B210F110035B01DFF8D6
S11353C0F042E25010BC7047C9B210F11002520111
S11353D0DFF8E0329950704710304001DFF8D41202
S11353E00858002801D0012000E00020C0B2704716
S11353F080B50221B148FFF753FFB048FFF757FFCC
S11354000228FAD10021AD48FFF779FFAB48FFF736
S11354107CFF0028FAD101BD2DE9FF4104000D00F5
S1135420677A94F80E80A548FFF732FB0600B4F9BA
S11354300000042812D136B2802E01D1FFF7D8FF24
S113544003A80190009563792279E1799B48FFF7DD
S113545098FB01219948FFF72FFF51E0B4F90000B0
S113546008281ED136B2802E01D1FFF7C1FF0021DA
S11354709248FFF721FF03A802900195E07900907C
S1135480237AA2793900C9B28C48FFF7DAFB0021EC
S11354908A48FFF705FF8948FFF709FF0028FAD17A
S11354A02EE0B4F90000802828D136B2802E0FD027
S11354B000218248FFF700FF03A802900195E079DC
S11354C00090237AA2793900C9B27C48FFF7B9FB6E
S11354D003A80190607B0090237B4246D2B239003E
S11354E0C9B27648FFF730FC00217448FFF7D8FEB4
S11354F07248FFF7DCFE0328FAD101E001202BE01B
S1135500A1786E48FFF7DEFEE1786C48FFF7DFFE16
S1135510A078002811D02079012803D16179674847
S1135520FFF7A8FD21796548FFF7D6FE6348FFF72A
S1135530D9FE2179C0B28142F8D1A07A002806D0E0
S1135540E37A627B217B5D48FFF7F8FD03E00021ED
S11355505A48FFF7CEFE002004B0BDE8F08170B5D4
S113556004000D00002C07D040F24F225249544849
S113557000F0B2F8C046C0460026A87A01281CD123
S11355802879002801D0082000E00020697900294A
S113559001D0042100E00021AA79002A01D00222CE
S11355A000E0002208431043E97951EA0006310083
S11355B0444850F8240000F0A1F815F10B01200034
S11355C000F016F8AB7A2A7A697A3C48FFF728FE8D
S11355D0A87A012807D1E87A002804D03748FFF7D1
S11355E0A1FE0028FAD0286837490860002070BD61
S11355F038B504000D00A978324850F82400FFF7AC
S1135600A8FE29782F4850F82400FFF798FE6978FF
S11356102C4850F82400FFF797FE31BD70B5040004
S11356200D00002C07D04FF430722349274800F0B6
S113563053F8C046C046264850F824602000FFF7BF
S11356408FFE2868234908603000FFF7C5FE002854
S113565012D1287A00280FD029793000FFF788FE6C
S113566069793000FFF78CFEA9793000FFF790FECE
S1135670E9793000FFF794FE297A3000FFF7A4FEA1
S1135680697A3000FFF794FE002070BD04000042E8
S113569018000042140000421C0000420070044044
S11356A034000042300000422C0000422800004236
S11356B02400004220000042886C000000400640A4
S11356C0486F0000307100002000FF1F686F000069
S11356D0347100002800FF1F00B583B000910192CF
S11356E002906A4604491820ABBE002801D100F09C
S11356F00BF803B000BD00BF10100200027812F0D6
S1135700F0020A4302707047012000F011B850F80B
S1135710041B61B150F8042BD30744BFA9F1010362
S11357209A180023091F42F8043BFAD1EFE77047A7
S113573080B5C046C046024A11001820ABBEFBE744
S113574026000200012110F01F029140DFF8EC2333
S113575040B2430942F823107047012110F01F02A0
S11357609140DFF8DC2340B2430942F8231070472C
S11357700121420112F1844211607047002142016B
S113578012F184421160704701214201DFF8B43301
S113579099507047C9B24201DFF8AC339950704751
S11357A08268C1EA020282607047C9B24A0910EBFA
S11357B0820202F580522832C9B211F01F039B0005
S11357C013EB421212F18442012313607047C9B2F1
S11357D04A0910EB820000F580502830C9B211F05C
S11357E01F01890011EB401010F18440006800286B
S11357F001D0012000E00020C0B2704710B50400C1
S113580064B2002C08D55D22DFF84013DFF84003B2
S1135810FFF762FFC046C04664B2642C08DB5E2218
S1135820DFF82813DFF82C03FFF756FFC046C04605
S1135830200040B2FFF786FF10BD10B5040064B22B
S1135840002C08D57022DFF80413DFF80403FFF7F7
S113585043FFC046C04664B2642C08DB7122DFF803
S1135860EC12DFF8F002FFF737FFC046C046200015
S113587040B2FFF772FF10BD10B504008021DFF8BD
S1135880D802FFF792FF10BD10B504008021DFF8A5
S1135890C802FFF79CFF10BDF0B583B004000D00F3
S11358A01600002C08D03C22DFF8B012DFF8B0025A
S11358B0FFF712FFC046C046DFF8A80250F8247074
S11358C0002E01D0002D01D1022062E030780128A1
S11358D007D13079002804D0B079002801D1032001
S11358E057E02000FFF7C8FF3800FFF747FF707943
S11358F08DF805003079002803D101208DF80400CB
S113590002E000208DF80400B0798DF806000199BA
S1135910380000F051F930788DF80000F0788DF8F7
S11359200100B0788DF8020070788DF803000099BA
S1135930380000F023F9DFF8300240F8245000204A
S11359402860F079002809D001213800FFF722FFF0
S1135950DFF818022056FFF751FF08E00021380055
S1135960FFF718FFDFF804022056FFF766FF3078D0
S113597000280DD17179200000F091FA6860307927
S1135980002805D06868B179491C0200CA406A60E1
S11359900020FEBD38B50400002C06D0AC226F49AF
S11359A06F48FFF799FEC046C0462000FFF76CFF22
S11359B0002806D1AD2269496D48FFF78DFEC04627
S11359C0C046684850F824502800FFF7D1FE002054
S11359D032BDF8B504000D00002C06D0D2225F4978
S11359E05F48FFF779FEC046C046002D06D1D3229A
S11359F05A496048FFF770FEC046C0462000FFF7D2
S1135A0043FF002806D1D42254495948FFF764FEC5
S1135A10C046C046534850F82460534850F8240008
S1135A204068554988421ED253484F4951F82410C2
S1135A304968B0FBF1F0854201D2072027E04E48C7
S1135A40494951F824104968B0FBF1F0B5FBF0F076
S1135A500700B7F5803F01D3082018E03900300073
S1135A60FFF79EFE12E0404850F824004068424987
S1135A70B0FBF1F000FB05F00700B7F5803F01D360
S1135A80082004E039003000FFF78AFE0020F2BD50
S1135A9038B504000D00002C07D04FF4A8722F492C
S1135AA02F48FFF719FEC046C046002C07D04FF41C
S1135AB0A9722A492A48FFF70FFEC046C0462A4861
S1135AC050F82400002801D1012004E0264850F8B1
S1135AD024000560002032BD38B50400002C07D036
S1135AE04FF4B4721D491E48FFF7F6FDC046C04688
S1135AF02000FFF7C9FE002807D140F269121749B8
S1135B001B48FFF7E9FDC046C046164850F824502C
S1135B102800FFF739FE144850F8240000280AD062
S1135B20114850F824000068002804D00E4850F8AA
S1135B3024000068804731BD0000000000E100E05F
S1135B4080E100E01C00004218000042686A000086
S1135B5080700000846E000000700440D06C00006F
S1135B60886F0000387100001C00FF1F40710000A6
S1135B70D86E00002471000040420F0002B4026895
S1135B80110031F0BE019DF80020520012F0020213
S1135B909DF8013052EA83029DF80230DB0013F0D5
S1135BA008031A439DF803301B0113F030031A4312
S1135BB01143016001B0704702B49DF8012012F056
S1135BC003029DF8003052EA83029DF80230DB00A4
S1135BD013F078031A431100416001B07047FEE7E7
S1135BE0C9B24A0910EB820202F580522832C9B2C6
S1135BF011F01F039B0013EB421212F184420123A4
S1135C001360704741F204021058800E10F0030034
S1135C107047026832F44022C9B28B0413F4402363
S1135C201A43026070470068800C10F0030070474C
S1135C3041F20402125832F44032C9B20B0413F494
S1135C4040331A4341F204031A50704741F20401ED
S1135C500858000C10F00300704741F24401085842
S1135C60000FC0B2704741F244010858000E10F012
S1135C700F0070474FF47A7070474001DFF830131B
S1135C80085CC0B2002801D0012000E00020C0B2AE
S1135C90704780788009704780B500F054F840F66A
S1135CA0B831B0FBF1F00100481E002901D000BF5B
S1135CB0F9E701BD10B582B00400E0790090A37942
S1135CC062792179DFF8F00200F0B1F92178DFF888
S1135CD0E802FFF7ADFFA2786178DFF8DC0200F09C
S1135CE07FF9E178DFF8D002FFF793FF13BD10B519
S1135CF082B00400002C08D17422DFF88012DFF88F
S1135D008002FFF7E9FCC046C04607200090072345
S1135D1003220021DFF8A00200F089F9DFF8641201
S1135D202000FFF779FB14F11300FFF7C3FF14F110
S1135D3010010020FFF75CFC00F005F8DFF87C128E
S1135D400860002016BD10B5DFF86002FFF738FACE
S1135D500400DFF86402FFF780FF401CB4FBF0F09E
S1135D6010BD10B5DFF84402FFF72AFA0400DFF88B
S1135D704802FFF772FF401CB4FBF0F010BD10B5F1
S1135D80DFF82802FFF71CFA0400DFF82C02FFF703
S1135D906AFF401CB4FBF0F010BD38B5DFF8180200
S1135DA0FFF754FF0500EDB2002D05D0022D0FD0F2
S1135DB008D3032D12D015E0DFF8F001FFF734F912
S1135DC0040011E0DFF8E401FFF790F904000BE0B0
S1135DD0DFF8D801FFF7CFF9040005E0DFF8E001B0
S1135DE0040001E000200400200032BD10B582B0A0
S1135DF0FFF7D3FF040000AA0DF10101DFF8B80199
S1135E0000F006F99DF80000401C00FB04F09DF82A
S1135E100110491CB0FBF1F016BD38B5DFF898014C
S1135E20FFF701FF0400E4B22000002804D0022898
S1135E300DD0032810D013E0DFF888010068B0F516
S1135E40004F02D14FF4004500E000250AE0DFF8DE
S1135E5064010068050005E0FFF70CFF050001E0A0
S1135E6000200500280032BD80B5DFF85C01006821
S1135E70FFF703FF002803D0DFF84801006800E0C3
S1135E80002002BD10B5FFF7EFFF0400DFF8380172
S1135E900068FFF7FEFE01002000C84010BD70B589
S1135EA004000D00EDB2002D05D0022D0DD008D355
S1135EB0032D0ED011E0DFF8F400FFF760F90600BF
S1135EC00DE0FFF7D7FE060009E0FFF7A6FF060086
S1135ED005E0FFF7C9FF060001E0002006003000DE
S1135EE070BD70B504002100DFF8CC00FFF78AFE16
S1135EF00500EDB2012D04D011D3032D09D004D334
S1135F000DE0FFF773FF06000BE0FFF7BBFF060091
S1135F1007E0DFF89800FFF732F9060001E00020FF
S1135F200600300070BD38B50400200000280128A8
S1135F3003D9801E032804D907E0FFF712FF0500E8
S1135F4005E0FFF71CFF050001E000200500280024
S1135F5032BD10B50400052C08D340F2493207497C
S1135F60DFF86800FFF7B8FBC046C046DFF8600002
S1135F70215CDFF84400FFF733FE10BD386C0000ED
S1135F8070700000995C000010B50400052C07D364
S1135F9040F2A7420F491048FFF79EFBC046C04697
S1135FA00E48215C0448FFF71BFE10BD004006406C
S1135FB01C0000422800FF1F007004400000FF1F67
S1135FC0006CDC022000FF1F30710000D86D00005F
S1135FD014710000386C0000146E00001C71000085
S1135FE010B441F264031B5833F00E03C9B24C00E1
S1135FF014F00E04234341F264042350D2B200F59A
S1136000805364335B0113F184431A6010BC7047FE
S113601041F264031B58C3F342030B7000F5805331
S113602064335B0113F184431B681370704770B4CD
S1136030039C0025C9B255EA0175D2B2160616F0C2
S113604070663543DBB21E0516F470063543E4B2C0
S1136050260416F47026354341F24406355070BCCC
S11360607047FEE70121C01C40017D4A115470476E
S11360700121C01C40017B4A11547047801C40011F
S1136080794A115470474001784A11547047C9B293
S113609008304001764A11507047C9B208304001B7
S11360A0744A11507047C9B24001734A1150704785
S11360B0C9B24A0910EB820000F580502830C9B2F9
S11360C011F01F01890011EB401010F184400121EF
S11360D00160704780B524216848FFF7E9FF01BDDE
S11360E070B586B004000D0065480078002801D022
S11360F0032039E06248027061484470D2B2102A29
S113610002D0112A32D060E001A85E49142200F0C6
S1136110C5F801A850F82460594846602000FFF7EC
S113612033FF2000FFF7FFFE2A000100300000F0DB
S1136130E1F800213000FFF7A1FF0021300000F05A
S113614001F900213000FFF79EFF3000FFF78AFFBE
S11361503000FFF78DFF4C48494988604B48484957
S1136160C86047484470002006B070BD00A8484984
S11361700A68026000A850F8246041484660200084
S1136180FFF7A8FF2000FFF7ACFE01002A00300053
S113619000F044F90021300000F0ACF90021300097
S11361A000F0C0F900213000FFF77DFF012130002D
S11361B0FFF76DFF01213000FFF76FFF35483049CD
S11361C0886035482E49C860CBE70120CCE70EB47F
S11361D000B582B02A490978002902D15FF0FF3066
S11361E009E003A9009103005FF0FF320FF20D01F3
S11361F00020FEF70DF906BC5DF810FB80B58DF8A4
S113620000001F480078002802D15FF0FF3007E04B
S1136210012200A91A484068194B9B68984700203E
S113622002BD80B516490978002902D15FF0FF301C
S113623003E00021FFF7E2FF012002BD80B5104812
S11362400078002802D15FF0FF3008E0012200A9A5
S11362500B4840680A4BDB6898479DF8000002BD74
S11362600C000042080000421000004214000042EA
S11362704C000042480000423400004200700440D8
S11362800C00FF1F1070000079630000A76300007A
S11362902C7100004F6500007B650000103A07D3A5
S11362A030B4B1E83810103AA0E83810F9D230BC54
S11362B0530724BFB1E80810A0E8081044BF51F800
S11362C0043B40F8043BD20724BF31F8022B20F8EA
S11362D0022B44BF0B7803707047083A07D3B1E828
S11362E00810083A40F8043B40F804CBF7D25307AF
S11362F0E4E7FEE770B403001001B1FBF0F0040022
S1136300A4B2B4F5005F02DAA4B2002C01D10220D9
S113631016E0187810F0E000C4F304252843187040
S11363205C7048011501B0FBF5F0A4B2B0EB441564
S1136330987A10F0E00015F01F06304398720020A0
S113634070BC704710B4C9B24A08831C5B01DFF803
S1136350B440E25411F00102831C5B0113F1844345
S11363601A7010BC70470279521CC17170470279CF
S1136370521CC3790B70704770B504000D001600F1
S11363803000461E00280DD0201D4001DFF8781093
S1136390085CC0B20028F7D029782000FFF7E3FF9B
S11363A06D1CEDE770BD2DE9F04104000D00904631
S11363B0002600274046B0F1010800281CD0201D0B
S11363C04001DFF84810085CC0B20028F7D029006B
S11363D02000FFF7CCFF6D1C201D4001DFF82010CA
S11363E0085CC0B20028E5D020790700E0790700F6
S11363F07F1C0F200600DDE73000C0B2BDE8F0814D
S11364000C000042040000421C0000421400004240
S1136410C9B2C1607047C2680A7070472DE9F0477D
S113642003000420070007FB02F0B1FBF0F00400B6
S1136430A4B204FB07F0B1FBF0F08646724503D228
S1136440BEEB0200804602E0B2EB0E00804605205F
S11364500600B6B2212E1DDAB6B206FB02F0B1FB7D
S1136460F0F00500B6B2ADB205FB06F0B1FBF0F0FA
S11364708646724503D2BEEB0200844602E0B2EBCC
S11364800E008446E04503D3E046B6B237002C0044
S1136490761CDEE76420B2FBF0F05FF0030909FB31
S11364A000F0804523D2042F08D3082F06D2012000
S11364B05FEA4319DFF814A14AF80900186830F0BC
S11364C0F850B7F101095FEA096919F0F85959EA76
S11364D0000018601868400B4003A4B25FEAC44986
S11364E05FEAD94959EA00001860002000E0022060
S11364F0BDE8F08710B4C9B2022905D101224301D5
S1136500DFF8CC40E2500BE0C9B210F108025201AE
S1136510DFF8C030995000224301DFF8B440E25064
S113652010BC704710B4C9B24A08D2B210F10803C3
S11365305B01DFF8A440E250C9B211F0010210F18E
S113654008035B0113F184431A6010BC704770B5F3
S113655004000D0016003000461E00280CD0201D3B
S11365604001DFF8781008580028F8D02978200076
S1136570FFF74EFF6D1CEEE770BDF8B504000D008B
S1136580170000263800471E00281BD0201D40019C
S1136590DFF84C1008580028F8D029002000FFF735
S11365A03AFF6D1C201D4001DFF838100858002800
S11365B0E8D00120211D4901DFF8282050500E2089
S11365C00600DFE73000C0B2F2BD00004400004224
S11365D07400004210000042040000425C000042CB
S11365E0540000424C00004270B504000D00160037
S11365F0202D08D3AF22DFF85011DFF85001FFF748
S11366006BF8C046C04614EB85004001DFF840112A
S1136610F6B20E5070BD70B504000D001600202DAA
S113662008D3D922DFF82011DFF82001FFF754F84E
S1136630C046C04614EB85004001DFF81811F6B2DD
S11366400E5070BD70B504000D001600202D08D347
S1136650EC22DFF8F410DFF8F400FFF73DF8C04651
S1136660C04614EB85004001DFF8EC10F6B20E5082
S113667070BD70B504000D001600202D08D3FF2254
S1136680DFF8C410DFF8C400FFF726F8C046C046A0
S113669054F82500DFF8C4100840F6B2310211F4B2
S11366A0E061084344F8250070BD38B504000D00CE
S11366B0202D06D3CB222A492A48FFF70DF8C046DD
S11366C0C0460120A840E06031BD2DE9F04104003E
S11366D02068C0F307252078C6B2234850F82570F7
S11366E0224850F825802800FFF733FC01223100AE
S11366F04046FFF7BEFF01223100380000F038F8B1
S113670062683100380000F04FF8227A31004046C8
S1136710FFF76AFF627A31004046FFF793FFA27ADF
S113672031004046FFF777FFBDE8F08170B5040003
S11367300D48C4F3072150F82150E6B23100280077
S1136740FFF7B3FF70BD0000686B0000C470000069
S1136750080000421400004218000042FFF8FFFE47
S1136760D06B0000D0700000387000004C70000046
S113677070B504000D001600202D06D32E221649F4
S11367801648FEF7A9FFC046C046F6B2012E05D151
S113679060690121A9400843606104E06069012146
S11367A0A9408843606170BD70B504000D001600F7
S11367B0202D06D3422208490848FEF78DFFC04623
S11367C0C046002E03D00120A840606002E00120F2
S11367D0A840A06070BD00005C6D0000DC7000008B
S11367E070B504000D001600202D06D3FF222249A7
S11367F02248FEF771FFC046C04654F825002049E0
S11368000840F6B2310211F4E061084344F825006F
S113681070BD0170704700B585B000A819491022F9
S1136820FFF73CFD00A90020FEF799FE05B000BD6E
S113683010B584B000A814491CC91CC00C390C380C
S113684000A90020FEF7EAFE1FBD80B5AA210F486B
S1136850FFF7DFFF002212210D48FFF7C1FF0022DE
S113686013210B48FFF7BCFFFFF7D5FFFFF7E0FF4D
S11368700848FFF73CFA01BD78690000A0700000E9
S1136880FFF8FFFE60700000AC70000000E00740FD
S113689000900440A86F000080B5022000F024F8A6
S11368A010225FF4E1310220FFF71AFC01BDFEE77C
S11368B070B504000D001600202D08D3FF22DFF868
S11368C0A410DFF8A400FEF707FFC046C04654F842
S11368D02500DFF898100840F6B2310211F4E061A7
S11368E0084344F8250070BD80B5022804D038D38D
S11368F0042821D00BD334E0032211211D48FFF7D3
S1136900D7FF032210211B48FFF7D2FF29E00322FF
S113691013211748FFF7CCFF032212211448FFF775
S1136920C7FF032210211248FFF7C2FF03221121DF
S11369300F48FFF7BDFF14E003220D210C48FFF7B9
S1136940B7FF03220C210A48FFF7B2FF03220E21EE
S11369500748FFF7ADFF03220F210548FFF7A8FF03
S1136960FFE701BDF0690000B8700000FFF8FFFE0A
S113697000B0044000D00440443A5C46726565733C
S113698063616C655C4B53444B5F312E322E305C3B
S11369906578616D706C65735C7477726B3635669F
S11369A03138306D5C64656D6F5F617070735C6805
S11369B0656C6C6F5F776F726C645C6961722F2EAB
S11369C02E2F2E2E2F2E2E2F2E2E2F2E2E2F706C5E
S11369D06174666F726D2F68616C2F696E635C669B
S11369E0736C5F706F72745F68616C2E6800000076
S11369F0443A5C467265657363616C655C4B5344F1
S1136A004B5F312E322E305C6578616D706C65732E
S1136A105C7477726B3635663138306D5C64656DE5
S1136A206F5F617070735C68656C6C6F5F776F72B9
S1136A306C645C6961722F2E2E2F2E2E2F2E2E2F1A
S1136A402E2E2F2E2E2F706C6174666F726D2F6830
S1136A50616C2F696E635C66736C5F706F72745FD8
S1136A6068616C2E68000000443A5C467265657388
S1136A7063616C655C4B53444B5F312E322E305C4A
S1136A806C69625C6B73646B5F706C6174666F726B
S1136A906D5F6C69625C6961725C4B363546313896
S1136AA02F2E2E2F2E2E2F2E2E2F2E2E2F706C614A
S1136AB074666F726D2F73797374656D2F696E636D
S1136AC05C66736C5F696E746572727570745F6D09
S1136AD0616E616765722E680000000080B515481C
S1136AE00068FFF723FE01BD00B585B01248D0E968
S1136AF00023CDE9002300F027F800AA02A9002012
S1136B00FEF7CAFE0D490020FEF763FF0C49002082
S1136B10FEF7BEFF0020FEF73DFF0648FFF7D5FD58
S1136B200848FFF754FBFFF789FBC0B2FFF779FB76
S1136B30F9E700009C6D00000C71000020A1070023
S1136B40DD6A00002470000080B50020FFF701FA20
S1136B500220FFF7FEF90420FFF7FBF9FFF775FEAB
S1136B60FFF79AFE01BDFEE7443A5C467265657321
S1136B7063616C655C4B53444B5F312E322E305C49
S1136B806C69625C6B73646B5F706C6174666F726A
S1136B906D5F6C69625C6961725C4B363546313895
S1136BA02F2E2E2F2E2E2F2E2E2F2E2E2F706C6149
S1136BB074666F726D2F68616C2F696E635C6673A7
S1136BC06C5F706F72745F68616C2E680000000007
S1136BD0443A5C467265657363616C655C4B53440F
S1136BE04B5F312E322E305C6C69625C6B73646B6C
S1136BF05F706C6174666F726D5F6C69625C696111
S1136C00725C4B36354631382F2E2E2F2E2E2F2EDA
S1136C102E2F2E2E2F706C6174666F726D2F68612B
S1136C206C2F696E635C66736C5F6770696F5F6815
S1136C30616C2E6800000000443A5C46726565731E
S1136C4063616C655C4B53444B5F312E322E305C78
S1136C50706C6174666F726D5C73797374656D5C6E
S1136C607372635C636C6F636B5C4D4B363546319A
S1136C70385C66736C5F636C6F636B5F4D4B36356A
S1136C804631382E63000000443A5C4672656573F1
S1136C9063616C655C4B53444B5F312E322E305C28
S1136CA0706C6174666F726D5C73797374656D5C1E
S1136CB07372635C636C6F636B5C66736C5F636C51
S1136CC06F636B5F6D616E616765722E63000000B8
S1136CD0443A5C467265657363616C655C4B53440E
S1136CE04B5F312E322E305C706C6174666F726D46
S1136CF05C647269766572735C7372635C6C7074E5
S1136D006D725C66736C5F6C70746D725F647269D3
S1136D107665722E630000000C480D49884210D03D
S1136D20002006E00A4951F82010084A42F82010D1
S1136D30401C0849B0EB910FF4D30448064908609D
S1136D4002E0034804490860704700BF00400000A7
S1136D50004000000000000008ED00E0443A5C46FA
S1136D607265657363616C655C4B53444B5F312E94
S1136D70322E305C706C6174666F726D5C68616C2D
S1136D805C7372635C6770696F5C66736C5F677079
S1136D90696F5F68616C2E63000000001C000000D6
S1136DA001000000010000001D00000001000000BF
S1136DB001000000040100000100000001000000C7
S1136DC0050100000100000001000000FFFFFFFFBB
S1136DD00000000000000000696E7374616E63655A
S1136DE0203C2073697A656F6628706F72744761FE
S1136DF074655461626C65292F73697A656F6628BE
S1136E00706F7274476174655461626C655B305D68
S1136E1029000000696E7374616E6365203C207301
S1136E20697A656F66287561727447617465546127
S1136E30626C65292F73697A656F6628756172744F
S1136E40476174655461626C655B305D29000000C4
S1136E500948006850F47000074908604CF220505B
S1136E60064908804DF62810044908804FF4E9705B
S1136E70034908807047000088ED00E00E200540BB
S1136E80002005406972714E756D626572203C3D4B
S1136E902046534C5F464541545552455F494E5434
S1136EA04552525550545F4952515F4D415800006C
S1136EB010B5074979441831064C7C44163404E073
S1136EC00A68081D511888470146A142F8D110BD2F
S1136ED05000000070000000434C4F434B5F535977
S1136EE0535F4765744C70746D7247617465436D8C
S1136EF06428696E7374616E636529004EF6885167
S1136F00CEF20001086840F470000860BFF34F8FB0
S1136F10BFF36F8F4FF00070E1EE100A704700006E
S1136F20EFE7FFFF200000000C00FF1F000000003F
S1136F3097DAFFFF0C000000BC0100000000FF1FF7
S1136F4000000000FEE70000696E7374616E636503
S1136F50203C204F53435F494E5354414E43455FB9
S1136F60434F554E54000000696E7374616E63653F
S1136F70203C205254435F494E5354414E43455F95
S1136F80434F554E54000000696E7374616E63651F
S1136F90203C204C50544D525F494E5354414E4373
S1136FA0455F434F554E540080000100000004002B
S1136FB000000000010E00000100000100000200BA
S1136FC00101040072B6034880470348804762B653
S1136FD002480047516E0000196D0000E97000007E
S1136FE000F00BF8002801D0FFF762FF0020C04634
S1136FF0C046FFF779FD00F002F80120704700F069
S113700001B8FEE707463846FEF792FBFBE7FEE7CA
S113701000A0064000B0064000C0064000D0064074
S113702000A00E400D0A48656C6C6F20576F726C9F
S113703064210A0A0D00000000F00F4040F00F40E8
S113704080F00F40C0F00F4000F10F40009004406A
S113705000A0044000B0044000C0044000D004403C
S11370600024F40000000000000201000000000001
S11370704E554C4C20213D20636F6E6669670000BD
S113708030203C3D206972714E756D62657200005E
S11370908002DC020005B80580079508000A710B20
S11370A070696E203C2033325500000000800000DF
S11370B0000000000101000070696E203C203332A2
S11370C05500000070696E203C20333255000000EA
S11370D070696E203C2033320000000070696E201D
S11370E03C20333200000000C046C046FFF706FFD4
S11370F0FFF776FF0000400100093D00008000001A
S113710080B50020FEF7E8FC01BDFEE700000000AA
S113711001010001898A8B8C8D0000006A6B6C6D03
S11371200A0000007573203E2030000000400C402F
S11371300050064000D0034000000440FFF7FEBFAB
S10471403A10
S90370E9A3
