S019000068656C6C6F5F7477726B3630643130306D2E7372656308
S1134000F0FE00202144000067F7000067F700007D
S113401067F7000067F7000067F700000000000082
S11340200000000000000000000000008FF6000007
S113403067F700000000000005F7000067F70000C4
S113404067F7000067F7000067F7000067F70000F4
S113405067F7000067F7000067F7000067F70000E4
S113406067F7000067F7000067F7000067F70000D4
S113407067F7000067F7000067F7000067F70000C4
S1134400FFFFFFFFFFFFFFFFFFFFFFFFFEFFFFFFB9
S107441000000000A4
S11344200E480F490F4A4FF0080333B140F8042BEC
S113443041F8042BA3F10103F7E7EFF3088080F3BD
S11344400988EFF3148040F0020080F31488BFF36E
S11344506F8F00F009B880F30888704780E100E0AE
S113446080E200E0FFFFFFFFC046C046C046C046F2
S113447000F000F800F009F8002801D000F00AF874
S1134480002000F01BF800F021F880B500F0B6F829
S1134490012002BD10B5074979441831064C7C440B
S11344A0163404E00A68081D511888470146A142E1
S11344B0F8D110BD68BA00009CBA000080B502486B
S11344C000F0D0F8002002BDBCFE000000F02EBABF
S11344D059484CF22051C1814DF62811C1810188FF
S11344E04FF6FE7211400180704710B45349544A8C
S11344F011F582531B6853F0010311F582542360B4
S113450041F204035B5853F4407341F204046350D2
S11345104C4B18004FF4A06383624FF4A063C36252
S11345204FF4A06303644FF4A06343644FF4A063A7
S113453083644FF4A063C3644FF4A06303654FF432
S1134540A06343654FF4A06383654FF4A063C36520
S11345503D4B18004FF4A06303604FF4A063436025
S11345604FF4A06383604FF4A063C3604FF4A0636F
S113457003614FF4A06343614FF4A06383614FF47C
S1134580A063C3614FF4A06303624FF4A06343626A
S11345904FF4A06383624FF4A063C3624FF4A0633B
S11345A003634FF4A06343634FF4A06383634FF446
S11345B0A063C363254B18004FF4A06303604FF45A
S11345C0A06343604FF4A06383604FF4A063C360AF
S11345D04FF4A06303614FF4A06343614FF4A063FD
S11345E083615FF08053136610BC70471449086000
S11345F04FF416628A60164A4A60704780B51548BF
S11346000068C0F3033000280BD11348006830F071
S11346101900114908601148006830F019000F4969
S1134620086000F071FC00F0A2FFFFF75EFF0C4889
S1134630FFF7DCFF01BD00000020054000700440CE
S113464000C0004000A0044000B0044000C004408A
S1134650010007002480044004F0014008F00140F8
S1134660000000702DE9F04F83B0040060680F3043
S1134670000900010500DFF898020560DFF89402E4
S11346802860DFF8940228604FF447720021280064
S113469000F0D6FF15F5C8702100302201F002F8B1
S11346A0C5F89451D5F8980100090001C5F898019E
S11346B000F0C0F801F082FA8046B8F1000F02D091
S11346C0404600F0AAF8D5F8B801002806D0D5F87D
S11346D0B8018146D5F89C01804618E0D5F89C01C4
S11346E0D82802D2D820C5F89C01D5F89C011030F6
S11346F08046404601F052FA8146B9F1000F02D1DA
S1134700042000F08AF80221484601F0B3FA414639
S1134710484601F04AFD18EB0900401E000900015B
S1134720E863D8208046404601F038FA8246BAF160
S1134730000F02D1042000F070F80121504601F06E
S113474099FA18EB0A00401E00090001834615F18E
S113475050000700BBF164007861C7F810B01AF18B
S11347600F0000090001B8617869DFF8B011086032
S113477001F0FAFD8046B8F1000F02D0404600F087
S11347804CF8012115F5E07001F05CFE012115F5EE
S11347909A7001F057FE01F067FF8046B8F1000FF0
S11347A002D0404600F039F800200190002000902B
S11347B001230022E869C16815F5307001F032FC6C
S11347C00700002F02D1042000F027F8380001F080
S11347D0F6FCD5F8A00106003068002818D0307D1A
S11347E0C00713D500200190002000900023B26977
S11347F0E869C168300001F015FC0700002F02D100
S1134800042000F00AF8380001F0D9FC2036E3E770
S11348100AF026FF0020BDE8FE8F38B5040002F040
S113482012F83B4800680500FEE7394A1268110097
S1134830088170472DE9F04135480068040043F6CB
S1134840F83020824FF4C570608208202060012077
S113485060600220E0810F2060810F20A081D4F8E5
S1134860A001002802D10120FFF7D7FF0120C4F8DE
S1134870040101F049FD14F150000600E661E08AEC
S11348806083E08AB084D4F89001000440F47F404F
S113489050F0FF00F0600320B060002114F5947024
S11348A002F0CCF8002114F5B47002F0C7F800202F
S11348B00700D4F8A00105000020804628680028DD
S11348C00CD04FF6FF70804508D2E868874201D2C9
S11348D0E868070018F101082035EFE7C4F8007113
S11348E014F5307005000E482860E020A8600D48DB
S11348F028610D486860781CE860002114F5847014
S113490002F09CF80120C4F81401BDE8F081000015
S11349100000FF1F24F9000028F900002C00FF1FED
S11349200300008014F9000075DA000007463846D9
S113493002F0E6F8FBE750F8041B61B150F8042BD1
S1134940D30744BFA9F101039A18002342F8043B9A
S1134950091FFAD1EFE7704770470100DFF86407D9
S11349600078012817D1C9B2002908D1DFF8580707
S11349701E220270DFF854070A22027007E0DFF8F3
S113498048071F220270DFF8440780220270C9B270
S1134990002907D101E0012015E0DFF83407802267
S11349A0027003E0DFF82807C0220270DFF8200756
S11349B000780006FAD4DFF818070078800601D4DE
S11349C0002000E01B207047C0B2002824D1DFF88B
S11349D0041700220A70DFF80017097811F0FE01AD
S11349E0DFF8F4261170DFF8F41628220A70DFF8D5
S11349F0F01621220A70DFF8EC1638220A70DFF86C
S1134A00E81658220A70DFF8E4160978C9B211F0E2
S1134A100C010C29F7D1FFE77047C0B2002802D07F
S1134A2001282AD053E0DFF8AC1600220A70DFF820
S1134A30A816097811F0FE01DFF89C261170DFF842
S1134A409C16A8220A70DFF8981621220A70DFF853
S1134A50941638220A70DFF8901658220A70DFF88C
S1134A608C160978C9B211F00C010829F7D1DFF8C6
S1134A707C1609784906FAD529E0DFF85816002291
S1134A800A70DFF85416097811F0FE01DFF84826A1
S1134A901170DFF84816AB220A70DFF844162122A1
S1134AA00A70DFF840160D220A70DFF83C16402227
S1134AB00A70DFF838160978C9B211F00C01082918
S1134AC0F7D1DFF8281609784906FAD5FFE77047C9
S1134AD0C0B2002802D0012832D063E0DFF8F41518
S1134AE000220A70DFF8F015097811F0FE01DFF8F2
S1134AF0E8251170DFF8E81521220A70DFF8DC15CB
S1134B00A8220A70DFF8E815097811F01F01DFF810
S1134B10E0251170DFF8CC1538220A70DFF8C815CB
S1134B2018220A70DFF8C4150978C906FAD4DFF828
S1134B30BC150978C9B211F00C010829F7D131E08C
S1134B40DFF8901500220A70DFF88C15097811F04F
S1134B50FE01DFF884251170DFF8841521220A7024
S1134B60DFF87815AB220A70DFF88415097811F0A4
S1134B701F01DFF87C251170DFF8681500220A7028
S1134B80DFF8641500220A70DFF860150978C90699
S1134B90FAD4DFF858150978C9B211F00C010829C4
S1134BA0F7D1FFE77047C0B2012816D1DFF82C1502
S1134BB047220A70DFF8281523220A70DFF814153B
S1134BC000220A70DFF824150978C906FAD5DFF83F
S1134BD01C150978C907FAD5FFE77047C0B2002849
S1134BE002D0012832D063E0DFF8F01444220A70C6
S1134BF0DFF8EC1421220A70DFF8F414097811F0BC
S1134C001F01DFF8EC241170DFF8C81400220A70C9
S1134C10DFF8C414097811F0FE01DFF8BC24117028
S1134C20DFF8C01438220A70DFF8BC1418220A70A6
S1134C30DFF8B8140978C906FAD5DFF8B014097892
S1134C40C9B211F00C010429F7D131E0DFF88C145A
S1134C5047220A70DFF8881421220A70DFF89014C2
S1134C60097811F01F01DFF888241170DFF864144B
S1134C7000220A70DFF86014097811F0FE01DFF8F1
S1134C8058241170DFF85C1400220A70DFF85814FD
S1134C9000220A70DFF854140978C906FAD5DFF83F
S1134CA04C140978C9B211F00C010429F7D1FFE7BB
S1134CB0704770B504000025E4B2002C02D0012C2A
S1134CC003D005E00420050002E001200500FFE711
S1134CD000F031F80600EDB2F6B20520DFF8141446
S1134CE000FB06102E5CF6B2002E06D0022E0ED06B
S1134CF008D3042E15D00FD318E02000C0B2FFF75C
S1134D006DFF13E02000C0B2FFF74DFF0EE020005E
S1134D10C0B2FFF7DDFE09E02000C0B2FFF77DFE60
S1134D2004E02000C0B2FFF74FFEFFE7EDB2F6B299
S1134D30B542D0D170BDDFF8A4030078C0B210F042
S1134D40C000002804D0402804D080280BD013E0F1
S1134D50042012E0DFF888030078800701D40020E3
S1134D600BE0012009E0DFF880030078400601D45D
S1134D70022002E0032000E00020704710B5040088
S1134D80E4B2032C01D30220B9E0E4B2002C04D035
S1134D90022C00F080803FD3AAE0DFF828030078DB
S1134DA0022817D1DFF84003007810F0DF00DFF8A5
S1134DB038130870DFF84003DFF840130160002067
S1134DC0FFF777FFDFF82003007850F02000DFF8CA
S1134DD018130870DFF82003DFF824130160DFF8EC
S1134DE02403006830F00D0050F00200DFF81413C3
S1134DF00860DFF81403006850F48030DFF808130B
S1134E000860DFF80803006830F4802050F40020C4
S1134E10DFF8F81208606BE0DFF8A80200780228D7
S1134E2017D1DFF8C402007810F0DF00DFF8B81201
S1134E300870DFF8C402DFF8C41201600020FFF735
S1134E4038FFDFF8A402007850F02000DFF8981251
S1134E500870DFF8A402DFF8B8120160DFF8A402DA
S1134E60006830F00D0050F00200DFF8981208607E
S1134E70DFF89402006850F48030DFF88C12086088
S1134E80DFF88802006830F4802050F40020DFF856
S1134E907C1208602CE0DFF85002007810F0DF008C
S1134EA0DFF844120870DFF85002DFF85012016096
S1134EB00120FFF7FEFEDFF84002DFF85812016020
S1134EC0DFF84002006800090001DFF838120860CA
S1134ED0DFF83402006850F480308B4908608B4856
S1134EE0006830F4802050F4002088490860FFE70F
S1134EF02000C0B2FFF730FD72480470002010BDDE
S1134F00704800787047000080B5FFF7E1FA8248E6
S1134F10006850F428508049086040F2FF3000785F
S1134F20C0B2FF2810D07D4840F2FF3109780170EB
S1134F306F48007810F0E00040F2FE31097811F07B
S1134F401F0108436A4908706B486D4901606D4848
S1134F50006830F00D0050F002006A4908606A48A9
S1134F60006850F48030684908606848006830F48C
S1134F70802050F400206549086069480068694948
S1134F80084067490860534800210170524800787E
S1134F9010F0FE00504908705148212101704F481B
S1134FA0A82101705248007810F01F005049087081
S1134FB04C48382101704C48182101704B48007846
S1134FC0C006FBD449480078C0B210F00C00082891
S1134FD0F8D14048002101703F48007810F0FE00ED
S1134FE03D4908703D48A82101703D4821210170C8
S1134FF03C48382101703C48582101703B480078F6
S1135000C0B210F00C000828F8D1384800784006E7
S1135010FBD53048002101702F48007810F0FE00C5
S11350202D4908702D48282101702D482121017037
S11350302C48382101702C48582101702B480078E5
S1135040C0B210F00C000C28F8D12748007850F0BA
S11350502000254908703448006850F080503249D7
S1135060086001BD70B5040000262000C0B2FFF73F
S113507085FE0600B6B2002E02D0300080B20AE0EF
S113508000212000C0B201F049FD0500C82128001C
S113509001F0C8FA002070BD80B5FFF731FF02BDF2
S11350A00200D2B2032A0BD2C9B21E2908D2C9B255
S11350B0D2B228201D4B00FB023050F8210000E042
S11350C0002070478800FF1F0A4006400B4006403E
S11350D008400640005006400C4006400040064090
S11350E00140064004400640054006400640064094
S11350F003400640A4F9000044800440000033014A
S113510000001301488004400480044000700440FF
S113511000007777000017113880044002400640F1
S113512048900440FFF8FFFE34800440C0F90000BA
S113513010B500240020FFF710FC0400A4B2002CDA
S113514002D0200080B20AE00120FFF706FC040030
S1135150A4B2002C02D0200080B200E0002010BDD8
S113516030B40200DFF89834D2B2002A0AD0022AFE
S113517054D02DD3042A00F09D8075D3052A00F065
S1135180BF80E3E0DFF87C040400C80705D54FF4D2
S11351905070A0614FF45070E061880703D500207F
S11351A0A0610020E061480707D541F23400C058EF
S11351B050F4806041F23405E850080707D541F205
S11351C03400C05830F4806041F23405E850C0E047
S11351D0DFF834040400C80705D54FF45070E060CC
S11351E04FF450702061880703D50020E060002050
S11351F02061480707D541F23400C05850F40060DC
S113520041F23405E850080707D541F23400C0588C
S113521030F4006041F23405E8509AE0DFF8E4032A
S11352200400C80705D54FF45070A0604FF45070C7
S1135230E060880703D50020A0600020E0604807F4
S113524007D541F23400C05850F4805041F234057F
S1135250E850080707D541F23400C05830F48050B4
S113526041F23405E85074E0DFF89C030400C807F9
S113527005D54FF4507020644FF450706064880773
S113528003D50020206400206064480707D541F25C
S11352903400C05850F4005041F23405E850080777
S11352A007D541F23400C05830F4005041F23405BF
S11352B0E8504EE0DFF854030400C80705D54FF466
S11352C0507060664FF450702066880703D5002044
S11352D0606600202066480707D541F22800C058C0
S11352E050F4806041F22805E850080707D541F2E0
S11352F02800C05830F4806041F22805E85028E0C6
S1135300DFF808030400C80705D54FF45070206285
S11353104FF450706062880703D50020206200209B
S11353206062480707D541F22800C05850F4006075
S113533041F22805E850080707D541F22800C05873
S113534030F4006041F22805E85002E05FF0FF30DD
S113535000E0002030BC70470100DFF8A4220029DF
S113536008D141F23C00805850F0006041F23C0307
S113537098500DE0012908D141F23000805850F0D6
S1135380006041F23003985002E05FF0FF3000E02B
S11353900020704770B4010011F01F0200230025A3
S11353A0080505D5D2B2042A02DB5FF0FF3070E0B5
S11353B0080505D4D2B2022A02D15FF0FF3068E0BA
S11353C0D2B21A2A2CDA89B211F47040B0F5805F97
S11353D005D1D2B2DFF83802105C040022E089B2B1
S11353E011F4C060B0F5806F03D04FF4C060014287
S11353F005D1D2B2DFF81C02105C040012E0D2B274
S1135400042A02DBD2B2082A02DB0020040009E0ED
S1135410D2B2DFF80402101810F8040C040001E002
S113542001200400E4B2002C02D15FF0FF3030E030
S1135430E4B2012C01D100202BE0E4B26009012880
S113544007D019D303280CD007D3052811D00CD3C7
S113545012E0DFF8C80105000EE0DFF8C401050022
S11354600AE0DFF8A401050006E0DFF89801050072
S113547002E0DFF898010500E4B214F01F0055F8CB
S1135480200030F4E060E4B214F01F0645F8260072
S1135490002070BC7047DFF88C01006850F00050A9
S11354A0604908600020704730B40200544BD2B207
S11354B0002A28D15548040089B240F243400840EC
S11354C0206089B240F243400840606089B211F420
S11354D08860A06089B240F243400840E06089B22D
S11354E040F243400840206189B240F24340084002
S11354F0606141F23000C05850F4003041F2300590
S1135500E850002001E05FF0FF3030BC704710B479
S113551001003B4B002902D0012911D021E0394878
S113552002004FF4087010624FF40870506241F2A8
S11355303400C05850F0400041F23404E05013E00D
S1135540314802004FF4087090624FF40870D06242
S113555041F23400C05850F0800041F23404E0506D
S113556002E05FF0FF3000E0002010BC70472E48DE
S1135570006850F478502C490860002070470100FE
S11355800800032802D0042806D00BE01E480200BD
S11355904FF44070906405E01C4802004FF44070E2
S11355A0D066FFE7002070470100002924D11D4880
S11355B0006850F400401B4A10601C48006850F416
S11355C080601A4A10601A48006850F48060184AD3
S11355D010601848006850F48060164A106016483D
S11355E0006850F48060144A10601448006850F455
S11355F08060124A1060FFE700207047000000003E
S11356000070044000C0044000B0044000D00440D6
S113561038FA000054FA000070FA000000900440C8
S113562000A004403C8004403880044018D004406A
S113563030D004402CD0044028D004401CD0044076
S113564070B504000D0016002A003100200001F09E
S11356506FFA200070BD10B450F8041B81B10268C9
S11356601218001D50F8043BDC0744BFA9F10104E3
S1135670E31852F8044B43F8044B091FF9D1EBE744
S113568010BC704762B38B0708D0521E11F8013B5F
S113569000F8013B00F024808B07F6D1830740F02B
S11356A0208000BF103A07D330B4B1E83810103A64
S11356B0A0E83810F9D230BC530724BFB1E8081071
S11356C0A0E8081044BF51F8043B40F8043BD2075B
S11356D024BF31F8022B20F8022B44BF0B7803704F
S11356E07047083A07D3B1E80810083A40F8043B79
S11356F040F804CBF7D25307E4E700002DE9F74F55
S113570004001D005FF00008DDF808B0DBF80800B5
S1135710DFF8A415884204D0382000F054FC00209F
S113572078E00C34102C01D21020040014F10F0086
S11357300409240101F087F8DBF814000600002EA8
S113574062D0CBF8186001F08FF801F07CF8DBF838
S113575018000600002E57D0DBF81400864200D152
S1135760B04630688146A1454BD3B9EB040082466C
S1135770BAF1100F0AD3A0190700C7F800A0C7F8A0
S113578004B0B068B860B760346002E04C46B068FA
S11357900700DBF81400864202D1CBF8147001E054
S11357A0C8F80870DBF81400CBF81800DBF8140014
S11357B0CBF81C00DBF81400CBF82000DBF80C005D
S11357C0CBF82400DBF80C00CBF828000198C06863
S11357D0308100207081C6F804B0DBF82C00B042A0
S11357E001D2CBF82C6001F03FF8002D06D0B4F1C3
S11357F00C02002116F10C00FFF722FF16F10C0039
S113580008E0B046B6689AE701F02EF8042000F0EC
S1135810DAFB0020BDE8FE8F2DE9FC4F83B0834600
S11358200C005FF00008DDF810A0DAF80800DFF8DB
S11358308814884204D0382000F0C5FB00208BE097
S11358401BF10C0BBBF1100F01D2102083461BF18E
S11358500F005FEA101B5FEA0B1B00F0F4FFDAF89D
S113586014000500002D71D0CAF8185000F0FCFF98
S113587000F0E9FFDAF818000500002D66D0DAF828
S11358801400854200D1A84628688146B4F10C0072
S113589015F11001884256D319EB05001BEB0401E6
S11358A00C3988424FD3B4F10C000600701B0190F0
S11358B0B9EB0B000199401A0090019828600098F8
S11358C010280AD31BEB0600070000983860C7F8BD
S11358D004A0A868B860AF6004E0009810EB0B0B5C
S11358E0A8680700C6F800B0B760DAF81400CAF870
S11358F01800DAF81400CAF81C00DAF81400CAF820
S11359002000DAF80C00CAF82400DAF80C00CAF80F
S113591028000398C068308100207081C6F804A074
S1135920DAF82C00A84201D2CAF82C5000F09CFFEF
S11359300E98002805D0BBF10C0200212000FFF7CF
S11359407FFE200008E0A846AD688BE700F08CFFDE
S1135950042000F038FB002005B0BDE8F08F70B5DE
S11359600400DFF85803006805000023D5F8EC2292
S1135970E9692000FFF7C2FE0600300070BDF8B5EB
S113598004000D00DFF834030068060000200090D6
S1135990D6F8EC32F26929002000FFF73DFF07003A
S11359A03800F2BD70B50400DFF81003006805008C
S11359B00123D5F8EC22E9692000FFF79FFE0600D9
S11359C0300070BD2DE9F84304000D001600DFF827
S11359D0EC0200680700701981465FEA19100001A3
S11359E0206115F10F00000900018046C4F80C8005
S11359F0C4F82C802069B0EB0800C8F8000000202F
S1135A00C8F80800C8F80440C4F81480C4F8188022
S1135A10C4F81C80C4F8208000F015FFD7F8E00219
S1135A20002804D1002117F5387001F007F821008F
S1135A3017F5387001F008F800F016FFDFF8780267
S1135A40A0602000BDE8F2832DE9F8430400DFF8EC
S1135A506C0200680500002C04D1012000F0B3FAA8
S1135A60012099E0B4F10C00060070688046D8F873
S1135A700800DFF84412884204D0382000F0A3FA6A
S1135A80382089E03089E969C96889B2884209D037
S1135A9030894FF6FF71884204D0032000F093FA56
S1135AA0032079E000F0CFFED8F814000700D8F8FE
S1135AB01400002803D0D8F81400864218D2D8F86D
S1135AC01400070030688019B8420BD13068396877
S1135AD008183060B868B0600C2200213800FFF765
S1135AE0AFFD00E0B760C8F814600020814613E001
S1135AF0B868864202D3B868002802D101208146E2
S1135B000AE0BF68C8F81C7000F0AEFE00F09BFE0F
S1135B10D8F81C000700CAE7B9F1000F25D0306897
S1135B208019B96888420DD13068B96809680818C5
S1135B303060B8688068B0600C220021B868FFF754
S1135B407FFD01E0B868B0603868C019B0420BD17D
S1135B503868316808183860B068B8600C220021D1
S1135B603000FFF76DFD00E0BE60D8F81400C8F8FF
S1135B701800D8F81400C8F81C00D8F81400C8F8A5
S1135B802000D8F80C00C8F82400D8F80C00C8F895
S1135B90280000F069FE0020BDE8F28370B504001F
S1135BA04648006805000023D5F8EC2215F15001A1
S1135BB02000FFF7A3FD0600300070BD70B53F481C
S1135BC00068040014F5477006003500C4F8EC5270
S1135BD03036D4F89801821B31002800FFF7F2FE1A
S1135BE0002070BD2DE9F84304000D00A846334899
S1135BF000680600B8F1000F05D1D6F8EC020700E2
S1135C00F868804609E0B5F10C008046D8F8040035
S1135C100700D8F8000010EB080800F014FE7869BB
S1135C2081463869804519D2B8F80800E16889B21C
S1135C3088420ED1B9F1000F04D0C14502D2D9F87F
S1135C400890F7E7C14504D000F00EFE18F10C00EF
S1135C500EE0D8F8000010EB0808E2E73F68F868A7
S1135C608046D6F8EC028742D9D100F0FDFD002031
S1135C70BDE8F2830200002A05D0B2F10C00030053
S1135C805981012000E000207047B0F10C031A0094
S1135C90CB681381704770B504000848006805009C
S1135CA00123D5F8EC2215F150012000FFF726FD61
S1135CB00600300070BD000070656D6C0000FF1FB1
S1135CC02DE9F34F83B0DFF8580300688246039848
S1135CD000280CD00398000CADF80200BDF80200B7
S1135CE0DAF8901189B2884201D012202AE103988F
S1135CF000F03EF98346BBF1000F03D01AF15000C7
S1135D00834501D112201DE11AF59A7000F04BFC75
S1135D1000F099FDDBF80800092807D100F0A4FD84
S1135D201AF59A7000F001FC00200BE1DBF8080082
S1135D3002280CD1DAF81C0083453DD0DBF80410AE
S1135D400800DBF800100C000460606034E0DBF84D
S1135D500800C0051DD5DBF80800C0052CD5DBF80C
S1135D6004100800DBF800100D0005606860BAF844
S1135D707001401EAAF87001DBF8080030F480704E
S1135D80CBF80800DBF8080050F00300CBF808005B
S1135D9012E0DBF8080080050ED5DBF804100800DB
S1135DA0DBF800100E0006607060DBF83800008934
S1135DB0401EDBF838100881DBF8080040050ED5DA
S1135DC0DBF840100800DBF83C100F000760786037
S1135DD0DBF838000089401EDBF838100881092000
S1135DE0CBF8080000F040FD00200400102C0DD278
S1135DF01AEB8400D0F81C02002805D058461AEB90
S1135E008401D1F81C128847641CEFE7DBF80C000E
S1135E10ADF80000DAF81C0001909BF82800800619
S1135E201ED400215846FFF7DDFE0400002C17D0D5
S1135E3021005846FFF7D6FE05000198584504D0C6
S1135E401AF150012000FFF720FF5C4506D0DBF873
S1135E508C00844202D02000FFF7F6FD2C00E5E719
S1135E605FF00040CBF80C00BAF81001012806D10D
S1135E700120CAF814010020CAF818010EE0BDF888
S1135E800000DAF81411884208D2BDF80000CAF8FC
S1135E901401DBF870006C38CAF81801DBF87010D4
S1135EA00800DBF86C108846C0F80080C8F80400CD
S1135EB0BAF81001401EAAF810011AF59A7000F001
S1135EC034FB019883452AD100F0BDFCDBF80410B3
S1135ED00800DBF800108946C0F80090C9F80400F7
S1135EE0584600F058FE9BF82800800615D4DBF8CD
S1135EF08C00002809D01AF15001DBF88C00FFF760
S1135F00C4FEDBF88C00FFF79FFD1AF150015846E0
S1135F10FFF7BBFE5846FFF797FD09F0A3FB584671
S1135F2000F039FE9BF8280080060AD4DBF88C00C8
S1135F30002803D0DBF88C00FFF786FD5846FFF7F6
S1135F4083FD002005B0BDE8F08F10B504000021EA
S1135F502000FFF7B5FE10BD314909680800018B28
S1135F60002902D0406BC06801E0C069C06D704771
S1135F70F8B504002A4800680700002C01D1F8692C
S1135F8020E0F86D844202D117F150001AE000F0CD
S1135F905AFCD7F808016C380500B7F81001060060
S1135FA03000461E00280AD0E868A04203D100F061
S1135FB05BFC280006E0E86EB0F16C05F0E700F049
S1135FC053FC0020F2BD0100154B1B681A00138B13
S1135FD0002B03D0536BDB68180002E0D369DB6D40
S1135FE01800002901D0002807D1138B002B02D000
S1135FF0536BD96001E0D369D965704738B5084857
S113600000680400E0690500D5F88400002802D087
S1136010D5F8840080470020FFF797FF31BD0000CA
S11360200000FF1F2DE9F64F85B004001D00109EEF
S1136030AE4800680700D7F80001E168884208D23A
S113604017F53070844204D00E20FFF7BCFF002007
S1136050A8E0002E18D011988346BBF5BE7F04D863
S11360600220FFF7B0FF00209CE00023320002A9C9
S1136070584600F0B9F880460298BBEB000B002D9F
S11360801BD0BBF1200B18E0A0688346BBF1D90FED
S113609001D2D82083461BF10F005FEA101B5FEA90
S11360A00B1B002D02D01BF1200000E058460023FA
S11360B0002202A900F098F88046B8F1000F04D13C
S11360C00A20FFF780FF00206CE00320C8F80800D6
S11360D0D8F88C00002803D0D8F88C00824603E05E
S11360E0029810EB08008246002D0ED0CDF80CA0CB
S11360F01AF1200A039821002022FFF7D3FA03980B
S11361000400206850F0004020605946504600F0DA
S11361104CF8E0687FF00F013A6A01FB00208146E9
S1136120C8F81C90C8F82090B9F80C00A8F824000E
S11361306069C8F82800002E05D0D8F8280050F06F
S11361402000C8F8280006980190B9F80C000090C7
S113615023005A465146404600F01EFD002801D156
S113616000201FE0C8F868402068C8F86400D7F829
S11361708402C8F87400D7F88802C8F87800D7F801
S11361808C02C8F87C000598C8F86000002E08D17D
S113619041464046FFF779FD4146D8F88C00FFF7A9
S11361A074FD404607B0BDE8F08F8908491C491EBC
S11361B0002903D04E4A0260001DF8E7704710B46E
S11361C04A4C24682100C4692200546823004C6AA4
S11361D0944200D24A620224846043601C680460D2
S11361E01860506010BC70472DE9FB4F82B014005A
S11361F05FF0A4093D4800680500B5F810014FF6AA
S1136200FE71884201DB00206CE00398C0F8009026
S1136210002C06D0A3464A4600215846FFF710FA40
S113622022E04846FFF7BEFB8346BBF1000F04D0D3
S11362300298FFF794FBCBF88C00BBF1000F01D15F
S113624058464FE0DBF88C00002804D15846FFF78D
S1136250FBFB002046E024215846FFF70BFD2521D7
S1136260DBF88C00FFF706FDD5F814018246D5F85B
S113627018010600D5F890011FFA8AFA5AEA00407C
S1136280CBF80C00002E03D115F58470009002E0C9
S113629016F16C0000901BF16C02009915F58470E6
S11362A000F00CFCD8464646F06E6C380700B84641
S11362B01AF1010A1FFA8AFABAF1000F01D101207A
S11362C0824615F58470874205D0F86880B21FFABB
S11362D08AFA5045E7D0C5F818611FFA8AFAC5F85A
S11362E014A1584605B0BDE8F08F00000000FF1F60
S11362F06B6174730200D36D1800002901D000286B
S113630000D1D1657047000030B4324C24682000BD
S113631010F5C87421004C692200082A04D307240C
S1136320220007244C6105E0002A03D10124220045
S113633001244C61540114F0E004C48200242300BD
S11363406A2B04D2244CC0251D555B1CF8E7234C52
S113635000252B00042B05D25FF0FF3544F82350B1
S11363605B1CF7E730BC7047F8B51A4800680400B6
S113637000202062D4F80001801C06003001FFF7E1
S113638011FB0500002D01D1042022E00521280085
S1136390FFF770FC37003800471E002816D02D6028
S11363A06D60EF81D4F8A401C019072807D2D4F88E
S11363B0A401C019400110F0E000A88101E0C02050
S11363C0A881206AA86025621035E4E7206A60622B
S11363D00020F2BD0000FF1F00E400E080E100E0C7
S11363E02DE9F84304000D0016001F00DFF82C020D
S11363F000688046A561002114F1080000F01EFB2E
S113640000F021FA002E15D1D8F82801814618F59C
S11364109470814509D0A14504D100F025FA4FF4C8
S113642082600DE0D9F80090F1E7210018F594702E
S113643000F00AFBDFF8E801606100F015FA0020C3
S1136440BDE8F28338B504000D00002300222900C2
S11364502000FFF7C5FF32BD2DE9F04704000D0011
S1136460DFF8B8010068060000F0EDF96069DFF8B4
S1136470B011884203D000F0F7F91F204CE000204F
S11364806061208A002829D014F1080000F0FCFA89
S11364908146B9F13C09D9F80800C0051AD5D9F8E4
S11364A004100800D9F800108A46C0F800A0CAF801
S11364B00400B6F87001401EA6F87001D9F808006F
S11364C030F48070C9F80800D9F8080050F00300CF
S11364D0C9F808004846FFF772FED2E7D6F828014B
S11364E0070016F59470874211D0A7420DD1616858
S11364F0080021688846C0F80080C8F80400B6F88F
S11365003001401EA6F8300101E03F68E9E700F0E1
S1136510ABF909F0A9F80020BDE8F08710B5040034
S113652000212000FFF798FF10BDF8B505003B4897
S11365300068060068693A49884201D01F2031E0AA
S113654000F081F9A869002826D4288A002823D0DD
S113655015F1080000F098FA07003C3FB868C00540
S113656012D57968080039680C0004606060B6F8D8
S11365707001401EA6F87001B86830F48070B860ED
S1136580B86850F00300B8600020B8633800FFF723
S113659016FE09F069F802E0A869401CA86100F041
S11365A063F90020F2BDF8B504001C48006805003A
S11365B0288B002801D00D202FE0606918498842FB
S11365C001D01F2029E000F03EF9A069012816DA65
S11365D0E869060040F22B40B06014F10800B06393
S11365E07168080031680F000760786016F13C019B
S11365F014F1080000F028FA09F044F802E0A06958
S1136600401EA06160690649884203D000F02CF95D
S11366101F2002E000F028F90020F2BD0000FF1F57
S11366206D73776CB0FBF1F2521E634B1A607047C6
S113663010B500F06FFA0021C0B200F06FFA040048
S1136640C8212000FFF7EEFF5C48072101605C4889
S1136650006850F080505A4908605A48006850F069
S113666080405849086010BD38B542F26400FEF716
S1136670DCF85FF000510020FFF781F9FA210020D7
S113668000F0CAFA0400002C01D020006DE04E484E
S113669000F0D0FA0F2000F012FD00220FF2CD011D
S11366A00F2000F02CF9002801D126205DE0FFF72F
S11366B0BFFF0120FEF7D6FC002801D0262054E0BD
S11366C0FEF736FD002801D026204EE00020FEF71C
S11366D0C9FC002801D0262047E03C48006805009A
S11366E03B48C5F88001C82000F0E3FCD5F88001E0
S11366F000F0F3FC00210FF2810000F0E6FC00F052
S11367006BFD00F073FD0400002C01D020002CE090
S1136710FEF7C1FE002805D1042000F086FD01200B
S113672000F01BFF2B4802682A492B4800F076FF33
S11367302A48026829492A4800F070FF29492A4852
S113674001F062FA2749294801F0ECFE284929485A
S113675002F072FA2849294802F094FE284803F00E
S113676035FC040003F070FD002032BD10B50400B8
S113677000F0D4FB10BD000010B40100002423007D
S11367800D4C24682402240A641C20001D4C246837
S11367902402240A22001C4C2468640105D5194CE7
S11367A024682402240A22000300002A00D10200E3
S11367B0801A181810BC704714E000E010E000E0E4
S11367C01CED00E020ED00E0004000000000FF1F91
S11367D00053070098FA00002CF90000B8FA0000F2
S11367E034F9000090F900003CF9000044F900007D
S11367F06CF900004CF9000084F9000054F9000021
S11368007CFA000018E000E004ED00E0F8B50500B3
S1136810DFF81C0200680600F069070000F013F8B6
S1136820B8680B280CD00B20B860BD634121380038
S1136830FFF760FD7968080039680C000460606047
S113684000F012F8F1BDDFF8E81109680800C16929
S1136850496D002902D1C18A81F31188C169496D4A
S1136860491CC26951657047DFF8C4110968080002
S1136870C169496D002911D0C169496D491EC269B8
S1136880516500290AD1018B002904D0416B896824
S113689081F3118802E0418B81F31188704770B550
S11368A00400634800680500A86B002804D1182080
S11368B0FFF789FB002021E0E86A844202D3286BB9
S11368C0A04204D21420FFF77EFB002016E0FFF75D
S11368D0BAFFE86A201AC008A96B51F82000060024
S11368E0002E04D03068A04201D03669F8E7FFF7E3
S11368F0BBFF002E01D0F06800E0002070BD2DE940
S1136900F84304000D001600494800680700B86BFE
S1136910002804D11820FFF756FB00204FE0F86A46
S1136920844202D3386BA04204D21420FFF74BFBFD
S1136930002044E0FFF787FFF86A201AC008B96B0B
S113694051F820008046B8F1000F06D0D8F80000B6
S1136950A04202D0D8F81080F5E7B8F1000F22D198
S11369601420FFF71BF98046B8F1000F06D1FFF79A
S11369707BFF0420FFF727FB002020E02321404673
S1136980FFF778F9F86A201AC008B96B51F82000AB
S1136990C8F81000F86A201AC008B96B41F82080C2
S11369A02448814602E0D8F804008146C8F8004033
S11369B0C8F80450C8F80C60FFF756FF4846BDE815
S11369C0F2832DE9F04104000D00A54201D20C2010
S11369D02BE01748006806001748C6F8F40015486D
S11369E0B062281B401CC008401C80465FEA880037
S11369F0FFF751F90700002F01D1042015E003210E
S1136A003800FFF737F9B763F4623563A6F81883E3
S1136A100320A6F81A034046B0F10108002803D069
S1136A20002047F82800F6E70020BDE8F0810000C8
S1136A300000FF1F0D68000067F700000060406061
S1136A40002202814181704738B504000D00FFF730
S1136A50FAFE6089002807D020896189884203D31F
S1136A60FFF702FF00200EE0616809680800286053
S1136A7061680D606168696045602089401C2081FF
S1136A80FFF7F2FE012032BD70B50400FFF7DBFE14
S1136A902089002803D1FFF7E7FE00200DE02068DD
S1136AA005006968080029680E0006607060208986
S1136AB0401E2081FFF7D8FE280070BD70B5040089
S1136AC00D001600002D00D12500FFF7BCFE6089E3
S1136AD0002807D020896189884203D3FFF7C4FEC8
S1136AE000200BE02968080030602E607560466065
S1136AF02089401C2081FFF7B7FE012070BD0000F3
S1136B0080B5C046C046024A11001820ABBEFBE760
S1136B102600020080B5FEF7BFFA02BD38B50400B6
S1136B200D002900C9B22000C0B2FEF7B9FA32BD87
S1136B3062F30F2262F31F42401810F0030308D0DF
S1136B40C91A1FD3DB0748BF00F8012D28BF20F85E
S1136B50022D130030B414461546103928BF20E91D
S1136B603C00FAD8490728BF20E90C0048BF40F888
S1136B70042D890028BF20F8022D48BF00F8012DFC
S1136B8030BC7047C91818BF00F8012DCB0728BFC7
S1136B9000F8012D704770472DE9F44F04000D00F3
S1136BA01E000A9FDDF82C805FF0010B009840194D
S1136BB0401E000900018146B9F164008246C4F810
S1136BC0109015F10F0000090001A061C4F814A091
S1136BD0642200215046FEF733FD0E48CAF84000F7
S1136BE0CAF82C80706850F00100CAF844005FF0C5
S1136BF08070CAF84800CAF858800020CAF800001B
S1136C00CAF804707FF00200CAF828005846BDE8AC
S1136C10F28F00BFFD5F000070B504000D00290075
S1136C202000FFF7CEFE0600002E01D103F028FB62
S1136C30300070BD0100034A12681000014A11605F
S1136C407047000008ED00E070B50400DFF86C0543
S1136C5000680500002C15D0E869060016F144010F
S1136C60200003F017FBFFF7EEFD16F1440215F5C3
S1136C70A87116F1440003F051FB300000F003F852
S1136C80FFF7F2FD70BD2DE9F8430400DFF82C0591
S1136C900068804618F5B4708146B8F87001002881
S1136CA026D0D8F868010500B8F87001401C060029
S1136CB0761E002E1CD0D4E91123D5E911018B4294
S1136CC004D801D3824201D201270CE0D5E9112373
S1136CD0D4E911018B4205D801D3824202D25FF07C
S1136CE0FF3700E00027002F02D5A9462D68DFE713
S1136CF06168080021688C46C0F800C0CCF8040024
S1136D002200494618F5B470FFF7D8FEA06850F485
S1136D108070A06008F0B6FCBDE8F183F8B504000B
S1136D200D00002C01D0002D01D10020C4E0A08969
S1136D30B0F57A7F0FDB6089A1894FF47A7291FBF9
S1136D40F2F108186081A0894FF47A7190FBF1F296
S1136D5001FB1200A08160893C280DDB2089618938
S1136D603C2291FBF2F10818208160893C2190FBC0
S1136D70F1F201FB1200608120893C280DDBE088E0
S1136D8021893C2291FBF2F10818E08020893C2102
S1136D9090FBF1F201FB12002081E08818280DDB42
S1136DA0A088E188182291FBF2F10818A080E088FD
S1136DB0182190FBF1F201FB1200E080A08800286A
S1136DC001D1002078E060880D280DDB20886188DF
S1136DD00C2291FBF2F10818208060880C2190FBB2
S1136DE0F1F201FB12006080208840F2B271884207
S1136DF002DA40F2B2702080208800F034F90700F3
S1136E0060880D21DFF8B82301FB0721405CA188CD
S1136E1080B2884210D2A08861880D22DFF8A033A6
S1136E2002FB0732895C401AA0806088401C6080A5
S1136E3060880D28E0DB04E02088B0F50C6F11DBDE
S1136E400EE0208861880C2291FBF2F10818208062
S1136E5060880C2190FBF1F201FB12006080CBE70B
S1136E60002029E0DFF85C032188DFF85C2312EBC3
S1136E7081014058060060883421DFF8502301FB6B
S1136E80072111EB800050F8040C8619A088401EDD
S1136E90DFF83C1301FB0066E0884FF4616101FBFD
S1136EA0006620893C2101FB0066608916FA80F6A1
S1136EB02E60A08968600120F2BD10B584B0040082
S1136EC000A800F005F8210000A803F051FA1FBD46
S1136ED038B50400002C20D0DFF8E002006805007B
S1136EE0FFF7B1FC15F5A8700EC80EC40C380C3CA5
S1136EF0D5F88801002805D0D5F88C01D5F888117B
S1136F008847A060220015F5AE71200003F006FA50
S1136F10FFF7AAFC200003F07DFA31BD2DE9F0470C
S1136F20DFF8980200680400D4E95401401C51F1D0
S1136F300001C4E95401FFF786FCD4F88801002855
S1136F4006D0D4F88C01D4F888118847C4F85801C5
S1136F5014F5A87003F05EFAB4F870010600002E70
S1136F604CD0D4F868010500761C761E002E45D05E
S1136F7028688246D5E91123D4E954018B4204D808
S1136F8001D3824201D201270CE0D4E95423D5E98C
S1136F9011018B4205D801D3824202D25FF0FF3740
S1136FA000E00027002F29D4B4F87001401EA4F893
S1136FB070016968080029688946C0F80090C9F81A
S1136FC00400A86830F48070A860A868400510D553
S1136FD0A86830F48060A860296C0800E96B8846D2
S1136FE0C0F80080C8F80400A86B0089401EA96B93
S1136FF008812800FFF7E3F85546B6E7FFF734FCAD
S1137000D4F81403002802D0D4F814038047BDE850
S1137010F0873EB50400DFF8A4010068050060684D
S1137020B0F57A7F0FD3206861684FF47A72B1FBB0
S1137030F2F10818206060684FF47A71B0FBF1F245
S113704001FB1200606000A9200003F0FFF9FFF7C4
S1137050FAFB15F5AE7215F5A87100A803F00AFA4B
S1137060FFF702FC37BD010089B2642291FBF2F301
S113707002FB1312002A0ED189B24FF4C87291FB9D
S1137080F2F302FB1312002A02D1012210000FE0D6
S1137090002210000CE089B2042291FBF2F303FBFE
S11370A01213002B02D10122100001E00022100073
S11370B07047424A12681100C1F87C0170473F4A88
S11370C012681100C1F8740170473C4B1B681A0028
S11370D0C2F88801C2F88C117047384A126811004E
S11370E0C1F884017047F8B504000D00002C01D0EC
S11370F0002D01D1002060E020683649884203D287
S11371006068B0F57A7F01D3002056E00020288023
S1137110206829882C4A12EB81014968884203D3EC
S11371202888401C2880F3E720682988264A52F8DA
S11371302110401A0600288800F2B270288028889E
S1137140FFF791FF070001206880688834211F4AF7
S113715001FB072151F82000864203D36888401CB4
S11371606880F2E768883421184A01FB072111EB93
S1137170800050F8040C361A1548B6FBF0F0A880CD
S1137180A888134901FB1066A888401CA8804FF406
S11371906160B6FBF0F0E880E8884FF4616101FBC0
S11371A010663C20B6FBF0F0288128893C2101FBC5
S11371B010666E816068A8810120F2BD0000FF1F87
S11371C01CFC000038E1FFFFA0FC000038FC0000BC
S11371D080510100015786F40348006840084000CC
S11371E0014908600020704700D0004010B50748EE
S11371F000680400002114F51E70FFF71FFC012134
S113720014F51770FFF71EF910BD00BF0000FF1F33
S11372104FF47A7101FB00F1602202FB01F3002BB1
S113722002D000BF5B1EFAE7704770B5040000256A
S1137230DFF8DC62E00720D5FFF705FB306950F08A
S113724001003061DFF8CC0200210160DFF8C802E0
S113725000210160DFF8C40200210160DFF8C002F0
S11372600021016030694008400030615FF0FF3068
S1137270B06001203060FFF7F7FAA00715D5FFF7DB
S1137280E2FA306950F00100306130694008400092
S1137290306101203060DFF8840200210160DFF8F2
S11372A0800200210160FFF7DFFA600729D5306909
S11372B0C00703D5306940084000306132000FF246
S11372C049015220FFF71BFB002802D1FEF744FEC0
S11372D00500002D15D17069C00602D53069C005BE
S11372E00AD4306950F4807030617D20FFF790FF3C
S11372F0706950F01000706101220421522003F0E3
S1137300DDF8280070BD00002DE9F0410400DFF82D
S113731000525FF001086869060016F0030F1DD0E3
S1137320686930F0100068615FF0FF30A8600120E8
S11373302860686950F010006861F00701D50820E2
S113734000E00020B10701D5042100E00021DFF8AE
S1137350D0211268084310437149086070072ED584
S1137360A86807006B48006887420DD16C48006824
S113737050F001006A49086068480068400840000D
S113738000F09EF8002080466348006887420DD1D3
S11373906348006850F00200614908605F48006873
S11373A030F0020000F08CF800208046B8F1010FA4
S11373B005D15A4800688008800000F081F85948D7
S11373C00068002809D056480068544909680842F2
S11373D003D02800534909688847BDE8F0810100BB
S11373E0002089B2042291FBF2F303FB1213002B59
S11373F016D10122100089B2642291FBF2F302FB40
S11374001312002A01D10022100089B24FF4C8726D
S113741091FBF2F302FB1312002A01D101221000A6
S11374207047F8B5040000252088A0F2B27040F23D
S11374306D114843050040F2B2700700208887426E
S113744007D2380080B2FFF7CAFF401905007F1C3D
S1137450F4E701200600608886420FD2324810EB20
S1137460460030F8020C15FA80F5022E04D120886B
S1137470FFF7B5FF40190500761CECE7A088401E15
S113748045192A48E1884FF46162514300FB051015
S113749021893C2202FB0100618910FA81F0F2BDCE
S11374A01B494A6932F010024A6102680A604A695B
S11374B052F010024A61704715490A680260704729
S11374C010B4134910F00302002A03D15FF0FF3314
S11374D08B601AE0032A10D10B681A000E4B1B684C
S11374E09B1A0C4C2468A41AA34202D3094B1B68B0
S11374F001E0094B1B688B6007E0C30702D5054B0D
S11375001B6801E0044B1B688B6010BC70470000D3
S113751000D003403000FF1F3400FF1F3800FF1F5E
S11375203C00FF1F4000FF1FE4FB000080510100EE
S113753030B583B004000D00206800900020019055
S1137540290000A8FFF7CFFD37BD38B504000D00B2
S11375502000FFF766FF286031BD10B588B0040035
S1137560012C0ED100A8FFF7A7FF03A900A8FFF77D
S1137570DFFF01A903A8FFF7D1FB01A8FFF749FD2D
S11375800DE001A8FFF799FC03A901A8FFF7ABFDE3
S113759000A903A8FFF7D9FF00A8FFF781FF002087
S11375A008B010BD70B403000025002400291AD0CF
S11375B0002A18D01001B1FBF0F00500002D0DD009
S11375C0280100FB1210560816EB4000B0FBF2F045
S11375D00400202C02D36D1C00200400B5F5005FCC
S11375E001D316200EE0280A10F01F0018705D70F9
S11375F0987A10F0E0009872987A14F01F063043DD
S11376009872002070BC7047C17851F00C01C170B1
S11376107047C17811F0F301C170704770B586B03E
S113762004000D001600049603950FF2E110029079
S11376300FF2791001900FF2611000900FF24513D0
S11376400FF211120FF20D01200002F099FF06B0A3
S113765070BD00002DE9F84F04000D0016006068AD
S113766081464846C0B203F05DFA0700002F01D1FD
S11376702B206CE05820FEF70EFB8046B8F1000F7B
S113768001D1042063E0C5F80080C8F820704046AA
S113769021002022FEF706F80120C8F83000D8F8AF
S11376A008008246152083465946C9B24846C0B2EE
S11376B0FDF756FD04214846C0B2FDF751FDD8F848
S11376C00C2051463800FFF76DFF0020B870F878A1
S11376D010F0FD00F870B87A10F03F00B872002086
S11376E03872002078720020B871387CC0F3021020
S11376F0C0B2002802D10020F87407E00120397CD0
S1137700C1F30211491C8840401EF87401207875A9
S1137710F87810F0F300F870387C50F08800387472
S1137720787C50F0C00078745FEACB6003D53800F1
S1137730FFF76AFF02E03800FFF76BFF5FEA0B70A8
S113774004D508214846C0B2FDF70AFD0020BDE873
S1137750F28F000070B504000D0004260421606857
S1137760C0B2FDF7FDFC286A0021C170300704D5C2
S113777008216068C0B2FDF7F3FC2800FEF764F945
S1137780002070BD0100086A02799206FCD58A6B5C
S1137790521C8A63C0797047026A13791B06FCD5B0
S11377A0D171C36B5B1CC3637047000030B401002C
S11377B00A000B6A1C79200702D5D06C401CD064E7
S11377C0E00702D5506C401C5064600702D5506D30
S11377D0401C5065A00702D5906C401C90640A20A0
S11377E004420BD0D8799D7CED0707D5587C50F026
S11377F040005874987C50F001009874987C4006BE
S113780001D4012000E0002030BC70472DE9F04194
S113781004000D001600276A2800C01E00F07081C5
S113782040F6FF41401A00F03781401E70D0401EE0
S113783071D0401E00F07F80401E00F09580801FB4
S11378402ED0401E18D0401E00F06B81401E00F068
S11378505E81401E00F0B780401E00F0A480001F2F
S113786000F09380401E00F09780401E00F03481A9
S1137870401E00F03E818FE108208046B878C006A3
S11378800BD594F83000C00707D5B878800702D527
S1137890B87A800601D518F10108C6F800807EE1A7
S11378A03068082804D03068092801D00C2077E11A
S11378B03068082814D194F83000C00727D5B87A66
S11378C010F0DF00B872B878800704D5B87850F0AB
S11378D01000B8701BE0B87810F0EF00B87016E034
S11378E094F83000C00710D5B87850F01000B87084
S11378F0B878800704D5B87A50F02000B87206E052
S1137900B87A10F0DF00B87201E0162048E146E1D1
S1137910E068306043E1A068804632684146380040
S1137920FFF740FE8046B8F1000F01D0404637E132
S11379303068E06033E1606B3060361DA06B30600E
S1137940361DE06B3060361D206C3060361D606C77
S11379503060361DA06C3060361DE06C3060361D22
S1137960206D3060361D1AE1002060630020A063A2
S11379700020E06300202064002060640020A064F4
S11379800020E0640020206509E13879C0F3C010CC
S113799010F00100306002E13879C0F3401010F0BB
S11379A001003060FBE001208046B878800707D5ED
S11379B0B878C00702D50220804601E00320804643
S11379C0C6F80080EBE03068012804D061D30328B6
S11379D038D014D35DE0B87880070FD5B87810F0AC
S11379E0FC00B870B87A800604D5B87A10F0DF00CD
S11379F0B87203E0B87810F0EF00B8704BE094F878
S1137A003000C00701D41620CAE0B878800704D536
S1137A10B87850F00100B87013E0B87850F0030063
S1137A20B870B878C00604D5B87A50F02000B8729F
S1137A3007E0B87A10F0DF00B872B87850F01000A0
S1137A40B87028E094F83000C00701D41620A7E0ED
S1137A50B878800704D5B87810F0FE00B87017E045
S1137A60B87850F00200B870B87810F0FE00B87022
S1137A70B878C00604D5B87A50F02000B87207E090
S1137A80B87A10F0DF00B872B87850F01000B8700F
S1137A9001E00C2084E082E0307880060BD5606839
S1137AA0FDF76DFD787B10F0F6007873787B50F06D
S1137AB0020078730FE03078000708D5787B10F067
S1137AC0FD007873787B50F00900787303E0787BCD
S1137AD010F0F400787362E03068012804D1F8787B
S1137AE010F0FB00F87003E0F87850F00400F87030
S1137AF055E03879002801D1012000E000204EE053
S1137B00B87C0006FCD538794006FCD547E094F8EB
S1137B103000C00702D50120306001E0032030604E
S1137B203DE03068012814D194F83000C00732D405
S1137B30B87A10F0DF00B872B87810F0EF00B870BF
S1137B40B87910F0BF00B871206B50F001002063C9
S1137B5021E0306803281CD194F83000C0071AD5FE
S1137B60B878C00602D4B878800701D5162017E08B
S1137B70B87A10F0DF00B872B87850F01000B8701E
S1137B80B87950F04000B871206B40084000206381
S1137B9001E00C2004E002E040F6092000E00020AF
S1137BA0BDE8F081F0B50200002000275FF0FF3C43
S1137BB065465FF0000C6346032B1FD25FF0000C98
S1137BC06446402C18D2DFF8D8C45CF823C0DFF830
S1137BD0D4E45EF824E00EFB0CFC01FB0CFCBCEBD3
S1137BE0020C6646002E00D57642AE4202D2350023
S1137BF018002700641CE4E75B1CDDE78001C0B2C9
S1137C0017F03F073843F0BD3EB504000D00029560
S1137C100FF2491001900FF2515000900FF28D4372
S1137C200FF2FD020FF20901200002F0A9FF3EBD90
S1137C302DE9F04104000D001600207803F08EF8C1
S1137C400700002F02D14AF6021067E05C20FEF71D
S1137C5022F88046B8F1000F01D104205EE040F222
S1137C600B414046FEF706F82078FDF750FCC5F8B6
S1137C700080404621001422FDF714FDC8F814705A
S1137C800020C8F818000020C8F81C000020C8F81C
S1137C902000607888F82400002088F8250000205F
S1137CA088F82600002088F827000020C8F828005B
S1137CB00020C8F82C000020C8F830000020C8F8C4
S1137CC034000020C8F838000020C8F83C00002028
S1137CD0C8F840000020C8F844000020C8F8480054
S1137CE00020C8F84C000020C8F850000020C8F854
S1137CF054000020C8F858000020B8700020F87024
S1137D00A078400038706168DFF89C03FFF74AFFF1
S1137D107870B87850F08000B8700020BDE8F08129
S1137D2070B504000D00002D01D0002C02D14AF6DC
S1137D30031011E068690600F078800602D54AF65F
S1137D40011009E00020B070FF20F070A069FDF779
S1137D507BFE0020A061002070BD00002DE9F047EB
S1137D6088B004000D0016005FF000086069070089
S1137D702800C01E36D040F2FE31401A00F0FE80CA
S1137D80401E00F00E81401E00F0D680401E00F020
S1137D90DF80401E00F0E880401E00F03081401E6D
S1137DA000F03781401E00F01681401E00F01D8156
S1137DB0401E00F0AE80401E4BD0401E68D0401ED6
S1137DC000F03181401E00F03881401E00F04781F0
S1137DD0401E00F0A780401E00F0A980401E00F065
S1137DE04B8158E100208DF800009DF80000FF2829
S1137DF005D09DF80000401C8DF80000F5E7F878E8
S1137E008DF80000B878C00609D59DF8000010F080
S1137E10A0002028E6D0E06B216C8842E2D1206CDF
S1137E20E06394F8270080070BD59DF800008006D6
S1137E3007D4002084F827000020A062072084F8DB
S1137E402500002E04D09DF8000010F001003060E1
S1137E5021E14AF601108046B878800617D594F8D7
S1137E602500022803D1E06B216C88420AD094F8E3
S1137E702500032802D1A06A002803D094F8250025
S1137E80072804D1012084F825000020804602E15F
S1137E90B87810F0E700B870F87850F01200F87075
S1137EA00020A062002084F82700002084F8250028
S1137EB0206B6063B878800603D438798DF80000AD
S1137EC003E0B87810F0DF00B87000208DF80000EF
S1137ED09DF80000FF2805D09DF80000401C8DF897
S1137EE00000F5E7F8788DF800009DF800008006A2
S1137EF00ED59DF80000800706D5F87850F00200F2
S1137F00F87038798DF80000F8788DF80000ECE707
S1137F10C1E0002E03D14AF60310804601E0306828
S1137F20A062B8E0B87810F07F00B870B3E0B87819
S1137F3050F08000B870AEE094F82500002803D01B
S1137F404AF60110804602E0002084F82400A2E0F2
S1137F5094F82500002803D04AF60110804602E078
S1137F60012084F8240096E0002E03D14AF6031081
S1137F70804602E094F8240030608CE0002E03D1A7
S1137F804AF6031080460BE0F878800603D54AF6DB
S1137F900110804604E031684348FFF703FE78701F
S1137FA079E0002E03D14AF60310804612E0787877
S1137FB080093B4951F820008246787810F03F0050
S1137FC0384951F820008146374809FB0AF1B0FBD3
S1137FD0F1F030605FE0002E03D14AF603108046D2
S1137FE002E0306884F8260055E0002E03D14AF6FA
S1137FF00310804602E094F8260030604BE0002E27
S113800003D14AF60310804602E03068400038701D
S113801041E0002E03D14AF60310804602E038788E
S11380204008306037E0002E03D14AF60310804642
S113803002E094F8250030602DE0002E03D14AF6CA
S1138040031080460AE001A814F144011822FDF748
S113805029FB300001A91822FDF724FB1BE00020B6
S113806060640020A0640020E064002020650020FB
S113807060650020A0650EE0002E03D14AF60310CF
S1138080804607E0F878800602D50120306001E0E0
S113809000203060FFE7404608B0BDE8F0870000EC
S11380A0D8FA0000E4FA0000006CDC022DE9F84381
S11380B004000D001600A06907007869804697F84F
S11380C0270050F0010087F8270097F82500814623
S11380D05FFA89F9B9F1000F04D05FFA89F9B9F1AF
S11380E0010F38D1032087F8250097F824000028D1
S11380F031D198F8020050F0100088F8020098F886
S1138100030050F0020088F803005FFA89F9B9F11E
S1138110010F06D198F8020050F0040088F802001C
S113812005E098F8020050F0200088F8020097F863
S1138130270050F0020087F8270097F82600400037
S113814050F0010088F80400F86C401CF86498F8BA
S113815003008007FBD533002A003900404600F0B5
S11381605EF8BDE8F28300002DE9F84304000D0039
S11381701600A06907007869804697F8270010F078
S1138180FE0087F8270097F8250081465FFA89F9F1
S1138190B9F1000F04D05FFA89F9B9F1010F36D1B2
S11381A0022087F8250097F8240000282FD198F89A
S11381B0020050F0100088F8020098F8030050F014
S11381C0020088F803005FFA89F9B9F1010F06D1BA
S11381D098F8020050F0040088F8020005E098F8CE
S11381E0020050F0200088F8020097F8270050F0B1
S11381F0020087F8270097F82600400088F804005A
S1138200F86C401CF86498F803008007FBD5330031
S11382102A003900404600F002F8BDE8F28378B441
S1138220040000200600B342C0F07981E078050024
S1138230A078800613D49E4201D1300070E191F8F9
S1138240270080070BD5A80609D4002081F8270051
S113825000208862072081F82500300060E1A8072B
S1138260E4D591F8270050F0020081F82700A078A7
S1138270800640F19680A078C00652D5E8070BD559
S1138280E07850F00200E070072081F82500886D46
S1138290401C8865330040E191F82500022813D181
S11382A091F82700C0070DD49E4280F03681E07813
S11382B050F00200E07010782071521CC86C401C11
S11382C0C8642AE1330028E191F82500032826D167
S11382D091F82700C00720D5A07810F0EF00A07017
S11382E0886A012804D1A07850F00800A07003E047
S11382F0A07810F0F700A070E07850F00200E07071
S1138300886A002804D1072081F82500330004E19D
S113831020798DF80000761EFFE03300FDE0330085
S1138320FBE091F82500032839D191F82700C00714
S113833033D5886A002830D09E4280F0EE80E07801
S113834050F00200E070886A401E8862886A012842
S113835004D1A07850F00800A07003E0A07810F0D9
S1138360F700A070886A002803D1A07850F01000AC
S1138370A07020791070521C886A002809D1A07856
S113838010F0EF00A070072081F82500701C030096
S11383901E00886C401C8864BFE03300BDE03300DD
S11383A0BBE0E8060AD5E07850F01000E070062043
S11383B081F82500086D401C0865330068064AD51D
S11383C091F82400002802D1486D401C48656807D4
S11383D01AD5052081F8250091F82700C00711D48B
S11383E09E4280F09A80A07850F01000A070E0784F
S11383F050F00200E07010782071521CC86C401CD0
S1138400C8648AE0330088E0042081F8250091F8EC
S11384102700C0071DD5002E1BD1886A002818D05C
S1138420A07810F0EF00A070E07850F00200E07047
S1138430886A012804D1A07850F00800A07003E0F5
S1138440A07810F0F700A07020798DF80000761E57
S113845063E0330061E0E8065ED4A078C00628D566
S1138460E8070BD5E07850F00200E070072081F8AF
S11384702500886D401C886533004EE091F8250086
S1138480022803D091F82500052810D191F827007F
S1138490C0070CD49E4240D2E07850F00200E07055
S11384A010782071521CC86C401CC86435E033003D
S11384B033E091F82500032803D091F8250004281F
S11384C028D191F82700C00724D5886A002821D034
S11384D09E4222D2E07850F00200E070886A401E8A
S11384E08862886A012804D1A07850F00800A0703E
S11384F003E0A07810F0F700A070886A002802D189
S1138500072081F8250020791070521C886C401CCB
S1138510886402E0330000E03300761C83E6180030
S113852072BC70473EB504000D00029507480190E7
S11385300FF2512000900FF235130FF2D5020FF213
S11385401101200002F02EFC3EBD00005D7D000004
S11385502DE9F04704000D00606980462A0014F1FB
S113856018014046FFF764FB8246BAF1000F01D0C0
S113857050464AE0A06907007869060098F80000B0
S113858002F000FC8146B9F1000F02D14AF6021054
S11385903BE0C7F82090D8F81000FDF7FFFAF86226
S11385A0F86A002801D104202FE0D8F80C00FDF768
S11385B0F5FAB863B86B002806D1F86AFDF744FAF7
S11385C00020F862042020E040F20941F86AFDF737
S11385D051FB40F20A41B86BFDF74CFB4846FEF7ED
S11385E05EF9F8613A000FF2AD214846FEF787F9CB
S11385F0B861012298F808104846C0B201F05EFF45
S1138600B07850F04000B0705046BDE8F0870000EC
S1138610F8B504000D00002D01D0002C02D14AF65B
S1138620031022E068690600F078800602D54AF655
S113863001101AE00020B070FF20F070606907009C
S1138640EA69A969286AFEF75AF9A069FDF7FCF9F5
S11386500020A061E86AFDF7F7F90020E862A86B42
S1138660FDF7F2F90020A8630020F2BD2DE9F843DC
S113867004000D001600A069070078698046FEF723
S1138680E2F8386A01F065FFFEF7EEF80020814653
S1138690B14513D2786B396B88420FD0F86A796B85
S11386A04A1C7A63085C28706D1C786B39698842AF
S11386B001D30020786319F10109E9E797F827004D
S11386C050F0010087F8270097F825008DF8000086
S11386D09DF80000002803D09DF80000012837D140
S11386E0032087F8250097F82400002830D198F853
S11386F0020050F0100088F8020098F8030050F0CF
S1138700020088F803009DF80000012806D198F8BB
S1138710020050F0040088F8020005E098F8020016
S113872050F0200088F8020097F8270050F002006B
S113873087F8270097F82600400050F0010088F8D9
S11387400400F86C401CF86498F803008007FBD51B
S113875098F8020080060FD497F8270080070BD5FD
S113876098F80300800607D4002087F8270000202B
S1138770B862072087F82500386A01F0D7FE48461A
S1138780BDE8F2832DE9F04704000D001600A0694E
S1138790070078698046FEF756F8386A01F0D9FE7A
S11387A0FEF762F800208146B14514D2F86B401CF4
S11387B08246F868824501D300208246386C82459F
S11387C009D0F86BB96B2A7842546D1CC7F83CA0E9
S11387D019F10109E8E797F8270010F0FE0087F87F
S11387E0270097F825008246BAF1000F02D0BAF1AB
S11387F0010F34D1022087F8250097F824000028BF
S11388002DD198F8020050F0100088F8020098F872
S1138810030050F0020088F80300BAF1010F06D1FA
S113882098F8020050F0040088F8020005E098F877
S1138830020050F0200088F8020097F8270050F05A
S1138840020087F8270097F82600400088F8040003
S1138850F86C401CF86498F803008007FBD598F87E
S1138860020080060FD497F8270080070BD598F8EC
S11388700300800607D4002087F827000020B86290
S1138880072087F82500386A01F050FE4846BDE805
S1138890F0870000F8B5040025006E69F078070041
S11388A0686C401C6864B078800640F1C280B0787F
S11388B0C00665D5F8070CD5F07850F00200F070CA
S11388C0E86B2864072085F82500A86D401CA8657E
S11388D0ABE195F82500022821D1E86B296C884288
S11388E019D095F8270010F00300022813D1F0786E
S11388F050F00200F070A86B296C4A1C2A64085CD2
S11389003071286CE968884201D300202864E86C3F
S1138910401CE86489E1286A01F01BFE85E195F8B2
S11389202500032828D195F8270010F00300032818
S11389301ED1B07810F0EF00B070A86A012804D1FD
S1138940B07850F00800B07003E0B07810F0F70091
S1138950B070F07850F00200F070A86A002803D1DB
S1138960072085F8250060E130798DF800005CE18E
S1138970286A01F0EEFD58E1286A01F0EAFD54E1AD
S113898095F82500032850D195F8270010F003002E
S1138990032846D1A86A002843D0286B401C8DF8D0
S11389A000009DF800002969884202D300208DF858
S11389B000009DF80000696B884203D1286A01F029
S11389C0C8FD32E1F07850F00200F070A86A401E51
S11389D0A862A86A012804D1B07850F00800B070E9
S11389E003E0B07810F0F700B070A86A002803D153
S11389F0B07850F01000B070286BE96A32794254B4
S1138A009DF800002863A86A002806D1B07810F009
S1138A10EF00B070072085F82500A86C401CA864FE
S1138A2003E1286A01F095FDFFE0286A01F091FD59
S1138A30FBE0F80609D5F07850F01000F07006203D
S1138A4085F82500286D401C286578065DD595F8C5
S1138A502400002802D1686D401C6865780728D579
S1138A60052085F8250095F8270010F0030002285A
S1138A701BD1E86B296C884217D0B07850F01000F5
S1138A80B070F07850F00200F070A86B296C4A1CAA
S1138A902A64085C3071286CE968884201D300209C
S1138AA02864E86C401CE864BFE0286A01F051FDCA
S1138AB0BBE0042085F8250095F8270010F003009A
S1138AC003281ED1686B296B88421AD1A86A002832
S1138AD017D0B07810F0EF00B070F07850F00200CA
S1138AE0F070A86A012804D1B07850F00800B07082
S1138AF003E0B07810F0F700B07030798DF8000022
S1138B0093E0286A01F025FD8FE0F80600F18A80E1
S1138B10B078C00638D5F8070CD5F07850F00200CC
S1138B20F070E86B2864072085F82500A86D401CC8
S1138B30A8657AE095F82500022803D095F8250069
S1138B4005281DD1E86B296C884219D095F82700B7
S1138B5010F00300022813D1F07850F00200F070F6
S1138B60A86B296C4A1C2A64085C3071286CE9687B
S1138B70884201D300202864E86C401CE86454E077
S1138B80286A01F0E6FC50E095F82500032803D09C
S1138B9095F82500042841D195F8270010F003002A
S1138BA003283BD1A86A002838D0286B401C8DF8D4
S1138BB000009DF800002969884202D300208DF846
S1138BC000009DF80000696B884203D1286A01F017
S1138BD0C0FC2AE0F07850F00200F070A86A401E51
S1138BE0A862A86A012804D1B07850F00800B070D7
S1138BF003E0B07810F0F700B070A86A002802D142
S1138C00072085F82500286BE96A327942549DF8DB
S1138C1000002863A86C401CA86406E0286A01F0E0
S1138C2098FC02E0286A01F094FC95F8270050F0C3
S1138C30020085F82700F1BDFEB504000D002420D4
S1138C40FCF78DFE0600002802D14AF601602BE0F5
S1138C50242200213000FCF7F3FC2A00310020001C
S1138C6002F0BBFB0700002818D12A0031002000C5
S1138C7003F051F80700002810D102960FF2D140FA
S1138C8001900FF2C54000900FF24D430FF2653290
S1138C900FF21901200003F013FD0700002F02D08A
S1138CA03000FCF7D1FE3800FEBD00002DE9F54F81
S1138CB083B00D0003980068446A039800688068D4
S1138CC001900198411C01910078002801D06D1C8D
S1138CD0F7E701950198007800284ED1049F002FF2
S1138CE002D14AF6036081E12068002824D11420CF
S1138CF0FCF758FE20602068002802D14AF6016083
S1138D0074E10820FCF74EFE60606068002805D11D
S1138D106068FCF799FE4AF6016067E120683968EB
S1138D2001606068002141602168039802F059FBEA
S1138D300600002803D10DE04AF6046056E12068DD
S1138D40FCF782FE6068FCF77FFE002020600020B4
S1138D50606010E06168039802F0E0FF06000028FC
S1138D6009D02068FCF770FE6068FCF76DFE0020F7
S1138D70206000206060300038E1049F5FF0000B49
S1138D8014F10800804614F110008146002F02D12E
S1138D904AF603602AE12068002802D14AF60560F9
S1138DA024E17868002802D14AF606601EE100201A
S1138DB08346BBF1020F0DD2290014EB8B008069AE
S1138DC003F09CFC002802D14AF604600EE11BF17A
S1138DD0010BEEE700208346BBF1020F07D214EB30
S1138DE08B008069002802D01BF1010BF4E7BBF172
S1138DF0020F02D14AF60760F8E01C20FCF7D2FD0E
S1138E0000900098002803D14AF601600600ECE0C7
S1138E1058F82B0000283CD12020FCF7C3FD48F86B
S1138E202B0058F82B00002803D14AF601600600F5
S1138E30D8E02C20FCF7B6FD49F82B0059F82B009C
S1138E40002803D14AF601600600C4E058F82B005C
S1138E500099086059F82B0000994860039800991C
S1138E6041607869401C8000FCF79CFD58F82B1089
S1138E70C860786958F82B10C96811EB8000001D90
S1138E8058F82B10086158F82B00C068002807D147
S1138E9002E05FF0FF30A9E04AF60160060093E0CB
S1138EA058F82B0058F82B10C968416158F82B006A
S1138EB058F82B10C968816158F82B00C0F800B02D
S1138EC058F82B007988818058F82B003988C180A4
S1138ED059F82B00B969C16159F82B00B968816050
S1138EE059F82B00F968C16059F82B00C0F800B09C
S1138EF059F82B007988818059F82B007968491E2C
S1138F00816159F82B0059F82B108969416159F88E
S1138F102B00F9690162386A002804D159F82B0042
S1138F200121416203E059F82B00396A416258F883
S1138F302B10039802F0C5FB060000283FD159F816
S1138F402B10039803F080F80600002832D1280083
S1138F5003F0F6FB401CFCF725FD14EB8B01886144
S1138F60002805D159F82B10039803F020F921E0CB
S1138F70002082461AF80500002809D014EB8B0063
S1138F8080691AF805100AF800101AF1010AF1E7CD
S1138F9014EB8B00806900210AF80010B878800770
S1138FA006D4002241F20111039800F0D1F81DE02B
S1138FB000201BE058F82B10039802F017FC58F817
S1138FC02B00C068FCF740FD59F82B00FCF73CFD72
S1138FD0002049F82B0058F82B00FCF735FD002041
S1138FE048F82B000098FCF72FFD300005B0BDE8D1
S1138FF0F08F00002DE9F04704002068456A666898
S113900015F1080715F11008002E2BD10020814618
S1139010B9F1020F09DA57F82900002802D04AF6FC
S1139020086056E019F10109F2E76968200002F0CE
S113903009FF8246002801D050464AE029682000F2
S113904002F032FB8246002801D0504641E06868B5
S1139050FCF7FAFC002068602868FCF7F5FC0020A7
S1139060286035E03068006881460022716820007D
S113907003F047FA7168200003F099F8824600284B
S113908001D0504625E03168200002F0AFFB824653
S1139090002801D050461CE015EB89008069FCF7DC
S11390A0D3FC15EB8900002181613068C068FCF7AE
S11390B0CBFC3068FCF7C8FC7068FCF7C5FC3000DA
S11390C0FCF7C2FC002047F82900002048F82900DA
S11390D00020BDE8F0870000F0B403000C005D68D8
S11390E02E687069002801D100202BE0B069D6F801
S11390F014C0B0EB0C0080100700002F06D53069B7
S1139100D6F80CC0B0EB0C0017EBA0079008B842DF
S113911001D290080700002F13D070690068206006
S1139120241D70695FF0000CC0F800C07069001D58
S11391307061D6F810C0604501D3F06870617F1E7D
S1139140E9E7601AF0BC7047030000207047000094
S11391502DE9F04704000D0016006768B0462800AA
S1139160093842D041F2F801401A0ED0401E12D004
S1139170401E16D0401E1AD0401E1ED0401E22D0C3
S1139180401E26D0401E2AD03AE0002279682000F2
S113919003F083F850E032000021200003F07DF852
S11391A04AE000227968200003F0ABF944E0320081
S11391B00021200003F0A5F93EE000227968200098
S11391C003F0E0F838E032000021200003F0DAF880
S11391D032E000227968200003F034F92CE03200F8
S11391E00021200003F02EF926E01520C8F8000025
S11391F00020C8F804000820C8F8080000201BE07C
S113920032002900200001F0BFFE8146B9F1000FB1
S113921003D040F6092081450DD1320029002000F9
S113922002F076FC824640F60920824501D1484688
S113923002E0504600E04846BDE8F0872DE9F24FD1
S1139240040015005FF080095FF00F0A5FF0FF3043
S1139250804602200600B6F5807F15D8012007005D
S1139260112F0FD207FB06F068430099401A83467A
S1139270BBF1000F04D4C34502D2D846B146BA4666
S11392807F1CEDE77600E6E7E06A30F00800E06274
S1139290E06A6FF3131007005FEAC91010F47F400F
S11392A03843BAF10101090111F0F001084350F407
S11392B06020E062606A000703D40520FDF7C4FC67
S11392C0F8E7E06A50F00800E062206B50F4801088
S11392D02063BDE8F18F406A40F20731084201D0B3
S11392E0012000E00020C0B270470200136B0B4065
S11392F018000028FAD0704770B504000D0016005D
S11393000020286000213068C0B2FCF7CDF810F1CD
S1139310010F02D140F60B203DE0DFF85009E06276
S1139320E06AC001FCD40020C4F8C0005FF48130BE
S113933060602820A062DFF838096064DFF834290F
S1139340B1682000FFF77AFF606A10F0030FFBD1C9
S11393504FF6FF713068C0B2FCF7A6F810F1010FA8
S113936002D140F60B2016E04FF6FF702063DFF8C1
S113937008096063E06A50F00060E062E06A00019E
S1139380FCD4606AC00301D501202860206B50F032
S113939080002063002070BDF8B504000D0028682B
S11393A00700C7F38150022801D157F40017A868B9
S11393B0002820D0E86800281DD057F40017A868BA
S11393C0012801D057F02007A86810F1010F08D137
S11393D0E868C004C00C40F07F4050F47F000600F1
S11393E00BE0E868C004C00CA96850EA014006001C
S11393F057F0020701E000200600206B50F08000C7
S11394002063606AC007FCD46868A06066600020BE
S11394102060E760DFF864182000FFF766FF01288A
S113942007D0206B40F4702050F00100206301202D
S113943027E0206B000605D5206B50F00110206357
S113944001201EE0206BC00306D5206B50F00110F4
S113945020635FF0FF3014E017F4403F0CD0206924
S1139460286117F44030B0F5803F05D16069686128
S1139470A069A861E069E861206B50F001002063F5
S11394800020F2BDF0B585B004000D00002C01D021
S1139490002D01D10C2030E0FDF7D5F90820FCF7B0
S11394A0FAFB0600002E03D1FDF7DEF9042024E0C8
S11394B040F211413000FCF7DDFB03960FF241004E
S11394C002900FF29D1001900FF6651000900FF2BC
S11394D0C9730FF20D120FF26101200003F04CF971
S11394E00700002F03D135600020706002E03000D7
S11394F0FCF7AAFAFDF7B8F9380005B0F0BD000092
S113950038B50400002C02D140F6012012E0606A54
S11395100500002D02D140F60B200BE068680028FE
S113952002D040F60A2005E02800FCF78DFA00205E
S11395306062002032BD00002DE9F84F04000D00E8
S11395401600002C01D10C2047E020680700002FF2
S113955002D140F6012040E0786A8146B9F1000F5B
S113956002D140F60B2038E0D9F800008246BAF167
S1139570000F02D140F60B202FE0DAF80000C0B251
S113958003F07AF98346BBF1000F02D140F60B20B9
S113959023E0FDF758F9D9F80400002803D0FDF7BB
S11395A063F92C2019E00120C9F80400FDF75CF9E7
S11395B00420FCF770FB8046B8F1000F01D10420B1
S11395C00BE040F212414046FCF754FBC4F804801F
S11395D0524641465846FFF78FFEBDE8F28F000021
S11395E02DE9F0410400002C01D10C2036E0206864
S11395F00500002D02D140F601202FE0686A060024
S1139600002E02D140F60B2028E030680700002F1E
S113961002D140F60B2021E03868C0B203F02CF9E7
S11396208046B8F1000F02D140F60B2016E0FDF79A
S11396300AF97068401E706000280CD1DFF82C060F
S1139640C8F82C00D8F82C00C001FBD46068FCF7E3
S1139650FBF900206060FDF707F90020BDE8F08108
S11396602DE9F64F8FB004005FF00009DDF840A04B
S1139670002C01D10C20F6E220680E900E980028F0
S113968002D140F60120EEE260680500002D02D10F
S113969040F60120E7E20E98406A0D900D980028EC
S11396A002D140F60B20DEE20D9800680600002E81
S11396B002D140F60B20D6E23068C0B203F0DCF8E9
S11396C00700002F02D140F60B20CCE20F98C01EF9
S11396D000F0B182801F00F09A8241F2F821401A12
S11396E012D0401E00F0B781401E00F06B82401E75
S11396F000F0C381401E00F0D781401E00F00982B3
S1139700401E00F02982AAE2320029003800FFF747
S1139710F3FD8146B9F1000F40F0A48200200990C6
S11397200020089000200B9000200C900020804620
S113973000200A9000200090002001900020029058
S113974000A93800FFF728FE002803D04AF601409C
S1139750814687E2DFF8280500904FF4D570019028
S11397600020029000A93800FFF716FE8346BBF1E3
S1139770010F03DB4AF60140814673E2BBF1000F9F
S113978009D104980199884203D04AF601408146E0
S113979068E201208046DFF8EC040090002001908C
S11397A00020029000A93800FFF7F6FD8346BBF1C4
S11397B0010F03DB4AF60140814653E2BBF1000F7F
S11397C036D10498C0F30270002833D0049810F402
S11397D0401F2FD0DFF8AC0400905FF440100190DC
S11397E000200290002083460520FDF72DFA1BF18E
S11397F0010B00A93800FFF7CFFD002803D04AF67B
S11398000140814605E00498002802D4BBF1C80F4A
S1139810EADBB9F1000F40F025820498002801D555
S1139820012008900498000104D501200A9001E069
S113983001200A900A98002800F0CA80DFF8480442
S11398400090002001900020029000A93800FFF74A
S1139850A3FD8346BBF1010F03DB4AF601408146B9
S113986000E2BBF1000F54D50020089000200990BD
S1139870002080465FF080700090DFF810040190B3
S11398800020029000A93800FFF786FD002803D0CD
S11398904AF601408146E5E1049810F0C040B0F179
S11398A0005F01D10120804601200B90DFF8E00326
S11398B000904FF4406001900020029000A938000D
S11398C0FFF76AFD002803D04AF601408146C9E14A
S11398D00498C0F30720CE287AD1DFF8B4030090AF
S11398E04FF4506001900020029000A93800FFF767
S11398F053FD002803D04AF601408146B2E10498A2
S1139900C0F30720AA2863D100200B9001200C90FB
S11399105EE0DFF8800300900020019000200290B8
S113992000A93800FFF738FD002803D04AF60140AB
S1139930814697E1049810F4401F49D000208346E3
S11399400520FDF781F91BF1010BCF4800900020A1
S113995001900020029000A93800FFF71DFD0028A7
S113996003D04AF6014081461CE0CA480090B8F191
S1139970000F02D0C548019002E05FF4401001904E
S11399800020029000A93800FFF706FD002803D04C
S11399904AF60140814605E00498002802D4BBF150
S11399A0C80FCDDBB9F1000F40F05C81BBF1C80FEB
S11399B002DB002080460BE001200990B8F1000F83
S11399C006D0002080460498400001D5012080463E
S11399D00B98002801D0072028600C98002801D09B
S11399E0082028600898002801D0042028600998DD
S11399F0002806D002202860B8F1000F01D003200F
S1139A0028600898002809D00998002806D0052065
S1139A102860B8F1000F01D00620286000213068CA
S1139A20C0B2FBF741FD10F1010F02D140F60B204B
S1139A3019E17268B1683800FFF700FC4FF6FF7156
S1139A403068C0B2FBF730FD10F1010F02D140F6CF
S1139A500B2008E106E151463800FFF79DFC8346E0
S1139A60BBF1010F02DB4AF602408146BBF1000F55
S1139A7002D54AF603408146F4E0BAF1000F02D160
S1139A800C2081460FE0F86AC00910F4FF70834689
S1139A90F86AC0F30310401C00FB0BFBB068B0FB7A
S1139AA0FBF0CAF80000DDE0BAF1000F02D10C208F
S1139AB081462DE0DAF80000002802D10C2081460E
S1139AC026E03800FFF707FC00281ED1002130688B
S1139AD0C0B2FBF7E9FC10F1010F03D140F60B20F3
S1139AE08146BFE0DAF80020B1683800FFF7A6FB32
S1139AF04FF6FF713068C0B2FBF7D6FC10F1010FCE
S1139B0006D140F60B208146ACE040F60A2081469F
S1139B10A8E0BAF1000F02D10C2081461BE0B86A1C
S1139B20C0F341008346BBF1000F03D10020CAF803
S1139B30000010E0BBF1010F03D10120CAF80000BE
S1139B4009E0BBF1100F03D10220CAF8000002E0C3
S1139B504AF60540814685E0BAF1000F02D10C2097
S1139B6081462EE03800FFF7B6FB002826D1DAF84C
S1139B700000002806D1B86A30F00600B862B86A5E
S1139B80B8621EE0DAF80000012808D1B86A30F0A3
S1139B900600B862B86A50F00200B86211E0DAF860
S1139BA00000022806D1B86A30F00600B862B86A2C
S1139BB0B86206E04AF60540814602E040F60A2013
S1139BC081464FE0BAF1000F02D10C2081461DE01E
S1139BD0F86A50F00060F862F86A0001FCD4386B4F
S1139BE0000605D5386B50F08000386300202860EB
S1139BF0786AC00305D52868002804D101202860AC
S1139C0001E0002028602868CAF800002AE01C202F
S1139C10CAF800000420CAF804004FF41E70CAF801
S1139C200800207AC00705D5DAF8080030F04000B3
S1139C30CAF8080016E002213800FFF756FB386B1B
S1139C4010F4E00F06D0386B50F4E00038634AF6A5
S1139C5004408146386B50F03200386302E040F62D
S1139C6009208146484611B0BDE8F08F008000010C
S1139C7002000100801A0600B3007F0001000E00FC
S1139C8000001A080000020500001A3700003040E6
S1139C9000000227000002292DE9F04F83B00400E0
S1139CA00D001600002C02D15FF0FF30BDE02068EB
S1139CB000900098002802D15FF0FF30B5E06068A2
S1139CC001900198002802D15FF0FF30ADE00098C8
S1139CD0406A0700002F02D15FF0FF30A5E038682A
S1139CE08046B8F1000F02D15FF0FF309DE0D8F854
S1139CF00000C0B202F0C0FD8146B9F1000F02D1EC
S1139D005FF0FF3091E0B34615F00300002821D145
S1139D10BBF1040F4EDBD9F8300010F4E00F0AD089
S1139D20D9F8300040F4E00050F02000C9F83000C9
S1139D305FF0FF3079E0D9F82400000503D4D9F8A6
S1139D4024004007F7D4D9F8200028602D1DBBF16A
S1139D50040BDDE7BBF1040F2CDBD9F8300010F461
S1139D60E00F0AD0D9F8300040F4E00050F02000B1
S1139D70C9F830005FF0FF3057E0D9F8240000053F
S1139D8003D4D9F824004007F7D4D9F82000824638
S1139D9085F800A06D1C5FEA1A2028706D1C5FEA2C
S1139DA01A4028706D1C5FEA1A6028706D1CBBF1A4
S1139DB0040BCFE7BBF1000F25D0D9F8300010F425
S1139DC0E00F0AD0D9F8300040F4E00050F0200051
S1139DD0C9F830005FF0FF3027E0D9F8240000050F
S1139DE003D4D9F824004007F7D4D9F820008246D8
S1139DF0BBF1000F07D085F800A06D1C5FEA1A2A9A
S1139E00BBF1010BF4E7D9F8300010F4E00F0AD0ED
S1139E10D9F8300040F4E00050F02000C9F83000D8
S1139E205FF0FF3001E0B6EB0B00BDE8FE8F0000F1
S1139E302DE9F24F82B004001500002C02D15FF02E
S1139E40FF30C1E0206800900098002802D15FF044
S1139E50FF30B9E0606801900198002802D15FF0FA
S1139E60FF30B1E00098406A0600002E02D15FF096
S1139E70FF30A9E030680700002F02D15FF0FF3007
S1139E80A2E03868C0B202F0F7FC8046B8F1000FD7
S1139E9002D15FF0FF3097E002988146AB4619F09B
S1139EA0030000281FD1BBF1040F53DBD8F83000A6
S1139EB010F4E00F0AD0D8F8300040F4E00050F07D
S1139EC01000C8F830005FF0FF307DE0D8F82400BF
S1139ED04005FBD5D9F80000C8F8200019F10409A1
S1139EE0BBF1040BDFE7BBF1040F33DBD8F8300020
S1139EF010F4E00F0AD0D8F8300040F4E00050F03D
S1139F001000C8F830005FF0FF305DE0D8F824009E
S1139F104005FBD599F80000824619F1010999F82A
S1139F2000005AEA002A19F1010999F800005AEAD6
S1139F30004A19F1010999F800005AEA006A19F176
S1139F400109D8F824004005FBD5C8F820A0BBF1CE
S1139F50040BC8E7BBF1000F24D0D8F8300010F48C
S1139F60E00F0AD0D8F8300040F4E00050F01000C0
S1139F70C8F830005FF0FF3026E05FF0FF30824623
S1139F80BBF1000F08D05FEA0A2A1BF8090050EA67
S1139F900A0ABBF1010BF3E7D8F824004005FBD50E
S1139FA0C8F820A0D8F8300010F4E00F0AD0D8F890
S1139FB0300040F4E00050F01000C8F830005FF0CA
S1139FC0FF3001E0B5EB0B00BDE8FE8F30B585B086
S1139FD0040000254420FBF75EFE0500002D01D19E
S1139FE0042023E060682860A0686860E068A860D6
S1139FF02069E86060692861A0696861012115F140
S113A0002800FCF71FFA03950FF2250002900FF2C7
S113A010E51001900FF2A51000900FF269130FF2F2
S113A02015120FF24901206802F0A6FB05B030BDFD
S113A03038B50400656AE869002814D1286A002844
S113A04011D16868002803D0A96928006A6890477C
S113A05015F12800FCF762FA2800FBF7F5FC002054
S113A0606062002001E040F60A2032BD2DE9F24F83
