S01D000068656C6C6F5F776F726C645F6B36305F746F7765722E73726563AC
S1134000F8FF00208D560000715500007155000026
S11340107155000071550000715500007155000084
S11340207155000071550000715500007155000074
S11340307155000071550000715500007155000064
S11340407155000071550000715500007155000054
S11340507155000071550000715500007155000044
S11340607155000071550000715500007155000034
S11340707155000071550000715500007155000024
S11340807155000071550000715500007155000014
S11340907155000071550000715500007155000004
S11340A071550000715500007155000071550000F4
S11340B071550000715500007155000071550000E4
S11340C071550000715500007155000071550000D4
S11340D071550000715500007155000071550000C4
S11340E071550000715500007155000071550000B4
S11340F071550000715500007155000071550000A4
S11341007155000071550000715500007155000093
S11341107155000071550000715500007155000083
S11341207155000071550000715500007155000073
S11341307155000071550000715500007155000063
S11341407155000071550000715500007155000053
S11341507155000071550000715500007155000043
S11341607155000071550000715500007155000033
S11341707155000071550000715500007155000023
S11341807155000071550000715500007155000013
S113419071550000715500007155000081550000F3
S11341A071550000715500007155000071550000F3
S11341B071550000715500007155000071550000E3
S11341C071550000715500007155000071550000D3
S11341D071550000715500007155000071550000C3
S1134400FFFFFFFFFFFFFFFFFFFFFFFFFEFFFFFFB9
S113441010B50C001168012902D0022904D009E06A
S1134420C0B25168884705E0916808709068401CE4
S11344309060FFE72068401C206010BD30B41C0071
S1134440002300250570401C002A19D009680029A2
S11344500AD1302101705B1C180030BC7047303524
S113446011000570401C5B1C0029F5D091FBF4F28F
S113447004FB1215002DF2D5E94311F13105EFE7E4
S11344800968002908D1302101705B1CE4E7373545
S113449011000570401C5B1C0029DDD0B1FBF4F257
S11344A004FB12150A2DF2D23035F1E7F8B50400F9
S11344B00D0016001F0005E03A0031003020FFF720
S11344C0A7FF641CAC42F7DBF1BDF8B504000D0096
S11344D016001F0005E03A0031002020FFF798FF86
S11344E0641CAC42F7DBF1BD2DE9F04F8DB0050043
S11344F01600002000900C0005E02A0000A9180016
S1134500FFF786FF641C2378002B00F0C181252B64
S113451012D00A2B05D02A0000A91800FFF778FF53
S113452009E02A0000A90D20FFF772FF2A0000A964
S11345300A20FFF76DFFE5E70027002101E057F0AF
S1134540010700291BD1641C207820280BD02328C4
S11345500FD02B2804D02D28F1D0302806D00BE022
S113456057F00207EDE757F00407EAE757F00807AA
S1134570E7E757F01007E4E7641E0121E1E75FF085
S11345800008002104E00A2000FB0830B0F13008E4
S1134590002908D1641C2378180030380928F2D97E
S11345A0641E0121F4E7641C20782E280BD100211D
S11345B0FFE7002908D1641C207830380928F8D98D
S11345C0641E0121F5E7641E641C20784C2806D083
S11345D0682802D06C2801D002E002E001E000E08B
S11345E0641E641C23781800582874D0622800F0D4
S11345F0D080632800F01881642813D0692811D072
S11346006E2800F040816F2800F0B880702800F018
S1134610CB80732800F00F81752800F0D0807828B3
S113462059D06AE730680390361D0A23012203A992
S113463004A8FFF703FF824604A81AEB00090398B5
S1134640002804D52D2002901AF1010A0FE0B807C2
S113465004D52B2002901AF1010A08E0780704D54A
S1134660202002901AF1010A01E0002002905FF07C
S1134670000B380711D50298002804D02A0000A99D
S11346800298FFF7C5FE5FF0010B2B0000AA41461C
S11346905046FFF70BFFC24611E0F8070FD42B007A
S11346A000AA41465046FFF710FF0298002804D0A4
S11346B02A0000A90298FFF7ABFE5FF0010BBBF1E3
S11346C0000F07D10298002804D02A0000A90298FC
S11346D0FFF79EFE9BE030680190361D10230022F8
S11346E001A904A8FFF7AAFE824604A81AEB000950
S11346F05FF0000B380715D5F8060BD52A0000A982
S11347003020FFF785FE2A0000A97820FFF780FEFD
S11347105FF0010B2B0000AA41465046FFF7C6FE8E
S1134720C24619E0F80717D4F80601D51AF1020AAF
S11347302B0000AA41465046FFF7C7FEF8060BD5EA
S11347402A0000A93020FFF763FE2A0000A9782080
S1134750FFF75EFE5FF0010BF8060ED5BBF1000F0C
S11347600BD12A0000A93020FFF752FE2A0000A92D
S11347707820FFF74DFE1AF1020A48E030680190F4
S1134780361D0823002201A904A8FFF757FE82461C
S11347901FE030680190361D0223002201A904A8FD
S11347A0FFF74CFE824614E030680190361D10235A
S11347B0002201A904A8FFF741FE824609E03068FF
S11347C00190361D0A23002201A904A8FFF736FE32
S11347D0824604A81AEB0009380707D52B0000AA63
S11347E041465046FFF762FEC24610E0F8070ED479
S11347F02B0000AA41465046FFF767FE07E02A0057
S113480000A999F80000FFF703FEB9F1010999F82E
S113481000000028F3D1F80705D52B0000AA414673
S11348205046FFF752FE6DE63078361D2A0000A987
S1134830FFF7EEFD66E6D6F80090361DB9F1000FDD
S113484020D0484600F03AF88246F8070ED42B00F0
S113485000AA41465046FFF738FE07E02A0000A9A7
S113486099F80000FFF7D4FD19F1010999F8000047
S11348700028F3D1F80705D52B0000AA414650467D
S1134880FFF723FE3EE63068361D0099016039E6E5
S113489000980DB0BDE8F08F0EB400B584B00121CE
S11348A000910549019105AA010000A8FFF71CFE2B
S11348B004B05DF810FB00005F55000000210028E3
S11348C002D1002006E0491C0200501C1278002A84
S11348D0F9D10800704750F8041B61B150F8042B5B
S11348E0D30744BFA9F101039A18002342F8043BFB
S11348F0091FFAD1EFE7704780B500F0ABF900F07B
S1134900C5F900F011FA79A0FFF7C6FF00F0ACFA80
S113491000F003F800F0A2FBFEE780B59D480068B4
S1134920000910F0070000280BD0022811D00CD386
S1134930042816D011D306281BD016D307281CD060
S11349401FE09548FFF7A8FF1EE09448FFF7A4FF77
S11349501AE09348FFF7A0FF16E09248FFF79CFF88
S113496012E09148FFF798FF0EE09048FFF794FF9C
S11349700AE08F48FFF790FF06E08E48FFF78CFFB0
S113498002E08D48FFF788FF8248006810F00F00AE
S1134990062807D01AD308280CD007D30A2811D028
S11349A00CD313E08548FFF777FF12E08448FFF744
S11349B073FF0EE08348FFF76FFF0AE08248FFF7BA
S11349C06BFF06E08148FFF767FF02E08048FFF7CE
S11349D063FF70480068000B10F00F000A2802D033
S11349E00C2804D007E07B48FFF756FF09E07A481B
S11349F0FFF752FF05E07948FFF74EFF7848FFF7CD
S1134A004BFF00F075F877480068000E10F00F00B7
S1134A10072806D0092808D00B280AD00F280CD064
S1134A2017E07148FFF738FF16E07048FFF734FFCE
S1134A3012E06F48FFF730FF0EE06E480068000296
S1134A4003D56B48FFF728FF02E06848FFF724FF0F
S1134A5002E06948FFF720FF62480068000F002861
S1134A6006D0072808D009280AD00F280CD017E050
S1134A706248FFF711FF16E06148FFF70DFF12E0EF
S1134A806048FFF709FF0EE05A480068000203D5AA
S1134A905A48FFF701FF02E05A48FFF7FDFE02E023
S1134AA05948FFF7F9FE59480068000B10F00F0051
S1134AB0052806D0072808D008280AD009280CD0D1
S1134AC00FE05348FFF7E8FE0EE05248FFF7E4FE1C
S1134AD00AE05148FFF7E0FE06E05048FFF7DCFE2D
S1134AE002E04F48FFF7D8FE01BD00000A0A0000AB
S1134AF080B54C48032101704B48002101704B489C
S1134B00002101704A48002101704A4801210170C6
S1134B10494880210170484800780006FBD5474881
S1134B200178474802784748037847480078C0B27C
S1134B300090DBB2D2B2C9B24448FFF7ADFE3948A7
S1134B4003210170384800210170384800210170A8
S1134B50374804210170374801210170364880210B
S1134B600170354800780006FBD534480178344894
S1134B7002783448037834480078C0B20090DBB23D
S1134B80D2B2C9B23248FFF787FE2B4870210170B8
S1134B9001BD000024800440C85D0000D05D000019
S1134BA0D85D0000E05D0000E85D0000F05D0000FD
S1134BB0A45C0000B45C000024580000C45C000045
S1134BC0D45C0000E45C0000F45C0000045D0000C0
S1134BD0A8570000105A00002C5A00004857000043
S1134BE0045C00004C800440DC5A0000F45A0000CD
S1134BF00C5B00005080044078590000245B0000E6
S1134C003C5B0000545B00009859000000700440B5
S1134C10185C00002C5C0000405C00006C5B000031
S1134C20485A000007000240060002400500024006
S1134C30040002400F000240000002400B0002404A
S1134C400A00024009000240080002404C580000DB
S1134C50B859000080B500F009F80A4800884FF6FA
S1134C60FE7108400749088001BD000072B606487D
S1134C704CF22051018004484DF62811018062B69F
S1134C8070470000002005400E20054080B51C48F8
S1134C901C4988420BD0002006E01949194A52F8F1
S1134CA0202041F82020401CB0F5826FF5D3144831
S1134CB000F0E0F91449154A1548801A03E0137806
S1134CC00B70521C491C0300581E002BF7D11149CC
S1134CD01148401A02E000220A70491C0200501ECA
S1134CE0002AF8D10D490E4A0E48801A03E01378C1
S1134CF00B70521C491C0300581E002BF7D101BD38
S1134D000000FF1F00400000000000000000000041
S1134D10000000001004FF1F2004FF1F2004FF1FD9
S1134D20F85D0000F85D000000B583B03D48006800
S1134D3050F478503B4908603B480078000705D59B
S1134D403948007850F00800374908703748384926
S1134D5001600120019032200090192300220021DB
S1134D60344800F0F5F93449086033480068FF28F6
S1134D7000DCFEE7304800684FF47A7190FBF1F0F4
S1134D802E4908602D48006828490968090F491C04
S1134D90B0FBF1F02A4908602848006823490968F3
S1134DA0C1F30361491CB0FBF1F02649086000F02F
S1134DB014F800F01DF800F026F823484FF4407171
S1134DC0016022484FF4407101605FF4E1321D48F4
S1134DD001681F4800F040FB07BD1E48006850F4FE
S1134DE080501C4908601C484FF4E861016070471A
S1134DF01A48006850F001001849086018484FF438
S1134E00A8610160704780B516484FF48071016055
S1134E101448006850F4102012490860572000F02C
S1134E202CF901BD3880044002D00740448004407E
S1134E300000130180F0FA021004FF1F1404FF1F86
S1134E401804FF1F1C04FF1F20D0044024D004407A
S1134E5000B00E4004800440189004404080044098
S1134E600CB004401090044080B56048007880067F
S1134E7002D55F48FFF710FD5C480078C00602D5F4
S1134E805C48FFF709FD59480078000702D55A48E5
S1134E90FFF702FD55480078400702D55748FFF751
S1134EA0FBFC52480078800702D55548FFF7F4FC14
S1134EB04E480078C00702D55248FFF7EDFC52482F
S1134EC00078000602D55148FFF7E6FC4E4800780A
S1134ED0400602D54E48FFF7DFFC4B4800788006B9
S1134EE002D54C48FFF7D8FC47480078400702D564
S1134EF04948FFF7D1FC44480078800702D5474869
S1134F00FFF7CAFC40480078C00757D54448FFF76C
S1134F10C3FC44480178C9B24348FFF7BDFC434889
S1134F200178C9B24248FFF7B7FC42480178C9B2D8
S1134F304148FFF7B1FC41480178C9B24048FFF746
S1134F40ABFC3A480078C0B210F00700032802D145
S1134F503C48FFF7A1FC35480078C0B210F00700C8
S1134F60042809D133480078C0B210F007000128A2
S1134F7002D13548FFF790FC2C480078C0B210F0FD
S1134F800700042809D12B480078C0B210F00700AC
S1134F90022802D12D48FFF77FFC24480078C0B2D4
S1134FA010F00700042809D122480078C0B210F09C
S1134FB00700032802D12648FFF76EFC1248007848
S1134FC0C0B2002810D109480078C0B200280BD123
S1134FD00D480178C9B21F48FFF75EFC0348017809
S1134FE0C9B21D48FFF758FC01BD00BF01F00740DE
S1134FF09C580000645C0000745C0000845C000049
S1135000D8590000145D000000F00740945C0000D3
S1135010DC5B0000645A00007C5A0000F459000074
S11350201457000000E007401859000001E0074051
S11350303859000002E00740C058000003E0074070
S113504058590000F05B0000945A0000AC5A00006C
S1135050C45A0000D4570000FC57000080B504482F
S1135060FFF71AFC00F076FAC0B200F078FAF9E71C
S1135070545C00002E490860704710B504005C2C95
S113508002DB2C48FFF708FC202094FBF0F00028FA
S113509003D0022833D019D349E0274800680121FE
S11350A0202294FBF2F303FB124399400843224964
S11350B00860224800680121202294FBF2F303FBDC
S11350C01243994008431D49086030E01C480068B9
S11350D00121202294FBF2F303FB1243994008437D
S11350E017490860174800680121202294FBF2F355
S11350F003FB1243994008431249086017E0124821
S113510000680121202294FBF2F303FB124399402F
S113511008430D4908600D4800680121202294FBD2
S1135120F2F303FB1243994008430849086010BD99
S113513008ED00E0DC56000080E200E000E100E061
S113514084E200E004E100E088E200E008E100E03D
S113515070B4DFF8E8422478C4F38104E4B2002C8C
S113516009D1DFF8D8422478E40604D5DFF8CC422C
S11351702478A40601D5012047E1DFF89442A04237
S113518001DB212041E1D2B2002A08D0DFF88442B9
S1135190041BDFF88452AC4201D3222035E1C9B2AA
S11351A0002900D001215BB25C1E192C01D34120DF
S11351B02BE19DF90C4064B2B4F11805202D01D304
S11351C0422022E15BB290FBF3F5DFF85062AD1BA5
S11351D0DFF84C62B54201D3432016E15BB290FB89
S11351E0F3F564B26543DFF83C62AD1BDFF8386267
S11351F0B54201D3452008E1DFF830522D7815F08F
S1135200C305DFF82C62B04208DAC9B2C900D2B2D1
S11352109600314351F010010D4307E0C9B2C900B3
S1135220D2B29600314351F020010D43DFF8FC1156
S11352300D70DFF80012884201DA002118E0DFF86F
S1135240F811884201DA012112E0DFF8F4118842F2
S113525001DA02210CE0DFF8EC11884201DA0321C3
S113526006E0DFF8E411884201DA042100E00521B8
S1135270DFF8D8512D7815F00305C90011F0380175
S113528051F080010D43DFF8C4110D70D2B2002A31
S113529013D0002100E0491C09B244F62062914277
S11352A004DADFF8982112789207F4D5DFF88C112C
S11352B00978890701D42320A7E0002100E0491CD4
S11352C009B2B1F5FA6F04DADFF870211278D20668
S11352D0F5D4DFF868110978C90601D5112094E0E6
S11352E0002100E0491C09B2B1F5FA6F07DADFF8D2
S11352F04C211278C2F38102D2B2022AF2D1DFF831
S11353003C110978C1F38101C9B2022901D01A20E4
S11353107BE0DFF83C11097851F02001DFF83021FF
S11353201170DFF830110D7815F0E005591E11F0F9
S11353301F010D43DFF81C110D70DFF814110D78F7
S113534015F0E005B4F1180111F01F0151F040010E
S11353500D43DFF8FC100D70002100E0491C09B278
S1135360B1F5FA6F04DADFF8D42012789206F5D595
S1135370DFF8C8100978890601D4162045E0002119
S113538000E0491C09B2B1F57A6F04DADFF8AC2009
S113539012785206F5D5DFF8A4100978490601D42D
S11353A0442032E0DFF8AC10097811F01F014A1CE8
S11353B0DFF89C10097811F01F0111F11803DFF8D0
S11353C08C10097811F03F01DFF880402170002132
S11353D000E0491C09B2B1F5FA6F07DADFF85C4066
S11353E02478C4F38104E4B2032CF2D1DFF84C1026
S11353F00978C1F38101C9B2032901D01B2004E05B
S1135400D2B290FBF2F0DBB2584370BC704700009C
S113541081F0FA02C0C62D004181BA0180841E00C9
S113542081841E00006CDC020175190301400640F2
S113543001127A00D1121300A1252600064006406D
S1135440414B4C0081969800012D310100400640EB
S1135450054006400440064030B4324B984206D121
S1135460314B1B6853F480632F4C23602DE02F4B8A
S1135470984206D12C4B1B6853F400632A4C2360DA
S113548023E02B4B984206D1274B1B6853F48053DF
S1135490254C236019E0274B984206D1224B1B6808
S11354A053F40053204C23600FE0234B984206D161
S11354B0224B1B6853F48063204C236005E01F4B90
S11354C01B6853F400631D4C2360C37813F0F3038B
S11354D0C370002383704FF47A7303FB01F3140148
S11354E093FBF4F3047814F0E0049BB21D0A15F066
S11354F01F052C43047043704FF4FA4461431201B6
S113550091FBF2F19BB2B1EB4311827A12F0E00409
S113551011F01F0121438172C17851F00C01C17057
S113552030BC704700A006403480044000B0064000
S113553000C0064000D0064000A00E402880044071
S113554001798906FCD5C079704702791206FCD529
S1135550C171704780B50548FFF7F2FF02BD80B501
S11355600100C9B20148FFF7F0FF01BD00B00E40D1
S113557080B52F480178C9B22E48FFF78DF901BDD7
S113558080B52D48006850F080702B4908602B4886
S1135590FFF782F901BD2DE9F84F04684568866874
S11355A0C768D0F81080D0F81490D0F818A0D0F8BC
S11355B01CB02348FFF770F921002248FFF76CF96B
S11355C029002148FFF768F931002048FFF764F902
S11355D039001F48FFF760F941461E48FFF75CF9A0
S11355E049461D48FFF758F951461C48FFF754F93E
S11355F059461B48FFF750F91A4801681A48FFF743
S11356004BF91A4801681A48FFF746F91948016826
S11356101948FFF741F9194801681948FFF73CF99F
S1135620184801681848FFF737F9BDE8F18F000002
S113563004ED00E07857000010900440E4580000A6
S1135640845B0000205D00002C5D0000385D0000DC
S1135650445D0000505D00005C5D0000685D00007A
S1135660745D000038ED00E0805D000028ED00E08E
S11356708C5D00002CED00E0985D000030ED00E052
S1135680A45D00003CED00E0B05D00004FF00000C0
S11356904FF000014FF000024FF000034FF0000400
S11356A04FF000054FF000064FF000074FF00008E0
S11356B04FF000094FF0000A4FF0000B4FF0000CC0
S11356C062B6FFF719F9FEE71EF0040F0CBFEFF303
S11356D00880EFF30980FFF75EBF00000A455252CD
S11356E02120496E76616C696420495251207661AB
S11356F06C75652070617373656420746F20656ECA
S113570061626C65206972712066756E6374696F7D
S11357106E210A005B6F75745352535D57616B655C
S1135720757020626974207365742066726F6D20D1
S11357306C6F7720706F776572206D6F646520657C
S11357407869740A000000000A5468697320766559
S11357507273696F6E206F6620736F6674776172FF
S11357606520646F65736E2774207265636F676E5E
S1135770697A65200A0000000A2A2A2A2A646566D2
S113578061756C745F69737220656E7465726564AB
S1135790206F6E20766563746F722025642A2A2A2E
S11357A02A2A0D0A0A0000000A556E7265636F67A3
S11357B06E697A6564204B696E65746973207061E3
S11357C0636B61676520636F64652E202020202051
S11357D0200000005B6F75745352535D52434D5F5C
S11357E053525330206973205A45524F2020203D94
S11357F0202523303258200D0A0000005B6F757499
S11358005352535D52434D5F5352533120697320B9
S11358105A45524F2020203D202523303258200D58
S11358200A0000000A556E7265636F676E697A65D7
S113583064204B696E657469732066616D696C7967
S1135840206465766963652E0A000000466C617306
S11358506820706172616D6574657220766572731B
S1135860696F6E2025642E25642E25642E25640A16
S11358700000000010B5074979441831064C7C44F7
S1135880163404E00A68081D511888470146A142ED
S1135890F8D110BD740000008000000053746F70D4
S11358A0204D6F64652041636B6E6F776C65646730
S11358B065204572726F722052657365740A000028
S11358C05B6F75745352535D534D435F564C4C5349
S11358D04354524C2020203D202523303258200DA3
S11358E00A0000000A2A2A2A2A41626F727420627E
S11358F07574746F6E20696E746572727570742A33
S11359002A2A2A0A0A000000CFEFFFFF1000000035
S11359101004FF1F000000005B6F75745352535D49
S1135920534D435F504D50524F542020203D20256D
S113593023303258200D0A005B6F75745352535D47
S1135940534D435F504D4354524C2020203D20255D
S113595023303258200D0A005B6F75745352535D27
S1135960534D435F504D535441542020203D202536
S113597023303258200D0A00455252212120556E01
S1135980646566696E656420502D666C6173682079
S113599073697A650A000000455252212120556E30
S11359A0646566696E656420466C65784E564D2064
S11359B073697A650A000000466C61736820766535
S11359C07273696F6E2049442025642E25642E2548
S11359D0642E25640A000000436F7265204C6F63D7
S11359E06B7570204576656E742052657365740A14
S11359F0000000004C6F772D766F6C746167652032
S1135A004465746563742052657365740A0000000C
S1135A10446576696365207265766973696F6E2083
S1135A20322E322020200A200000000044657669CE
S1135A306365207265766973696F6E20322E342037
S1135A4020200A2000000000204552522121205528
S1135A506E646566696E65642052414D2073697A8F
S1135A60650A0A005761746368646F6728434F507E
S1135A70292052657365740A000000004C6F73732B
S1135A80206F6620436C6F636B2052657365740AE4
S1135A90000000005B6F75745352535D20564C4CEC
S1135AA053312065786974200A0000005B6F7574B7
S1135AB05352535D20564C4C533220657869742000
S1135AC00A0000005B6F75745352535D20564C4CB2
S1135AD053332065786974200A000000313238207D
S1135AE06B4279746573206F6620502D666C617308
S1135AF068090000323536206B4279746573206F73
S1135B006620502D666C61736809000035313220BF
S1135B106B4279746573206F6620502D666C6173D7
S1135B206809000030206B4279746573206F662029
S1135B30466C65784E564D0900000000313238201D
S1135B406B4279746573206F6620466C65784E5697
S1135B504D090000323536206B4279746573206F2D
S1135B606620466C65784E564D0900002031323867
S1135B70206B4279746573206F662052414D0A0A86
S1135B80000000005B48617264206661756C7420DB
S1135B9068616E646C65725D0A00000000F009F8CB
S1135BA0002801D0FFF766FE0020FFF757FA00F047
S1135BB002F80120704700F001B80000074638469B
S1135BC000F002F8FBE7000080B5C046C046024A78
S1135BD011001820ABBEFBE726000200457874656F
S1135BE0726E616C2050696E2052657365740A0090
S1135BF05B6F75745352535D204C4C532065786928
S1135C0074200A00746865207265766973696F6E22
S1135C1020636F64652E0A00203332206B4279744E
S1135C206573206F662052414D0A0A0020363420E5
S1135C306B4279746573206F662052414D0A0A00E5
S1135C40203936206B4279746573206F6620524187
S1135C504D0A0A000A48656C6C6F20576F726C64B9
S1135C6021210A00457A506F72742052657365745D
S1135C700A0000004D444D2D415020526573657457
S1135C800A000000536F6674776172652052657371
S1135C9065740A00506F7765722D6F6E20526573BC
S1135CA065740A000A4B353020616E64204B35322E
S1135CB02D0000000A4B353120616E64204B3533D2
S1135CC02D000000383070696E2020202020202014
S1135CD000000000383170696E2020202020202030
S1135CE00000000031303070696E20202020202018
S1135CF00000000031323170696E20202020202005
S1135D000000000031343470696E202020202020EF
S1135D10000000004A5441472052657365740A002C
S1135D205230203D2025780A000000005231203DE9
S1135D302025780A000000005232203D2025780AF0
S1135D40000000005233203D2025780A00000000A6
S1135D50523132203D2025780A0000004C52203D6B
S1135D602025780A000000005043203D2025780AB1
S1135D7000000000505352203D2025780A00000006
S1135D8042464152203D2025780A000043465352A2
S1135D90203D2025780A000048465352203D202506
S1135DA0780A000044465352203D2025780A00001A
S1135DB041465352203D2025780A0000C046C04683
S1135DC0C046C046FFF7EAFE0A4B31302D00000002
S1135DD00A4B32302D0000000A4B33302D000000F6
S1135DE00A4B34302D0000000A4B36302D000000E1
S10B5DF00A4B37302D000000BE
S9035DBDE2
