S012000048656C6C6F576F726C642E7372656316
S1131000008001209D2200001F180000031C000026
S113101000000000000000000000000000000000CC
S11310200000000000000000000000007F1E00001F
S1131030000000000000000027230000332300000C
S1131040712300007923000081230000892300001C
S1131050B9230000B9230000B9230000B92300001C
S11310609123000099230000A1230000B92300006C
S1131070A9230000B9230000B9230000B92300000C
S1131080B9230000B9230000B9230000B9230000EC
S1131090B9230000B9230000B9230000B9230000DC
S11310A0B9230000B9230000B9230000B9230000CC
S11310B0B9230000B1230000B9230000B9230000C4
S1131400FFFFFFFFFFFFFFFFFFFFFFFFFEFFFFFFE9
S113141000B5C9B2002905D08168802212030A43AD
S1131420826003E081683B4A0A40826000BD00B5E7
S1131430C9B2002905D081688022D2020A438260A1
S113144003E08168344A0A40826000BD30B583B04D
S11314500C001D0031490978002901D0012023E046
S11314602E490A70D2B2022A1DD12C49486068461E
S113147000F0ACFA00942A0069462848406800F05D
S1131480E6F9012125484068FFF7C2FF01212348FE
S11314904068FFF7CCFF22482049886021481F4953
S11314A0C860002000E004203EBD0EB400B51B4916
S11314B00978002902D10020C04304E001AA0100F8
S11314C0194800F090F8009904B0084701B5134892
S11314D00078002802D10020C04307E001226946B9
S11314E00E4840680D4B9B689847012002BD80B5AB
S11314F00A480078002802D10020C04308E00122F5
S1131500694606484068054BDB689847684600789A
S113151002BD0000FFFFF7FFFFFFFBFF0880FF1F76
S1131520411A00005B1A0000CD140000F4B5040059
S11315301F000D00069E06E0E4B22000B0473868A4
S1131540401C38606D1C00988542F5DBF1BDF0B598
S11315501C0000260500002028706D1C002A1CD0E9
S11315600F68002F09D130202870761C300038E035
S113157030300F0028706D1C761C002F30D03800DE
S1131580210000F0DBFA010008006043381A00284B
S1131590EED50200D0433130EBE70F68002F21D1A4
S11315A030202870761C30001BE061220A3A801833
S11315B00F0028706D1C761C002F11D038002100FC
S11315C000F0BFFA010008006043381A0A2801D26B
S11315D03030EDE76A46127D002AE6D04122E5E785
S11315E03000F0BDE8E7F1B590B01400002003909E
S11315F000270020029000206A4610710020049009
S11316000D0006E03000109988470298401C0290B3
S11316106D1C2E78002E00D1FEE0252E06D0300061
S1131620109988470298401C0290F1E7012069460E
S1131630487100200590002005E005990A225143D5
S1131640303E89190591002808D16D1C2E7831008F
S113165030390A29F1D36D1E0120F4E706216D1CEF
S113166028782E2811D10021002003E00A225143BA
S1131670303E8919002809D16D1C2E783200303A89
S11316800A2AF3D36D1E0120F4E76D1E6D1C2E781B
S1131690642E12D0692E10D0662E0ED0462E0CD099
S11316A0782E0AD0582E08D06F2E06D0622E04D081
S11316B0702E02D0752E00D083E0642E01D0692EE6
S11316C00FD12068241D06906846407900900A23B3
S11316D0012206A907A8FFF73AFF070007A8C019C7
S11316E00390582E01D0782E14D1782E02D10020E8
S11316F0694648712068241D04906846407900902A
S11317001023002204A907A8FFF721FF070007A858
S1131710C01903906F2E05D12068241D0490082061
S113172069460871622E08D12068241D04900220A5
S11317306946087107A8C0190390702E08D1206863
S1131740241D049010206946087107A8C01903904D
S1131750752E08D12068241D04900A20694608715A
S113176007A8C01903906F2E05D0622E03D0702EE7
S113177001D0752E0DD168464079009068460379F2
S1131780002204A907A8FFF7E2FE070007A8C01972
S113179003901098009002AB059A39002020FFF7BF
S11317A0C5FE03980078002800D131E7039800783B
S11317B0109988470398401E03900298401C029099
S11317C0EFE7632E08D12068241DC0B21099884722
S11317D00298401C02901BE7732E00D012E7266883
S11317E0241D002E00D113E7300000F001FA070099
S11317F01098009002AB059A39002020FFF796FE5E
S11318003078002800D103E7307810998847761C97
S11318100298401C0290F3E7029811B0F0BDFEE775
S1131820010C694A89180A680123834013430B6039
S1131830704700B5002100E0491C002905D1694A20
S113184004234B43D2588242F6D1080000BDF7B5B9
S113185084B00498FFF7EDFF63490422504308580D
S1131860FFF7DEFF049880686049014004988160B6
S1131870059800680190002002900024042533E0BC
S1131880069805990968694300F05BF90600B6B249
S1131890002E00D1012606982900B6B2714300F04B
S11318A050F905990968471A059801680091069846
S11318B0B6B23100491C694300F043F90099081A93
S11318C0B8420AD2059807680698B6B23100491C96
S11318D0694300F036F93F1A761C0198B84202D3E6
S11318E00197029534006D1C212DC9D30598006819
S11318F0642100F026F903214843019981421CD256
S1131900049800680299091F042903D20100802069
S11319108002084301004948084002000298401E22
S11319200106F820400508401043400B4003A4B2D0
S1131930E104C90C014304980160049800686349F8
S11319400140049801600498806813218843059934
S11319500979002905D0020005980179102008436F
S1131960104304998860049801685948084005990F
S1131970497949038022920111400143049801608E
S1131980544801008020000608430100C0200002E2
S11319900843049949680843049948600498806896
S11319A005998979002903D00100802000030843A8
S11319B00599C979002903D001008020C002084399
S11319C00499886007B0F0BD00700440E121490229
S11319D00160002101710021417100218171002108
S11319E0C1717047C0230000C4230000FFFFF3FF50
S11319F04068704710B50C004168490049080A0066
S1131A0080210906214011430A00334911400A008C
S1131A103049214011430A00304911400A00C021D5
S1131A200902214011434160FFF7E2FF20400028F2
S1131A3001D02B4800E0002010BD0000FFFFFFE0B4
S1131A4000B505E043681B02FCD50B78C360491C54
S1131A5013005A1E002BF5D100BD70B504000D0013
S1131A60160002E0E06828706D1C3000461E002855
S1131A702AD060688002F5D42000FFF7B9FF010383
S1131A8006D5802109032000FFF7B4FF15481CE0A8
S1131A90410306D58021C9022000FFF7ABFF12489D
S1131AA013E0810306D5802189022000FFF7A2FFFD
S1131AB00E480AE0C003DCD5802149022000FFF76C
S1131AC099FFA420C00000E0002070BDFFFFFFDFED
S1131AD0FFDFFFFF00001F40FFFFE0BFFF3FFFFFEE
S1131AE01A0500001D0500001E0500001F0500006A
S1131AF080B5044801680448044A1268904701BD4F
S1131B00000000004880FF1F004005404C80FF1F7C
S1131B10F446002804D4494200F013F840426047D8
S1131B204042002905D45FD000F00BF840424942FE
S1131B306047494200F005F84942604703460B43B9
S1131B40E6D40022030A8B420BD203098B4219D23A
S1131B5043088B422ED2411A00D20146524110460C
S1131B607047FF2209023FD012068B4205D312129E
S1131B7009028B4201D31212090203098B4219D3C1
S1131B8000E0090AC3098B4201D3CB01C01A5241B8
S1131B9083098B4201D38B01C01A524143098B4202
S1131BA001D34B01C01A524103098B4201D30B01EB
S1131BB0C01A5241C3088B4201D3CB00C01A524110
S1131BC083088B4201D38B00C01A524143088B42D5
S1131BD001D34B00C01A5241884200D3401A5241EB
S1131BE0CFD201461046704708B500F009F808BD89
S1131BF0010000E0491C0A78002AFBD1081A70474A
S1131C007047FEE713490968114A0A408004C0215D
S1131C100903014011430F480160704700B50F49A3
S1131C20884201D2002005E02549884201D20120E2
S1131C3000E00220C0B200BD07480068704780B5CC
S1131C4041684A4A1160C078FFF7DCFF01BD00001B
S1131C50FFFFF3FF007004400480FF1F989800000A
S1131C6000B553490978C9B20A00D207D20FC0B2ED
S1131C70824201D0012100E000214D4A1278FE2366
S1131C8013400200D207D20F1A43494B1A70C0B254
S1131C90002807D144480078400703D5414800781C
S1131CA08007FBD5C9B2002906D0434800E000BF35
S1131CB00100481E0029FAD1002000BD00000000E8
S1131CC001127A0070B5374B1B78DBB29B089B0777
S1131CD09B0F344C25782C00E407E40F354D2D7808
S1131CE0EDB26D086D076D0F1600F6B2EDB2AE429F
S1131CF01CD0E4B2012C0FD1012B03D02B4C24783F
S1131D00A40709D5284C2478FE252540264C2570A7
S1131D10244C2478E407FBD4264C2478D025254091
S1131D2052000E2414402C43224A14701E4A127886
S1131D30FE2414400A00D207D20F22431A4C227008
S1131D401A4A1278FC2414400443184A1470012BD4
S1131D5001D0800708D513480078C0B20200D2072A
S1131D60D20FC9B28A42F6D1002070BD448004402B
S1131D7010B504002068FFF751FF0B490978C3220E
S1131D800A400001302101401143207908430649EB
S1131D9008702079002803D02D4800788007FBD5EF
S1131DA010BD0000064006400140064000400640C9
S1131DB00C40064008400640DC050000F8B500254C
S1131DC0244C2478224E3678F6B23700FF06FF0FF3
S1131DD0002F06D001251F4E377820267E401D4F48
S1131DE03E701D4E3678B607B60FC700382038400F
S1131DF03043194E307016480078C0B20600F6061B
S1131E00F60F002EF7D1EDB2002D01D01148047069
S1131E10E006C00EC90101435001602404400C4394
S1131E200C4804700B4800782100C0B2C9B2884243
S1131E30F8D107480078C0B280088007800F0028D6
S1131E40F7D11800002800D098470020F2BD000008
S1131E5006400640034006400040064070B50E00B0
S1131E6014001D00C0B2FFF7FBFE049B2A00D2B28F
S1131E702100C9B23000C0B2FFF7A0FF70BDFEE779
S1131E808020C002374908607047374908607047AE
S1131E9000B5364800E000BF0100481E0029FAD111
S1131EA000BD80B500F023F8FFF7EAFF3248FFF7E2
S1131EB05FFF3248FFF7E9FF31480090314843792A
S1131EC0304882792F4801790020FFF7C7FF2D4859
S1131ED0C2782C4881782B484078FFF7F3FE2A48D3
S1131EE0FFF7ADFE274880692249086001BD00B5AF
S1131EF026490A68110B0907090FC9B2002908D13C
S1131F0023480068224A1268E023DB001343204A76
S1131F101360204A126813001F4A1A4080235B0092
S1131F2013431C4A1360124A126880239B0513430F
S1131F300F4A1360174A1268D201FBD5C9B20029AF
S1131F400ED116490968802252050A4313490A60D2
S1131F50134909680C220A4311490A600C490860B4
S1131F6000BD0000448004400480FF1F3075000061
S1131F70249105400080FF1FF42200000048E8017E
S1131F80911E0000E4220000EC22000024800440A2
S1131F902C91054000900540FFF0FFFF388004407D
S1131FA0C8C2054010B5017C8268D177C168002998
S1131FB005D10023012241680468A04747E08168F5
S1131FC0027C20235A4389182E4A89588268037C4C
S1131FD020246343D2182A4BD25A80231A40D2B207
S1131FE0D209C368C91A4909D2B2002A06D1002904
S1131FF001D0491E02E014214156491E0B00DBB2F8
S1132000112404571BB224B2A3420BD11323C35689
S1132010142404575BB2A34202D11323C3560AE02B
S1132020002308E0C9B21123C356CB1A002B02D5F2
S1132030142404571B194174C17C1C00091BC1746E
S11320400168002903D0D2B241680468A04710BDDA
S113205080B50D480068FFF7A5FF01BD80B50A48AB
S11320604068FFF79FFF01BD80B507488068FFF710
S113207099FF01BD80B50448C068FFF793FF01BD17
S11320801C100000181000002880FF1F0068C00FFB
S1132090C0B2704738B505000C002800FFF7F6FF02
S11320A0002805D0210028000C4A1268904704E05B
S11320B0210028000A4A1268904731BD80B50948BA
S11320C001680948FFF7E6FF01BD80B5054841688E
S11320D00648FFF7DFFF01BD000000002080FF1F5E
S11320E02480FF1F1880FF1F00C0024000D0024060
S11320F0010C144A89180A680123834013430B60B6
S1132100704710B404234B43C3580F4C1C40D2B245
S11321101202E023DB0013402343042251434350C3
S113212010BC704780B50948FFF7E2FF042206217E
S11321300748FFF7E6FF042207210548FFF7E1FF00
S113214001BD000000700440FFF8FFFF0B003810D1
S113215000B0044080B5C278D20602D482789206D8
S113216003D5044A1268904702E0034A1268904774
S113217001BD00004080FF1F4480FF1F80B506485A
S113218001680648FFF7E6FF01BD80B502484168D3
S11321900348FFF7DFFF01BD3880FF1F00600640E2
S11321A0007006400C4909680C4A0A408006C021A8
S11321B009050140114308480160704780B50220B9
S11321C0FFF7F0FFFFF738FD030002229621890193
S11321D00348FFF73BF901BD04800440FFFFFFF310
S11321E00040054070B40121002213E00468001D82
S11321F00C4202D04D466D1E64192260241D1B1F23
S1132200042BFAD225009E0701D52280AD1C0B4079
S113221000D02A700368001D002BE7D170BC704702
S113222030B401210268001D002A0FD00368C318CE
S1132230446808300C4202D04D466D1E64191D6876
S113224025601B1D241D121FECD0F8E730BC70471D
S113225010B5074979441831064C7C44163404E01F
S1132260081D0A68891888470100A142F8D110BDE9
S1132270500000007000000080B5FFF753FFFFF727
S113228010FEFFF79BFF0448FFF70FF9FFF72FF944
S1132290C0B2FFF71BF9F9E74823000072B60448FF
S11322A0044901600448804762B6044800470000BE
S11322B008ED00E000100000592300006523000031
S11322C025FFFFFF4C0000000480FF1F00000000FA
S11322D051FFFFFF04000000F00000000080FF1F1A
S11322E000000000030200000501000000000000DF
S11322F0000001000048E80100000000005A6202EA
S113230000F00BF8002801D0FFF7A2FF002000BF67
S113231000BFFFF7B1FF00F002F80120704780B55D
S113232000F002F801BDFEE70746384600F002F867
S1132330FBE7FEE780B500BF00BF024A110018208A
S1132340ABBEFBE72600020068656C6C6F20776FFC
S1132350726C642E0D0A0000002001490860704769
S11323600081044000BF00BF00BF00BFFFF7C8FFEB
S11323700048004751200000004800475D2000004D
S1132380004800476920000000480047752000000D
S1132390004800477D210000004800478B210000D1
S11323A000480047BD20000000480047F11A000023
S11323B000480047CB20000000480047B923000034
S10F23C0004005401400381000004001EB
S903236574
