S010000054656D706C6574652E73726563D4
S113100048080020C1140000E12B0000E52B00007B
S113101000000000000000000000000000000000CC
S1131020000000000000000000000000E92B0000A8
S11310300000000000000000ED2B0000F12B000078
S1131040F52B0000F52B0000F52B0000F52B00001C
S1131050F52B0000F52B0000F52B0000F52B00000C
S1131060F52B0000F52B0000F52B0000F52B0000FC
S113107017260000FD250000F52B0000E9250000DF
S1131080F52B0000F52B0000F52B0000F52B0000DC
S1131090F52B0000F52B0000AD250000F52B00001A
S11310A0F52B0000F52B0000F52B0000F52B0000BC
S11310B0F52B0000F52B0000F52B0000F52B0000AC
S11310C0FFFFFFFFFFFFFFFFFFFFFFFFFEFFFFFF2D
S11314C000200021002200230024002500260027FC
S11314D0044880470448804700200021034A90477D
S11314E0FEE700004127000005250000C52B000091
S11314F001B582B002A800910299019100784007D9
S1131500400F002803D0022809D004D30BE0A348DD
S1131510914901600AE0A1489049016006E09F48B2
S11315208F49016002E09D4800210160684600F097
S113153001F807BD38B501000024002500200A0089
S1131540121D15002A785207520F002A03D0022ACE
S113155013D009D31AE0924800688022D2000243D3
S11315608F480260012012E08D4A126880231B011B
S113157013438B4A1360794C09E0894A126880232B
S11315805B011343864A1360754C00E00024C0B22B
S1131590012854D183480068834A0240814802608C
S11315A0804800688022D20402437E4802607F485B
S11315B0007840060FD57B4800688022520202431F
S11315C0784802609B4840699B4A1268120F521C7B
S11315D0504340080CE073480068984A0240714840
S11315E0026094484069944A1268120F521C504396
S11315F0934A1278F3231340914A1370914A0023BB
S1131600137009681022514300F0DEFA5249097838
S1131610E0220A4050490A704F490978020092B208
S1131620120AD206D20E0A434B490A708649087040
S1131630834800780C210143814801701DE0E07863
S1131640F3220240E2700020A0707A4880690968A1
S11316501022514300F0B8FA2178E0220A402270A7
S11316602178020092B2120AD206D20E0A432270E4
S11316706070E0780C210143E170002410E02868D8
S113168080094207520F2868400AC006C00E01199B
S1131690C9B22868C0084007400F00F02FFC641C42
S11316A02868800B4007400FE4B2C0B28442E6D3FE
S11316B031BD00B5284A904206D16448007800063E
S11316C0FBD56348017012E0244A904206D1614878
S11316D000780006FBD56048017008E0204A90427B
S11316E005D15E4800780006FBD5B948017000BDFD
S11316F000B5194A904208D15448007880061CD598
S1131700534800780870012018E0144A904208D128
S113171050480078800610D54F48007808700120A2
S11317200CE00F4A904208D14C480078800604D55A
S1131730A74800780870012000E0002000BD10B523
S1131740040005E0217815480068FFF7B2FF641C27
S113175020780028F6D110BD00A0064000B0064055
S113176000C0064038B505000C002800210000F038
S11317702BFA002806D02800210000F025FA2100C9
S1131780FFF7F0FF2800210000F01EFA91480068DE
S1131790415C02480068FFF78CFF31BD40F4FF1F35
S11317A03480044004800440FFFFFFF305400640FA
S11317B00FB438B504AC241D05E02900C9B286482D
S11317C00068FFF776FF049805780498401C04909D
S11317D02800C0B2252807D0EDB2002DEDD101B00C
S11317E0029830BC05B00047049805780498401C62
S11317F00490EDB2642D02D0EDB26C2D03D10A2118
S11318002068FFF7AFFFEDB26F2D02D0EDB2782D57
S113181008D1EDB26F2D01D1082100E0102120681C
S1131820FFF7A0FFEDB2732D02D12068FFF787FF09
S1131830241DC8E71CF4FF1F44800440FFFFFEFF83
S113184003A0064002A0064001A0064004A00640F2
S113185007A0064004B0064007B0064004C0064096
S113186010B5F020C04680B201005C48FFF7A0FF2D
S11318705B480078800602D55A48FFF799FF58481C
S11318800078000702D55848FFF792FF54480078C3
S1131890400702D55548FFF78BFF51480078800771
S11318A002D55348FFF784FF52480078000602D55A
S11318B05148FFF77DFF4F480078400602D54F4856
S11318C0FFF776FF4B480078800602D59D48FFF766
S11318D06FFF48480078400702D59B48FFF768FF30
S11318E044480078000702D59848FFF761FF414853
S11318F00078800702D59648FFF75AFF954800788C
S1131900002806D002280CD007D3042811D00CD309
S113191013E09148FFF74CFF12E09048FFF748FFAF
S11319200EE08F48FFF744FF0AE08E48FFF740FFC0
S113193006E08D48FFF73CFF02E08C48FFF738FFD4
S113194084488088002803D18948FFF731FF04E0E8
S1131950804881888748FFF72BFF7E4880780A21DA
S113196000F01EF90A0014007A4880780A2100F079
S113197017F9010022008048FFF71AFF75488068B4
S11319800100890A7D48FFF713FF7248C06801000F
S1131990890A7B48FFF70CFF6E4800690100890A39
S11319A07848FFF705FF6B4841697748FFF700FF68
S11319B0684881697548FFF7FBFE6648C169744849
S11319C0FFF7F6FE6348016A7248FFF7F1FE10BDA7
S11319D007C0064014F4FF1F40F4FF1FB0290000A5
S11319E001F00740BC280000D42A0000E82A0000C7
S11319F07829000000F00740FC2A0000C8290000F4
S1131A0010B50023644CA04255D189B2002905D0F9
S1131A10022929D015D3032939D04BE0D2B2012AA7
S1131A2007D15E480178802008435C490870C0B241
S1131A3006E05A4800784006400E58490870C0B283
S1131A407FE0D2B2012A07D15448017840200843EC
S1131A5052490870C0B206E050480178BF200840DF
S1131A604E490870C0B26CE0D2B2012A07D14B488B
S1131A7001782020084349490870C0B206E047486D
S1131A800178DF20084045490870C0B259E0D2B25D
S1131A90012A07D141480178102008433F490870C2
S1131AA0C0B206E03D480178EF2008403B49087089
S1131AB0C0B246E045E0030089B2002905D00229FE
S1131AC021D011D303292DD03BE0D2B2012A05D174
S1131AD0D97880200843D870C0B204E0D878400692
S1131AE0400ED870C0B22CE0D2B2012A05D1D97808
S1131AF040200843D870C0B204E0D978BF20084021
S1131B00D870C0B21DE0D2B2012A05D1D978202004
S1131B100843D870C0B204E0D978DF200840D870F8
S1131B20C0B20EE0D2B2012A05D1D9781020084300
S1131B30D870C0B204E0D978EF200840D870C0B2A1
S1131B40FFE710BDE0290000E0280000382900006C
S1131B50582900001CF4FF1FF8290000102A000077
S1131B60102B000094290000042900006C280000B8
S1131B70282A0000B82B0000402A0000242B000073
S1131B80582A0000382B00004C2B0000602B00006A
S1131B90702A0000742B000000A0064003A0064039
S1131BA0CA0F00D0494203105A400DD004B500D3E7
S1131BB0404200F009F8009AD20701D34942124288
S1131BC000D5404204BD0000094210D088420BD326
S1131BD00122002300185B418B4200D35B1A52415F
S1131BE0F8D319001000704701000020704708B5B1
S1131BF0C046C04608BD38B4012100220368001D58
S1131C00002B0BD00468001D0C4202D04D466D1E03
S1131C1064192260241D1B1FF0D0FAE732BC704700
S1131C2000B58A480068000F002806D002280CD0AE
S1131C3007D3042811D00CD313E0AE48002101705F
S1131C4012E0AC48012101700EE0AA4802210170A3
S1131C500AE0A8480321017006E0A64804210170A7
S1131C6002E0A448FF210170784800680007000FD3
S1131C70002817D002281DD018D3042822D01DD341
S1131C80062827D022D308282CD027D30A2831D0DD
S1131C902CD30C2836D031D30E283BD036D30F2882
S1131CA03CD03FE09348102181803EE091481821C8
S1131CB081803AE08F482021818036E08D480021E0
S1131CC0818032E08B48302181802EE08948402198
S1131CD081802AE087485021818026E085480021C0
S1131CE0818022E08348642181801EE081480021B4
S1131CF081801AE07F480021818016E07D48002120
S1131D00818012E07B48002181800EE07948002127
S1131D1081800AE077480021818006E0754800212F
S1131D20818002E073480021818048480068000BEC
S1131D300007000F002803D0022809D004D30BE0C9
S1131D406C480A2181700AE06A480B21817006E020
S1131D5068480C21817002E0664800218170664861
S1131D600068000E0007000F012816D058D303287E
S1131D701DD017D3052823D01ED3072829D024D358
S1131D8009282FD02AD30B2835D030D30D283AD0A8
S1131D9035D30F283FD03AD342E0564880218901F9
S1131DA0816040E053488021C90181603BE0514893
S1131DB080210902816036E04E480021816032E0D2
S1131DC04C488021490281602DE04A48002181600D
S1131DD029E0484880218902816024E045480021A7
S1131DE0816020E043488021C90281601BE04148B2
S1131DF00021816017E03F480021816013E03D48E5
S1131E00002181600FE03B48002181600BE03948EC
S1131E100021816007E037488021C902816002E027
S1131E2034480021816009480068000C0007000F55
S1131E3000280DD0022815D00FD304281CD016D3A7
S1131E40062823D01DD3072825D029E02480044068
S1131E50284880218900016122E026488021C900A8
S1131E6001611DE0234880210901016118E0214836
S1131E7080214901016113E01E488021890101612B
S1131E800EE01C488021C901016109E01948802144
S1131E900902016104E01748802149020161FFE75A
S1131EA014487749096841617548006875490968AB
S1131EB0090F491CFFF788FE0E49886170480068C5
S1131EC070490968090C4907490F491CFFF77CFE52
S1131ED00849086207480021C161694800686949E6
S1131EE00968090C4907490F491CFFF76DFE0149B0
S1131EF0886100BD1CF4FF1F4C80044010B5C0B2C3
S1131F00002807D002284DD028D3042800D191E01E
S1131F106CD3B3E0B648006880239B000343B44805
S1131F200360C9B204204843B24B1858B24B034073
S1131F30C9B204204843AF4C2350C9B204204843DB
S1131F40AC4B1858D2B21202E023DB001340034317
S1131F50C9B204204143A74843508FE0A448006815
S1131F608023DB000343A2480360C9B20420484332
S1131F70A24B1858A04B0340C9B2042048439F4CBD
S1131F802350C9B2042048439C4B1858D2B21202C1
S1131F90E023DB0013400343C9B2042041439748C4
S1131FA043506BE09248006880231B010343904830
S1131FB00360C9B204204843914B18588E4B034028
S1131FC0C9B2042048438E4C2350C9B2042048436C
S1131FD08B4B1858D2B21202E023DB0013400343A8
S1131FE0C9B2042041438648435047E08048006812
S1131FF080235B0103437E480360C9B20420484345
S1132000804B18587C4B0340C9B2042048437D4C94
S11320102350C9B2042048437A4B1858D2B2120252
S1132020E023DB0013400343C9B204204143754855
S1132030435023E06E48006880239B0103436C48AF
S11320400360C9B2042048436F4B18586A4B0340DD
S1132050C9B2042048436C4C2350C9B204204843FD
S1132060694B1858D2B21202E023DB001340034339
S1132070C9B20420414364484350FFE710BD000047
S113208010F4FF1F4480044080B5C0B2002844D13E
S11320905E4A80239B0213605D4A12780623134331
S11320A05B4A13705B4A002313705B4A12789F23C8
S11320B01340594A137089B20A00072A0FD0082A1C
S11320C019D1554A1278A0231343534A13704F4A27
S11320D080235B021360514A514B13600BE04E4A5C
S11320E01278802313434C4A1370484A0023136028
S11320F04A4A4C4B13604C4A802313704B4A0023CA
S113210013704B4A002313704A4A1278D206FBD547
S1132110484A12780C231A42FAD1C0B2052864D175
S113212033480068802292000243314802603748F5
S1132130414A026041480068414A02403F48026007
S1132140404800683E4A02403E48026036488922C0
S113215002703048242202702D489A2202702E48C0
S11321600078C006C00E2C4A10703048032202705A
S113217089B207290CD0082914D12D4800210170F7
S1132180224880214902016024482549016009E070
S11321902748002101701D488021490501601F481E
S11321A02049016023480078C006FBD42148007808
S11321B0C0B20C2101400829F8D11D48402101700A
S11321C01C480078C0B20C2101400829F8D11948F4
S11321D000784006FBD50E481A2101701548007896
S11321E0C0B20C2101400C29F8D1FFF719FD01BD43
S11321F03880044000900440FFF8FFFF00A0044032
S113220000B0044000C0044000D0044044800440B6
S113221000400640014006400340064010F4FF1F02
S1132220006CDC0200366E0100500640044006409B
S11322300540064006400640000001104890044056
S1132240FFF8FFFE4C90044030B500210022836863
S113225019000B006E4C1B1B08D0403B0FD0403BB9
S113226016D0403B1DD0403B24D02CE0694A6A4B39
S11322701B688024A4001C43674B1C6023E0674A4E
S1132280654B1B688024E4001C43634B1C601AE00C
S1132290634A614B1B68802424011C435E4B1C6011
S11322A011E0604A5C4B1B68802464011C435A4B58
S11322B01C6008E05C4A584B1B688024A4011C4342
S11322C0554B1C60FFE7038804245C431359574CA7
S11322D01C40038804255D435451038804245C4353
S11322E01359802464001C43038804255D4354511E
S11322F00379072B02D00379082B23D14B690124DE
S11323000588AC401C434C61038804245C43135986
S11323100224A34304880425654353518378012B85
S113232006D10C6801230588AB4023430B6005E00C
S11323300B6801240588AC40A3430B60017907298D
S11323404CD04BE00379042B05D00379052B02D044
S11323500379062B42D14B6901240588AC40A34381
S11323604B61017904290AD1018804234B43D158D4
S113237002239943038804245C4311512EE001791C
S1132380052914D1018804234B43D15802230B435C
S1132390018804244C431351018804234B43D1582E
S11323A001239943038804245C43115116E0017905
S11323B0062913D1018804234B43D15802230B432C
S11323C0018804244C431351018804234B43D158FE
S11323D001230B43018804244C4313510188042333
S11323E04B43D158124B0B40018804244C431351E6
S11323F0018804234B43D158C3781B04F0242403DD
S11324001C400C43008804214143545030BD00005B
S113241000F00F40009004403880044000A00440C5
S113242000B0044000C0044000D00440FFF8FFFFA7
S1132430FFFFF0FF00B5D2B2002A05D042680123A5
S11324408B401343436004E0826801238B401343B1
S1132450836000BDE0B56846012101806846012122
S1132460817068460021C1706846082101712348C3
S113247002906846FFF7E8FE68461321018068462B
S11324800121817068460021C170684608210171EC
S11324901B4802906846FFF7D7FE68461221018068
S11324A068460121817068460021C1706846082190
S11324B00171134802906846FFF7C6FE07BD80B558
S11324C0C0B2002803D002280FD007D314E00A00BA
S11324D0D2B201210948FFF7ADFF0DE00A00D2B2E4
S11324E013210748FFF7A6FF06E00A00D2B2122123
S11324F00348FFF79FFFFFE701BD0000C0F00F4056
S113250040F00F4010B51E481E4988420ED00020EE
S113251008E0042141431A4A04234343194CE35875
S11325205350401C822149008842F2D31648144972
S113253001601649164A1748801A03E013780B7095
S1132540521C491C0300581E002BF7D11249134892
S1132550401A02E000220A70491C0200501E002AA0
S1132560F8D10F490F4A1048801A03E013780B7012
S1132570521C491C0300581E002BF7D110BD00BF8C
S113258000F0FF1F0010000008ED00E010F4FF1F32
S1132590D82B0000E02B000018F4FF1F45F4FF1FA8
S11325A045F4FF1FD0100000D010000080B50021BA
S11325B0002000F04BF8C0B2012806D11D48FFF7F7
S11325C0F7F80021002000F053F80021012000F06A
S11325D03DF8C0B2012806D11748FFF7E9F80021F9
S11325E0012000F045F801BD80B500220021134808
S11325F000F050F81248FFF7DBF801BD80B56946DA
S11326001048FFF775F8012804D1684601780D4891
S1132610FFF74FF801BD80B569460B48FFF768F82E
S1132620012805D168460178491C0748FFF741F89D
S113263001BD0000882B0000982B000000B003406F
S1132640D02B000000B0064000A0064000B589B2BF
S113265000290BD1C0B2102148430D490818C068A5
S1132660C00701D5012002E0002000E0002000BDE9
S1132670C0B210214143064A5118C96801220A43D5
S1132680C0B21021484302490818C26070470000D4
S11326900071034000B5002392B2002A05D1C9B2EB
S11326A00422514340180369FFE700BD80B51C486C
S11326B00068042101431A480160FFF7B1FA194880
S11326C040691949FFF780FA1849087017480078DB
S11326D0FA21890048431649086001BD00B500216C
S11326E019E0144A124B1B681360134A0023136049
S11326F00B4A126801231343094A1360084A1268FB
S11327000E4B1340012BF9D0054A126801239A435A
S1132710034B1A60491C89B28142E2D300BD000018
S113272010E000E01CF4FF1F40420F0044F4FF1FC0
S113273018F4FF1F14E000E018E000E001000100BD
S113274000B514480021016013488021890201600A
S113275012480621017012480021017011480078C6
S11327608006800E202101430E4801700E4880210E
S113277001700E48002101700D48002101700D48C0
S11327800078C006FBD50B4800780C210842FAD12A
S113279000BD000000810440448004400040064025
S11327A001400640034006400050064004400640F5
S11327B0054006400640064080B5FFF74BFE002169
S11327C00020FFF77CFEFA20C000FFF787FF0121FD
S11327D00020FFF774FEFA20C000FFF77FFF0021FE
S11327E00120FFF76CFEFA20C000FFF777FF0121FC
S11327F00120FFF764FEFA20C000FFF76FFF0021FD
S11328000220FFF75CFEFA20C000FFF767FF0121FA
S11328100220FFF754FEFA20C000FFF75FFF01BD5E
S11328200121C006C00E81400D480160704780B58B
S113283008210520FFF728FCFFF738FFE1214902B2
S11328400848FEF755FEFFF70BF80122022106485F
S1132850FFF7D6F80C20FFF7E3FFFFF7ADFFFCE727
S113286000E100E08082000000A006400A556E727C
S113287065636F676E697A6564204B696E65746918
S1132880732066616D696C79206465766963652E71
S11328900A00000010B5074979441831064C7C44FD
S11328A0163404E0081D0A68891888470100A1420B
S11328B0F8D110BD740000008000000053746F70E4
S11328C0204D6F64652041636B6E6F776C65646740
S11328D065204572726F722052657365740D0A002B
S11328E00A0D4C6F7373206F662045787465726EA1
S11328F0616C20436C6F636B2052657365740D0AC1
S1132900000000004B4C34782046616D696C7928D6
S113291055534220616E64207365676D656E742043
S11329204C4344290D0A0000CFF2FFFF30000000A1
S113293018F4FF1F000000000A0D4C6F7373206F22
S113294066204C6F636B20696E20504C4C2052659E
S11329507365740D0A0000000A0D4C6F772D766FB5
S11329606C74616765204465746563742052657393
S113297065740D0A000000000A0D436F7265204C57
S11329806F636B7570204576656E74205265736550
S1132990740D0A004B4C33782046616D696C7928BC
S11329A05365676D656E74204C4344290D0A00001D
S11329B043485F4B4C2046575F56657273696F6E90
S11329C03A25640D0A0000000A0D45787465726E9C
S11329D0616C2050696E2052657365740D0A0000A5
S11329E00A0D5761746368646F6728434F50292048
S11329F052657365740D0A004B4C30782046616D46
S1132A00696C79286C6F7720656E64290D0A000063
S1132A104B4C31782046616D696C79286261736929
S1132A2063290D0A00000000556E6964656E7469BF
S1132A30666965642050696E20436E740D0A000057
S1132A4053696C69636F6E52657649443A25642E06
S1132A5025640D0A00000000466C65784E564D2032
S1132A6053697A653A2025644B420D0A0000000040
S1132A70466C6578427573436C6F636B3A202564CA
S1132A80487A0D0A000000000120C046002801D049
S1132A90FFF700FF0020FFF7CAFE00F000F880B542
S1132AA000F002F801BD00000746384600F002F8C5
S1132AB0FBE7000001491820ABBEFBE7260002003B
S1132AC03031323334353637383941424344454660
S1132AD0000000000A0D4D444D2D415020526573F5
S1132AE065740D0A000000000A0D536F6674776167
S1132AF072652052657365740D0A00000A0D506FEB
S1132B007765722D6F6E2052657365740D0A00002F
S1132B104B4C32782046616D696C792855534229B3
S1132B200D0A000050466C6173682053697A653A57
S1132B302025644B420D0A0052414D2053697A65A9
S1132B40203A25644B420D0A00000000436F726571
S1132B50436C6F636B3A202564487A0D0A000000C9
S1132B60427573436C6F636B3A202564487A0D0A8F
S1132B7000000000466C617368436C6F636B3A201D
S1132B802564487A0D0A0000504954305F456E743C
S1132B9065720D0A00000000504954315F456E749F
S1132BA065720D0A00000000014880470148004793
S1132BB041270000C52B000050696E436E743A250E
S1132BC0640D0A00C046C046C046C046FFF75CFF1D
S1132BD02121210D0A00000000008002C02A00000B
S1132BE0FEE70000FEE70000FEE70000FEE700004D
S10B2BF0FEE70000FEE700000F
S9032BC50C
