S00F000070726F6A6563742E737265631E
S1131000F82F00208D240000F3230000F1230000BA
S1131010EF230000EF230000EF230000EF23000084
S1131020EF230000EF230000EF230000F52300006E
S1131030EF230000EF230000F7230000A5240000A5
S113104015200000392000005D20000081200000F0
S1131050911E0000DD1E0000F9220000651800004A
S1131060C518000025190000851900003122000070
S113107045230000C1240000C52000008D2300008A
S113108099220000C51B000031240000B1160000A5
S113109081170000551F00007D1F0000A51F0000E0
S11310A0CD1F000011140000111A00009B23000042
S11310B0A9230000C324000071240000512400006F
S1131400FFFFFFFFFFFFFFFFFFFFFFFFFEF3FFFFF5
S1131410F0B583B08F4CE78A608E0190A08A00906B
S11314206B460225022101E08020A074608A0842F4
S1131430FAD0608A084208D00020A0744020A0742A
S1131440C020A0748020A074F3E7608AC007FCD495
S11314502088618AC907F8D461886A461181618A43
S1131460C907F2D4A188628AD207EED4E2885A81ED
S1131470628AD207E9D4784E0204121684231B012F
S1131480D218F2800007000F70711F206A4612897B
S11314900240F2706A4612895205520F32710A0AEA
S11314A01040B0703F20014071706946498908407E
S11314B030700120074231D0FF21891C019A0A4073
S11314C08A420AD1307201980007000F491E014375
S11314D0618631000120F26890476048019901401B
S11314E081420AD1357201980007000F610D014352
S11314F0618631000220F268904759480199014001
S113150081420BD10420307201980007000F210D95
S11315100143618631000420F2689047780708D5BA
S11315200098400705D50420A08231001020F268FD
S11315309047380708D50098000705D50820A082F1
S113154031002020F2689047F80608D50098C006BC
S113155005D51020A08231004020F2689047B806DB
S113156008D50098800605D52020A082310080206F
S1131570F2689047780608D50098400605D54020C3
S1131580A0823100C030F2689047380608D5009830
S1131590000605D58020A08231008000F2689047C3
S11315A0F80508D50098C00505D5A00DA082310026
S11315B08000F2689047B80508D50098800505D5E5
S11315C0600DA08231008000F2689047780508D54C
S11315D00098400505D5200DA08231008000F268F6
S11315E09047380508D50098000505D5E00CA08281
S11315F031008000F2689047F80408D50098C004D0
S113160005D5E802A08231008000F2689047B80452
S113161008D50098800405D52803A08231008000F5
S1131620F2689047780408D50098400405D568030B
S1131630A08231008000F2689047380408D50098F1
S1131640000405D5A803A08231008000F268904709
S113165003B0F0BD0000054030F0FF1F020200009F
S11316600404000007B47B48C178F3220A40C27026
S113167069460978017069464978417069468978F4
S11316808170694609794171694649798171694670
S1131690897901726946C97941726946097A817208
S11316A06946497AC1726946C978C17003B0704706
S11316B0F0B581B06A4F386840052BD5644C607929
S11316C022780240402002402C4E05D0607960719F
S11316D008210120336898472079E1780140E0250A
S11316E00D40A80604D52A0002210120336898473A
S11316F0C0210D4204D02A000121012033689847FB
S11317002079A17901400A07120F03D00421012096
S113171033689847386800052ED54E4C6079227896
S113172002404020024006D0607960710821022006
S1131730124B1B6898472079E1780140E0250D4061
S1131740A80605D52A00022102200C4B1B689847E5
S1131750C0210D4205D02A0001210220074B1B683D
S113176098472079A17901400A07120F04D0042177
S11317700220024B1B68984701B0F0BD84F0FF1FA4
S1131780F0B581B0364F3868C0042BD5324C60793F
S113179022780240402002402C4E05D060796071CE
S11317A008210420336898472079E1780140E02536
S11317B00D40A80604D52A00022104203368984766
S11317C0C0210D4204D02A00012104203368984727
S11317D02079A17901400A07120F03D004210420C3
S11317E033689847386880042ED51C4C6079227879
S11317F002404020024006D0607960710821082030
S1131800124B1B6898472079E1780140E0250D4090
S1131810A80605D52A00022108200C4B1B6898470E
S1131820C0210D4205D02A0001210820074B1B6866
S113183098472079A17901400A07120F04D00421A6
S11318400820024B1B68984701B0F0BD88F0FF1FC9
S113185000A0064000B0064000C0064000D006408C
S113186034F0034010B55F4C208840040AD520882A
S1131870000407D55C485D49088000210220104A15
S113188012689047208840050AD52088000507D5AE
S113189057485649088000210420094A1268904795
S11318A02088C0040AD52088800407D551484F49B0
S11318B0088000210120024A1268904710BD0000F0
S11318C074F0FF1F10B54C4C208840040AD52088C2
S11318D0000407D544484949088000210220104AE1
S11318E012689047208840050AD52088000507D54E
S11318F03F484249088000210420094A1268904761
S11319002088C0040AD52088800407D539483B497B
S1131910088000210120024A1268904710BD00008F
S113192078F0FF1F10B5364C208840040AD5208873
S1131930000407D52C483349088000210220104AAE
S113194012689047208840050AD52088000507D5ED
S113195027482C49088000210420094A126890472E
S11319602088C0040AD52088800407D52148254949
S1131970088000210120024A1268904710BD00002F
S11319807CF0FF1F10B5204C208840040AD5208825
S1131990000407D514481D49088000210220104A7C
S11319A012689047208840050AD52088000507D58D
S11319B00F481649088000210420094A12689047FC
S11319C02088C0040AD52088800407D509480F4917
S11319D0088000210120024A1268904710BD0000CF
S11319E080F0FF1F0E700540FF7F00000E7005445D
S11319F0FFF70000FFDF00000E8005400E80054465
S1131A000E9005400E9005440EA005400EA005441E
S1131A10F0B581B000275648006800064FD5554EF2
S1131A200220717801424AD040253178294246D0BB
S1131A3010247178214200D001277178EF220A40E6
S1131A40104370703078204207D03078800604D577
S1131A5001210120454A126890473078204207D17D
S1131A603078800604D502210120404A126890474C
S1131A70707828420AD03D4802687078400702D541
S1131A80202101201AE01021012017E0002F16D197
S1131A9020253078284207D13078204204D0042110
S1131AA00120324A126890473078284207D13078B2
S1131AB0204204D1082101202C4A126890472C4866
S1131AC00068C0054FD52C4E0220717801424AD0DF
S1131AD040253178294246D010247178214200D023
S1131AE001277178EF220A40104370703078204249
S1131AF007D03078800604D5012102201B4A1268E1
S1131B0090473078204207D13078800604D50221EE
S1131B100220164A12689047707828420AD0134867
S1131B2002687078400702D5202102201AE01021B3
S1131B30022017E0002F16D120253078284207D143
S1131B403078204204D004210220084A12689047C9
S1131B503078284207D13078204204D1082102206D
S1131B60024A1268904701B0F0BD00002CF0FF1F3C
S1131B7034F003400270064002800640D0B40023D3
S1131B804E4C01269E40D7B2374200D020605B1CE9
S1131B90241D082BF5DBD2B249480260D0BC704743
S1131BA0D0B40023494C01269E40D7B2374200D01E
S1131BB020605B1C241D082BF5DBD2B24448026074
S1131BC0D0BC704730B581B0424C434D28684006C4
S1131BD008D535480168C9B20029016002D0012046
S1131BE0226890472868000608D530480168C9B2C1
S1131BF00029016002D00220226890472868C005AD
S1131C0008D52B480168C9B20029016002D003201D
S1131C10226890472868800508D526480168C9B21B
S1131C200029016002D004202268904728684005FA
S1131C3008D521480168C9B20029016002D00520F5
S1131C40226890472868000508D51D480168C9B274
S1131C500029016002D00620226890472868C00449
S1131C6008D518480168C9B20029016002D00720CC
S1131C70226890472868800408D513480168C9B2CF
S1131C800029016002D00820226890472868400497
S1131C9008D50F480168C9B20029016002D00920A3
S1131CA02268904701B030BDA0600440A070044099
S1131CB0A0800440A0900440A0A0044000B00440D0
S1131CC0A0B00440A0C00440A0D0044000E0044000
S1131CD0A0E0044028F0FF1F38F0034030B581B085
S1131CE02148002505604560204801210160204904
S1131CF0016320494163204981630321C163802139
S1131D00090501648564856640241C4804608022BA
S1131D101EA003C8FFF732FF194805601948056083
S1131D201CA003C800F05AF8032200BF1BA003C87C
S1131D30FFF736FF1BA007C8FFF794FC1CA112484D
S1131D4004E003782342FCD0C270491C0A78002ABC
S1131D50F7D101788906FCD5C178402302781A426C
S1131D60FCD0C170F5E7000000E0034004F003403C
S1131D70F2BD6C78C87FAB071F6A11D004F0935290
S1131D8044F0835D44F01B5E04B006400003000091
S1131D90000000000480000802008000000200002F
S1131DA0000000000082000C00000000070000009A
S1131DB00A0D436861726163746572732077696C9C
S1131DC06C206265206563686F6564206F6E2074A3
S1131DD068652073637265656E3A0A0033B42B48F4
S1131DE06946097901726946897941736946497975
S1131DF00173694649784170042142780A4208D047
S1131E00837901225B0813404478A408224093425A
S1131E10F6D16A4612789206920E6B461B780B42F4
S1131E2001D0402100E08021114301708279032117
S1131E3092080A4003789B099A42F7D16A4692783D
S1131E40C378DB06DB0E1343C3706023C4781C40E5
S1131E5060251540AC42F9D16A46D27842716A468F
S1131E6012780270827992080A4003789B099A4298
S1131E70F8D10178890706D5817901221140437888
S1131E801A409142F8D102B030BC7047004006407D
S1131E9030B581B02D4C2578280604D502210120C7
S1131EA02B4A12689047A80604D501210120284A2C
S1131EB0126890474020054205D02070042101207B
S1131EC0234A12689047E80606D5E078E0700821B6
S1131ED001201F4A1268904701B030BD70B51A4CFA
S1131EE02578184E280603D502210220326890472F
S1131EF0A80603D5012102203268904740200542FC
S1131F0004D0207004210220326890470420054246
S1131F1006D0E17A014203D02021022032689047A2
S1131F20280706D5E07A800703D5102102203268FD
S1131F309047E80605D5E078E07008210220326871
S1131F40904770BD5CF0FF1F0060074000500740E1
S1131F5054F0FF1F30B581B02A4CA569002D04D57B
S1131F6021680120234A12689047E80104D52168BA
S1131F700220204A1268904701B030BD30B581B0CC
S1131F80214C6569680004D5216801201A4A126849
S1131F909047280204D521680220174A1268904706
S1131FA001B030BD30B581B0184C2569A80004D506
S1131FB021680120114A12689047680204D52168FB
S1131FC002200E4A1268904701B030BD30B581B08E
S1131FD00F4CE568E80004D521680120084A12681E
S1131FE09047A80204D521680220054A1268904748
S1131FF001B030BD04F0FF1F08F0FF1F0CF0FF1FFD
S113200010F0FF1F44000340480003404C0003400D
S11320105000034010B5274804680168016060005F
S113202003D501201F4909688847E00103D5022030
S11320301C490968884710BD10B51F480468016829
S11320400160600003D50120174909688847E00151
S113205003D5022014490968884710BD10B51748F4
S1132060046801680160600003D501200F49096814
S11320708847E00103D502200C490968884710BD50
S113208010B50F48046801680160600003D50120A1
S1132090074909688847E00103D502200449096813
S11320A0884710BD18F0FF1F1CF0FF1F20F0FF1F12
S11320B024F0FF1F0881004018810040288100405F
S11320C03881004030B581B0224C206840031CD5D3
S11320D0214D287800070AD52878800707D5FB20EA
S11320E01E49087001210120194A12689047287876
S11320F0C0060AD52878400707D5FD20174908707F
S113210002210120124A12689047206800031CD55E
S1132110114D287A00070AD5287A800707D5FB20B5
S11321200E49087201210220094A12689047287A50
S1132130C0060AD5287A400707D5FD20074908724A
S113214002210220024A1268904701B030BD00000B
S113215014F0FF1F34F0034003200740032007441A
S113216000B581B01048007800070ED517A00068AC
S11321700090684600780D49087040200C490870AA
S113218004200C490A780242FCD10B480B49018017
S11321900B4901800B480C49088000F019F8FFF73F
S11321A09DFD01B000BD00000D04000000E00740EB
S11321B001E08F5202D007400E30054020C50000D8
S11321C028D90000FEFF0000003005442200000072
S11321D00F481049104A521A05D00B780370491C55
S11321E0401C521EF9D10D480D49091A04D0002291
S11321F00270401C491EFAD10A480B490B4A521A74
S113220005D00B780370491C401C521EF9D170474D
S113221000000000000000000000000000F0FF1FAC
S113222090F0FF1F90F0FF1FC0100000C0100000CE
S113223030B581B0154C206880040FD5144D286842
S1132240012803D1286010490968884728690128B2
S113225004D1286102200C49096888472068400499
S113226010D50C4C2068012804D1206004200649B4
S1132270096888472069012804D12061082002499F
S11322800968884701B030BD48F0FF1F3CF00340A7
S11322900CD102400CE1024030B581B08024154DD0
S11322A02868204005D0A96909B20120104A1268A3
S11322B090476868204005D0E96909B202200C4AB9
S11322C012689047A868204005D0296A09B2042002
S11322D0074A12689047E868044005D0696A09B261
S11322E00820034A1268904701B030BD0000000086
S11322F000F0FF1F00B0024030B581B080240F4DC4
S11323002878204209D02878800606D540200C4938
S1132310087001200849096888476878204209D074
S11323206878800606D54020054948700220024995
S11323300968884701B030BD4CF0FF1F00D007404A
S113234000D00748F0B581B00F4D2979EA78AB7811
S11323506C782878FF262E706E70EF78EE702F79E7
S11323602E7180252940C9051540AA050A43190480
S1132370114322020A43104302490968884701B005
S1132380F0BD000040F0FF1F05C0074000B581B05C
S113239009480068804701B000BD00B581B0074816
S11323A00068804701B000BD00B581B004480068F2
S11323B0804701B000BD000064F0FF1F68F0FF1FFC
S11323C06CF0FF1F30B4012100220368001D002BB4
S11323D00BD00468001D0C4202D04D466D1E6419DA
S11323E02260241D1B1FF0D0FAE730BC7047FEE7C3
S11323F0FEE7FEE7FEE7FEE710B50749794418312A
S1132400064C7C44163404E0081D0A688918884781
S11324100100A142F8D110BD080000001400000022
S1132420A5FFFFFF9000000000F0FF1F0000000068
S113243000B581B00820054908600348006880475A
S113244001B000BD0000000050F0FF1F00900248E2
S113245000B581B010200549088003480068804712
S113246001B000BD000000008CF0FF1F22500548A1
S113247000B581B0802004490860024800688047A4
S113248001B000BD44F0FF1F00C003484040494074
S113249052405B4064406D4076407F4072B6FFF727
S11324A05FFEFEE700B581B002480068804701B0D6
S11324B000BD000070F0FF1F06380238FDD57047DC
S10724C0FEE7FEE74A
S903248D4B
