S0110000554152545F496E69742E73726563E4
S1134000F83F002011440000A94D0000A94D000014
S1134010A94D0000A94D0000A94D0000A94D0000C4
S1134020A94D0000A94D0000A94D0000A94D0000B4
S1134030A94D0000A94D0000A94D0000A94D0000A4
S1134040A94D0000A94D0000A94D0000A94D000094
S1134400FFFFFFFFFFFFFFFFFFFFFFFFFEFFFFFFB9
S11344104FF000004FF000014FF000024FF0000396
S11344204FF000044FF000054FF000064FF0000776
S11344304FF000084FF000094FF0000A4FF0000B56
S11344404FF0000C62B600F0BBFCFEE770B5040050
S11344500D0016003068012802D0022805D00AE0B9
S11344602000C0B27168884705E0B0680470B06885
S1134470401CB060FFE72868401C286070BD2DE92F
S1134480F04704005FF0000A5046A1465FF0000ABE
S113449089F800A019F10109002A1FD0D1F800A061
S11344A05546002D05D15FF0300A89F800A0401C64
S11344B038E0002D36D095FBF3FA564603FB165A26
S11344C05746002F02D5FF43313700E0303735001F
S11344D089F8007019F10109401CEAE7D1F800A03D
S11344E0D446BCF1000F05D15FF0300A89F800A072
S11344F0401C17E0BCF1000F14D0BCFBF3FAD64605
S113450003FB1ECAD046B8F10A0F02D218F13008D4
S113451001E018F13708F44689F8008019F101091F
S1134520401CE7E7BDE8F0872DE9F04104000D00E9
S113453016001F00A046A84507DA3A0031003020D3
S1134540FFF784FF18F10108F5E7BDE8F0812DE9D4
S1134550F04104000D0016001F00A046A84507DA2C
S11345603A0031002020FFF771FF18F10108F5E748
S1134570BDE8F0812DE9F24F92B00400150000204F
S11345800090129883469BF800000190019800283F
S113459000F0F5810198252813D001980A2805D048
S11345A0220000A90198FFF751FF09E0220000A9A9
S11345B00D20FFF74BFF220000A90A20FFF746FF5A
S11345C0DAE100208146002004900498002822D1DA
S11345D01BF1010B9BF8000020280ED0232812D0D9
S11345E02B2807D02D2802D0302809D00EE059F00E
S11345F00109EAE759F00209E7E759F00409E4E799
S113460059F00809E1E759F01009DEE7BBF1010BA5
S113461001200490D9E700208246002004900498E9
S1134620002814D11BF1010B9BF8000001900198A4
S11346303038092806D80A20019900FB0A10B0F185
S1134640300AECE7BBF1010B01200490E7E71BF112
S1134650010B9BF800002E2811D10020049004982F
S113466000280ED11BF1010B9BF8000030380928FB
S113467000D8F4E7BBF1010B01200490EFE7BBF194
S1134680010B1BF1010B9BF800004C2806D0682895
S113469002D06C2801D002E003E002E001E0BBF1AB
S11346A0010B1BF1010B9BF80000019001985828A5
S11346B075D0622800F0D580632800F01D8164283D
S11346C013D0692811D06E2800F04A816F2800F0B9
S11346D0BD80702800F0D080732800F01781752801
S11346E000F0D58078285AD041E128682D1D069025
S11346F00A23012206A909A8FFF7C1FE070009A899
S1134700381806000698002803D52D2003907F1C36
S11347100FE05FEA897003D52B2003907F1C08E02B
S11347205FEA497003D5202003907F1C01E000203C
S11347300390002005905FEA097011D503980028C2
S113474004D0220000A90398FFF780FE0120059001
S1134750230000AA51463800FFF7E6FE574612E050
S11347605FEAC9700FD4230000AA51463800FFF74E
S1134770EEFE0398002804D0220000A90398FFF756
S113478065FE012005900598002807D103980028AC
S113479004D0220000A90398FFF758FE98E0286887
S11347A02D1D02901023002202A909A8FFF767FE1D
S11347B0070009A838180600002005905FEA097070
S11347C016D55FEAC9600BD5220000A93020FFF797
S11347D03DFE220000A97820FFF738FE0120059055
S11347E0230000AA51463800FFF79EFE57461BE0FF
S11347F05FEAC97018D45FEAC96000D5BF1C230002
S113480000AA51463800FFF7A2FE5FEAC9600BD543
S1134810220000A93020FFF719FE220000A9782009
S1134820FFF714FE012005905FEAC9600DD50598D5
S113483000280AD1220000A93020FFF707FE220039
S113484000A97820FFF702FEBF1C41E028682D1D57
S113485002900823002202A909A8FFF710FE07000E
S11348601FE028682D1D02900223002202A909A836
S1134870FFF705FE070014E028682D1D02901023A1
S1134880002202A909A8FFF7FAFD070009E0286839
S11348902D1D02900A23002202A909A8FFF7EFFDAB
S11348A0070009A8381806005FEA097007D5230035
S11348B000AA51463800FFF737FE574608E05FEA82
S11348C0C97005D4230000AA51463800FFF73FFE03
S11348D03078002806D0220000A93078FFF7B6FD12
S11348E0761EF5E75FEAC97005D5230000AA514694
S11348F03800FFF72CFE3FE028682D1DC0B207905A
S1134900220000A90798FFF7A1FD35E028682D1DB6
S11349108046B8F1000F22D0404600F049F8070065
S11349205FEAC97005D4230000AA51463800FFF796
S11349300EFE98F80000002808D0220000A998F87C
S11349400000FFF783FD18F10108F2E75FEAC97080
S113495005D5230000AA51463800FFF7F8FD0BE007
S113496028682D1D089000980899086004E022002A
S113497000A90198FFF76AFD1BF1010B03E60098FB
S113498013B0BDE8F08F0EB47EB504000120009092
S11349900648019007A805002A00210000A8FFF797
S11349A0E9FD060030007EBC5DF810FBED4C000014
S11349B001000A000023002A01D1002007E01000B2
S11349C0421C0078002801D05B1CF8E718007047EF
S11349D080B500F005F800BF00BF00BF00BF01BDF7
S11349E02F48304908603048006850F400702E4960
S11349F008602E480078000705D52C48007850F050
S1134A0008002A4908703448264908602848006884
S1134A1050F440202649086026480068264908408A
S1134A202449086025480068234908402349086050
S1134A302420234908708020224908709A202249A2
S1134A40087000202149087001202149087021487C
S1134A5000788007FBD51F480078C006FBD41D48AA
S1134A600078C0B210F00C000828F8D1482018498A
S1134A70087018480078C0B210F00C000828F8D16B
S1134A80144800784006FBD51A200F4908701148D5
S1134A900078C0B210F00C000C28F8D17047000068
S1134AA000000301448004403880044002D00740E1
S1134AB00070044048900440FFF8FFFE4C9004400E
S1134AC001400640005006400040064004400640B5
S1134AD0054006400640064000000F01F8B5214895
S1134AE0214988420CD000200400B4F5826F07D21B
S1134AF01D4850F824001B4941F82400641CF4E7C5
S1134B00184800F043F8194A19491A48431A1C0076
S1134B1023005C1E002B04D00B781370491C521C1C
S1134B20F6E7154D154B5E1B34002600741E002E4F
S1134B3003D000262E706D1CF7E7114E114FDFF8DD
S1134B4048C0BCEB070E7446A646BEF10104BEF194
S1134B50000F06D097F800E086F800E07F1C761C72
S1134B60F2E7F1BD00C0FF1F00400000000000009C
S1134B700000000000000000000000000000000031
S1134B8010C4FF1F104400001044000001490860D5
S1134B907047000008ED00E0F0B4244EB04206D1A6
S1134BA0234E366856F48066214F3E6008E0214E5D
S1134BB0B04205D11E4E366856F400661C4F3E6066
S1134BC0C67816F0F306C670002686704FF47A761F
S1134BD006FB01F6170196FBF7F63300067816F08C
S1134BE0E0063500C3F304262E43067043704FF4E9
S1134BF0FA4606FB01F6170196FBF7F69BB2B6EBF5
S1134C0043163400867A16F0E006350014F01F06C9
S1134C102E438672C67856F00C06C670F0BC7047F8
S1134C2002791206FCD5C1717047000000A006404D
S1134C303480044000B0064080B500F035F84FF4ED
S1134C404070164908604FF44070154908604FF4ED
S1134C5016524BF680311348FFF79EFF532000F0A5
S1134C6045F8432000F042F8492000F03FF82020A6
S1134C7000F03CF8442000F039F8452000F036F804
S1134C804D2000F033F84F2000F030F80A2000F0F7
S1134C902DF800BF00BF00BF00BFFAE700D00440FA
S1134CA004D0044000B006400F48006850F400707F
S1134CB00D4908600C48006850F480600A49086097
S1134CC00948006850F40060074908600648006815
S1134CD050F48050044908600348006850F40050C0
S1134CE001490860704700003880044010B5040092
S1134CF02100C9B20148FFF793FF10BD00B0064080
S1134D0080B500F009F8094800884FF6FE710840A4
S1134D100649088001BD000072B64CF220500449D7
S1134D2008804DF62810024908807047002005408D
S1134D300E2005400A2A2A2A2A64656661756C7465
S1134D405F69737220656E7465726564206F6E208E
S1134D50766563746F722025642A2A2A2A2A0D0A2A
S1134D600A00000000F00BF8002801D0C046C0463D
S1134D700020C046C046FFF75FFF00F002F80120A4
S1134D80704700F001B800000746384600F002F80A
S1134D90FBE7000080B5C046C046024A1100182057
S1134DA0ABBEFBE72600020080B503480178C9B218
S1134DB00248FFF7E8FD01BD04ED00E0344D0000BA
S1134DC080B5FFF79DFFFFF789FEFFF701FEFFF7B0
S1134DD033FFFEE7C046C046C046C046FFF7C2FFE9
S9034DD5DA
