S01D000050484F544F4E5F5457525F426C696E6B5F64656D6F2E7372656380
S1130000F82F0020911F00008B1E00008B1E0000A3
S11300108B1E00008B1E00008B1E00008B1E000038
S11300208B1E00008B1E00008B1E00008B1E000028
S11300308B1E00008B1E00008B1E00008B1E000018
S11300408B1E00008B1E00008B1E00008B1E000008
S113141094B000BFCEA184B06846282200F07AFAC6
S11314200FBC00F091FABF480168802212050A43FC
S1131430026001680901090901606A46CEA003C877
S113144003C2684603C800F09DFA00200990089082
S1131450D5A00068079000BFD2A00068069000BF26
S1131460CFA00068059000BFCCA0006804900320C2
S1131470039000BFC2A184B068461C2200F04AFA5F
S11314800FBC00F0CDFA00BFCFA103A8402200F0AA
S113149041FA00BFCAA003C801900291C6A003C8C4
S11314A003000091C1A007C800F0F4FA20200090C6
S11314B0D5A00FC800F012FC02200090D6A00FC8DF
S11314C000F03FFC02200090D7A00FC800F0D3FB2F
S11314D002200090D8A00FC800F09AFBDAA00068A0
S11314E00090202100F07EFCD8A00068009002212A
S11314F000F083FCD6A000680090022100F063FC99
S1131500D4A000680090022100F052FC864F387885
S1131510022101433970854E307820210143317016
S11315207078022101437170787802210143797047
S11315307F4D280000F078FCC7A184B068464022A3
S113154000F0E8F90FBC00F00EFB280000F06CFC82
S1131550280000F069FC280000F066FC280000F078
S113156063FC280000F060FC280000F05DFC28000B
S113157000F05AFC280000F057FC00BFC6A184B05C
S11315806846402200F0C6F90FBC00F0ECFA2800CF
S113159000F04AFC280000F047FC280000F044FC5E
S11315A0280000F041FC280000F03EFC280000F078
S11315B03BFC280000F038FC280000F035FC5D48B6
S11315C0427B01211143417320220A434273817BF0
S11315D002220A4382731021427B0A434273827BB4
S11315E01143817304220A438273082111438173D6
S11315F0017802220A4302704F4C15E03878FD212D
S113160001403970787802210143797000206070BC
S1131610280000F009FC280000F006FC280000F077
S113162003FC280000F000FC444800681F218843A4
S11316301321014341480160404800680006FBD57E
S11316403E48806980B23E494143616008463D4955
S113165000F0EEFB207061683A4A5043081A60605B
S1131660032000F075FA20789BA1085C00F04EFA84
S11316706068354900F0DCFB20706168324A5043F1
S1131680081A6060022000F063FA207892A1085CD6
S113169000F03CFA6068294600F0CAFB20706168DB
S11316A06843081A6060012000F052FA207800BFF5
S11316B089A1085C00F02AFA6068244900F0B8FBAC
S11316C02070002000F044FA207800BF82A1085C5A
S11316D000F01CFA6078002805D0022817D00CD33B
S11316E003288BD094E73078DF21014031703878BB
S11316F0022101433970012089E77078FD210140FE
S11317007170307820210143317002207FE77878AE
S1131710FD2101407970707802210143717003202A
S113172075E7000044F0034002F00F4040F00F4022
S1131730809698003230044004F0FF1F00B002404D
S113174082C3000000CA9A3B00E1F50540420F0045
S1131750000000000000000001000000F2BD6C78F1
S1131760C87FAB071F6A1FD00300000000000008F9
S113177000000000000000000088A00000018000BC
S11317807C000000040000000000000000000000D5
S11317900000000000000000000000001F00000026
S11317A01F0000001F0000001F0000001F00800831
S11317B0000000000000000000FEFF9F3F08000042
S11317C000FE010000000000000000000000000016
S11317D00080402010080402010000000000000006
S11317E000000000000000000000000000000000F5
S11317F000000000000000000000000000000000E5
S113180000000000000000000401000000000000CF
S113181000000000000000000401000000000000BF
S113182000000000000000000401000000000000AF
S1131830000000000000000004010000000000009F
S11318400000000000000000FF000000FF00000096
S1131850FF000000FF000000000000000000000086
S1131860008040201008040201FFFFFFFFFFFFFF7C
S1131870FFFFFFFFFF0000FFFFFFFFFFFFFF000070
S1131880000000FF00000000000000000000000055
S11318900000000000000000000000000000000044
S11318A00080402010080402010000000000000035
S11318B00000000000000000000000000000000024
S11318C00000000000000000000000000000000014
S11318D00000000000000000303132333435363768
S11318E0383941626364454638000000124207D02B
S11318F08B0706D00B78491C0370401C521EF7D886
S11319007047830706D00B78491C0370401C521E95
S1131910F9D1704770B4103A03D378C9103A78C03B
S1131920FBD2530701D318C918C001D508C908C090
S1131930D20704D30B880380891C801C002A01D59C
S11319400B78037070BC70470FB40C4800990160A9
S1131950019941600A48029901600399016304995D
S11319604163059981630699C163079901640899E4
S113197081640999816604B0704700BF00E00340A8
S113198004F0034010B481B003B4244869460979D3
S113199001726946897941736946497901736946D7
S11319A0497841704178490708D501218279520864
S11319B00A4043789B0819408A42F6D1694609785F
S11319C08906890E40220A43027069468978C278E2
S11319D0D206D20E0A43C2706022C3781340602438
S11319E00C40A342F9D16946C97841716946097826
S11319F0017081790907890F027892099142F8D11F
S1131A000178890706D5012182790A404378194073
S1131A108A42F8D103B010BC704700BF00400640B2
S1131A200FB4F0B481B00D980E990F9A109B119CCD
S1131A30129D2E000FD0124E356080256D02114E7E
S1131A4037682F433760104E37683D4335600F4D7C
S1131A502E6834432C600E4C059D2561069D6561FE
S1131A60079DA562089DE562099D25630A9D65633E
S1131A7020606160A260E36001B0F0BC04B0704714
S1131A8000F0FF1F80E200E000E100E010E400E06D
S1131A9000B0024008B430B4454B1C7802252543FD
S1131AA01D70444B02AC30CC1C615D6104AC30CC85
S1131AB09C61DD61069C1C62079C5C62089C9C62C4
S1131AC0099CDC620A9C1C630B9C5C630C9C9C63FD
S1131AD00D9CDC630E9C1C640F9C5C64109C9C64D9
S1131AE0119CDC64129C1C65139C5C65149C9C65B5
S1131AF0159CDC6559609A601C682043186018685E
S1131B0080210143196030BC01B0704710B481B02A
S1131B1001006139C9B21A2900D2203801003039D4
S1131B20C9B22B2900D33A20303823490A78092A2C
S1131B3008D2920022A39A581378C0B229A4205C38
S1131B40184310700878401C087001B010BC70472E
S1131B5019490870092805D2800000BF18A1085847
S1131B600021017070470FB4144800990160019975
S1131B704160029981600399C160049901610599EA
S1131B804161069981610799C161089901620999C6
S1131B9041620A9981620B99C1620C9901630D99A2
S1131BA041630E9981630F99C16304B070470000CB
S1131BB000400640003004400CF0FF1F2030044079
S1131BC0333004403430044035300440363004406F
S1131BD03730044038300440393004403A3004404F
S1131BE03B300440EE48BADA5CD6F44AFE5E0000AC
S1131BF000000000FE7EFEA6EEB636F47C48C80067
S1131C00A40070F03EEE305E00EC0C6C000082002C
S1131C1081B00FB465490598C20701D5009A0A60DE
S1131C20820701D5009A4A60420701D5009A8A606A
S1131C30020701D5009ACA60C20601D5009A0A615A
S1131C40820601D5009A4A61420601D5009A8A614A
S1131C50020601D5009ACA61A0310A6A019B0340B9
S1131C6013430B62029A4A62039A8A620A688243A5
S1131C700A6005B0704781B00FB459490598C2078E
S1131C8001D5009A0A60820701D5009A4A6042078A
S1131C9001D5009A8A60020701D5009ACA60C2067B
S1131CA001D5009A0A61820601D5009A4A6142066A
S1131CB001D5009A8A61020601D5009ACA61A03151
S1131CC00A6A019B034013430B62029A4A62039A15
S1131CD08A620A6882430A6005B0704781B00FB413
S1131CE04B490598C20701D5009A0A60820701D5BD
S1131CF0009A4A60420701D5009A8A60020701D51A
S1131D00009ACA60C20601D5009A0A61820601D50A
S1131D10009A4A61420601D5009A8A61020601D5F9
S1131D20009ACA61A0310A6A019B034013430B6203
S1131D30029A4A62039A8A620A6882430A6005B078
S1131D40704781B00FB433490598C20701D5009A92
S1131D500A60820701D5009A4A60420701D5009AB9
S1131D608A60020701D5009ACA60C20601D5009AAA
S1131D700A61820601D5009A4A61420601D5009A99
S1131D808A61020601D5009ACA61A0310A6A019BE0
S1131D90034013430B62029A4A62039A8A620A68F6
S1131DA082430A6005B070470000000000800440D0
S1131DB001B4194802788A436B461B7819401143D1
S1131DC0017001B0704701B4144802788A436B462D
S1131DD01B7819401143017001B0704700000000E6
S1131DE00090044001B40E4802788A436B461B7885
S1131DF019401143017001B0704701B409480278D9
S1131E008A436B461B7819401143017001B0704737
S1131E1000A0044000B0044016F00F4017F00F403B
S1131E2054F00F4055F00F4008380538FDD5704781
S1131E30094210D088420BD30122002300185B41D1
S1131E408B4200D35B1A5241F8D31900100070473B
S1131E5001000020704708B500F016F808BD38B43A
S1131E60012100220368001D002B0BD00468001D13
S1131E700C4202D04D466D1E64192260241D1B1FA6
S1131E80F0D0FAE732BC70477047704700B50A4992
S1131E900A48421A02D00A48FFF728FD09480A49AD
S1131EA0091A01D000F03AF808490948421A02D048
S1131EB00848FFF71BFD00BD000000000000000003
S1131EC00000000000F0FF1F0DF0FF1F00000000E5
S1131ED00000000000000000094205D0830705D07F
S1131EE00270401C491EF9D170470000130030B441
S1131EF014001500103902D310393CC0FCD2490734
S1131F0000D30CC000D504C0890002D30280801C19
S1131F10002900D5027030BC704700000022DBE7C6
S1131F200022E3E700B581B007480849C1810849A8
S1131F30C1810188074A0A400280FFF7A7FFFFF723
S1131F4067FA01B000BD00BF0030054020C50000A5
S1131F5028D90000FEFF000010B507497944183164
S1131F60064C7C44163404E0081D0A688918884726
S1131F700100A142F8D110BD0800000014000000C7
S1131F80DFFEFFFF1000000000F0FF1F0000000054
S1131F904040494052405B4064406D4076407F4041
S1131FA062B6FFF7BFFFFEE700F009F8002801D092
S1131FB0FFF7D2FF0020FFF72BFA00F002F8012010
S1131FC0704780B500F002F801BD000007463846AE
S1131FD000F002F8FBE70000C046C046024A1100C8
S1131FE01820ABBEFBE700BF26000200C046C04677
S10B1FF0C046C046FFF7D8FF0C
S9031FEDF0
