S01400005457522D4B4C32355A34384D2E73726563D5
S1131000F82F002001140000EF170000EF17000074
S1131010EF170000EF170000EF170000EF170000B4
S1131020EF170000EF170000EF170000EF170000A4
S1131030EF170000EF170000EF170000EF17000094
S1131040EF170000EF170000EF170000EF17000084
S1131050EF170000EF170000EF170000EF17000074
S1131060EF170000EF170000EF170000EF17000064
S1131070A1160000EF170000EF170000EF170000A3
S1131080EF170000EF170000EF170000EF17000044
S1131090EF170000EF170000EF170000EF17000034
S11310A0EF170000EF170000EF170000EF17000024
S11310B0EF170000EF170000EF170000EF17000014
S113140000200146024603460446054606460746B2
S11314108046814682468346844662B600F026FAB8
S1131420FEE7000088B000BF20A184B068462C22EB
S113143000F06EF80FBC00F085F86A4626A003C8D9
S113144003C2684603C800F09DF813480168090107
S1131450090901600168114A0A40802149021143C7
S113146001600F4C00230022210000BF1CA0006873
S113147000F0C8F8210000BF1AA0006800F0FBF8D3
S11314800848C0218902016062B607490A00521E59
S1131490FDD10A004460FAE744800440FFFFF8FFEE
S11314A02000010008F00F4000D4300000000000CC
S11314B00000000000000004000000000000000024
S11314C0000000000004000000060000010000000D
S11314D000000000000001000480A00000000000E3
S11314E040010000FFFFFFFF124207D08B0706D028
S11314F00B78491C0370401C521EF7D870478307B1
S113150006D00B78491C0370401C521EF9D1704759
S113151070B4103A03D378C9103A78C0FBD2530799
S113152001D318C918C001D508C908C0D20704D30B
S11315300B880380891C801C002A01D50B7803705A
S113154070BC70470FB40D48009901600199416067
S11315500B4802990160039981600499C16005995F
S11315604161069901630799416308998163099967
S1131570C1630A99016404B0704700BF007004405D
S11315800480044010B481B003B41D48694609794D
S113159001726946897941736946497901736946DB
S11315A08978C1706022C378134060240C40A34240
S11315B0F9D1694649784170694609780170017822
S11315C0490708D50121827912090A4003789B084A
S11315D019408A42F6D16946C9784171817909076F
S11315E0890F027892099142F8D1012182790A4047
S11315F0437819408A42F8D103B010BC704700BF49
S11316000040064030B481B01C0010D01D4C236053
S11316108023DB051C4C25681D4325601B4C256875
S11316202B4323601A4B1C68D2B222431A60002257
S1131630184B0124012595400D4000D01860521C20
S1131640012595400D4000D05860521C012595405D
S11316500D4000D09860521C94400C4000D0D860DB
S1131660521C1033202AE4DB0B4802688A430260D0
S113167001B030BC7047094A13688B4301401943D9
S11316801160704710F4FF1F80E200E000E100E009
S11316901CE400E000900440A090044014F00F40CB
S11316A030B581B0184C206800282AD0174D6878CE
S11316B029780140E02008406946087068460078AF
S11316C0800604D56846017802202268904768465F
S11316D00078C021084204D06846017801202268BD
S11316E090476878E97801400807000F6946087058
S11316F068460078002804D06846017804202268EF
S1131700904701B030BD000014F4FF1F03A0064051
S113171000B581B00C4800F029F80C490C48421A75
S113172002D00C48FFF7E0FE0B480C49091A01D01F
S113173000F044F80A490B48421A02D00A48FFF75D
S1131740D3FE01B000BD00BF000000000000000097
S1131750000000000000000010F4FF1F18F4FF1F39
S1131760000000000000000018F4FF1F0149086099
S11317707047000008ED00E0094205D0830705D05A
S11317800270401C491EF9D170470000130030B4A8
S113179014001500103902D310393CC0FCD249079B
S11317A000D30CC000D504C0890002D30280801C81
S11317B0002900D5027030BC704700000022DBE72E
S11317C00022E3E738B4012100220368001D002B46
S11317D00BD00468001D0C4202D04D466D1E6419E6
S11317E02260241D1B1FF0D0FAE732BC70477047FB
S11317F010B5074979441831064C7C44163404E08A
S1131800081D0A68891888470100A142F8D110BD53
S11318100800000014000000ADFFFFFF08000000F6
S113182010F4FF1F0000000000F009F8002801D0A8
S1131830FFF7DEFF0020FFF7F5FD00F002F80120BE
S1131840704780B500F002F801BD00000746384635
S113185000F002F8FBE70000C046C046024A11004F
S11318601820ABBEFBE700BF26000200034800219E
S11318700160FFF74DFFFFF7D5FDFEE7008104404F
S1131880C046C046C046C046FFF7CEFF08380538FC
S1071890FDD57047C7
S903188163
