S0190000414E323239355F5457525F4B32304437322E7372656395
S1130000F87F0020012400007D3500007D350000CC
S11300107D3500007D3500007D3500007D35000014
S11300207D3500007D3500007D3500007D35000004
S11300307D3500007D3500007D3500007D350000F4
S11300407D3500007D3500007D3500007D350000E4
S11300507D3500007D3500007D3500007D350000D4
S11300607D3500007D3500007D3500007D350000C4
S11300707D3500007D3500007D3500007D350000B4
S11300807D3500007D3500007D3500007D350000A4
S11300907D3500007D3500007D3500007D35000094
S11300A07D3500007D3500007D3500007D35000084
S11300B07D3500007D3500007D3500007D35000074
S11300C07D3500007D3500007D3500007D35000064
S11300D07D3500007D3500007D3500007D35000054
S11300E07D3500007D3500007D3500007D35000044
S11300F07D3500007D3500007D3500007D35000034
S11301007D3500007D3500007D3500007D35000023
S11301107D3500007D3500007D3500007D35000013
S11301207D3500007D3500007D3500007D35000003
S11301307D3500007D3500007D3500007D350000F3
S11301407D3500007D3500007D3500007D350000E3
S11301507D3500007D3500007D3500007D350000D3
S11301607D3500007D3500007D3500007D350000C3
S11301707D3500007D3500007D3500007D350000B3
S11301807D3500007D3500007D3500007D350000A3
S11301907D3500007D3500007D3500008D35000083
S11301A07D3500002D2F00007D3500007D350000D9
S11301B07D3500007D3500007D3500007D35000073
S11301C07D3500007D3500007D3500007D35000063
S11301D07D3500007D3500007D3500007D35000053
S11301E07D3500007D3500007D3500007D35000043
S11324004FF000004FF000014FF000024FF00003C6
S11324104FF000044FF000054FF000064FF00007A6
S11324204FF000084FF000094FF0000A4FF0000B86
S11324304FF0000C62B600F075FAFEE710B50C0020
S11324401168012902D0022904D009E0C0B2516800
S1132450884705E0916808709068401C9060FFE729
S11324602068401C206010BD30B41C0000230025EF
S11324700570401C002A19D0096800290AD13021AE
S113248001705B1C180030BC7047303511000570BA
S1132490401C5B1C0029F5D091FBF4F204FB1215DF
S11324A0002DF2D5E94311F13105EFE70968002960
S11324B008D1302101705B1CE4E737351100057049
S11324C0401C5B1C0029DDD0B1FBF4F204FB1215A7
S11324D00A2DF2D23035F1E7F8B504000D001600EC
S11324E01F0005E03A0031003020FFF7A7FF641C0D
S11324F0AC42F7DBF1BDF8B504000D0016001F0077
S113250005E03A0031002020FFF798FF641CAC423C
S1132510F7DBF1BD2DE9F04F8DB00500160000206A
S113252000900C0005E02A0000A91800FFF786FFC0
S1132530641C2378002B00F0C181252B12D00A2BB8
S113254005D02A0000A91800FFF778FF09E02A0047
S113255000A90D20FFF772FF2A0000A90A20FFF747
S11325606DFFE5E70027002101E057F0010700298E
S11325701BD1641C207820280BD023280FD02B28B3
S113258004D02D28F1D0302806D00BE057F00207F4
S1132590EDE757F00407EAE757F00807E7E757F0D5
S11325A01007E4E7641E0121E1E75FF00008002161
S11325B004E00A2000FB0830B0F13008002908D1FB
S11325C0641C2378180030380928F2D9641E0121CC
S11325D0F4E7641C20782E280BD10021FFE70029A2
S11325E008D1641C207830380928F8D9641E0121E8
S11325F0F5E7641E641C20784C2806D0682802D0B5
S11326006C2801D002E002E001E000E0641E641CDA
S113261023781800582874D0622800F0D0806328EA
S113262000F01881642813D0692811D06E2800F0B6
S113263040816F2800F0B880702800F0CB807328A8
S113264000F00F81752800F0D080782859D06AE70F
S113265030680390361D0A23012203A904A8FFF75A
S113266003FF824604A81AEB00090398002804D546
S11326702D2002901AF1010A0FE0B80704D52B208F
S113268002901AF1010A08E0780704D5202002908C
S11326901AF1010A01E0002002905FF0000B3807F4
S11326A011D50298002804D02A0000A90298FFF747
S11326B0C5FE5FF0010B2B0000AA41465046FFF710
S11326C00BFFC24611E0F8070FD42B0000AA4146C5
S11326D05046FFF710FF0298002804D02A0000A9F2
S11326E00298FFF7ABFE5FF0010BBBF1000F07D1BF
S11326F00298002804D02A0000A90298FFF79EFE41
S11327009BE030680190361D1023002201A904A823
S1132710FFF7AAFE824604A81AEB00095FF0000B3B
S1132720380715D5F8060BD52A0000A93020FFF785
S113273085FE2A0000A97820FFF780FE5FF0010BD8
S11327402B0000AA41465046FFF7C6FEC24619E0D8
S1132750F80717D4F80601D51AF1020A2B0000AACB
S113276041465046FFF7C7FEF8060BD52A0000A9DC
S11327703020FFF763FE2A0000A97820FFF75EFEF1
S11327805FF0010BF8060ED5BBF1000F0BD12A0048
S113279000A93020FFF752FE2A0000A97820FFF795
S11327A04DFE1AF1020A48E030680190361D0823F4
S11327B0002201A904A8FFF757FE82461FE03068F3
S11327C00190361D0223002201A904A8FFF74CFE44
S11327D0824614E030680190361D1023002201A9BE
S11327E004A8FFF741FE824609E030680190361DD7
S11327F00A23002201A904A8FFF736FE824604A892
S11328001AEB0009380707D52B0000AA41465046A9
S1132810FFF762FEC24610E0F8070ED42B0000AAB0
S113282041465046FFF767FE07E02A0000A999F8E1
S11328300000FFF703FEB9F1010999F80000002830
S1132840F3D1F80705D52B0000AA41465046FFF7FF
S113285052FE6DE63078361D2A0000A9FFF7EEFD22
S113286066E6D6F80090361DB9F1000F20D0484630
S113287000F03AF88246F8070ED42B0000AA41462D
S11328805046FFF738FE07E02A0000A999F8000037
S1132890FFF7D4FD19F1010999F800000028F3D1DC
S11328A0F80705D52B0000AA41465046FFF723FE42
S11328B03EE63068361D0099016039E600980DB097
S11328C0BDE8F08F0EB400B584B001210091054934
S11328D0019105AA010000A8FFF71CFE04B05DF8F1
S11328E010FB0000D93800000021002802D100208C
S11328F006E0491C0200501C1278002AF9D1080095
S1132900704750F8041B61B150F8042BD30744BF3F
S1132910A9F101039A18002342F8043B091FFAD1D4
S1132920EFE7704700F0B2F900F0CCF900F018FAC4
S113293023A0FFF7C7FFA1480078400702D5A048AD
S1132940FFF7C0FF9D480078800702D59D48FFF738
S1132950B9FF9A480078C00702D59B48FFF7B2FF39
S11329609A480078000602D59948FFF7ABFF9748CC
S11329700078400602D59748FFF7A4FF93480078F3
S1132980800602D59448FFF79DFF904800784007E1
S113299002D59248FFF796FF8C480078800702D54D
S11329A08F48FFF78FFF89480078C00702D58D480C
S11329B0FFF788FF00F006F800F092FAFEE7000047
S11329C00A0A000080B588480068000910F0070072
S11329D000280BD0022811D00CD3042816D011D310
S11329E006281BD016D307281CD01FE07F48FFF70A
S11329F069FF1EE07E48FFF765FF1AE07D48FFF798
S1132A0061FF16E07C48FFF75DFF12E07B48FFF7AB
S1132A1059FF0EE07A48FFF755FF0AE07948FFF7BF
S1132A2051FF06E07848FFF74DFF02E07748FFF7D3
S1132A3049FF6D48006810F00F00062807D01AD32C
S1132A4008280CD007D30A2811D00CD313E07048FF
S1132A50FFF738FF12E06F48FFF734FF0EE06E48CF
S1132A60FFF730FF0AE06D48FFF72CFF06E06C48E3
S1132A70FFF728FF02E06B48FFF724FF5A4800687D
S1132A80C0F30330002803D16748FFF71BFF02E0BF
S1132A906648FFF717FF00F043F865480068000E2A
S1132AA010F00F00072806D0092808D00B280AD0F8
S1132AB00F280CD00FE05F48FFF704FF0EE05E48DC
S1132AC0FFF700FF0AE05D48FFF7FCFE06E05B4805
S1132AD0FFF7F8FE02E05A48FFF7F4FE5948006891
S1132AE0000B10F00F00052806D0072808D008288E
S1132AF00AD009280CD00FE05348FFF7E3FE0EE09C
S1132B005248FFF7DFFE0AE05148FFF7DBFE06E01C
S1132B105048FFF7D7FE02E04F48FFF7D3FE01BD50
S1132B2080B54E48032101704D48002101704D4885
S1132B30002101704C48002101704C4801210170B2
S1132B404B48802101704A4800780006FBD549486B
S1132B500078C0B2009048480378DBB24748027856
S1132B60D2B247480178C9B24648FFF7ABFE3B48AA
S1132B70032101703A48002101703A480021017094
S1132B8039480421017039480121017038488021F5
S1132B900170374800780006FBD536480078C0B28B
S1132BA0009035480378DBB234480278D2B2344816
S1132BB00178C9B23448FFF785FE01BD01F0074032
S1132BC0EC3800004C3700007C39000000F007406E
S1132BD0FC38000088380000A0370000B837000037
S1132BE0683700008839000024800440A0390000C0
S1132BF0A8390000B0390000B8390000C03900001D
S1132C00C83900000C3900001C39000040360000AF
S1132C102C3900003C3900004C3900005C390000BC
S1132C206C39000014360000D03700005C3400001A
S1132C304C800440E83700000038000018380000D9
S1132C400C370000007004409C380000B0380000CD
S1132C50C438000030380000843700000700024008
S1132C600600024005000240040002400F0002403A
S1132C700000024008000240090002400A0002402D
S1132C800B000240683600002C37000080B500F0CD
S1132C9009F80A4800884FF6FE7108400749088081
S1132CA001BD000072B606484CF220510180044870
S1132CB04DF62811018062B67047000000200540DF
S1132CC00E20054080B51C481C4988420BD00020CA
S1132CD006E01949194A52F8202041F82020401CE6
S1132CE0B0F5827FF5D3144800F046F91449154A2B
S1132CF01548801A03E013780B70521C491C03001A
S1132D00581E002BF7D111491148401A02E0002245
S1132D100A70491C0200501E002AF8D10D490E4ABF
S1132D200E48801A03E013780B70521C491C0300F0
S1132D30581E002BF7D101BD0080FF1F00000000CA
S1132D401084FF1FD0390000D43900001484FF1F01
S1132D502484FF1F2484FF1F0000000000000000E3
S1132D6000B583B03E48006850F478503C49086090
S1132D703C485FF0897101603B480078000705D545
S1132D803948007850F00800374908700120019054
S1132D9024200090042301220021344800F05AF931
S1132DA03349086032480068FF2800DCFEE73048F9
S1132DB000684FF47A7190FBF1F02E4908602D48B9
S1132DC0006828490968090F491CB0FBF1F02A4939
S1132DD008602848006823490968C1F30361491C55
S1132DE0B0FBF1F02549086000F014F800F01DF87C
S1132DF000F026F822484FF44071016021484FF456
S1132E00407101605FF4E1321B4801681E4800F024
S1132E1091FA07BD1D48006850F480501B490860B2
S1132E201B484FF4E861016070471A48006850F08D
S1132E3001001849086018484FF4A8610160704700
S1132E4080B516484FF4807101601448006850F44E
S1132E50102012490860572000F091F801BD0000CD
S1132E60388004404480044002D0074000127A00B5
S1132E701484FF1F1884FF1F1C84FF1F2084FF1F5E
S1132E8000D0044004D0044000B006400480044054
S1132E9018900440408004400CB00440109004405A
S1132EA080B528484FF40061016027484FF48071D1
S1132EB0016026484FF4807101602348006850F097
S1132EC00300214908602048006850F420201E496E
S1132ED008601F4880210160592000F050F801BDAE
S1132EE0FFF7DEFF1B48FFF7EDFC1B48FFF7EAFC8A
S1132EF01A48FFF7E7FC1A48FFF7E4FC10A0FFF7B5
S1132F00E1FC1848FFF7DEFC17480068411E164A2A
S1132F1011600028F8D11548006850F0800013496A
S1132F20086011485FF470210160EDE780B5104836
S1132F305FF0FF3101600F48FFF7C4FC01BD0000E2
S1132F400A0A00003880044004B004401CB0044065
S1132F5094F00F40D43400000C35000044350000D8
S1132F601C340000B43500001084FF1F8CF00F40A7
S1132F70A0B00440EC3600002E490860704710B53C
S1132F8004005C2C02DB2C48FFF79CFC202094FB03
S1132F90F0F0002803D0022833D019D349E02748A1
S1132FA000680121202294FBF2F303FB12439940B1
S1132FB0084322490860224800680121202294FB2A
S1132FC0F2F303FB1243994008431D49086030E0C3
S1132FD01C4800680121202294FBF2F303FB1243F6
S1132FE099400843174908601748006801212022C6
S1132FF094FBF2F303FB124399400843124908601F
S113300017E0124800680121202294FBF2F303FB2D
S11330101243994008430D4908600D480068012196
S1133020202294FBF2F303FB12439940084308491E
S1133030086010BD08ED00E09C34000080E200E070
S113304000E100E084E200E004E100E088E200E066
S113305008E100E070B4DFF8B8422478C4F38104D6
S1133060E4B2002C09D1DFF8A8422478E40604D5A0
S1133070DFF89C422478A40601D5012034E1DFF86E
S11330806C42A04201DB21202EE1D2B2002A08D0FA
S1133090DFF85C42041BDFF85C52AC4201D322200F
S11330A022E1C9B2012900D301215C1EE4B2192C2A
S11330B001D3412018E19DF90C40B4F11805EDB29B
S11330C0202D01D342200FE15BB290FBF3F5DFF832
S11330D02862AD1BDFF82462B54201D3432003E12B
S11330E05BB290FBF3F564B26543DFF81462AD1B89
S11330F0DFF81062B54201D34520F5E0DFF808524D
S11331002D7815F0C305DFF80462B04208DAC9B2BD
S1133110C900D2B29600314351F010010D4307E0CB
S1133120C9B2C900D2B29600314351F020010D4317
S1133130DFF8D4110D70DFF8DC11884201DA0021C8
S113314018E0DFF8D411884201DA012112E0DFF837
S1133150CC11884201DA02210CE0DFF8C411884264
S113316001DA032106E0DFF8BC11884201DA042108
S113317000E00521DFF8B0512D7815F00305C900F2
S113318011F0380151F080010D00DFF89C110D7031
S1133190D2B2002A13D0002100E0491C42F210727E
S11331A009B2914204DADFF8682112789207F4D563
S11331B0DFF85C110978890701D4232094E0002109
S11331C000E0491C09B2B1F5FA6F07DADFF84021D3
S11331D01278C2F38102D2B2022AF2D1DFF830119E
S11331E00978C1F38101C9B2022901D01A207BE018
S11331F0DFF83811097851F02001DFF8302111701F
S1133200DFF82C110D7815F0E005591E11F01F019F
S11332100D43DFF81C110D70DFF810110D7815F057
S1133220E005B4F1180111F01F0151F040010D4304
S1133230DFF8F8100D70002100E0491C09B2B1F567
S1133240FA6F04DADFF8C82012789206F5D5DFF8B1
S1133250C0100978890601D4162045E0002100E059
S1133260491C09B2B1F5FA6F04DADFF8A420127828
S11332705206F5D5DFF898100978490601D44420A0
S113328032E0DFF8AC10097811F01F014A1CDFF8B6
S11332909C10097811F01F0111F11803DFF8881050
S11332A0097811F03F01DFF880402170002100E02F
S11332B0491C09B2B1F5FA6F07DADFF854402478F3
S11332C0C4F38104E4B2032CF2D1DFF8441009788A
S11332D0C1F38101C9B2032901D01B2004E0D2B299
S11332E090FBF2F0DBB2584370BC704781F0FA02F5
S11332F0C0C62D004181BA0180841E0081841E0055
S1133300006CDC020175190301400640C1C62D00A2
S113331006400640D1121300A1252600414B4C0063
S113332081969800012D3101004006400540064079
S11333300440064030B42F4B984206D12E4B1B68F4
S113334053F480632C4C236026E02C4B984206D126
S1133350294B1B6853F40063274C23601CE0284B63
S1133360984206D1244B1B6853F48053224C2360AB
S113337012E0244B984206D11F4B1B6853F40053B0
S11333801D4C236008E0204B984205D11F4B1B685D
S113339053F480631D4C2360C37813F0F303C370AC
S11333A0002383704FF47A7303FB01F3140193FB3E
S11333B0F4F3047814F0E0049BB21D0A15F01F0521
S11333C02C43047043704FF4FA446143120191FB9F
S11333D0F2F19BB2B1EB4311827A12F0E00411F0E6
S11333E01F0121438172C17851F00C01C17030BCBE
S11333F07047000000A006403480044000B006403E
S113340000C0064000D0064000A00E4028800440C2
S113341002791206FCD5C17170470000322E204794
S113342050494F20696E7075742C207573696E67EE
S11334302050544331206279205357312C20697431
S113344020616C736F2067656E65726174652069B5
S11334506E746572727570740A0000000A546869AB
S1133460732076657273696F6E206F6620736F6662
S1133470747761726520646F65736E27742072655A
S1133480636F676E697A6520746865207265766912
S113349073696F6E20636F64652E00000A45525293
S11334A02120496E76616C6964204952512076610D
S11334B06C75652070617373656420746F20656E2C
S11334C061626C65206972712066756E6374696FE0
S11334D06E210A002A2A2A2A2A2A2A2A2A2A2A2A57
S11334E02A2A2A2A2A2A2A2A2A2A2A2A2A2A2A2A38
S11334F02A2A2A2A2A2A2A2A2A2A2A2A2A2A2A2A28
S11335002A2A2A2A2A2A2A2A2A2A0A005468697371
S11335102064656D6F2073686F777320686F772000
S1133520746F2075736520746865204750494F2077
S11335306D6F64756C652C20696E636C7564696E5F
S1133540673A0A00312E204750494F206F75747036
S113355075742C207573696E67205054433720743A
S11335606F20636F6E74726F6C652074686520677A
S11335707265656E206C65642E0A000080B509488A
S11335800178C9B20848FFF79DF901BD80B5074825
S1133590006850F08070054908600548FFF792F90B
S11335A001BD000004ED00E0E4350000109004408B
S11335B0B83600005768656E205357312069732070
S11335C07072657373656420646F776E2C204C454C
S11335D0442077696C6C206265206461726B2E0AEA
S11335E0000000000A2A2A2A2A64656661756C7440
S11335F05F69737220656E7465726564206F6E20F6
S1133600766563746F722025642A2A2A2A2A0D0A91
S11336100A0000000A556E7265636F676E697A6509
S113362064204B696E65746973207061636B6167B4
S11336306520636F64652E20202020202000000078
S11336400A556E7265636F676E697A6564204B69AB
S11336506E657469732066616D696C792064657642
S11336606963652E0A000000466C6173682070610E
S113367072616D657465722076657273696F6E2010
S113368025642E25642E25642E25640A000000007E
S113369010B5074979441831064C7C44163404E0CB
S11336A0081D0A68511888470146A142F8D110BD87
S11336B02C000000380000000A2A2A2A2A41626FDE
S11336C0727420627574746F6E20696E74657272A0
S11336D07570742A2A2A2A0A0A00000027F2FFFFBA
S11336E0100000001484FF1F000000006770696F61
S11336F020696E746572727570742C2066616C6CCE
S1133700696E6720656467650A00000045525221AE
S11337102120556E646566696E656420502D666C63
S11337206173682073697A650A000000466C6173EE
S1133730682076657273696F6E2049442025642E73
S113374025642E25642E25640A000000436F7265EB
S1133750204C6F636B7570204576656E74205265DE
S11337607365740A000000004C6F772D766F6C74DB
S1133770616765204465746563742052657365747C
S11337800A00000020455252212120556E646566CE
S1133790696E65642052414D2073697A650A0A0096
S11337A05761746368646F6728434F5029205265DA
S11337B07365740A000000004C6F7373206F6620F9
S11337C0436C6F636B2052657365740A00000000DC
S11337D053696C69636F6E2072657620312E3020D8
S11337E020200A2000000000313238206B42797416
S11337F06573206F6620502D666C61736809000044
S1133800323536206B4279746573206F6620502DF3
S1133810666C617368090000353132206B4279743B
S11338206573206F6620502D666C61736809000013
S113383020313238206B4279746573206F662052D0
S1133840414D0A0A0000000000F009F8002801D0E8
S1133850FFF71EFF0020FFF743FB00F002F80120F2
S1133860704700F001B800000746384600F002F83F
S1133870FBE70000C046C046024A11001820ABBE58
S1133880FBE700BF2600020045787465726E616C28
S11338902050696E2052657365740A00203332200B
S11338A06B4279746573206F662052414D0A0A0099
S11338B0203634206B4279746573206F6620524140
S11338C04D0A0A00203936206B4279746573206FE3
S11338D0662052414D0A0A0080B50100C9B202486F
S11338E0FFF796FD01BD000000B00640536F6674FB
S11338F0776172652052657365740A00506F77654D
S1133900722D6F6E2052657365740A000A4B353050
S113391020616E64204B35322D0000000A4B353196
S113392020616E64204B35332D00000038307069FF
S11339306E202020202020200000000038317069F3
S11339406E20202020202020000000003130307024
S1133950696E2020202020200000000031323170C8
S1133960696E2020202020200000000031343470B3
S1133970696E202020202020000000004A54414786
S11339802052657365740A004C4C57552052657378
S113399065740A00C046C046C046C046FFF754FFDF
S11339A00A4B31302D0000000A4B32302D0000004C
S11339B00A4B33302D0000000A4B34302D00000038
S11339C00A4B36302D0000000A4B37302D00000022
S10739D000000F00E0
S90339952E
