S01400005457525F4B3231463130304D2E73726563E2
S1130000F8FF002001840000A1950000A1950000E4
S1130010A1950000A1950000A1950000A195000004
S1130020A1950000A1950000A1950000A1950000F4
S1130030A1950000A1950000A1950000A1950000E4
S1130040A1950000A1950000A1950000A1950000D4
S1130050A1950000A1950000A1950000A1950000C4
S1130060A1950000A1950000A1950000A1950000B4
S1130070A1950000A1950000A1950000A1950000A4
S1130080A1950000A1950000A1950000A195000094
S1130090A1950000A1950000A1950000A195000084
S11300A0A1950000A1950000A1950000A195000074
S11300B0A1950000A1950000A1950000A195000064
S11300C0A1950000A1950000A1950000A195000054
S11300D0A1950000A1950000A1950000A195000044
S11300E0A1950000A1950000A1950000A195000034
S11300F0A1950000A1950000A1950000A195000024
S1130100A1950000A1950000A1950000A195000013
S1130110A1950000A1950000A1950000A195000003
S1130120A1950000A1950000A1950000A1950000F3
S1130130A19500001F930000A1950000A195000067
S1130140A1950000A1950000A1950000A1950000D3
S1130150A1950000A1950000A1950000A1950000C3
S1130160A1950000A1950000A1950000A1950000B3
S1130170A1950000A1950000A1950000A1950000A3
S1130180A1950000A1950000A1950000A195000093
S1130190A1950000A1950000A1950000B195000073
S11301A0A1950000A1950000A1950000A195000073
S11301B0A1950000A1950000A1950000A195000063
S11301C0A1950000A1950000A1950000A195000053
S11301D0A1950000A1950000A1950000A195000043
S11384004FF000004FF000014FF000024FF0000366
S11384104FF000044FF000054FF000064FF0000746
S11384204FF000084FF000094FF0000A4FF0000B26
S11384304FF0000C62B600F017FDFEE71EF0040FCB
S11384400CBFEFF30880EFF3098001F0BCB8000023
S113845010B50C001168012902D0022904D009E0EA
S1138460C0B25168884705E0916808709068401C64
S11384709060FFE72068401C206010BD30B41C00F1
S1138480002300250570401C002A19D00968002922
S11384900AD1302101705B1C180030BC70473035A4
S11384A011000570401C5B1C0029F5D091FBF4F20F
S11384B004FB1215002DF2D5E94311F13105EFE764
S11384C00968002908D1302101705B1CE4E73735C5
S11384D011000570401C5B1C0029DDD0B1FBF4F2D7
S11384E004FB12150A2DF2D23035F1E7F8B5040079
S11384F00D0016001F0005E03A0031003020FFF7A0
S1138500A7FF641CAC42F7DBF1BDF8B504000D0015
S113851016001F0005E03A0031002020FFF798FF05
S1138520641CAC42F7DBF1BD2DE9F04F8DB00500C2
S11385301600002000900C0005E02A0000A9180095
S1138540FFF786FF641C2378002B00F0C181252BE4
S113855012D00A2B05D02A0000A91800FFF778FFD3
S113856009E02A0000A90D20FFF772FF2A0000A9E4
S11385700A20FFF76DFFE5E70027002101E057F02F
S1138580010700291BD1641C207820280BD0232844
S11385900FD02B2804D02D28F1D0302806D00BE0A2
S11385A057F00207EDE757F00407EAE757F008072A
S11385B0E7E757F01007E4E7641E0121E1E75FF005
S11385C00008002104E00A2000FB0830B0F1300864
S11385D0002908D1641C2378180030380928F2D9FE
S11385E0641E0121F4E7641C20782E280BD100219D
S11385F0FFE7002908D1641C207830380928F8D90D
S1138600641E0121F5E7641E641C20784C2806D002
S1138610682802D06C2801D002E002E001E000E00A
S1138620641E641C23781800582874D0622800F053
S1138630D080632800F01881642813D0692811D0F1
S11386406E2800F040816F2800F0B880702800F098
S1138650CB80732800F00F81752800F0D080782833
S113866059D06AE730680390361D0A23012203A912
S113867004A8FFF703FF824604A81AEB0009039835
S1138680002804D52D2002901AF1010A0FE0B80742
S113869004D52B2002901AF1010A08E0780704D5CA
S11386A0202002901AF1010A01E0002002905FF0FC
S11386B0000B380711D50298002804D02A0000A91D
S11386C00298FFF7C5FE5FF0010B2B0000AA41469C
S11386D05046FFF70BFFC24611E0F8070FD42B00FA
S11386E000AA41465046FFF710FF0298002804D024
S11386F02A0000A90298FFF7ABFE5FF0010BBBF163
S1138700000F07D10298002804D02A0000A902987B
S1138710FFF79EFE9BE030680190361D1023002277
S113872001A904A8FFF7AAFE824604A81AEB0009CF
S11387305FF0000B380715D5F8060BD52A0000A901
S11387403020FFF785FE2A0000A97820FFF780FE7D
S11387505FF0010B2B0000AA41465046FFF7C6FE0E
S1138760C24619E0F80717D4F80601D51AF1020A2F
S11387702B0000AA41465046FFF7C7FEF8060BD56A
S11387802A0000A93020FFF763FE2A0000A9782000
S1138790FFF75EFE5FF0010BF8060ED5BBF1000F8C
S11387A00BD12A0000A93020FFF752FE2A0000A9AD
S11387B07820FFF74DFE1AF1020A48E03068019074
S11387C0361D0823002201A904A8FFF757FE82469C
S11387D01FE030680190361D0223002201A904A87D
S11387E0FFF74CFE824614E030680190361D1023DA
S11387F0002201A904A8FFF741FE824609E030687F
S11388000190361D0A23002201A904A8FFF736FEB1
S1138810824604A81AEB0009380707D52B0000AAE2
S113882041465046FFF762FEC24610E0F8070ED4F8
S11388302B0000AA41465046FFF767FE07E02A00D6
S113884000A999F80000FFF703FEB9F1010999F8AE
S113885000000028F3D1F80705D52B0000AA4146F3
S11388605046FFF752FE6DE63078361D2A0000A907
S1138870FFF7EEFD66E6D6F80090361DB9F1000F5D
S113888020D0484600F03AF88246F8070ED42B0070
S113889000AA41465046FFF738FE07E02A0000A927
S11388A099F80000FFF7D4FD19F1010999F80000C7
S11388B00028F3D1F80705D52B0000AA41465046FD
S11388C0FFF723FE3EE63068361D0099016039E665
S11388D000980DB0BDE8F08F0EB400B584B001214E
S11388E000910549019105AA010000A8FFF71CFEAB
S11388F004B05DF810FB0000B99B000000210028C3
S113890002D1002006E0491C0200501C1278002A03
S1138910F9D10800704750F8041B61B150F8042BDA
S1138920D30744BFA9F101039A18002342F8043B7A
S1138930091FFAD1EFE7704770B4DFF8B842247822
S1138940C4F38104E4B2002C09D1DFF8A8422478EE
S1138950E40604D5DFF89C422478A40601D501205E
S113896034E1DFF86C42A04201DB21202EE1D2B2D7
S1138970002A08D0DFF85C42041BDFF85C52AC42EA
S113898001D3222022E1C9B2012900D301215C1EB6
S1138990E4B2192C01D3412018E19DF90C40B4F143
S11389A01805EDB2202D01D342200FE15BB290FBFC
S11389B0F3F5DFF82862AD1BDFF82462B54201D37A
S11389C0432003E15BB290FBF3F564B26543DFF847
S11389D01462AD1BDFF81062B54201D34520F5E007
S11389E0DFF808522D7815F0C305DFF80462B042B1
S11389F008DAC9B2C900D2B29600314351F010016D
S1138A000D4307E0C9B2C900D2B29600314351F018
S1138A1020010D43DFF8D4110D70DFF8DC1188421A
S1138A2001DA002118E0DFF8D411884201DA0121CB
S1138A3012E0DFF8CC11884201DA02210CE0DFF801
S1138A40C411884201DA032106E0DFF8BC11884230
S1138A5001DA042100E00521DFF8B0512D7815F08A
S1138A600305C90011F0380151F080010D00DFF851
S1138A709C110D70D2B2002A13D0002100E0491CD1
S1138A8042F2107209B2914204DADFF868211278D6
S1138A909207F4D5DFF85C110978890701D4232003
S1138AA094E0002100E0491C09B2B1F5FA6F07DA3D
S1138AB0DFF840211278C2F38102D2B2022AF2D145
S1138AC0DFF830110978C1F38101C9B2022901D05C
S1138AD01A207BE0DFF83811097851F02001DFF823
S1138AE030211170DFF82C110D7815F0E005591EB6
S1138AF011F01F010D43DFF81C110D70DFF8101188
S1138B000D7815F0E005B4F1180111F01F0151F0D2
S1138B1040010D43DFF8F8100D70002100E0491CFE
S1138B2009B2B1F5FA6F04DADFF8C82012789206B8
S1138B30F5D5DFF8C0100978890601D4162045E080
S1138B40002100E0491C09B2B1F5FA6F04DADFF83C
S1138B50A42012785206F5D5DFF898100978490652
S1138B6001D4442032E0DFF8AC10097811F01F0181
S1138B704A1CDFF89C10097811F01F0111F1180349
S1138B80DFF88810097811F03F01DFF88040217088
S1138B90002100E0491C09B2B1F5FA6F07DADFF8E9
S1138BA054402478C4F38104E4B2032CF2D1DFF8F6
S1138BB044100978C1F38101C9B2032901D01B20F3
S1138BC004E0D2B290FBF2F0DBB2584370BC7047C1
S1138BD081F0FA02C0C62D004181BA0180841E00D2
S1138BE081841E00006CDC020175190301400640FB
S1138BF0C1C62D0006400640D1121300A12526004F
S1138C00414B4C0081969800012D310100400640F3
S1138C10054006400440064080B5DFF8D8010078DE
S1138C20800603D5DFF8D001FFF756FEDFF8C40154
S1138C300078C00603D5DFF8C401FFF74DFEDFF866
S1138C40B4010078000703D5DFF8B401FFF744FE50
S1138C50DFF8A0010078400703D5DFF8A801FFF78B
S1138C603BFEDFF890010078800703D5DFF8980118
S1138C70FFF732FEDFF87C010078C00703D5DFF888
S1138C808C01FFF729FEDFF888010078000603D580
S1138C90DFF88001FFF720FEDFF87401007840065A
S1138CA003D5DFF87401FFF717FEDFF864010078DD
S1138CB0800603D5DFF86401FFF70EFEDFF85001EC
S1138CC00078400703D5DFF85801FFF705FEDFF809
S1138CD040010078800703D5DFF84801FFF7FCFD69
S1138CE0DFF82C010078C0076CD5DFF83C01FFF7F2
S1138CF0F3FDDFF838010178C9B2DFF83401FFF77A
S1138D00EBFDDFF830010178C9B2DFF82C01FFF781
S1138D10E3FDDFF828010178C9B24948FFF7DCFD1B
S1138D2048480178C9B24848FFF7D6FD4148007861
S1138D30C0B210F00700032802D14448FFF7CCFD6D
S1138D403C480078C0B210F00700042807D13B4823
S1138D5000780721084202D13D48FFF7BDFD3548A0
S1138D600078C0B210F00700042809D13348007815
S1138D70C0B210F00700012802D13648FFF7ACFD5D
S1138D802C480078C0B210F00700042809D12B4801
S1138D900078C0B210F00700022802D12E48FFF775
S1138DA09BFD24480078C0B210F00700042809D1C4
S1138DB022480078C0B210F00700032802D12748E7
S1138DC0FFF78AFD12480078C0B2002810D1094884
S1138DD00078C0B200280BD10D480178C9B22048F0
S1138DE0FFF77AFD03480178C9B21E48FFF774FD06
S1138DF001BD000001F0074064980000EC9B0000F6
S1138E00FC9B00000C9C00007C990000CC9C0000A2
S1138E1000F007401C9C0000689B0000089A0000BA
S1138E20209A0000989900003497000000E0074061
S1138E30E098000001E007400099000002E00740CC
S1138E408898000003E00740209900007C9B000004
S1138E50389A0000509A0000689A0000809A000036
S1138E60C4970000EC97000000F008F900F022F924
S1138E7000F06EF960A0FFF72FFDFFF7CDFE00F0C4
S1138E8003F800F0F3F9FEE780B55C4800680009D8
S1138E9010F00700002805D002280BD006D30328C1
S1138EA00CD00FE05648FFF717FD0EE05548FFF7CA
S1138EB013FD0AE05448FFF70FFD06E05348FFF79F
S1138EC00BFD02E05248FFF707FD4C48006810F024
S1138ED00F00022812D0042814D0052816D0062822
S1138EE018D007281AD008281CD009281ED00A2810
S1138EF020D00C2822D00E2824D027E04548FFF7A4
S1138F00EBFC26E04448FFF7E7FC22E04348FFF788
S1138F10E3FC1EE04248FFF7DFFC1AE04148FFF79C
S1138F20DBFC16E04048FFF7D7FC12E03F48FFF7B0
S1138F30D3FC0EE03E48FFF7CFFC0AE03D48FFF7C4
S1138F40CBFC06E03C48FFF7C7FC02E03B48FFF7D8
S1138F50C3FC2A480068C0F30330002803D1384812
S1138F60FFF7BAFC02E03748FFF7B6FC00F084F8DC
S1138F7035480068000E10F00F00072808D00928B3
S1138F800AD00B280CD00D280ED00F2810D013E0D7
S1138F902E48FFF7A1FC12E02D48FFF79DFC0EE0E0
S1138FA02C48FFF799FC0AE02B48FFF795FC06E0F4
S1138FB02A48FFF791FC02E02948FFF78DFC294875
S1138FC00068000B10F00F00052804D0072806D015
S1138FD0092808D00BE02448FFF77EFC0AE0234868
S1138FE0FFF77AFC06E02248FFF776FC02E021480E
S1138FF0FFF772FC01BD00000A0A0000248004404F
S1139000809D0000889D0000909D0000989D0000B8
S1139010149800002C9C00003C9C00004C9C000018
S11390205C9C00006C9C00007C9C00008C9C0000FC
S11390309C9C0000AC9C0000BC9C00009897000025
S1139040989A0000BC9600004C800440B09A00003E
S1139050C89A0000B4990000D0990000E09A00007A
S11390604099000000700440909B0000A49B000005
S1139070F89A0000EC9900007047000080B500F0F9
S113908009F80A4800884FF6FE710840074908802D
S113909001BD000072B606484CF22051018004481C
S11390A04DF62811018062B670470000002005408B
S11390B00E20054080B51C481C4988420BD0002076
S11390C006E01949194A52F8202041F82020401C92
S11390D0B0F5826FF5D3144800F056F91449154AD7
S11390E01548801A03E013780B70521C491C0300C6
S11390F0581E002BF7D111491148401A02E00022F2
S11391000A70491C0200501E002AF8D10D490E4A6B
S11391100E48801A03E013780B70521C491C03009C
S1139120581E002BF7D101BD0000FF1F00000000F6
S11391300000000000000000000000001004FF1FF9
S11391402004FF1F2004FF1F000000000000000097
S113915000B583B03548006850F47850334908604E
S113916033480078000705D53148007850F00800EE
S11391702F4908702F4830490160012001903220A6
S113918000900423012200212C48FFF7D5FB2C4931
S113919008602B480068FF2800DCFEE728480068C8
S11391A04FF47A7190FBF1F0264908602548006875
S11391B020490968090F491CB0FBF1F022490860F5
S11391C0204800681B490968C1F30361491CB0FBCE
S11391D0F1F01E49086000F012F800F01BF81C487A
S11391E04FF4407101601B484FF4407101605FF41B
S11391F0E13215480168184800F034F907BD1748F2
S1139200006850F480501549086015484FF4E8612F
S1139210016070471348006850F00100114908606C
S113922011484FF4A8610160704700003880044081
S113923002D00740448004400000130100127A0069
S11392401004FF1F1404FF1F1804FF1F1C04FF1F3A
S1139250389004403C90044000A006400480044040
S113926018900440408004400CB004403648FFF796
S113927033FB36484FF4785101603D2000F087F805
S113928000F033F809E03248006850F080003049BB
S113929008604FF4FA7000F05FF92D48006830F070
S11392A010002B4908602B48006850F02000294921
S11392B0086029480068400606D42548006830F054
S11392C040002349086005E02148006850F0400050
S11392D01F490860204800680006D4D41C48006870
S11392E030F080001A490860D3E71C481C4901602B
S11392F01C481B4901601C484FF4807101601B48E5
S11393004FF4807101601A484FF48071016019486C
S11393104FF4807101601848F0210160704780B5F6
S113932016480068400602D51548FFF7D5FA1348D9
S11393300068000602D51348FFF7CEFA0F485FF025
S1139340FF31016001BD00006099000038800440D5
S1139350C0F00F40CCF00F4090F00F4018B0044024
S113936003010A001CB0044010C0044014C00440AF
S113937018C004401CC00440D4F00F40A0B0044006
S1139380CC9B0000DC9B00002E490860704710B5A0
S113939004005C2C02DB2C48FFF79EFA202094FB8F
S11393A0F0F0002803D0022833D019D349E027482D
S11393B000680121202294FBF2F303FB124399403D
S11393C0084322490860224800680121202294FBB6
S11393D0F2F303FB1243994008431D49086030E04F
S11393E01C4800680121202294FBF2F303FB124382
S11393F09940084317490860174800680121202252
S113940094FBF2F303FB12439940084312490860AA
S113941017E0124800680121202294FBF2F303FBB9
S11394201243994008430D4908600D480068012122
S1139430202294FBF2F303FB1243994008430849AA
S1139440086010BD08ED00E0FC96000080E200E03A
S113945000E100E084E200E004E100E088E200E0F2
S113946008E100E030B4324B984206D1314B1B681E
S113947053F480632F4C23602DE02F4B984206D188
S11394802C4B1B6853F400632A4C236023E02B4BC2
S1139490984206D1274B1B6853F48053254C236014
S11394A019E0274B984206D1224B1B6853F4005312
S11394B0204C23600FE0234B984206D1224B1B68BB
S11394C053F48063204C236005E01F4B1B6853F466
S11394D000631D4C2360C37813F0F303C3700023AF
S11394E083704FF47A7303FB01F3140193FBF4F3D9
S11394F0047814F0E0049BB21D0A15F01F052C43F8
S1139500047043704FF4FA446143120191FBF2F189
S11395109BB2B1EB4311827A12F0E00411F01F0107
S113952021438172C17851F00C01C17030BC704785
S113953000A006403480044000B0064000C006404D
S113954000D0064000A00E40288004400279120694
S1139550FCD5C171704700000D49096851F0010143
S11395600B4A11600B4908600B48012101600B484C
S1139570006850F0010009490860084800680006C6
S1139580FBD506480068400840000449086070475D
S113959038800440080004400400044000000440F3
S11395A080B52F480178C9B22E48FFF795F901BD5F
S11395B080B52D48006850F080702B4908602B4816
S11395C0FFF78AF901BD2DE9F84F046845688668FC
S11395D0C768D0F81080D0F81490D0F818A0D0F84C
S11395E01CB02348FFF778F921002248FFF774F9EB
S11395F029002148FFF770F931002048FFF76CF982
S113960039001F48FFF768F941461E48FFF764F91F
S113961049461D48FFF760F951461C48FFF75CF9BD
S113962059461B48FFF758F91A4801681A48FFF7CA
S113963053F91A4801681A48FFF74EF919480168A6
S11396401948FFF749F9194801681948FFF744F91F
S1139650184801681848FFF73FF9BDE8F18F00008A
S113966004ED00E06897000010900440AC980000FE
S1139670109B0000D89C0000E49C0000F09C0000BB
S1139680FC9C0000089D0000149D0000209D00002B
S11396902C9D000038ED00E0389D000028ED00E02E
S11396A0449D00002CED00E0509D000030ED00E0F2
S11396B05C9D00003CED00E0689D00000A54686970
S11396C0732076657273696F6E206F6620736F66A0
S11396D0747761726520646F65736E277420726598
S11396E0636F676E697A6520746865207265766950
S11396F073696F6E20636F64652E00000A455252D1
S11397002120496E76616C6964204952512076614A
S11397106C75652070617373656420746F20656E69
S113972061626C65206972712066756E6374696F1D
S11397306E210A005B6F75745352535D57616B65FC
S1139740757020626974207365742066726F6D2071
S11397506C6F7720706F776572206D6F646520651C
S11397607869740A000000000A2A2A2A2A646566B5
S113977061756C745F69737220656E74657265647B
S1139780206F6E20766563746F722025642A2A2AFE
S11397902A2A0D0A0A0000000A556E7265636F6773
S11397A06E697A6564204B696E65746973207061B3
S11397B0636B61676520636F64652E202020202021
S11397C0200000005B6F75745352535D52434D5F2C
S11397D053525330206973205A45524F2020203D64
S11397E0202523303258200D0A0000005B6F757469
S11397F05352535D52434D5F53525331206973208A
S11398005A45524F2020203D202523303258200D28
S11398100A0000000A556E7265636F676E697A65A7
S113982064204B696E657469732066616D696C7937
S1139830206465766963652E0A00000010B5074947
S113984079441831064C7C44163404E0081D0A6837
S1139850511888470146A142F8D110BD7400000098
S11398608000000053746F70204D6F646520416365
S11398706B6E6F776C65646765204572726F7220DA
S113988052657365740A00005B6F75745352535DBF
S1139890534D435F564C4C534354524C2020203D6F
S11398A0202523303258200D0A0000000A2A2A2AD3
S11398B02A41626F727420627574746F6E20696ECF
S11398C0746572727570742A2A2A2A0A0A000000C2
S11398D047F0FFFF100000001004FF1F000000000D
S11398E05B6F75745352535D534D435F504D5052EB
S11398F04F542020203D202523303258200D0A00CB
S11399005B6F75745352535D534D435F504D4354D5
S1139910524C2020203D202523303258200D0A00AF
S11399205B6F75745352535D534D435F504D5354A5
S113993041542020203D202523303258200D0A0098
S1139940455252212120556E646566696E65642016
S1139950502D666C6173682073697A650A00000093
S11399605457522D4B32314435304D204750494FD6
S1139970204578616D706C65210A0000436F726543
S1139980204C6F636B7570204576656E742052654C
S11399907365740A000000004C6F772D766F6C7449
S11399A061676520446574656374205265736574EA
S11399B00A000000353132206B4279746573206FE0
S11399C06620502D666C61736820202020200000E2
S11399D031303234206B4279746573206F662050C5
S11399E02D666C61736820202020000020455252AF
S11399F0212120556E646566696E65642052414D6F
S1139A002073697A650A0A005761746368646F6732
S1139A1028434F50292052657365740A00000000E2
S1139A204C6F7373206F6620436C6F636B205265B9
S1139A307365740A000000005B6F75745352535DC4
S1139A4020564C4C53302065786974200A0000007D
S1139A505B6F75745352535D20564C4C53312065E3
S1139A60786974200A0000005B6F75745352535D6B
S1139A7020564C4C53322065786974200A0000004B
S1139A805B6F75745352535D20564C4C53332065B1
S1139A90786974200A00000053696C69636F6E2052
S1139AA072657620312E302020200A20000000002C
S1139AB0313238206B4279746573206F6620502DE3
S1139AC0666C617368090000323536206B42797424
S1139AD06573206F6620502D666C61736809000001
S1139AE0353132206B4279746573206F6620502DB6
S1139AF0666C61736809000020313238206B42794A
S1139B00746573206F662052414D0A0A00000000FC
S1139B105B48617264206661756C742068616E6470
S1139B206C65725D0A00000000F009F8002801D09D
S1139B30FFF784FE0020FFF799FB00F002F80120F4
S1139B40704700F001B800000746384600F002F8FC
S1139B50FBE70000C046C046024A11001820ABBE15
S1139B60FBE700BF2600020045787465726E616CE5
S1139B702050696E2052657365740A005B6F7574BA
S1139B805352535D204C4C532065786974200A006D
S1139B90203332206B4279746573206F6620524102
S1139BA04D0A0A00203634206B4279746573206FA5
S1139BB0662052414D0A0A0080B50100C9B202482C
S1139BC0FFF7C4FC01BD000000A00640535733203A
S1139BD0507265737365640A0000000053573220A5
S1139BE0507265737365640A00000000457A506F13
S1139BF072742052657365740A0000004D444D2D43
S1139C0041502052657365740A000000536F6674F6
S1139C10776172652052657365740A00506F7765C9
S1139C20722D6F6E2052657365740A003332207092
S1139C30696E20202020202020000000343820706D
S1139C40696E20202020202020000000363420705F
S1139C50696E202020202020200000003830207051
S1139C60696E202020202020200000003831207040
S1139C70696E202020202020200000003130302078
S1139C8070696E2020202020200000003132312015
S1139C9070696E2020202020200000003134342000
S1139CA070696E20202020202000000031393620E9
S1139CB070696E20202020202000000032353620DC
S1139CC070696E2020202020200000004A54414763
S1139CD02052657365740A005230203D2025780AAD
S1139CE0000000005231203D2025780A00000000C9
S1139CF05232203D2025780A000000005233203DD6
S1139D002025780A00000000523132203D202578B9
S1139D100A0000004C52203D2025780A0000000073
S1139D205043203D2025780A000000005053522063
S1139D303D2025780A00000042464152203D20255E
S1139D40780A000043465352203D2025780A00003B
S1139D5048465352203D2025780A00004446535279
S1139D60203D2025780A000041465352203D2025FD
S1139D70780A0000C046C046C046C046FFF7D4FE7D
S1139D800A4B3132442D00000A4B3232442D00007C
S1139D900A4B3131442D00000A4B3231462D00006C
S9039D75EA
