S01D00005457524B32304435304D5F44656D6F5F746F7765722E73726563F3
S1131000F81F0020011400003D2201003D220100D0
S11310103D2201003D2201003D2201003D2201004C
S11310203D2201003D2201003D2201003D2201003C
S11310303D2201003D2201003D2201003D2201002C
S1131040F90F01003D2201003D2201003D22010073
S11310503D220100871001003D2201003D220100D4
S11310603D2201003D2201003D2201003D220100FC
S11310703D2201003D2201003D2201003D220100EC
S11310803D2201003D22010075E800003D220100DF
S11310903D2201003D2201004D0E01003D220100D0
S11310A03D2201003D2201003D220100A3F7000082
S11310B0EFEE00003D2201003D220100D9F10000C5
S11310C03D2201003D2201006B0E01003D22010082
S11310D03D220100FD1701003D2201003D220100D7
S11310E03D2201003D2201003D2201003D2201007C
S11310F03D2201003D220100FFFFFFFFFFFFFFFF34
S1131100FFFFFFFFFFFFFFFFFFFFFFFFFFFFFFFFEB
S1131110FFFFFFFFFFFFFFFFFFFFFFFFFFFFFFFFDB
S1131120FFFFFFFFFFFFFFFFFFFFFFFFFFFFFFFFCB
S1131130FFFFFFFFFFFFFFFFFFFFFFFFFFFFFFFFBB
S11314004FF000004FF000014FF000024FF00003D6
S11314104FF000044FF000054FF000064FF00007B6
S113142062B60FF091FFFEE730B581B092B2049C32
S113143002605208426000250FF264020261174AFA
S11314404261037244720268802A11D0B2F5007FAF
S11314500BD0B2F5006F05D0B2F5005F0BD10122BD
S1131460C2600AE00422C26007E01022C26004E005
S11314704022C26001E04FF0FF3581614168846918
S1131480007A002819BF012301220123002289B216
S1131490204604F005F8284601B030BD345500005C
S11314A0004000C0F33F00C0E73F00C0DA3F00C087
S11314B0CE3F00C0C13F00C0B53F00C0A83F00C040
S11314C09B3F00C08F3F00C0823F00C0763F01C0F9
S11314D0693F01C05D3F01C0503F01C0443F01C0AE
S11314E0373F01C02A3F01C01E3F02C0113F02C066
S11314F0053F02C0F83E02C0EC3E02C0DF3E03C01E
S1131500D23E03C0C63E03C0B93E03C0AD3E04C0D4
S1131510A03E04C0943E04C0873E04C07A3E05C089
S11315206E3E05C0613E05C0553E06C0483E06C03D
S11315303C3E06C02F3E07C0233E07C0163E07C0F0
S1131540093E08C0FD3D08C0F03D09C0E43D09C0A6
S1131550D73D09C0CB3D0AC0BE3D0AC0B23D0BC059
S1131560A53D0BC0983D0CC08C3D0CC07F3D0DC00B
S1131570733D0DC0663D0EC05A3D0EC04D3D0FC0BB
S1131580403D0FC0343D10C0273D10C01B3D11C06D
S11315900E3D11C0023D12C0F53C13C0E93C13C01E
S11315A0DC3C14C0D03C14C0C33C15C0B63C16C0CF
S11315B0AA3C16C09D3C17C0913C18C0843C18C07E
S11315C0783C19C06B3C1AC05F3C1AC0523C1BC02B
S11315D0453C1CC0393C1DC02C3C1DC0203C1EC0D9
S11315E0133C1FC0073C20C0FA3B20C0EE3B21C087
S11315F0E13B22C0D53B23C0C83B24C0BC3B24C034
S1131600AF3B25C0A23B26C0963B27C0893B28C0E0
S11316107D3B29C0703B2AC0643B2BC0573B2BC089
S11316204B3B2CC03E3B2DC0323B2EC0253B2FC034
S1131630193B30C00C3B31C0003B32C0F33A33C0DD
S1131640E63A34C0DA3A35C0CD3A36C0C13A37C08A
S1131650B43A38C0A83A39C09B3A3AC08F3A3BC032
S1131660823A3CC0763A3DC0693A3FC05D3A40C0D8
S1131670503A41C0443A42C0373A43C02B3A44C07E
S11316801E3A45C0123A47C0053A48C0F93949C024
S1131690EC394AC0E0394BC0D3394CC0C7394EC0CD
S11316A0BA394FC0AE3950C0A13951C0953953C071
S11316B0883954C07C3955C06F3956C0633958C015
S11316C0563959C04A395AC03D395CC031395DC0B8
S11316D024395EC0183960C00B3961C0FF3862C05C
S11316E0F23864C0E63865C0D93867C0CD3868C000
S11316F0C03869C0B4386BC0A7386CC09B386EC0A2
S11317008E386FC0823871C0753872C0693874C041
S11317105C3875C0503877C0433878C037387AC0E1
S11317202A387BC01E387DC011387EC0053880C081
S1131730F93781C0EC3783C0E03785C0D33786C022
S1131740C73788C0BA3789C0AE378BC0A1378DC0C0
S113175095378EC0883790C07C3792C06F3793C05E
S1131760633795C0573797C04A3798C03E379AC0F9
S113177031379CC025379EC018379FC00C37A1C095
S1131780FF36A3C0F336A5C0E736A6C0DA36A8C034
S1131790CE36AAC0C136ACC0B536AEC0A836AFC0CE
S11317A09C36B1C09036B3C08336B5C07736B7C067
S11317B06A36B9C05E36BBC05136BDC04536BEC000
S11317C03936C0C02C36C2C02036C4C01336C6C099
S11317D00736C8C0FA35CAC0EE35CCC0E235CEC033
S11317E0D535D0C0C935D2C0BC35D4C0B035D6C0CB
S11317F0A435D8C09735DAC08B35DCC07E35DEC061
S11318007235E0C06635E2C05935E4C04D35E7C0F5
S11318104035E9C03435EBC02835EDC01B35EFC089
S11318200F35F1C00335F3C0F634F6C0EA34F8C01E
S1131830DD34FAC0D134FCC0C534FEC0B83400C1B4
S1131840AC3403C1A03405C1933407C1873409C142
S11318507B340CC16E340EC1623410C1553413C1D3
S1131860493415C13D3417C1303419C124341CC165
S113187018341EC10B3420C1FF3323C1F33325C1F7
S1131880E63328C1DA332AC1CE332CC1C1332FC188
S1131890B53331C1A93334C19C3336C1903338C117
S11318A084333BC177333DC16B3340C15F3342C1A5
S11318B0523345C1463347C13A334AC12D334CC133
S11318C021334FC1153351C1083354C1FC3256C1C1
S11318D0F03259C1E4325BC1D7325EC1CB3261C14F
S11318E0BF3263C1B23266C1A63268C19A326BC1DB
S11318F08E326EC1813270C1753273C1693276C164
S11319005C3278C150327BC144327EC1383280C1EE
S11319102B3283C11F3286C1133289C107328BC176
S1131920FA318EC1EE3191C1E23194C1D53196C103
S1131930C93199C1BD319CC1B1319FC1A431A2C18A
S11319409831A4C18C31A7C18031AAC17431ADC111
S11319506731B0C15B31B3C14F31B6C14331B8C196
S11319603631BBC12A31BEC11E31C1C11231C4C11D
S11319700531C7C1F930CAC1ED30CDC1E130D0C1A4
S1131980D530D3C1C830D6C1BC30D9C1B030DCC128
S1131990A430DFC19830E2C18B30E5C17F30E8C1AB
S11319A07330EBC16730EEC15B30F1C14E30F4C12E
S11319B04230F7C13630FAC12A30FDC11E3001C2AF
S11319C0123004C2053007C2F92F0AC2ED2F0DC22E
S11319D0E12F10C2D52F13C2C92F17C2BC2F1AC2B0
S11319E0B02F1DC2A42F20C2982F23C28C2F27C230
S11319F0802F2AC2742F2DC2672F30C25B2F34C2AE
S1131A004F2F37C2432F3AC2372F3EC22B2F41C22A
S1131A101F2F44C2132F47C2062F4BC2FA2E4EC2A9
S1131A20EE2E51C2E22E55C2D62E58C2CA2E5CC228
S1131A30BE2E5FC2B22E62C2A62E66C2992E69C2A3
S1131A408D2E6DC2812E70C2752E73C2692E77C21F
S1131A505D2E7AC2512E7EC2452E81C2392E85C298
S1131A602D2E88C2212E8CC2152E8FC2092E93C210
S1131A70FC2D96C2F02D9AC2E42D9DC2D82DA1C290
S1131A80CC2DA5C2C02DA8C2B42DACC2A82DAFC206
S1131A909C2DB3C2902DB7C2842DBAC2782DBEC27C
S1131AA06C2DC1C2602DC5C2542DC9C2482DCCC2F3
S1131AB03C2DD0C2302DD4C2242DD8C2182DDBC267
S1131AC00C2DDFC2002DE3C2F42CE6C2E82CEAC2DE
S1131AD0DC2CEEC2D02CF2C2C42CF5C2B82CF9C254
S1131AE0AC2CFDC2A02C01C3942C05C3882C08C3C4
S1131AF07C2C0CC3702C10C3642C14C3582C18C336
S1131B004C2C1CC3402C20C3342C23C3282C27C3A7
S1131B101C2C2BC3102C2FC3052C33C3F92B37C318
S1131B20ED2B3BC3E12B3FC3D52B43C3C92B47C389
S1131B30BD2B4BC3B12B4FC3A52B53C3992B57C3F9
S1131B408D2B5BC3812B5FC3752B63C36A2B67C368
S1131B505E2B6BC3522B6FC3462B73C33A2B77C3D5
S1131B602E2B7BC3222B7FC3162B83C30A2B87C345
S1131B70FF2A8CC3F32A90C3E72A94C3DB2A98C3B1
S1131B80CF2A9CC3C32AA0C3B72AA5C3AC2AA9C31E
S1131B90A02AADC3942AB1C3882AB5C37C2ABAC388
S1131BA0702ABEC3652AC2C3592AC6C34D2ACAC3F2
S1131BB0412ACFC3352AD3C3292AD7C31E2ADCC35B
S1131BC0122AE0C3062AE4C3FA29E9C3EE29EDC3C5
S1131BD0E329F1C3D729F6C3CB29FAC3BF29FEC32E
S1131BE0B42903C4A82907C49C290BC4902910C490
S1131BF0842914C4792919C46D291DC4612922C4F6
S1131C00552926C44A292AC43E292FC4322933C45B
S1131C10262938C41B293CC40F2941C4032945C4BF
S1131C20F7284AC4EC284EC4E02853C4D42857C427
S1131C30C9285CC4BD2861C4B12865C4A5286AC488
S1131C409A286EC48E2873C4822878C477287CC4EA
S1131C506B2881C45F2885C454288AC448288FC44B
S1131C603C2893C4312898C425289DC41928A1C4AC
S1131C700E28A6C40228ABC4F627B0C4EB27B4C40C
S1131C80DF27B9C4D327BEC4C827C2C4BC27C7C46E
S1131C90B127CCC4A527D1C49927D6C48E27DAC4CA
S1131CA08227DFC47727E4C46B27E9C45F27EEC427
S1131CB05427F2C44827F7C43D27FCC4312701C583
S1131CC0252706C51A270BC50E2710C5032715C5DA
S1131CD0F7261AC5EC261EC5E02623C5D42628C53A
S1131CE0C9262DC5BD2632C5B22637C5A6263CC594
S1131CF09B2641C58F2646C584264BC5782650C5EC
S1131D006D2655C561265AC556265FC54A2664C543
S1131D103F2669C533266EC5282673C51C2678C59B
S1131D2011267EC5052683C5FA2588C5EE258DC5F1
S1131D30E32592C5D72597C5CC259CC5C025A1C54B
S1131D40B525A7C5A925ACC59E25B1C59225B6C59F
S1131D508725BBC57C25C1C57025C6C56525CBC5F2
S1131D605925D0C54E25D5C54225DBC53725E0C547
S1131D702C25E5C52025EAC51525F0C50925F5C599
S1131D80FE24FAC5F32400C6E72405C6DC240AC6EB
S1131D90D02410C6C52415C6BA241AC6AE2420C63B
S1131DA0A32425C698242AC68C2430C6812435C68B
S1131DB076243BC66A2440C65F2445C654244BC6D9
S1131DC0482450C63D2456C632245BC6262461C628
S1131DD01B2466C610246CC6042471C6F92377C676
S1131DE0EE237CC6E22382C6D72387C6CC238DC6C6
S1131DF0C12392C6B52398C6AA239DC69F23A3C612
S1131E009423A8C68823AEC67D23B4C67223B9C65C
S1131E106723BFC65B23C5C65023CAC64523D0C6A5
S1131E203A23D5C62E23DBC62323E1C61823E6C6F0
S1131E300D23ECC60123F2C6F622F7C6EB22FDC63B
S1131E40E02203C7D52209C7CA220EC7BE2214C77F
S1131E50B3221AC7A82220C79D2225C792222BC7C6
S1131E60872231C77B2237C770223DC7652242C70C
S1131E705A2248C74F224EC7442254C739225AC750
S1131E802D225FC7222265C717226BC70C2271C798
S1131E90012277C7F6217DC7EB2183C7E02189C7DB
S1131EA0D5218FC7CA2195C7BE219AC7B321A0C720
S1131EB0A821A6C79D21ACC79221B2C78721B8C764
S1131EC07C21BEC77121C4C76621CAC75B21D0C7A4
S1131ED05021D6C74521DCC73A21E2C72F21E8C7E4
S1131EE02421EEC71921F5C70E21FBC7032101C820
S1131EF0F82007C8ED200DC8E22013C8D72019C860
S1131F00CC201FC8C12025C8B6202BC8AB2032C89E
S1131F10A02038C895203EC88A2044C87F204AC8DB
S1131F20742050C8692057C85E205DC8542063C817
S1131F30492069C83E2070C8332076C828207CC850
S1131F401D2082C8122089C807208FC8FC1F95C88D
S1131F50F11F9BC8E71FA2C8DC1FA8C8D11FAEC8C9
S1131F60C61FB5C8BB1FBBC8B01FC1C8A51FC8C802
S1131F709B1FCEC8901FD4C8851FDBC87A1FE1C839
S1131F806F1FE8C8651FEEC85A1FF4C84F1FFBC86F
S1131F90441F01C9391F08C92F1F0EC9241F15C9A1
S1131FA0191F1BC90E1F21C9031F28C9F91E2EC9D9
S1131FB0EE1E35C9E31E3BC9D81E42C9CE1E48C910
S1131FC0C31E4FC9B81E55C9AD1E5CC9A31E63C943
S1131FD0981E69C98D1E70C9831E76C9781E7DC975
S1131FE06D1E83C9621E8AC9581E91C94D1E97C9A8
S1131FF0421E9EC9381EA4C92D1EABC9221EB2C9D9
S1132000181EB8C90D1EBFC9021EC6C9F81DCCC909
S1132010ED1DD3C9E21DDAC9D81DE0C9CD1DE7C93C
S1132020C31DEEC9B81DF5C9AD1DFBC9A31D02CA68
S1132030981D09CA8E1D10CA831D16CA781D1DCA93
S11320406E1D24CA631D2BCA591D32CA4E1D38CABF
S1132050441D3FCA391D46CA2E1D4DCA241D54CAEB
S1132060191D5BCA0F1D61CA041D68CAFA1C6FCA18
S1132070EF1C76CAE51C7DCADA1C84CAD01C8BCA44
S1132080C51C92CABB1C99CAB01C9FCAA61CA6CA6E
S11320909B1CADCA911CB4CA861CBBCA7C1CC2CA98
S11320A0721CC9CA671CD0CA5D1CD7CA521CDECABE
S11320B0481CE5CA3D1CECCA331CF3CA291CFACAE5
S11320C01E1C01CB141C08CB091C0FCBFF1B16CB09
S11320D0F51B1ECBEA1B25CBE01B2CCBD51B33CB2E
S11320E0CB1B3ACBC11B41CBB61B48CBAC1B4FCB54
S11320F0A21B56CB971B5ECB8D1B65CB831B6CCB76
S1132100781B73CB6E1B7ACB641B81CB591B89CB99
S11321104F1B90CB451B97CB3B1B9ECB301BA5CBBA
S1132120261BADCB1C1BB4CB111BBBCB071BC2CBDB
S1132130FD1ACACBF31AD1CBE81AD8CBDE1AE0CBFE
S1132140D41AE7CBCA1AEECBBF1AF5CBB51AFDCB1E
S1132150AB1A04CCA11A0BCC971A13CC8C1A1ACC38
S1132160821A21CC781A29CC6E1A30CC641A38CC55
S11321705A1A3FCC4F1A46CC451A4ECC3B1A55CC72
S1132180311A5DCC271A64CC1D1A6BCC131A73CC8C
S1132190081A7ACCFE1982CCF41989CCEA1991CCAC
S11321A0E01998CCD619A0CCCC19A7CCC219AFCCC5
S11321B0B819B6CCAE19BECCA419C5CC9A19CDCCDD
S11321C08F19D4CC8519DCCC7B19E3CC7119EBCCF9
S11321D06719F3CC5D19FACC531902CD491909CD0D
S11321E03F1911CD351919CD2B1920CD211928CD21
S11321F0171930CD0D1937CD03193FCDF91846CD38
S1132200EF184ECDE61856CDDC185DCDD21865CD4D
S1132210C8186DCDBE1875CDB4187CCDAA1884CD60
S1132220A0188CCD961893CD8C189BCD8218A3CD75
S11322307818ABCD6F18B2CD6518BACD5B18C2CD86
S11322405118CACD4718D2CD3D18D9CD3318E1CD98
S11322502A18E9CD2018F1CD1618F9CD0C1801CEA5
S1132260021808CEF81710CEEF1718CEE51720CEB7
S1132270DB1728CED11730CEC81738CEBE1740CEC4
S1132280B41747CEAA174FCEA01757CE97175FCED5
S11322908D1767CE83176FCE7A1777CE70177FCEE0
S11322A0661787CE5C178FCE531797CE49179FCEEC
S11322B03F17A7CE3617AFCE2C17B7CE2217BFCEF7
S11322C01917C7CE0F17CFCE0517D7CEFC16DFCE02
S11322D0F216E7CEE816EFCEDF16F7CED516FFCE10
S11322E0CB1607CFC21610CFB81618CFAF1620CF13
S11322F0A51628CF9B1630CF921638CF881640CF1C
S11323007F1648CF751651CF6C1659CF621661CF20
S1132310591669CF4F1671CF451679CF3C1682CF27
S113232032168ACF291692CF1F169ACF1616A3CF2C
S11323300C16ABCF0316B3CFF915BBCFF015C4CF32
S1132340E615CCCFDD15D4CFD415DCCFCA15E5CF37
S1132350C115EDCFB715F5CFAE15FECFA41506D038
S11323609B150ED0921516D088151FD07F1527D037
S1132370751530D06C1538D0631540D0591549D037
S1132380501551D0471559D03D1562D034156AD037
S11323902A1573D021157BD0181583D00E158CD037
S11323A0051594D0FC149DD0F314A5D0E914AED037
S11323B0E014B6D0D714BFD0CD14C7D0C414D0D035
S11323C0BB14D8D0B214E0D0A814E9D09F14F2D032
S11323D09614FAD08D1403D183140BD17A1414D12A
S11323E071141CD1681425D15F142DD1551436D124
S11323F04C143ED1431447D13A1450D1311458D11E
S1132400281461D11E1469D1151472D10C147BD116
S1132410031483D1FA138CD1F11395D1E8139DD110
S1132420DF13A6D1D513AFD1CC13B7D1C313C0D109
S1132430BA13C9D1B113D1D1A813DAD19F13E3D1FF
S11324409613EBD18D13F4D18413FDD17B1306D2F3
S113245072130ED2691317D2601320D2571329D2E4
S11324604E1331D245133AD23C1343D233134CD2D8
S11324702A1355D221135DD2181366D20F136FD2CB
S1132480061378D2FD1281D2F4128AD2EB1292D2C0
S1132490E2129BD2D912A4D2D112ADD2C812B6D2B2
S11324A0BF12BFD2B612C8D2AD12D1D2A412D9D2A1
S11324B09B12E2D29212EBD28A12F4D28112FDD292
S11324C0781206D36F120FD3661218D35D1221D37C
S11324D055122AD34C1233D343123CD33A1245D368
S11324E031124ED3291257D3201260D3171269D355
S11324F00E1272D306127BD3FD1184D3F4118DD343
S1132500EB1196D3E3119FD3DA11A8D3D111B1D330
S1132510C911BAD3C011C3D3B711CCD3AF11D5D31A
S1132520A611DFD39D11E8D39511F1D38C11FAD301
S1132530831103D47B110CD4721115D469111ED4E8
S1132540611128D4581131D450113AD4471143D4CD
S11325503E114CD4361155D42D115FD4251168D4B5
S11325601C1171D414117AD40B1183D403118DD49A
S1132570FA1096D4F2109FD4E910A8D4E010B2D483
S1132580D810BBD4D010C4D4C710CDD4BF10D7D466
S1132590B610E0D4AE10E9D4A510F3D49D10FCD449
S11325A0941005D58C100ED5831018D57B1021D529
S11325B073102AD56A1034D562103DD5591047D509
S11325C0511050D5491059D5401063D538106CD5E9
S11325D0301075D527107FD51F1088D5161092D5C9
S11325E00E109BD50610A4D5FE0FAED5F50FB7D5AA
S11325F0ED0FC1D5E50FCAD5DC0FD4D5D40FDDD589
S1132600CC0FE6D5C40FF0D5BB0FF9D5B30F03D665
S1132610AB0F0CD6A30F16D69A0F1FD6920F29D63E
S11326208A0F32D6820F3CD6790F45D6710F4FD61A
S1132630690F59D6610F62D6590F6CD6510F75D6F2
S1132640480F7FD6400F88D6380F92D6300F9BD6CE
S1132650280FA5D6200FAFD6180FB8D6100FC2D6A4
S1132660070FCBD6FF0ED5D6F70EDFD6EF0EE8D682
S1132670E70EF2D6DF0EFCD6D70E05D7CF0E0FD756
S1132680C70E19D7BF0E22D7B70E2CD7AF0E36D729
S1132690A70E3FD79F0E49D7970E53D78F0E5CD7FF
S11326A0870E66D77F0E70D7770E7AD76F0E83D7D3
S11326B0670E8DD75F0E97D7570EA0D74F0EAAD7A8
S11326C0470EB4D7400EBED7380EC8D7300ED1D778
S11326D0280EDBD7200EE5D7180EEFD7100EF8D74B
S11326E0080E02D8010E0CD8F90D16D8F10D20D819
S11326F0E90D2AD8E10D33D8D90D3DD8D20D47D8EC
S1132700CA0D51D8C20D5BD8BA0D65D8B20D6FD8B9
S1132710AB0D78D8A30D82D89B0D8CD8930D96D889
S11327208C0DA0D8840DAAD87C0DB4D8750DBED854
S11327306D0DC8D8650DD2D85D0DDCD8560DE6D820
S11327404E0DEFD8460DF9D83F0D03D9370D0DD9ED
S1132750300D17D9280D21D9200D2BD9190D35D9B4
S1132760110D3FD9090D49D9020D53D9FA0C5DD980
S1132770F30C67D9EB0C71D9E30C7BD9DC0C85D94C
S1132780D40C8FD9CD0C9AD9C50CA4D9BE0CAED912
S1132790B60CB8D9AF0CC2D9A70CCCD9A00CD6D9D9
S11327A0980CE0D9910CEAD9890CF4D9820CFED9A1
S11327B07A0C08DA730C13DA6B0C1DDA640C27DA62
S11327C05D0C31DA550C3BDA4E0C45DA460C4FDA27
S11327D03F0C5ADA380C64DA300C6EDA290C78DAE9
S11327E0210C82DA1A0C8CDA130C97DA0B0CA1DAAE
S11327F0040CABDAFD0BB5DAF50BBFDAEE0BCADA73
S1132800E70BD4DAE00BDEDAD80BE8DAD10BF3DA33
S1132810CA0BFDDAC20B07DBBB0B11DBB40B1CDBF1
S1132820AD0B26DBA50B30DB9E0B3BDB970B45DBAF
S1132830900B4FDB890B59DB810B64DB7A0B6EDB6E
S1132840730B78DB6C0B83DB650B8DDB5E0B97DB2B
S1132850560BA2DB4F0BACDB480BB6DB410BC1DBE9
S11328603A0BCBDB330BD5DB2C0BE0DB250BEADBA4
S11328701E0BF5DB160BFFDB0F0B09DC080B14DC5E
S1132880010B1EDCFA0A29DCF30A33DCEC0A3DDC1A
S1132890E50A48DCDE0A52DCD70A5DDCD00A67DCD4
S11328A0C90A72DCC20A7CDCBB0A86DCB40A91DC8D
S11328B0AD0A9BDCA60AA6DC9F0AB0DC990ABBDC45
S11328C0920AC5DC8B0AD0DC840ADADC7D0AE5DCFA
S11328D0760AEFDC6F0AFADC680A04DD610A0FDDB0
S11328E05B0A19DD540A24DD4D0A2EDD460A39DD62
S11328F03F0A44DD380A4EDD320A59DD2B0A63DD16
S1132900240A6EDD1D0A78DD160A83DD100A8EDDC9
S1132910090A98DD020AA3DDFB09ADDDF509B8DD7E
S1132920EE09C3DDE709CDDDE009D8DDDA09E2DD32
S1132930D309EDDDCC09F8DDC60902DEBF090DDEE1
S1132940B80918DEB20922DEAB092DDEA40938DE8F
S11329509E0942DE97094DDE910958DE8A0962DE3E
S113296083096DDE7D0978DE760983DE70098DDEEC
S1132970690998DE6309A3DE5C09ADDE5509B8DE9A
S11329804F09C3DE4809CEDE4209D8DE3B09E3DE47
S11329903509EEDE2E09F9DE280903DF21090EDFF1
S11329A01B0919DF150924DF0E092FDF080939DF98
S11329B0010944DFFB084FDFF4085ADFEE0865DF46
S11329C0E8086FDFE1087ADFDB0885DFD40890DFF1
S11329D0CE089BDFC808A5DFC108B0DFBB08BBDF9A
S11329E0B508C6DFAE08D1DFA808DCDFA208E7DF40
S11329F09B08F1DF9508FCDF8F0807E0890812E0E7
S1132A0082081DE07C0828E0760833E070083EE088
S1132A10690849E0630854E05D085EE0570869E02E
S1132A20500874E04A087FE044088AE03E0895E0D4
S1132A303808A0E03208ABE02B08B6E02508C1E076
S1132A401F08CCE01908D7E01308E2E00D08EDE018
S1132A500708F8E0010803E1FB070EE1F50719E1B7
S1132A60EE0724E1E8072FE1E2073AE1DC0745E15C
S1132A70D60750E1D0075BE1CA0766E1C40771E1FC
S1132A80BE077CE1B80787E1B20792E1AC079DE19C
S1132A90A607A8E1A007B3E19A07BEE19507CAE13A
S1132AA08F07D5E18907E0E18307EBE17D07F6E1D4
S1132AB0770701E271070CE26B0717E2650722E270
S1132AC05F072DE25A0739E2540744E24E074FE20A
S1132AD048075AE2420765E23D0770E237077BE2A6
S1132AE0310787E22B0792E225079DE22007A8E23F
S1132AF01A07B3E21407BEE20E07CAE20907D5E2D9
S1132B000307E0E2FD06EBE2F706F6E2F20601E374
S1132B10EC060DE3E60618E3E10623E3DB062EE309
S1132B20D5063AE3D00645E3CA0650E3C5065BE39F
S1132B30BF0667E3B90672E3B4067DE3AE0688E335
S1132B40A80694E3A3069FE39D06AAE39806B5E3CB
S1132B509206C1E38D06CCE38706D7E38206E2E35F
S1132B607C06EEE37706F9E3710604E46C0610E4F0
S1132B7066061BE4610626E45B0632E456063DE481
S1132B80500648E44B0654E445065FE440066AE414
S1132B903B0676E4350681E430068CE42A0698E4A4
S1132BA02506A3E42006AEE41A06BAE41506C5E435
S1132BB01006D0E40A06DCE40506E7E40006F3E4C4
S1132BC0FA05FEE4F50509E5F00515E5EA0520E555
S1132BD0E5052CE5E00537E5DB0542E5D5054EE5E1
S1132BE0D00559E5CB0565E5C60570E5C1057CE56D
S1132BF0BB0587E5B60592E5B1059EE5AC05A9E5FB
S1132C00A705B5E5A105C0E59C05CCE59705D7E585
S1132C109205E3E58D05EEE58805FAE5830505E60D
S1132C207E0511E678051CE6730528E66E0533E695
S1132C3069053FE664054AE65F0556E65A0561E61E
S1132C4055056DE6500578E64B0584E646058FE6A6
S1132C5041059BE63C05A6E63705B2E63205BDE62E
S1132C602D05C9E62805D4E62305E0E61E05ECE6B5
S1132C701A05F7E6150503E710050EE70B051AE735
S1132C80060525E7010531E7FC043DE7F70448E7BD
S1132C90F20454E7EE045FE7E9046BE7E40477E742
S1132CA0DF0482E7DA048EE7D60499E7D104A5E7C6
S1132CB0CC04B1E7C704BCE7C204C8E7BE04D3E749
S1132CC0B904DFE7B404EBE7B004F6E7AB0402E8C9
S1132CD0A6040EE8A10419E89D0425E8980431E847
S1132CE093043CE88F0448E88A0454E885045FE8C8
S1132CF081046BE87C0477E8780482E873048EE846
S1132D006E049AE86A04A5E86504B1E86104BDE8C4
S1132D105C04C9E85704D4E85304E0E84E04ECE842
S1132D204A04F7E8450403E941040FE93C041BE9BC
S1132D30380426E9330432E92F043EE92A044AE937
S1132D40260455E9220461E91D046DE9190479E9B1
S1132D50140484E9100490E90B049CE90704A8E92D
S1132D600304B4E9FE03BFE9FA03CBE9F603D7E9A8
S1132D70F103E3E9ED03EEE9E903FAE9E40306EA22
S1132D80E00312EADC031EEAD70329EAD30335EA97
S1132D90CF0341EACA034DEAC60359EAC20365EA0E
S1132DA0BE0370EABA037CEAB50388EAB10394EA85
S1132DB0AD03A0EAA903ACEAA503B7EAA003C3EAFA
S1132DC09C03CFEA9803DBEA9403E7EA9003F3EA6F
S1132DD08C03FFEA87030AEB830316EB7F0322EBE2
S1132DE07B032EEB77033AEB730346EB6F0352EB53
S1132DF06B035EEB67036AEB630375EB5F0381EBC5
S1132E005B038DEB570399EB5303A5EB4F03B1EB36
S1132E104B03BDEB4703C9EB4303D5EB3F03E1EBA6
S1132E203B03EDEB3703F9EB330305EC2F0310EC15
S1132E302B031CEC270328EC230334EC200340EC85
S1132E401C034CEC180358EC140364EC100370ECF2
S1132E500C037CEC080388EC050394EC0103A0EC60
S1132E60FD02ACECF902B8ECF502C4ECF202D0ECD1
S1132E70EE02DCECEA02E8ECE602F4ECE30200ED3C
S1132E80DF020CEDDB0218EDD80224EDD40230EDA4
S1132E90D0023CEDCC0248EDC90254EDC50260ED10
S1132EA0C1026CEDBE0278EDBA0284EDB70290ED7A
S1132EB0B3029CEDAF02A8EDAC02B4EDA802C0EDE4
S1132EC0A502CCEDA102D8ED9D02E4ED9A02F0ED4D
S1132ED09602FCED930209EE8F0215EE8C0221EEB0
S1132EE088022DEE850239EE810245EE7E0251EE16
S1132EF07A025DEE770269EE730275EE700281EE7E
S1132F006D028DEE690299EE6602A6EE6202B2EEE1
S1132F105F02BEEE5C02CAEE5802D6EE5502E2EE45
S1132F205102EEEE4E02FAEE4B0206EF470213EFA9
S1132F3044021FEF41022BEF3E0237EF3A0243EF08
S1132F4037024FEF34025BEF300267EF2D0274EF6C
S1132F502A0280EF27028CEF230298EF2002A4EFCD
S1132F601D02B0EF1A02BCEF1702C9EF1302D5EF2E
S1132F701002E1EF0D02EDEF0A02F9EF070205F08E
S1132F80040212F001021EF0FD012AF0FA0136F0EB
S1132F90F70142F0F4014EF0F1015BF0EE0167F04D
S1132FA0EB0173F0E8017FF0E5018BF0E20198F0AA
S1132FB0DF01A4F0DC01B0F0D901BCF0D601C8F007
S1132FC0D301D5F0D001E1F0CD01EDF0CA01F9F063
S1132FD0C70105F1C40112F1C1011EF1BE012AF1BC
S1132FE0BB0136F1B80143F1B6014FF1B3015BF116
S1132FF0B00167F1AD0174F1AA0180F1A7018CF170
S1133000A40198F1A201A4F19F01B1F19C01BDF1C9
S11330109901C9F19601D5F19401E2F19101EEF122
S11330208E01FAF18B0107F2890113F286011FF276
S113303083012BF2800138F27E0144F27B0150F2CD
S113304078015CF2760169F2730175F2700181F224
S11330506E018EF26B019AF26801A6F26601B2F279
S11330606301BFF26101CBF25E01D7F25B01E4F2CE
S11330705901F0F25601FCF2540108F3510115F321
S11330804F0121F34C012DF34A013AF3470146F372
S1133090450152F342015FF340016BF33D0177F3C5
S11330A03B0184F3380190F336019CF33401A9F316
S11330B03101B5F32F01C1F32C01CEF32A01DAF368
S11330C02801E6F32501F3F32301FFF320010BF4B8
S11330D01E0118F41C0124F4190130F417013DF405
S11330E0150149F4130155F4100162F40E016EF454
S11330F00C017BF4090187F4070193F40501A0F4A2
S11331000301ACF40001B8F4FE00C5F4FC00D1F4F2
S1133110FA00DDF4F800EAF4F600F6F4F30003F53F
S1133120F1000FF5EF001BF5ED0028F5EB0034F589
S1133130E90040F5E7004DF5E40059F5E20066F5D5
S1133140E00072F5DE007EF5DC008BF5DA0097F521
S1133150D800A4F5D600B0F5D400BCF5D200C9F56A
S1133160D000D5F5CE00E2F5CC00EEF5CA00FAF5B4
S1133170C80007F6C60013F6C40020F6C2002CF6F9
S1133180C00039F6BE0045F6BD0051F6BB005EF640
S1133190B9006AF6B70077F6B50083F6B30090F687
S11331A0B1009CF6AF00A8F6AE00B5F6AC00C1F6CF
S11331B0AA00CEF6A800DAF6A600E7F6A500F3F614
S11331C0A300FFF6A1000CF79F0018F79E0025F757
S11331D09C0031F79A003EF798004AF7970057F79A
S11331E0950063F793006FF792007CF7900088F7DF
S11331F08E0095F78D00A1F78B00AEF78900BAF722
S11332008800C7F78600D3F78500E0F78300ECF762
S11332108100F9F7800005F87E0011F87D001EF8A2
S11332207B002AF87A0037F8780043F8770050F8E2
S113323075005CF8740069F8720075F8710082F822
S11332406F008EF86E009BF86C00A7F86B00B4F862
S11332506900C0F86800CDF86700D9F86500E6F8A1
S11332606400F2F86200FFF861000BF9600018F9DD
S11332705E0024F95D0031F95C003DF95A004AF919
S1133280590056F9580063F956006FF955007CF956
S1133290540088F9530095F95100A1F95000AEF992
S11332A04F00BAF94E00C7F94C00D3F94B00E0F9CE
S11332B04A00ECF94900F9F9480005FA470012FA06
S11332C045001EFA44002BFA430037FA420044FA40
S11332D0410050FA40005DFA3F0069FA3D0076FA79
S11332E03C0082FA3B008FFA3A009BFA3900A8FAB4
S11332F03800B4FA3700C1FA3600CDFA3500DAFAEC
S11333003400E6FA3300F3FA320000FB31000CFB20
S1133310300019FB2F0025FB2E0032FB2D003EFB55
S11333202C004BFB2B0057FB2B0064FB2A0070FB8B
S113333029007DFB280089FB270096FB2600A2FBC1
S11333402500AFFB2400BCFB2400C8FB2300D5FBF5
S11333502200E1FB2100EEFB2000FAFB200007FC29
S11333601F0013FC1E0020FC1D002CFC1D0039FC5A
S11333701C0045FC1B0052FC1A005FFC1A006BFC8D
S1133380190078FC180084FC180091FC17009DFCBF
S11333901600AAFC1600B6FC1500C3FC1400D0FCF1
S11333A01400DCFC1300E9FC1300F5FC120002FD20
S11333B011000EFD11001BFD100027FD100034FD4F
S11333C00F0040FD0F004DFD0E005AFD0E0066FD7E
S11333D00D0073FD0D007FFD0C008CFD0C0098FDAD
S11333E00B00A5FD0B00B2FD0A00BEFD0A00CBFDDB
S11333F00900D7FD0900E4FD0900F0FD0800FDFD0A
S1133400080009FE070016FE070023FE07002FFE32
S113341006003CFE060048FE060055FE050061FE5F
S113342005006EFE05007AFE040087FE040094FE8B
S11334300400A0FE0400ADFE0300B9FE0300C6FEB6
S11334400300D2FE0300DFFE0200ECFE0200F8FEE1
S1133450020005FF020011FF02001EFF01002AFF07
S1133460010037FF010044FF010050FF01005DFF30
S1133470010069FF010076FF000082FF00008FFF5A
S113348000009BFF0000A8FF0000B5FF0000C1FF83
S11334900000CEFF0000DAFF0000E7FF0000F3FFAA
S11334A00000000000000D000000190000002600CC
S11334B00000320000003F0000004B0000005800F4
S11334C0000065000000710000007E0001008A0019
S11334D0010097000100A3000100B0000100BC003E
S11334E00100C9000100D6000200E2000200EF0062
S11334F00200FB0002000801020014010300210184
S113350003002E0103003A010300470104005301A4
S11335100400600104006C010400790105008601C7
S11335200500920105009F010600AB010600B801E9
S11335300600C4010700D1010700DD010700EA010C
S11335400800F701080003020900100209001C0228
S1133550090029020A0035020A0042020B004E0249
S11335600B005B020C0068020C0074020D00810267
S11335700D008D020E009A020E00A6020F00B30287
S11335800F00C0021000CC021000D9021100E502A5
S11335901100F2021200FE0213000B0313001703C2
S11335A0140024031400300315003D0316004A03DD
S11335B0160056031700630318006F0318007C03FA
S11335C0190088031A0095031A00A1031B00AE0317
S11335D01C00BB031D00C7031D00D4031E00E00331
S11335E01F00ED032000F90320000604210012044B
S11335F022001F0423002B04240038042400440464
S11336002500510426005E0427006A04280077047C
S1133610290083042A0090042B009C042B00A90495
S11336202C00B5042D00C2042E00CE042F00DB04B0
S11336303000E7043100F4043200000533000D05C6
S113364034001A05350026053600330537003F05DA
S113365038004C05390058053A0065053B007105F2
S11336603C007E053D008A053F0097054000A30508
S11336704100B0054200BC054300C9054400D5051E
S11336804500E2054700EE054800FB054900070632
S11336904A0014064B0020064C002D064E00390645
S11336A04F0046065000520651005F0653006B0659
S11336B054007806550084065600910658009D066D
S11336C05900AA065A00B6065C00C3065D00CF0680
S11336D05E00DC066000E8066100F5066200010792
S11336E064000E0765001A076700270768003307A0
S11336F0690040076B004C076C0059076E006507B2
S11337006F00720771007E0772008B0774009707C1
S11337107500A4077700B0077800BD077A00C907D1
S11337207B00D6077D00E2077E00EF078000FB07E1
S113373081000708830014088500200886002D08EE
S113374088003908890046088B0052088D005F08FC
S11337508E006B089000780892008408930091080A
S113376095009D089700A9089800B6089A00C20819
S11337709C00CF089E00DB089F00E808A100F40825
S1133780A3000109A5000D09A6001909A80026092E
S1133790AA003209AC003F09AE004B09AF0058093A
S11337A0B1006409B3007009B5007D09B700890947
S11337B0B9009609BB00A209BD00AF09BE00BB0950
S11337C0C000C709C200D409C400E009C600ED095D
S11337D0C800F909CA00060ACC00120ACE001E0A63
S11337E0D0002B0AD200370AD400440AD600500A6B
S11337F0D8005C0ADA00690ADC00750ADE00820A75
S1133800E0008E0AE2009A0AE400A70AE700B30A7D
S1133810E900C00AEB00CC0AED00D80AEF00E50A83
S1133820F100F10AF300FD0AF6000A0BF800160B8A
S1133830FA00230BFC002F0BFE003B0B0001480B8E
S11338400301540B0501600B07016D0B0901790B92
S11338500C01850B0E01920B10019E0B1301AB0B97
S11338601501B70B1701C30B1901D00B1C01DC0B9D
S11338701E01E80B2001F50B2301010C25010D0CA1
S113388028011A0C2A01260C2C01320C2F013F0CA2
S113389031014B0C3401570C3601640C3801700CA7
S11338A03B017C0C3D01890C4001950C4201A10CAB
S11338B04501AE0C4701BA0C4A01C60C4C01D30CAD
S11338C04F01DF0C5101EB0C5401F80C5601040DAF
S11338D05901100D5B011C0D5E01290D6101350DAF
S11338E06301410D66014E0D68015A0D6B01660DB1
S11338F06E01720D70017F0D73018B0D7601970DB2
S11339007801A40D7B01B00D7E01BC0D8001C80DB2
S11339108301D50D8601E10D8901ED0D8B01F90DB2
S11339208E01060E9101120E94011E0E96012B0EAD
S11339309901370E9C01430E9F014F0EA2015C0EAC
S1133940A401680EA701740EAA01800EAD018C0EAD
S1133950B001990EB301A50EB601B10EB801BD0EAA
S1133960BB01CA0EBE01D60EC101E20EC401EE0EA9
S1133970C701FB0ECA01070FCD01130FD0011F0FA2
S1133980D3012B0FD601380FD901440FDC01500F9E
S1133990DF015C0FE201680FE501750FE801810F9B
S11339A0EB018D0FEE01990FF101A50FF401B20F98
S11339B0F701BE0FFA01CA0FFD01D60F0102E20F93
S11339C00402EE0F0702FB0F0A0207100D02131088
S11339D010021F1013022B10170237101A02441082
S11339E01D02501020025C1023026810270274107C
S11339F02A0280102D028C10300299103402A51076
S1133A003702B1103A02BD103E02C9104102D5106E
S1133A104402E1104702ED104B02FA104E02061167
S1133A205102121155021E1158022A115C0236115C
S1133A305F02421162024E1166025A116902671155
S1133A406D02731170027F1173028B11770297114B
S1133A507A02A3117E02AF118102BB118502C71144
S1133A608802D3118C02DF118F02EB119302F7113C
S1133A70960204129A0210129D021C12A10228122C
S1133A80A5023412A8024012AC024C12AF02581222
S1133A90B3026412B7027012BA027C12BE02881218
S1133AA0C1029412C502A012C902AC12CC02B8120F
S1133AB0D002C412D402D012D802DC12DB02E81203
S1133AC0DF02F412E3020013E6020C13EA021813F5
S1133AD0EE022413F2023013F5023C13F9024813E8
S1133AE0FD0254130103601305036C1308037813D8
S1133AF00C0384131003901314039C131803A813CA
S1133B001C03B4132003C0132303CC132703D813BB
S1133B102B03E4132F03F0133303FB1337030714AE
S1133B203B0313143F031F1443032B14470337149D
S1133B304B0343144F034F1453035B14570367148D
S1133B405B0373145F037F1463038B14670396147E
S1133B506B03A2146F03AE147303BA147703C61471
S1133B607B03D2147F03DE148303EA148703F61461
S1133B708C03011590030D1594031915980325154D
S1133B809C033115A0033D15A5034915A90354153C
S1133B90AD036015B1036C15B5037815BA0384152C
S1133BA0BE039015C2039B15C603A715CA03B3151C
S1133BB0CF03BF15D303CB15D703D715DC03E21509
S1133BC0E003EE15E403FA15E9030616ED031216F5
S1133BD0F1031D16F6032916FA033516FE034116E2
S1133BE003044C16070458160B04641610047016CC
S1133BF014047C16190487161D04931622049F16B8
S1133C002604AB162A04B6162F04C2163304CE16A5
S1133C103804DA163C04E5164104F1164504FD1691
S1133C204A0409174E0414175304201757042C1779
S1133C305C0437176104431765044F176A045B1764
S1133C406E0466177304721778047E177C04891750
S1133C50810495178504A1178A04AC178F04B8173B
S1133C609304C4179804CF179D04DB17A104E71726
S1133C70A604F217AB04FE17B0040A18B40415180E
S1133C80B9042118BE042D18C2043818C7044418F6
S1133C90CC044F18D1045B18D6046718DA047218E0
S1133CA0DF047E18E4048918E9049518EE04A118C9
S1133CB0F204AC18F704B818FC04C3180105CF18B3
S1133CC00605DB180B05E6181005F2181505FD1896
S1133CD01A0509191E0514192305201928052C197C
S1133CE02D0537193205431937054E193C055A1964
S1133CF041056519460571194B057C19500588194C
S1133D00550593195A059F195F05AA196405B61933
S1133D106905C1196E05CD197305D8197805E4191B
S1133D207E05EF198305FB198805061A8D05121AFD
S1133D3092051D1A9705291A9C05341AA105401AE3
S1133D40A7054B1AAC05571AB105621AB6056E1AC7
S1133D50BB05791AC105841AC605901ACB059B1AAE
S1133D60D005A71AD505B21ADB05BE1AE005C91A93
S1133D70E505D41AEA05E01AF005EB1AF505F71A79
S1133D80FA05021B00060D1B0506191B0A06241B57
S1133D901006301B15063B1B1A06461B2006521B39
S1133DA025065D1B2A06681B3006741B35067F1B1F
S1133DB03B068A1B4006961B4506A11B4B06AC1B03
S1133DC05006B81B5606C31B5B06CE1B6106DA1BE6
S1133DD06606E51B6C06F01B7106FC1B7706071CC8
S1133DE07C06121C82061E1C8706291C8D06341CA8
S1133DF092063F1C98064B1C9D06561CA306611C8C
S1133E00A8066C1CAE06781CB406831CB9068E1C6E
S1133E10BF06991CC506A51CCA06B01CD006BB1C4F
S1133E20D506C61CDB06D21CE106DD1CE606E81C32
S1133E30EC06F31CF206FF1CF7060A1DFD06151D11
S1133E400307201D09072B1D0E07361D1407421DED
S1133E501A074D1D2007581D2507631D2B076E1DCE
S1133E603107791D3707851D3D07901D42079B1DAE
S1133E704807A61D4E07B11D5407BC1D5A07C71D90
S1133E805F07D31D6507DE1D6B07E91D7107F41D70
S1133E907707FF1D7D070A1E8307151E8907201E4D
S1133EA08F072B1E9507361E9A07421EA0074D1E2C
S1133EB0A607581EAC07631EB2076E1EB807791E0C
S1133EC0BE07841EC4078F1ECA079A1ED007A51EEC
S1133ED0D607B01EDC07BB1EE207C61EE807D11ECC
S1133EE0EE07DC1EF507E71EFB07F21E0108FD1EA8
S1133EF00708081F0D08131F13081E1F1908291F80
S1133F001F08341F25083F1F2B084A1F3208551F5E
S1133F103808601F3E086B1F4408761F4A08811F3B
S1133F2050088C1F5708971F5D08A21F6308AC1F19
S1133F306908B71F7008C21F7608CD1F7C08D81FF8
S1133F408208E31F8908EE1F8F08F91F95080420D3
S1133F509B080F20A2081920A8082420AE082F20AF
S1133F60B5083A20BB084520C1085020C8085B208A
S1133F70CE086520D4087020DB087B20E108862069
S1133F80E8089120EE089B20F408A620FB08B12045
S1133F900109BC200809C7200E09D1201509DC201D
S1133FA01B09E7202109F2202809FD202E090721F9
S1133FB0350912213B091D214209282148093221D2
S1133FC04F093D21550948215C09532163095D21AD
S1133FD0690968217009732176097D217D09882189
S1133FE0830993218A099E219109A8219709B32164
S1133FF09E09BE21A409C821AB09D321B209DE213F
S1134000B809E821BF09F321C609FE21CC09082219
S1134010D3091322DA091E22E0092822E7093322F0
S1134020EE093D22F5094822FB095322020A5D22CA
S1134030090A6822100A7222160A7D221D0A8822A1
S1134040240A92222B0A9D22320AA722380AB2227B
S11340503F0ABC22460AC7224D0AD222540ADC2255
S11340605B0AE722610AF122680AFC226F0A06232E
S1134070760A11237D0A1B23840A26238B0A302304
S1134080920A3B23990A45239F0A5023A60A5A23DE
S1134090AD0A6523B40A6F23BB0A7A23C20A8423B8
S11340A0C90A8E23D00A9923D70AA323DE0AAE2392
S11340B0E50AB823EC0AC323F30ACD23FA0AD7236B
S11340C0010BE223080BEC230F0BF723160B01243F
S11340D01E0B0B24250B16242C0B2024330B2B2412
S11340E03A0B3524410B3F24480B4A244F0B5424EC
S11340F0560B5E245E0B6924650B73246C0B7D24C4
S1134100730B88247A0B9224810B9C24890BA7249B
S1134110900BB124970BBB249E0BC524A50BD02474
S1134120AD0BDA24B40BE424BB0BEF24C20BF9244B
S1134130CA0B0325D10B0D25D80B1825E00B22251E
S1134140E70B2C25EE0B3625F50B4125FD0B4B25F6
S1134150040C55250B0C5F25130C69251A0C7425CA
S1134160210C7E25290C8825300C9225380C9C25A1
S11341703F0CA625460CB1254E0CBB25550CC52578
S11341805D0CCF25640CD9256B0CE325730CED2550
S11341907A0CF825820C0226890C0C26910C162622
S11341A0980C2026A00C2A26A70C3426AF0C3E26F9
S11341B0B60C4826BE0C5226C50C5C26CD0C6626D1
S11341C0D40C7126DC0C7B26E30C8526EB0C8F26A5
S11341D0F30C9926FA0CA326020DAD26090DB72679
S11341E0110DC126190DCB26200DD526280DDF264D
S11341F0300DE926370DF3263F0DFD26460D072722
S11342004E0D1127560D1A275D0D2427650D2E27F7
S11342106D0D3827750D42277C0D4C27840D5627CC
S11342208C0D6027930D6A279B0D7427A30D7E27A1
S1134230AB0D8827B20D9127BA0D9B27C20DA52778
S1134240CA0DAF27D20DB927D90DC327E10DCD274C
S1134250E90DD627F10DE027F90DEA27010EF42721
S1134260080EFE27100E0828180E1128200E1B28F1
S1134270280E2528300E2F28380E3828400E4228C4
S1134280470E4C284F0E5628570E60285F0E69289B
S1134290670E73286F0E7D28770E86287F0E902870
S11342A0870E9A288F0EA428970EAD289F0EB72844
S11342B0A70EC128AF0ECA28B70ED428BF0EDE2819
S11342C0C70EE728CF0EF128D70EFB28DF0E0429EE
S11342D0E70E0E29EF0E1829F70E2129FF0E2B29C0
S11342E0070F3529100F3E29180F4829200F51298F
S11342F0280F5B29300F6529380F6E29400F782964
S1134300480F8129510F8B29590F9429610F9E2938
S1134310690FA729710FB129790FBB29820FC4290D
S11343208A0FCE29920FD7299A0FE129A30FEA29E0
S1134330AB0FF429B30FFD29BB0F072AC40F102AB2
S1134340CC0F1A2AD40F232ADC0F2C2AE50F362A85
S1134350ED0F3F2AF50F492AFE0F522A06105C2A58
S11343600E10652A16106E2A1F10782A2710812A2B
S113437030108B2A3810942A40109D2A4910A72AFD
S11343805110B02A5910B92A6210C32A6A10CC2AD3
S11343907310D62A7B10DF2A8310E82A8C10F22AA5
S11343A09410FB2A9D10042BA5100D2BAE10172B77
S11343B0B610202BBF10292BC710332BD0103C2B49
S11343C0D810452BE0104E2BE910582BF210612B1E
S11343D0FA106A2B0311732B0B117D2B1411862BEE
S11343E01C118F2B2511982B2D11A12B3611AB2BC2
S11343F03E11B42B4711BD2B5011C62B5811CF2B96
S11344006111D82B6911E22B7211EB2B7B11F42B68
S11344108311FD2B8C11062C95110F2C9D11182C3A
S1134420A611212CAF112B2CB711342CC0113D2C0B
S1134430C911462CD1114F2CDA11582CE311612CDF
S1134440EB116A2CF411732CFD117C2C0612852CB3
S11344500E128E2C1712972C2012A02C2912A92C84
S11344603112B22C3A12BB2C4312C42C4C12CD2C58
S11344705512D62C5D12DF2C6612E82C6F12F12C2B
S11344807812FA2C8112032D8A120C2D9212152DFA
S11344909B121E2DA412272DAD122F2DB612382DCE
S11344A0BF12412DC8124A2DD112532DD9125C2DA1
S11344B0E212652DEB126E2DF412762DFD127F2D76
S11344C00613882D0F13912D18139A2D2113A32D44
S11344D02A13AB2D3313B42D3C13BD2D4513C62D18
S11344E04E13CF2D5713D72D6013E02D6913E92DEB
S11344F07213F22D7B13FA2D8413032E8D130C2EBD
S11345009613152E9F131D2EA813262EB1132F2E8E
S1134510BA13372EC313402ECC13492ED513512E64
S1134520DF135A2EE813632EF1136B2EFA13742E35
S113453003147D2E0C14852E15148E2E1E14972E06
S113454028149F2E3114A82E3A14B02E4314B92ED9
S11345504C14C22E5514CA2E5F14D32E6814DB2EAD
S11345607114E42E7A14EC2E8314F52E8D14FD2E82
S11345709614062F9F140E2FA814172FB214202F51
S1134580BB14282FC414302FCD14392FD714412F26
S1134590E0144A2FE914522FF3145B2FFC14632FF9
S11345A005156C2F0E15742F18157D2F2115852FC9
S11345B02A158D2F3415962F3D159E2F4715A72F9D
S11345C05015AF2F5915B72F6315C02F6C15C82F71
S11345D07515D02F7F15D92F8815E12F9215EA2F45
S11345E09B15F22FA415FA2FAE150230B7150B3018
S11345F0C1151330CA151B30D4152430DD152C30E9
S1134600E6153430F0153C30F915453003164D30BD
S11346100C16553016165D301F16663029166E308E
S1134620321676303C167E30451687304F168F3062
S11346305916973062169F306C16A7307516AF3036
S11346407F16B8308816C0309216C8309B16D0300A
S1134650A516D830AF16E030B816E830C216F030E0
S1134660CB16F930D5160131DF160931E8161131B0
S1134670F2161931FC162131051729310F17313182
S113468019173931221741312C1749313617513155
S11346903F17593149176131531769315C1771312B
S11346A066177931701781317A17893183179131FF
S11346B08D1799319717A131A017A931AA17B131D4
S11346C0B417B931BE17C031C817C831D117D031AA
S11346D0DB17D831E517E031EF17E831F817F0317F
S11346E00218F8310C18FF311618073220180F324F
S11346F02A18173233181F323D18273247182E3222
S1134700511836325B183E32651846326F184E32F5
S11347107818553282185D328C18653296186D32CD
S1134720A0187432AA187C32B4188432BE188B32A2
S1134730C8189332D2189B32DC18A332E618AA3276
S1134740EF18B232F918BA320319C1320D19C9324D
S11347501719D0322119D8322B19E0323519E73222
S11347603F19EF324919F7325319FE325D190633F6
S113477067190D33711915337B191D3385192433CA
S11347808F192C339A193333A4193B33AE1942339E
S1134790B8194A33C2195133CC195933D619603375
S11347A0E0196833EA196F33F4197733FE197E334D
S11347B0081A8633131A8D331D1A9533271A9C331E
S11347C0311AA3333B1AAB33451AB2334F1ABA33F7
S11347D05A1AC133641AC8336E1AD033781AD733CD
S11347E0821ADF338C1AE633971AED33A11AF533A4
S11347F0AB1AFC33B51A0334BF1A0B34CA1A123479
S1134800D41A1934DE1A2034E81A2834F31A2F344F
S1134810FD1A3634071B3E34111B45341C1B4C3423
S1134820261B5334301B5B343B1B6234451B6934F9
S11348304F1B7034591B7734641B7F346E1B8634D2
S1134840781B8D34831B94348D1B9B34971BA234AB
S1134850A21BAA34AC1BB134B61BB834C11BBF3481
S1134860CB1BC634D51BCD34E01BD434EA1BDB345C
S1134870F51BE234FF1BEA34091CF134141CF83430
S11348801E1CFF34291C0635331C0D353D1C143504
S1134890481C1B35521C22355D1C2935671C3035DC
S11348A0721C37357C1C3E35861C4535911C4C35B5
S11348B09B1C5335A61C5A35B01C6135BB1C67358F
S11348C0C51C6E35D01C7535DA1C7C35E51C83356A
S11348D0EF1C8A35FA1C9135041D98350F1D9F3540
S11348E0191DA535241DAC352E1DB335391DBA351A
S11348F0441DC1354E1DC835591DCE35631DD535F2
S11349006E1DDC35781DE335831DEA358E1DF035CB
S1134910981DF735A31DFE35AD1D0536B81D0B36A4
S1134920C31D1236CD1D1936D81D2036E21D26367C
S1134930ED1D2D36F81D3436021E3A360D1E413655
S1134940181E4836221E4E362D1E5536381E5C362D
S1134950421E62364D1E6936581E6F36621E76360A
S11349606D1E7D36781E8336831E8A368D1E9036E4
S1134970981E9736A31E9D36AD1EA436B81EAB36C0
S1134980C31EB136CE1EB836D81EBE36E31EC5369B
S1134990EE1ECB36F91ED236031FD8360E1FDF3675
S11349A0191FE536241FEB362F1FF236391FF83650
S11349B0441FFF364F1F05375A1F0C37651F123728
S11349C06F1F18377A1F1F37851F2537901F2C3705
S11349D09B1F3237A51F3837B01F3F37BB1F4537E2
S11349E0C61F4B37D11F5237DC1F5837E71F5E37BE
S11349F0F11F6537FC1F6B3707207137122077379B
S1134A001D207E372820843733208A373E20903774
S1134A104920973754209D375E20A3376920A93752
S1134A207420B0377F20B6378A20BC379520C23730
S1134A30A020C837AB20CE37B620D537C120DB370E
S1134A40CC20E137D720E737E220ED37ED20F337EC
S1134A50F820F9370321FF370E21053819210B38C7
S1134A60242112382F2118383A211E3845212438A0
S1134A7050212A385B2130386621363871213C3880
S1134A807C2142388721483892214E389D21543860
S1134A90A8215A38B3216038BE216638CA216B3840
S1134AA0D5217138E0217738EB217D38F621833820
S1134AB0012289380C228F381722953822229B38FC
S1134AC02D22A1383922A6384422AC384F22B238DC
S1134AD05A22B8386522BE387022C3387B22C938BE
S1134AE08722CF389222D5389D22DB38A822E0389D
S1134AF0B322E638BE22EC38CA22F238D522F7387F
S1134B00E022FD38EB220339F622093901230E395C
S1134B100D23143918231A3923231F392E23253939
S1134B203A232B3945233039502336395B233B391B
S1134B3067234139722347397D234C3988235239FD
S1134B40942358399F235D39AA236339B5236839DF
S1134B50C1236E39CC237339D7237939E2237E39C3
S1134B60EE238439F923893904248F3910249439A4
S1134B701B249A3926249F393224A5393D24AA3985
S1134B804824B0395424B5395F24BB396A24C03968
S1134B907624C5398124CB398C24D0399824D6394C
S1134BA0A324DB39AE24E039BA24E639C524EB3931
S1134BB0D024F039DC24F639E724FB39F324003A15
S1134BC0FE24063A09250B3A1525103A2025163AF3
S1134BD02C251B3A3725203A4225253A4E252B3AD7
S1134BE05925303A6525353A70253A3A7C253F3ABD
S1134BF08725453A92254A3A9E254F3AA925543AA3
S1134C00B525593AC0255F3ACC25643AD725693A87
S1134C10E3256E3AEE25733AFA25783A05267D3A6D
S1134C201126823A1C26883A28268D3A3326923A4F
S1134C303F26973A4A269C3A5626A13A6126A63A36
S1134C406D26AB3A7826B03A8426B53A8F26BA3A1E
S1134C509B26BF3AA626C43AB226C93ABD26CE3A06
S1134C60C926D33AD426D83AE026DD3AEC26E23AED
S1134C70F726E63A0327EB3A0E27F03A1A27F53AD5
S1134C802527FA3A3127FF3A3D27043B4827093BB9
S1134C9054270E3B5F27123B6B27173B77271C3BA0
S1134CA08227213B8E27263B99272A3BA5272F3B8A
S1134CB0B127343BBC27393BC8273E3BD327423B73
S1134CC0DF27473BEB274C3BF627503B0228553B5D
S1134CD00E285A3B19285F3B2528633B3128683B43
S1134CE03C286D3B4828713B5428763B5F287B3B2E
S1134CF06B287F3B7728843B8228883B8E288D3B1A
S1134D009A28923BA528963BB1289B3BBD289F3B04
S1134D10C928A43BD428A93BE028AD3BEC28B23BEE
S1134D20F728B63B0329BB3B0F29BF3B1B29C43BD8
S1134D302629C83B3229CD3B3E29D13B4A29D63BC3
S1134D405529DA3B6129DE3B6D29E33B7929E73BB1
S1134D508429EC3B9029F03B9C29F53BA829F93B9D
S1134D60B429FD3BBF29023CCB29063CD7290A3C88
S1134D70E3290F3CEE29133CFA29173C062A1C3C74
S1134D80122A203C1E2A243C292A293C352A2D3C5F
S1134D90412A313C4D2A363C592A3A3C652A3E3C4C
S1134DA0702A423C7C2A463C882A4B3C942A4F3C3D
S1134DB0A02A533CAC2A573CB72A5B3CC32A603C2C
S1134DC0CF2A643CDB2A683CE72A6C3CF32A703C1B
S1134DD0FF2A743C0A2B793C162B7D3C222B813C08
S1134DE02E2B853C3A2B893C462B8D3C522B913CF7
S1134DF05E2B953C6A2B993C752B9D3C812BA13CE9
S1134E008D2BA53C992BA93CA52BAD3CB12BB13CDA
S1134E10BD2BB53CC92BB93CD52BBD3CE12BC13CCA
S1134E20ED2BC53CF92BC93C052CCD3C102CD13CB9
S1134E301C2CD53C282CD93C342CDD3C402CE03CAB
S1134E404C2CE43C582CE83C642CEC3C702CF03C9E
S1134E507C2CF43C882CF83C942CFB3CA02CFF3C90
S1134E60AC2C033DB82C073DC42C0B3DD02C0E3D7F
S1134E70DC2C123DE82C163DF42C1A3D002D1D3D72
S1134E800C2D213D182D253D242D283D302D2C3D64
S1134E903C2D303D482D343D542D373D602D3B3D58
S1134EA06C2D3F3D782D423D842D463D902D493D4E
S1134EB09C2D4D3DA82D513DB42D543DC02D583D44
S1134EC0CC2D5B3DD82D5F3DE42D633DF02D663D3B
S1134ED0FC2D6A3D092E6D3D152E713D212E743D2C
S1134EE02D2E783D392E7B3D452E7F3D512E823D22
S1134EF05D2E863D692E893D752E8D3D812E903D1A
S1134F008D2E933D992E973DA62E9A3DB22E9E3D11
S1134F10BE2EA13DCA2EA43DD62EA83DE22EAB3D09
S1134F20EE2EAF3DFA2EB23D062FB53D132FB93DFF
S1134F301F2FBC3D2B2FBF3D372FC23D432FC63DF6
S1134F404F2FC93D5B2FCC3D672FD03D742FD33DF0
S1134F50802FD63D8C2FD93D982FDD3DA42FE03DE9
S1134F60B02FE33DBC2FE63DC92FE93DD52FED3DE4
S1134F70E12FF03DED2FF33DF92FF63D0530F93DDE
S1134F801230FC3D1E30FF3D2A30033E3630063ED3
S1134F904230093E4E300C3E5B300F3E6730123ECD
S1134FA07330153E7F30183E8B301B3E98301E3ECA
S1134FB0A430213EB030243EBC30273EC8302A3EC7
S1134FC0D5302D3EE130303EED30333EF930363EC3
S1134FD00531393E12313C3E1E313F3E2A31423EBC
S1134FE03631453E4331483E4F314A3E5B314D3EBA
S1134FF06731503E7431533E8031563E8C31593EB8
S113500098315C3EA4315E3EB131613EBD31643EB7
S1135010C931673ED5316A3EE2316C3EEE316F3EB6
S1135020FA31723E0732753E1332773E1F327A3EB2
S11350302B327D3E3832803E4432823E5032853EB1
S11350405C32883E69328A3E75328D3E8132903EB2
S11350508E32923E9A32953EA632983EB2329A3EB3
S1135060BF329D3ECB329F3ED732A23EE432A53EB4
S1135070F032A73EFC32AA3E0833AC3E1533AF3EB5
S11350802133B13E2D33B43E3A33B63E4633B93EB6
S11350905233BB3E5F33BE3E6B33C03E7733C33EB9
S11350A08433C53E9033C83E9C33CA3EA933CC3EBC
S11350B0B533CF3EC133D13ECE33D43EDA33D63EC0
S11350C0E633D83EF333DB3EFF33DD3E0B34E03EC4
S11350D01834E23E2434E43E3034E73E3D34E93EC5
S11350E04934EB3E5534ED3E6234F03E6E34F23ECC
S11350F07B34F43E8734F73E9334F93EA034FB3ED0
S1135100AC34FD3EB834003FC534023FD134043FD3
S1135110DD34063FEA34083FF6340A3F03350D3FD9
S11351200F350F3F1B35113F2835133F3435153FDD
S11351304035173F4D35193F59351C3F66351E3FE5
S11351407235203F7E35223F8B35243F9735263FED
S1135150A435283FB0352A3FBC352C3FC9352E3FF6
S1135160D535303FE235323FEE35343FFA35363F00
S11351700736383F13363A3F20363C3F2C363E3F05
S11351803936403F4536423F5136433F5E36453F10
S11351906A36473F7736493F83364B3F90364D3F1B
S11351A09C364F3FA836513FB536523FC136543F27
S11351B0CE36563FDA36583FE7365A3FF3365B3F32
S11351C0FF365D3F0C375F3F1837613F2537623F3D
S11351D03137643F3E37663F4A37683F5737693F48
S11351E063376B3F6F376D3F7C376E3F8837703F57
S11351F09537723FA137733FAE37753FBA37773F64
S1135200C737783FD3377A3FE0377B3FEC377D3F72
S1135210F9377F3F0538803F1138823F1E38833F7E
S11352202A38853F3738863F4338883F5038893F8E
S11352305C388B3F69388C3F75388E3F82388F3F9E
S11352408E38913F9B38923FA738943FB438953FAE
S1135250C038973FCD38983FD938993FE6389B3FBF
S1135260F2389C3FFF389E3F0B399F3F1839A03FCF
S11352702439A23F3139A33F3D39A43F4A39A63FDF
S11352805639A73F6339A83F6F39AA3F7C39AB3FF2
S11352908839AC3F9539AD3FA139AF3FAE39B03F06
S11352A0BA39B13FC739B23FD339B43FE039B53F1A
S11352B0EC39B63FF939B73F053AB83F123AB93F2E
S11352C01E3ABB3F2B3ABC3F373ABD3F443ABE3F40
S11352D0503ABF3F5D3AC03F693AC13F763AC33F57
S11352E0823AC43F8F3AC53F9B3AC63FA83AC73F6C
S11352F0B43AC83FC13AC93FCD3ACA3FDA3ACB3F84
S1135300E63ACC3FF33ACD3F003BCE3F0C3BCF3F98
S1135310193BD03F253BD13F323BD23F3E3BD33FAD
S11353204B3BD43F573BD53F643BD53F703BD63FC7
S11353307D3BD73F893BD83F963BD93FA23BDA3FE1
S1135340AF3BDB3FBC3BDC3FC83BDC3FD53BDD3FF9
S1135350E13BDE3FEE3BDF3FFA3BE03F073CE03F13
S1135360133CE13F203CE23F2C3CE33F393CE33F2C
S1135370453CE43F523CE53F5F3CE63F6B3CE63F47
S1135380783CE73F843CE83F913CE83F9D3CE93F63
S1135390AA3CEA3FB63CEA3FC33CEB3FD03CEC3F7F
S11353A0DC3CEC3FE93CED3FF53CED3F023DEE3F9C
S11353B00E3DEF3F1B3DEF3F273DF03F343DF03FB7
S11353C0403DF13F4D3DF13F5A3DF23F663DF23FD6
S11353D0733DF33F7F3DF33F8C3DF43F983DF43FF5
S11353E0A53DF53FB23DF53FBE3DF63FCB3DF63F13
S11353F0D73DF73FE43DF73FF03DF73FFD3DF83F34
S1135400093EF83F163EF93F233EF93F2F3EF93F50
S11354103C3EFA3F483EFA3F553EFA3F613EFB3F71
S11354206E3EFB3F7A3EFB3F873EFC3F943EFC3F93
S1135430A03EFC3FAD3EFC3FB93EFD3FC63EFD3FB6
S1135440D23EFD3FDF3EFD3FEC3EFE3FF83EFE3FD9
S1135450053FFE3F113FFE3F1E3FFE3F2A3FFF3FF9
S1135460373FFF3F443FFF3F503FFF3F5D3FFF3F1C
S1135470693FFF3F763FFF3F823F00408F3F004040
S11354809B3F0040A83F0040B53F0040C13F004063
S1135490CE3F0040DA3F0040E73F0040F33F00408A
S11354A001809C461D494160827080F803C000233E
S11354B00188102925D040291DD0B1F5807F13D053
S11354C0B1F5806F09D0B1F5805F22D101218181CE
S11354D0C181134981601846704704218181C181CB
S11354E0104981601846704710218181C1810E499D
S11354F08160184670478181C1810C4981601846DA
S113550070474FF480718181C181094981601846D7
S113551070474FF0FF331846704700BF349D0000BA
S1135520349500003A95000052950000B2950000B1
S113553032970000004000400D40004019400040F8
S113554026400040324000403F4000404B40004075
S11355505840004065400040714000407E4000409B
S11355608A40FF3F9740FF3FA340FF3FB040FF3FCB
S1135570BC40FF3FC940FF3FD640FF3FE240FE3FF3
S1135580EF40FE3FFB40FE3F0841FE3F1441FE3F1B
S11355902141FD3F2E41FD3F3A41FD3F4741FD3F43
S11355A05341FC3F6041FC3F6C41FC3F7941FC3F6F
S11355B08641FB3F9241FB3F9F41FB3FAB41FA3F9A
S11355C0B841FA3FC441FA3FD141F93FDD41F93FC7
S11355D0EA41F93FF741F83F0342F83F1042F73FF1
S11355E01C42F73F2942F73F3542F63F4242F63F1D
S11355F04E42F53F5B42F53F6842F43F7442F43F4C
S11356008142F33F8D42F33F9A42F23FA642F23F7A
S1135610B342F13FC042F13FCC42F03FD942F03FA8
S1135620E542EF3FF242EF3FFE42EE3F0B43ED3FD8
S11356301743ED3F2443EC3F3043EC3F3D43EB3F06
S11356404A43EA3F5643EA3F6343E93F6F43E83F37
S11356507C43E83F8843E73F9543E63FA143E63F69
S1135660AE43E53FBB43E43FC743E33FD443E33F9B
S1135670E043E23FED43E13FF943E03F0644E03FCE
S11356801244DF3F1F44DE3F2B44DD3F3844DC3F00
S11356904444DC3F5144DB3F5E44DA3F6A44D93F33
S11356A07744D83F8344D73F9044D63F9C44D53F6A
S11356B0A944D53FB544D43FC244D33FCE44D23F9E
S11356C0DB44D13FE744D03FF444CF3F0045CE3FD5
S11356D00D45CD3F1A45CC3F2645CB3F3345CA3F08
S11356E03F45C93F4C45C83F5845C73F6545C63F40
S11356F07145C53F7E45C43F8A45C33F9745C13F79
S1135700A345C03FB045BF3FBC45BE3FC945BD3FB3
S1135710D545BC3FE245BB3FEE45B93FFB45B83FED
S11357200746B73F1446B63F2046B53F2D46B43F23
S11357303946B23F4646B13F5246B03F5F46AF3F5F
S11357406B46AD3F7846AC3F8446AB3F9146AA3F9B
S11357509D46A83FAA46A73FB646A63FC346A43FD8
S1135760CF46A33FDC46A23FE846A03FF5469F3F15
S113577001479E3F0E479C3F1A479B3F2747993F4F
S11357803347983F4047973F4C47953F5947943F8D
S11357906547923F7247913F7E478F3F8B478E3FCD
S11357A097478C3FA4478B3FB047893FBD47883F0D
S11357B0C947863FD647853FE247833FEF47823F4D
S11357C0FB47803F07487F3F14487D3F20487B3F8D
S11357D02D487A3F3948783F4648773F5248753FCD
S11357E05F48733F6B48723F7848703F84486E3F10
S11357F091486D3F9D486B3FA948693FB648683F53
S1135800C248663FCF48643FDB48623FE848613F97
S1135810F4485F3F01495D3F0D495B3F19495A3FD9
S11358202649583F3249563F3F49543F4B49523F1E
S11358305849513F64494F3F70494D3F7D494B3F63
S11358408949493F9649473FA249453FAF49433FAC
S1135850BB49423FC749403FD4493E3FE0493C3FF2
S1135860ED493A3FF949383F064A363F124A343F38
S11358701E4A323F2B4A303F374A2E3F444A2C3F80
S1135880504A2A3F5C4A283F694A263F754A243FCA
S1135890824A223F8E4A203F9A4A1E3FA74A1C3F13
S11358A0B34A193FC04A173FCC4A153FD84A133F61
S11358B0E54A113FF14A0F3FFD4A0D3F0A4B0A3FAB
S11358C0164B083F234B063F2F4B043F3B4B023FF5
S11358D0484B003F544BFD3E604BFB3E6D4BF93E45
S11358E0794BF73E854BF43E924BF23E9E4BF03E95
S11358F0AB4BED3EB74BEB3EC34BE93ED04BE73EE3
S1135900DC4BE43EE84BE23EF54BE03E014CDD3E31
S11359100D4CDB3E1A4CD83E264CD63E324CD43E7F
S11359203F4CD13E4B4CCF3E574CCC3E644CCA3ED0
S1135930704CC83E7C4CC53E894CC33E954CC03E21
S1135940A14CBE3EAE4CBB3EBA4CB93EC64CB63E74
S1135950D34CB43EDF4CB13EEB4CAF3EF84CAC3EC6
S1135960044DAA3E104DA73E1C4DA53E294DA23E16
S1135970354D9F3E414D9D3E4E4D9A3E5A4D983E6B
S1135980664D953E724D923E7F4D903E8B4D8D3EC1
S1135990974D8A3EA44D883EB04D853EBC4D823E17
S11359A0C84D803ED54D7D3EE14D7A3EED4D773E6E
S11359B0F94D753E064E723E124E6F3E1E4E6C3EC3
S11359C02B4E6A3E374E673E434E643E4F4E613E19
S11359D05C4E5E3E684E5C3E744E593E804E563E72
S11359E08C4E533E994E503EA54E4D3EB14E4A3ECE
S11359F0BD4E483ECA4E453ED64E423EE24E3F3E26
S1135A00EE4E3C3EFB4E393E074F363E134F333E7F
S1135A101F4F303E2B4F2D3E384F2A3E444F273EDA
S1135A20504F243E5C4F213E684F1E3E754F1B3E37
S1135A30814F183E8D4F153E994F123EA54F0F3E94
S1135A40B24F0C3EBE4F093ECA4F063ED64F033EF0
S1135A50E24FFF3DEE4FFC3DFB4FF93D0750F63D55
S1135A601350F33D1F50F03D2B50ED3D3750E93DB1
S1135A704450E63D5050E33D5C50E03D6850DD3D10
S1135A807450D93D8050D63D8C50D33D9950D03D73
S1135A90A550CC3DB150C93DBD50C63DC950C23DD5
S1135AA0D550BF3DE150BC3DED50B93DFA50B53D38
S1135AB00651B23D1251AF3D1E51AB3D2A51A83D96
S1135AC03651A43D4251A13D4E519E3D5A519A3DFD
S1135AD06751973D7351933D7F51903D8B518D3D5F
S1135AE09751893DA351863DAF51823DBB517F3DC6
S1135AF0C7517B3DD351783DDF51743DEB51713D2E
S1135B00F7516D3D04526A3D1052663D1C52633D8F
S1135B1028525F3D34525B3D4052583D4C52543DF7
S1135B205852513D64524D3D7052493D7C52463D60
S1135B308852423D94523F3DA0523B3DAC52373DCA
S1135B40B852343DC452303DD0522C3DDC52283D35
S1135B50E852253DF452213D00531D3D0C531A3D9E
S1135B601853163D2453123D30530E3D3C530B3D08
S1135B704853073D5453033D6053FF3C6C53FB3C77
S1135B807853F83C8453F43C9053F03C9C53EC3CE5
S1135B90A853E83CB453E43CC053E03CCC53DD3C54
S1135BA0D853D93CE453D53CF053D13CFB53CD3CC2
S1135BB00754C93C1354C53C1F54C13C2B54BD3C31
S1135BC03754B93C4354B53C4F54B13C5B54AD3CA1
S1135BD06754A93C7354A53C7F54A13C8B549D3C11
S1135BE09654993CA254953CAE54913CBA548D3C85
S1135BF0C654893CD254853CDE54813CEA547D3CF5
S1135C00F654793C0155743C0D55703C19556C3C67
S1135C102555683C3155643C3D55603C49555B3CD9
S1135C205455573C6055533C6C554F3C78554B3C50
S1135C308455463C9055423C9B553E3CA7553A3CC6
S1135C40B355363CBF55313CCB552D3CD755293C3B
S1135C50E255243CEE55203CFA551C3C0656173CB4
S1135C601256133C1D560F3C29560A3C3556063C29
S1135C704156023C4C56FD3B5856F93B6456F53BA5
S1135C807056F03B7C56EC3B8756E73B9356E33B20
S1135C909F56DE3BAB56DA3BB656D63BC256D13B9B
S1135CA0CE56CD3BDA56C83BE556C43BF156BF3B16
S1135CB0FD56BB3B0957B63B1457B23B2057AD3B8F
S1135CC02C57A93B3757A43B43579F3B4F579B3B0C
S1135CD05B57963B6657923B72578D3B7E57883B8A
S1135CE08957843B95577F3BA1577B3BAC57763B09
S1135CF0B857713BC4576D3BCF57683BDB57633B89
S1135D00E7575F3BF2575A3BFE57553B0A58503B07
S1135D1015584C3B2158473B2D58423B38583E3B85
S1135D204458393B4F58343B5B582F3B67582A3B08
S1135D307258263B7E58213B89581C3B9558173B8B
S1135D40A158123BAC580E3BB858093BC358043B0E
S1135D50CF58FF3ADB58FA3AE658F53AF258F03A97
S1135D60FD58EB3A0959E63A1459E23A2059DD3A1A
S1135D702C59D83A3759D33A4359CE3A4E59C93A9D
S1135D805A59C43A6559BF3A7159BA3A7C59B53A25
S1135D908859B03A9359AB3A9F59A63AAA59A13AAD
S1135DA0B6599C3AC159973ACD59923AD8598D3A35
S1135DB0E459883AEF59823AFB597D3A065A783ABF
S1135DC0125A733A1D5A6E3A295A693A345A643A45
S1135DD0405A5F3A4B5A593A575A543A625A4F3AD0
S1135DE06E5A4A3A795A453A845A3F3A905A3A3A5C
S1135DF09B5A353AA75A303AB25A2B3ABE5A253AE8
S1135E00C95A203AD45A1B3AE05A163AEB5A103A75
S1135E10F75A0B3A025B063A0D5B003A195BFB3901
S1135E20245BF639305BF0393B5BEB39465BE63992
S1135E30525BE0395D5BDB39685BD639745BD03922
S1135E407F5BCB398A5BC539965BC039A15BBB39B3
S1135E50AC5BB539B85BB039C35BAA39CE5BA53945
S1135E60DA5B9F39E55B9A39F05B9439FC5B8F39D7
S1135E70075C8939125C84391E5C7E39295C793966
S1135E80345C73393F5C6E394B5C6839565C6339FA
S1135E90615C5D396C5C5839785C5239835C4C398F
S1135EA08E5C4739995C4139A55C3B39B05C363925
S1135EB0BB5C3039C65C2B39D25C2539DD5C1F39BB
S1135EC0E85C1A39F35C1439FF5C0E390A5D093950
S1135ED0155D0339205DFD382B5DF738365DF238EA
S1135EE0425DEC384D5DE638585DE038635DDB3883
S1135EF06E5DD538795DCF38855DC938905DC3381E
S1135F009B5DBE38A65DB838B15DB238BC5DAC38B7
S1135F10C75DA638D35DA138DE5D9B38E95D953851
S1135F20F45D8F38FF5D89380A5E8338155E7D38ED
S1135F30205E77382B5E7138365E6B38425E663889
S1135F404D5E6038585E5A38635E54386E5E4E3823
S1135F50795E4838845E42388F5E3C389A5E3638C3
S1135F60A55E3038B05E2A38BB5E2438C65E1E3863
S1135F70D15E1838DC5E1238E75E0B38F25E053805
S1135F80FD5EFF37085FF937135FF3371E5FED37A8
S1135F90295FE737345FE1373F5FDB374A5FD53747
S1135FA0555FCE37605FC8376B5FC237765FBC37EB
S1135FB0815FB6378C5FB037975FA937A25FA3378D
S1135FC0AC5F9D37B75F9737C25F9037CD5F8A3735
S1135FD0D85F8437E35F7E37EE5F7737F95F7137D9
S1135FE004606B370F60653719605E37246058377B
S1135FF02F6052373A604B374560453750603F3722
S11360005B6038376560323770602C377B602537CA
S113601086601F37916018379B601237A6600C3773
S1136020B1600537BC60FF36C760F836D160F23620
S1136030DC60EB36E760E536F260DF36FD60D836CB
S11360400761D2361261CB361D61C5362861BE3672
S11360503261B8363D61B1364861AB365361A4361E
S11360605D619D3668619736736190367D618A36CD
S11360708861833693617D369E617636A8616F367A
S1136080B3616936BE616236C8615C36D361553628
S1136090DE614E36E8614836F3614136FE613A36D8
S11360A00862343613622D361E6226362862203684
S11360B0336219363D62123648620B365362053636
S11360C05D62FE356862F7357262F0357D62EA35ED
S11360D08862E3359262DC359D62D535A762CE35A0
S11360E0B262C835BC62C135C762BA35D262B33553
S11360F0DC62AC35E762A535F1629F35FC62983508
S11361000663913511638A351B63833526637C35B9
S1136110306375353B636E35456367355063613570
S11361205A635A35656353356F634C357A63453525
S113613084633E358E63373599633035A3632935DF
S1136140AE632235B8631B35C3631435CD630D3597
S1136150D7630635E263FF34EC63F834F763F13454
S11361600164EA340B64E2341664DB342064D4340E
S11361702B64CD343564C6343F64BF344A64B834C8
S11361805464B1345E64AA346964A23473649B3485
S11361907D64943488648D34926486349C647F3442
S11361A0A7647734B1647034BB646934C564623401
S11361B0D0645B34DA645334E4644C34EF644534BF
S11361C0F9643E34036536340D652F34186528347C
S11361D0226520342C6519343665123441650B343C
S11361E04B6503345565FC335F65F5336965ED3301
S11361F07465E6337E65DF338865D7339265D033C3
S11362009C65C833A665C133B165BA33BB65B23387
S1136210C565AB33CF65A333D9659C33E36595334B
S1136220ED658D33F865863302667E330C6677330D
S113623016666F33206668332A66603334665933D2
S11362403E66513348664A33526642335C663B339A
S11362506666333371662C337B66243385661D335F
S11362608F66153399660D33A3660633AD66FE3229
S1136270B766F732C166EF32CB66E732D566E032F5
S1136280DF66D832E966D032F366C932FD66C132C0
S11362900767BA321167B2321A67AA322467A33287
S11362A02E679B323867933242678B324C67843255
S11362B056677C32606774326A676D327467653220
S11362C07E675D328867553291674E329B674632EE
S11362D0A5673E32AF673632B9672E32C3672732BD
S11362E0CD671F32D6671732E0670F32EA6707328D
S11362F0F467FF31FE67F8310868F0311168E8315E
S11363001B68E0312568D8312F68D0313868C8312E
S11363104268C0314C68B9315668B1316068A931FE
S11363206968A131736899317D68913186688931D2
S1136330906881319A687931A4687131AD686931A6
S1136340B7686131C1685931CA685131D46849317B
S1136350DE684131E7683931F1683131FB68293150
S1136360046921310E691931186911312169093122
S11363702B6901313569F9303E69F0304869E830FC
S11363805169E0305B69D8306569D0306E69C830D6
S11363907869C0308169B8308B69AF309469A730AF
S11363A09E699F30A7699730B1698F30BB69873088
S11363B0C4697E30CE697630D7696E30E169663063
S11363C0EA695D30F4695530FD694D30076A45303E
S11363D0106A3C301A6A3430236A2C302C6A243018
S11363E0366A1B303F6A1330496A0B30526A0230F6
S11363F05C6AFA2F656AF22F6E6AEA2F786AE12FD7
S1136400816AD92F8B6AD02F946AC82F9D6AC02FB6
S1136410A76AB72FB06AAF2FB96AA72FC36A9E2F96
S1136420CC6A962FD66A8D2FDF6A852FE86A7D2F76
S1136430F26A742FFB6A6C2F046B632F0D6B5B2F56
S1136440176B522F206B4A2F296B412F336B392F37
S11364503C6B302F456B282F4E6B202F586B172F1A
S1136460616B0E2F6A6B062F736BFD2E7D6BF52E01
S1136470866BEC2E8F6BE42E986BDB2EA16BD32EE8
S1136480AB6BCA2EB46BC22EBD6BB92EC66BB02ECD
S1136490CF6BA82ED86B9F2EE26B972EEB6B8E2EB4
S11364A0F46B852EFD6B7D2E066C742E0F6C6B2E9B
S11364B0186C632E216C5A2E2B6C512E346C492E81
S11364C03D6C402E466C372E4F6C2F2E586C262E6A
S11364D0616C1D2E6A6C152E736C0C2E7C6C032E55
S11364E0856CFA2D8E6CF22D976CE92DA06CE02D45
S11364F0A96CD72DB26CCF2DBB6CC62DC46CBD2D31
S1136500CD6CB42DD66CAB2DDF6CA32DE86C9A2D1D
S1136510F16C912DFA6C882D036D7F2D0C6D762D09
S1136520156D6E2D1E6D652D276D5C2D2F6D532DF4
S1136530386D4A2D416D412D4A6D382D536D2F2DE7
S11365405C6D272D656D1E2D6E6D152D766D0C2DD4
S11365507F6D032D886DFA2C916DF12C9A6DE82CCA
S1136560A36DDF2CAB6DD62CB46DCD2CBD6DC42CBE
S1136570C66DBB2CCF6DB22CD76DA92CE06DA02CB1
S1136580E96D972CF26D8E2CFA6D852C036E7C2CA4
S11365900C6E732C156E6A2C1D6E612C266E582C95
S11365A02F6E4F2C376E462C406E3D2C496E342C8A
S11365B0516E2B2C5A6E212C636E182C6B6E0F2C83
S11365C0746E062C7D6EFD2B856EF42B8E6EEB2B7C
S11365D0976EE22B9F6ED82BA86ECF2BB06EC62B76
S11365E0B96EBD2BC26EB42BCA6EAB2BD36EA12B6E
S11365F0DB6E982BE46E8F2BEC6E862BF56E7D2B69
S1136600FD6E732B066F6A2B0E6F612B176F582B61
S1136610206F4E2B286F452B306F3C2B396F332B5B
S1136620416F292B4A6F202B526F172B5B6F0D2B59
S1136630636F042B6C6FFB2A746FF22A7D6FE82A58
S1136640856FDF2A8D6FD62A966FCC2A9E6FC32A58
S1136650A76FB92AAF6FB02AB76FA72AC06F9D2A58
S1136660C86F942AD06F8B2AD96F812AE16F782A58
S1136670EA6F6E2AF26F652AFA6F5C2A0270522A58
S11366800B70492A13703F2A1B70362A24702C2A57
S11366902C70232A34701A2A3C70102A4570072A59
S11366A04D70FD295570F4295D70EA296670E12961
S11366B06E70D7297670CE297E70C4298770BB2965
S11366C08F70B1299770A7299F709E29A77094296C
S11366D0AF708B29B8708129C0707829C8706E2971
S11366E0D0706529D8705B29E0705129E870482979
S11366F0F0703E29F970352901712B29097121297E
S11367001171182919710E29217104292971FB2885
S11367103171F1283971E7284171DE284971D42893
S11367205171CA285971C1286171B7286971AD289E
S11367307171A42879719A288171902889718628A9
S113674091717D2899717328A1716928A9716028B4
S1136750B1715628B9714C28C0714228C8713828C3
S1136760D0712F28D8712528E0711B28E8711128D1
S1136770F0710828F871FE27FF71F4270772EA27E1
S11367800F72E0271772D6271F72CD272772C327EF
S11367902E72B9273672AF273E72A52746729B2701
S11367A04E729127557288275D727E276572742711
S11367B06D726A27747260277C72562784724C2724
S11367C08B724227937238279B722E27A372242739
S11367D0AA721A27B2721127BA720727C172FD264C
S11367E0C972F326D072E926D872DF26E072D52664
S11367F0E772CB26EF72C126F772B726FE72AD267A
S11368000673A3260D73992615738F261D7385268B
S113681024737B262C737126337366263B735C26A4
S1136820427352264A73482651733E2659733426BE
S113683060732A26687320266F73162677730C26D6
S11368407E7302268673F8258D73ED259573E325F3
S11368509C73D925A373CF25AB73C525B273BB2510
S1136860BA73B125C173A625C8739C25D07392252C
S1136870D7738825DF737E25E6737425ED73692548
S1136880F5735F25FC73552503744B250B74412563
S11368901274362519742C25207422252874182581
S11368A02F740D25367403253E74F9244574EF24A2
S11368B04C74E4245374DA245B74D0246274C524C5
S11368C06974BB247074B1247774A7247F749C24E6
S11368D0867492248D74882494747D249B74732408
S11368E0A2746924AA745E24B1745424B8744A242A
S11368F0BF743F24C6743524CD742B24D47420244F
S1136900DB741624E2740B24EA740124F174F72373
S1136910F874EC23FF74E2230675D7230D75CD2399
S11369201475C3231B75B8232275AE232975A323BD
S11369303075992337758E233E75842345757A23E4
S11369404C756F23537565235A755A23617550230B
S1136950677545236E753B23757530237C75262337
S113696083751B238A751123917506239875FC2260
S11369709F75F122A575E722AC75DC22B375D2228E
S1136980BA75C722C175BC22C875B222CE75A722BA
S1136990D5759D22DC759222E3758822EA757D22E5
S11369A0F0757222F7756822FE755D220576532212
S11369B00B76482212763D2219763322207628223D
S11369C026761E222D761322347608223A76FE216C
S11369D04176F3214876E8214E76DE215576D3219F
S11369E05C76C8216276BE216976B3216F76A821D0
S11369F076769E217D769321837688218A767D2101
S1136A0090767321977668219D765D21A476532133
S1136A10AB764821B1763D21B8763221BE76282165
S1136A20C5761D21CB761221D2760721D876FD209A
S1136A30DF76F220E576E720EB76DC20F276D120D3
S1136A40F876C720FF76BC200577B1200C77A62006
S1136A5012779B20187791201F77862025777B203B
S1136A602C7770203277652038775B203F77502071
S1136A70457745204B773A2052772F2058772420AA
S1136A805E77192065770F206B7704207177F91FE3
S1136A907777EE1F7E77E31F8477D81F8A77CD1F21
S1136AA09077C21F9777B71F9D77AC1FA377A21F5C
S1136AB0A977971FB0778C1FB677811FBC77761F95
S1136AC0C2776B1FC877601FCE77551FD5774A1FD3
S1136AD0DB773F1FE177341FE777291FED771E1F10
S1136AE0F377131FF977081FFF77FD1E0578F21E51
S1136AF00B78E71E1278DC1E1878D11E1E78C61E8D
S1136B002478BB1E2A78B01E3078A51E36789A1ECB
S1136B103C788F1E4278841E4878791E4E786E1E0B
S1136B205478631E5A78581E60784D1E6678421E4B
S1136B306B78361E71782B1E7778201E7D78151E93
S1136B4083780A1E8978FF1D8F78F41D9578E91DD6
S1136B509B78DE1DA178D31DA678C71DAC78BC1D1B
S1136B60B278B11DB878A61DBE789B1DC378901D60
S1136B70C978851DCF78791DD5786E1DDB78631DA6
S1136B80E078581DE6784D1DEC78421DF278361DEC
S1136B90F7782B1DFD78201D0379151D09790A1D31
S1136BA00E79FF1C1479F31C1A79E81C1F79DD1C7B
S1136BB02579D21C2B79C61C3079BB1C3679B01CC4
S1136BC03B79A51C4179991C47798E1C4C79831C0F
S1136BD05279781C58796C1C5D79611C6379561C58
S1136BE068794B1C6E793F1C7379341C7979291CA4
S1136BF07E791E1C8479121C8979071C8F79FC1BF1
S1136C009479F01B9A79E51B9F79DA1BA579CE1B41
S1136C10AA79C31BB079B81BB579AC1BBB79A11B8E
S1136C20C079961BC5798A1BCB797F1BD079741BDD
S1136C30D679681BDB795D1BE079521BE679461B2C
S1136C40EB793B1BF079301BF679241BFB79191B7C
S1136C50007A0D1B067A021B0B7AF71A107AEB1ACC
S1136C60167AE01A1B7AD41A207AC91A257ABE1A1F
S1136C702B7AB21A307AA71A357A9B1A3A7A901A72
S1136C803F7A841A457A791A4A7A6E1A4F7A621AC6
S1136C90547A571A597A4B1A5F7A401A647A341A1A
S1136CA0697A291A6E7A1D1A737A121A787A061A70
S1136CB07D7AFB19827AEF19887AE4198D7AD819CA
S1136CC0927ACD19977AC1199C7AB619A17AAA1920
S1136CD0A67A9F19AB7A9319B07A8819B57A7C1978
S1136CE0BA7A7119BF7A6519C47A5A19C97A4E19D0
S1136CF0CE7A4319D37A3719D87A2C19DD7A201928
S1136D00E27A1419E67A0919EB7AFD18F07AF21886
S1136D10F57AE618FA7ADB18FF7ACF18047BC318E1
S1136D20097BB8180E7BAC18127BA118177B951839
S1136D301C7B8918217B7E18267B72182A7B671896
S1136D402F7B5B18347B4F18397B44183E7B3818F3
S1136D50427B2D18477B21184C7B1518507B0A1851
S1136D60557BFE175A7BF2175F7BE717637BDB17B4
S1136D70687BCF176D7BC417717BB817767BAC1714
S1136D807B7BA1177F7B9517847B8917887B7E1774
S1136D908D7B7217927B6617967B5B179B7B4F17D5
S1136DA09F7B4317A47B3717A97B2C17AD7B201738
S1136DB0B27B1417B67B0917BB7BFD16BF7BF1169C
S1136DC0C47BE516C87BDA16CD7BCE16D17BC21602
S1136DD0D67BB616DA7BAB16DE7B9F16E37B931667
S1136DE0E77B8716EC7B7C16F07B7016F57B6416CC
S1136DF0F97B5816FD7B4C16027C4116067C351631
S1136E000A7C29160F7C1D16137C1216177C061695
S1136E101C7CFA15207CEE15247CE215297CD71500
S1136E202D7CCB15317CBF15367CB3153A7CA71568
S1136E303E7C9B15427C9015467C84154B7C7815D2
S1136E404F7C6C15537C6015577C54155B7C49153D
S1136E50607C3D15647C3115687C25156C7C1915A6
S1136E60707C0D15747C0115797CF6147D7CEA1414
S1136E70817CDE14857CD214897CC6148D7CBA1482
S1136E80917CAE14957CA214997C96149D7C8B14F1
S1136E90A17C7F14A57C7314A97C6714AD7C5B145E
S1136EA0B17C4F14B57C4314B97C3714BD7C2B14CE
S1136EB0C17C1F14C57C1314C97C0714CD7CFB133F
S1136EC0D17CF013D57CE413D97CD813DD7CCC13AE
S1136ED0E07CC013E47CB413E87CA813EC7C9C1322
S1136EE0F07C9013F47C8413F87C7813FB7C6C1393
S1136EF0FF7C6013037D5413077D48130B7D3C1303
S1136F000E7D3013127D2413167D18131A7D0C1375
S1136F101D7D0013217DF412257DE812287DDC12ED
S1136F202C7DD012307DC412347DB812377DAC1262
S1136F303B7DA0123F7D9412427D8812467D7C12D7
S1136F40497D70124D7D6412517D5812547D4C124E
S1136F50587D40125B7D34125F7D2812637D1C12C4
S1136F60667D10126A7D04126D7DF711717DEB113F
S1136F70747DDF11787DD3117B7DC7117F7DBB11BB
S1136F80827DAF11867DA311897D97118D7D8B1133
S1136F90907D7F11937D7311977D67119A7D5A11AE
