:020000040000FA
:10000000E0010020C50400001104000011040000FC
:10001000110400001104000011040000110400008C
:10002000110400001104000011040000110400007C
:10003000110400001104000011040000110400006C
:020000040000FA
:1000400080F3088880F309888F460000010210B50C
:100050000848094B02885140018008210288140495
:1000600002D552005A4000E052000280491EF5D1EC
:1000700010BD00001C0000202110000010B5044637
:10008000000EFFF7E3FF2002000EFFF7DFFF200462
:10009000000EFFF7DBFFE0B2FFF7D8FF10BD000056
:1000A0000E4B10B50E4A191F0C782406FCD570248F
:1000B0000C7003E01478521C1C705B1C0446401E3C
:1000C000C0B2002CF6D1087880221043087008785E
:1000D0000006FCD508783121084010BD040002401C
:1000E000200100200549064A491E00200B781354C0
:1000F000491C401C8028F9D370470000A100000073
:1001000000FFFF1F034A10600620D07051600249B3
:10011000082008472001002001FFFF1FFEB51746F9
:1001200004460D463E2A2BD2A00729D160070DD5E3
:100130000020C0430090286801900D1DE008C00019
:10014000694600F079F900281AD1241D7E0876004E
:1001500009D02946204600F06FF9002810D1083553
:100160000834B61EF5D1F8070CD02868009000209E
:10017000C04301906946204600F05EF9002801D096
:100180000120FEBD0020FEBD10B500F01BF8064C9E
:10019000E07000F017F8A07000F014F8607000F044
:1001A00011F8207010BD00000000002010B500F014
:1001B00009F8034C607000F005F8207010BD0000D5
:1001C00008000020024801798906FCD5C0797047F3
:1001D00000A0064000B5074A002010701A20507099
:1001E0000C20D07001E0FFF7EDFF10798006FAD403
:0801F00000BD000000A0064064
:020000040000FA
:10040000FFFFFFFFFFFFFFFFFFFFFFFFFEFFFFFFFD
:020000040000FA
:1004100002490148C860FEE70400FA0500ED00E06B
:10042000034908600920C8700249042008470000F9
:100430002001002001FFFF1F054A10600720D07037
:10044000086850604868906002490C200847000026
:100450002001002001FFFF1F70B515460C4606461F
:1004600008E002CC3046FFF74DFE002801D0012005
:1004700070BD361D6D1E681CF3D170BD10B500280F
:1004800003D0032000F016F810BDFC20FAE710B5E9
:100490000446FFF7F3FF002C06D0D12000F00AF845
:1004A000932000F007F810BDCF2000F003F8632080
:1004B000F7E7000002490A795206FCD5C871704777
:1004C00000A00640F8B5002005460090B34805603E
:1004D0000120B2494004C0394860B148027806237F
:1004E0001A4302704570C2789F231A40C270C278C6
:1004F000A0231A43C270012212044A60A94A802133
:100500001170057145718179C906FCD5817909079A
:10051000890FFBD10121A44889064160416B072264
:10052000920211434163816B0021C9438163C26B15
:1005300001210A43C2639D4C9D482561E16000781A
:1005400048029C4948608860FFF744FE9B4E9A48E9
:100550007061052030619A4F3069C00312D5B561D2
:100560002069401C2061C006C00E102802D1002066
:10057000FFF784FF2069642804D901200003806804
:10058000401C43D138798006E6D5FFF71BFEFC28D6
:1005900001D0FFF73DFFFFF7A5FDE068401CE060DC
:1005A00031E00020854920610A69D20305D5009A0F
:1005B000002A02D18861012020618348814D058095
:1005C000FFF700FE522874D006DC45284AD049289F
:1005D0001DD05128D5D104E0572859D0FC28D0D1BE
:1005E00011E05120FFF732FDFFF7E0FD6F480830C2
:1005F000018875480088814201D0012089E00020EF
:10060000FFF745FFC5E70020FFF738FFB4E0012002
:1006100000904920FFF71AFDC820FFF717FDC820FA
:10062000FFF748FF604D686A0004000EFFF70EFDFB
:10063000686A0004000EFFF73DFF686AC0B2FFF76A
:1006400005FD686AC0B2FFF735FF604E0025705D9A
:10065000FFF7FCFC705DFFF72DFF6D1CEDB2202D48
:10066000F5D381E0FFF790FD4520FFF7EFFC4F4DFC
:100670002868FFF703FDFFF799FD28460830018839
:10068000514800888142B8D12868FFF7C9FE40E090
:10069000FFF77AFDFFF796FD60605720FFF7D6FC65
:1006A000424E3068FFF7EAFC2079FFF7CFFC0025C7
:1006B00008E031E0FFF786FD45494855FFF7C6FCE5
:1006C0006D1CEDB260688542F4D380086060FFF76E
:1006D0006DFD3648083001883B48008881428CD146
:1006E00030683B496268FFF7B7FE002885D1384B78
:1006F000626835680AE081006E5859588E4203D00E
:100700000120FFF7C4FE03E0401CC0B29042F2D3C8
:100710000020FFF7BCFE2FE0FFF736FDFFF752FD8C
:100720006060FFF743FD5220FFF790FC1F4E3068DA
:10073000FFF7A4FC2079FFF789FC304608300188D8
:100740002148028891429ED10580002509E0306849
:10075000405DFFF77BFC3068405DFFF7ABFE6D1C32
:10076000EDB260688542F2D3174D2888000AFFF782
:10077000A1FE2878FFF79EFEE068012800D910E767
:100780000E4900200861F8700120124900038860BA
:1007900003C8FFF755FC0020F8BD000000810440AD
:1007A0000040064000500640008004400000002049
:1007B00000F00740009004400053070000E000E014
:1007C00000A00640FFFF00001C000020D80700002A
:1007D0002000002000ED00E00000000100001000FB
:1007E0000001FFFF000010000000000000000400F6
:0807F000000000804B4C3200B8
:020000041FFFDC
:10FF000000000000000000000000000000000000F1
:10FF100000000000000000000000000000000000E1
:10FF200000000000000000000000000000000000D1
:10FF300000000000000000000000000000000000C1
:10FF400000000000000000000000000000000000B1
:10FF500000000000000000000000000000000000A1
:10FF60000000000000000000000000000000000091
:10FF70000000000000000000000000000000000081
:10FF80000000000000000000000000000000000071
:10FF90000000000000000000000000000000000061
:04FFA000000000005D
:0400000500000000F7
:00000001FF
