:020000040000FA
:10000000E00100207D0500004100000041000000EB
:1000100041000000410000004100000041000000DC
:1000200041000000410000004100000041000000CC
:1000300041000000410000004100000041000000BC
:020000040000FA
:1000400002490148C860FEE70400FA0500ED00E03F
:1000500010B5044908600920C870042000F008FAAF
:1000600010BD0000200100200649074A491E00205B
:100070000B781354491C401C8028F9D30349932062
:10008000087070477104000000FFFF1F000002406D
:1000900010B5044A10600620D0700820516000F0AE
:1000A000E7F910BD2001002070B515460C46064644
:1000B00008E002CC3046FFF7EBFF002801D001201A
:1000C00070BD361D6D1E681CF3D170BDFEB51746A0
:1000D00004460D463E2A2BD2A00729D160070DD534
:1000E0000020C0430090286801900D1DE008C0006A
:1000F000694600F0FDF900281AD1241D7E0876001B
:1001000009D02946204600F0F3F9002810D108351F
:100110000834B61EF5D1F8070CD0286800900020EE
:10012000C04301906946204600F0E2F9002801D062
:100130000120FEBD0020FEBD02490A795206FCD511
:10014000C871704700B006400000000100001000B8
:100150000000FFFF0000100000000000000002008F
:08016000000000804B45300057
:020000040000FA
:10040000FFFFFFFFFFFFFFFFFFFFFFFFFEFFFFFFFD
:020000040000FA
:1004100080F3088880F309888F460000010210B538
:100420000848094B028851400180082102881404C1
:1004300002D552005A4000E052000280491EF5D118
:1004400010BD00001C0000202110000010B5044663
:10045000000EFFF7E3FF2002000EFFF7DFFF20048E
:10046000000EFFF7DBFFE0B2FFF7D8FF10BD000082
:10047000F0B51C49CA6801231B041A43CA601A4913
:100480008A791206FCD530228A71184A0026012783
:10049000957814785378042802D0082808D01AE0F8
:1004A0008E700A208872CD728F70CC728B7212E0BF
:1004B0008E7006208872CD728F70CC728B72022083
:1004C0008870507988721079C87203208870D0794A
:1004D00088729079C87280208871887930210840AC
:1004E000F0BD0000003000F00000024020010020BC
:1004F000054A10600720D070086850604868906016
:1005000002490C20084700002001002001FFFF1FC6
:1005100010B500F019F8064CE07000F015F8A07066
:1005200000F012F8607000F00FF8207010BD0000AD
:100530000000002010B5002803D00320FFF7FCFDC9
:1005400010BDFC20FAE70000024801798906FCD5BD
:10055000C079704700B0064000B5074A002010700F
:100560000B2050700C20D07001E0FFF7EDFF1079E8
:100570008006FAD400BD000000B00640F8B50020A7
:1005800000906F482022027000254570FF21017104
:1005900041718171C17142706A4854218170012199
:1005A000C17002795206FCD56748C26801235B0519
:1005B0001A43C260654C0121E560A1600068FFF745
:1005C000CBFF644E6248706105203061624F306934
:1005D000C00314D5B561E068401CE060C006C00EE1
:1005E000102802D10020FFF7A5FF7D20E168C000A0
:1005F000814204D9012000038068401C44D138792D
:100600008006E4D5FFF7A0FFFC2801D0FFF718FD16
:10061000FFF72AFDA068401CA0601FE04D48E56080
:100620000169C90305D50099002902D1856101201E
:10063000E060FFF789FF522860D006DC452824D00F
:1006400049280DD051286AD104E0572824D0FC282D
:1006500065D103E00020FFF76DFFD7E7002035E00C
:10066000012000908820FFF767FD2420FFF764FD3C
:100670008620FFF761FD00263848805DFFF75CFDAE
:10068000761CF6B2202EF7D349E0FFF741FF2F4842
:100690000068FFF7DDFC19E0FFF73AFFFFF754FFB2
:1006A0000026606005E0FFF74FFF2D498855761C56
:1006B000F6B260688642F6D38208244E626028490A
:1006C0003068FFF7F1FC002803D00120FFF732FF6C
:1006D00025E03168002062688C460CE063468100AA
:1006E0005E581F4B59588E4203D00120FFF722FF5E
:1006F000B4E7401CC0B29042F0D3AFE7FFF708FF69
:10070000FFF722FF0026606006E010480068805D69
:10071000FFF712FD761CF6B260688642F5D3A0683A
:10072000012800D97AE70B480561FD7001200D49C9
:100730000003886003C8FFF76BFE0020F8BD0000CF
:1007400000200540004006400080044000000020DA
:100750003333030000E000E000B006404801000031
:080760002000002000ED00E084
:020000041FFFDC
:10FF000000000000000000000000000000000000F1
:10FF100000000000000000000000000000000000E1
:10FF200000000000000000000000000000000000D1
:10FF300000000000000000000000000000000000C1
:10FF400000000000000000000000000000000000B1
:10FF500000000000000000000000000000000000A1
:10FF60000000000000000000000000000000000091
:10FF70000000000000000000000000000000000081
:10FF80000000000000000000000000000000000071
:10FF90000000000000000000000000000000000061
:04FFA000000000005D
:0400000500000000F7
:00000001FF
